{
  "abi": [
    {
      "inputs": [
        {
          "internalType": "contract ITradingEngine",
          "name": "_engine",
          "type": "address"
        },
        {
          "internalType": "contract IWETH",
          "name": "_weth",
          "type": "address"
        },
        {
          "internalType": "uint64",
          "name": "_minExecutionFee",
          "type": "uint64"
        }
      ],
      "stateMutability": "nonpayable",
      "type": "constructor"
    },
    {
      "inputs": [],
      "name": "InvalidCollateralAmount",
      "type": "error"
    },
    {
      "anonymous": false,
      "inputs": [
        {
          "indexed": true,
          "internalType": "address",
          "name": "account",
          "type": "address"
        }
      ],
      "name": "CloseMarketOrderPlaced",
      "type": "event"
    },
    {
      "anonymous": false,
      "inputs": [
        {
          "indexed": true,
          "internalType": "address",
          "name": "account",
          "type": "address"
        }
      ],
      "name": "OpenMarketOrderPlaced",
      "type": "event"
    },
    {
      "anonymous": false,
      "inputs": [
        {
          "indexed": true,
          "internalType": "address",
          "name": "account",
          "type": "address"
        },
        {
          "indexed": true,
          "internalType": "uint256",
          "name": "orderId",
          "type": "uint256"
        }
      ],
      "name": "OrderCancelled",
      "type": "event"
    },
    {
      "anonymous": false,
      "inputs": [
        {
          "indexed": true,
          "internalType": "address",
          "name": "account",
          "type": "address"
        },
        {
          "indexed": true,
          "internalType": "uint256",
          "name": "orderId",
          "type": "uint256"
        },
        {
          "indexed": true,
          "internalType": "address",
          "name": "executor",
          "type": "address"
        }
      ],
      "name": "OrderExecuted",
      "type": "event"
    },
    {
      "anonymous": false,
      "inputs": [
        {
          "indexed": true,
          "internalType": "bytes32",
          "name": "marketId",
          "type": "bytes32"
        },
        {
          "indexed": true,
          "internalType": "enum OrderType",
          "name": "orderType",
          "type": "uint8"
        },
        {
          "indexed": true,
          "internalType": "address",
          "name": "account",
          "type": "address"
        },
        {
          "indexed": false,
          "internalType": "uint256",
          "name": "orderId",
          "type": "uint256"
        }
      ],
      "name": "OrderPlaced",
      "type": "event"
    },
    {
      "inputs": [
        {
          "internalType": "uint256",
          "name": "orderId",
          "type": "uint256"
        }
      ],
      "name": "cancelOrder",
      "outputs": [],
      "stateMutability": "nonpayable",
      "type": "function"
    },
    {
      "inputs": [
        {
          "internalType": "enum OrderType",
          "name": "orderType",
          "type": "uint8"
        },
        {
          "internalType": "bool",
          "name": "isLong",
          "type": "bool"
        },
        {
          "internalType": "bytes32",
          "name": "marketId",
          "type": "bytes32"
        },
        {
          "internalType": "address",
          "name": "collateralToken",
          "type": "address"
        },
        {
          "internalType": "uint256",
          "name": "sizeDelta",
          "type": "uint256"
        },
        {
          "components": [
            {
              "internalType": "uint96",
              "name": "triggerPrice",
              "type": "uint96"
            },
            {
              "internalType": "uint96",
              "name": "tpPrice",
              "type": "uint96"
            },
            {
              "internalType": "uint96",
              "name": "slPrice",
              "type": "uint96"
            },
            {
              "internalType": "uint256",
              "name": "tpDelta",
              "type": "uint256"
            },
            {
              "internalType": "uint256",
              "name": "slDelta",
              "type": "uint256"
            }
          ],
          "internalType": "struct OrderExtra",
          "name": "extra",
          "type": "tuple"
        }
      ],
      "name": "closeOrder",
      "outputs": [],
      "stateMutability": "payable",
      "type": "function"
    },
    {
      "inputs": [],
      "name": "engine",
      "outputs": [
        {
          "internalType": "contract ITradingEngine",
          "name": "",
          "type": "address"
        }
      ],
      "stateMutability": "view",
      "type": "function"
    },
    {
      "inputs": [
        {
          "internalType": "uint256",
          "name": "orderId",
          "type": "uint256"
        },
        {
          "internalType": "address payable",
          "name": "feeTo",
          "type": "address"
        }
      ],
      "name": "executeOrder",
      "outputs": [],
      "stateMutability": "nonpayable",
      "type": "function"
    },
    {
      "inputs": [],
      "name": "feeManager",
      "outputs": [
        {
          "internalType": "contract IFeeManager",
          "name": "",
          "type": "address"
        }
      ],
      "stateMutability": "view",
      "type": "function"
    },
    {
      "inputs": [
        {
          "internalType": "uint256",
          "name": "orderId",
          "type": "uint256"
        }
      ],
      "name": "getOrder",
      "outputs": [
        {
          "components": [
            {
              "internalType": "bytes32",
              "name": "marketId",
              "type": "bytes32"
            },
            {
              "internalType": "uint256",
              "name": "collateralAmount",
              "type": "uint256"
            },
            {
              "internalType": "uint256",
              "name": "sizeDelta",
              "type": "uint256"
            },
            {
              "internalType": "uint64",
              "name": "submissionBlock",
              "type": "uint64"
            },
            {
              "internalType": "uint64",
              "name": "submissionTimestamp",
              "type": "uint64"
            },
            {
              "internalType": "uint64",
              "name": "executionFee",
              "type": "uint64"
            },
            {
              "internalType": "uint64",
              "name": "minExecutionFee",
              "type": "uint64"
            },
            {
              "internalType": "address",
              "name": "account",
              "type": "address"
            },
            {
              "internalType": "address",
              "name": "collateralToken",
              "type": "address"
            },
            {
              "internalType": "enum OrderType",
              "name": "orderType",
              "type": "uint8"
            },
            {
              "internalType": "bool",
              "name": "isLong",
              "type": "bool"
            },
            {
              "internalType": "bool",
              "name": "open",
              "type": "bool"
            },
            {
              "components": [
                {
                  "internalType": "uint96",
                  "name": "triggerPrice",
                  "type": "uint96"
                },
                {
                  "internalType": "uint96",
                  "name": "tpPrice",
                  "type": "uint96"
                },
                {
                  "internalType": "uint96",
                  "name": "slPrice",
                  "type": "uint96"
                },
                {
                  "internalType": "uint256",
                  "name": "tpDelta",
                  "type": "uint256"
                },
                {
                  "internalType": "uint256",
                  "name": "slDelta",
                  "type": "uint256"
                }
              ],
              "internalType": "struct OrderExtra",
              "name": "extra",
              "type": "tuple"
            }
          ],
          "internalType": "struct Order",
          "name": "",
          "type": "tuple"
        }
      ],
      "stateMutability": "view",
      "type": "function"
    },
    {
      "inputs": [],
      "name": "gov",
      "outputs": [
        {
          "internalType": "address",
          "name": "",
          "type": "address"
        }
      ],
      "stateMutability": "view",
      "type": "function"
    },
    {
      "inputs": [],
      "name": "lastOrderId",
      "outputs": [
        {
          "internalType": "uint256",
          "name": "",
          "type": "uint256"
        }
      ],
      "stateMutability": "view",
      "type": "function"
    },
    {
      "inputs": [],
      "name": "minExecutionFee",
      "outputs": [
        {
          "internalType": "uint64",
          "name": "",
          "type": "uint64"
        }
      ],
      "stateMutability": "view",
      "type": "function"
    },
    {
      "inputs": [],
      "name": "nextOrderId",
      "outputs": [
        {
          "internalType": "uint256",
          "name": "",
          "type": "uint256"
        }
      ],
      "stateMutability": "view",
      "type": "function"
    },
    {
      "inputs": [
        {
          "internalType": "uint256",
          "name": "",
          "type": "uint256"
        }
      ],
      "name": "orders",
      "outputs": [
        {
          "internalType": "bytes32",
          "name": "marketId",
          "type": "bytes32"
        },
        {
          "internalType": "uint256",
          "name": "collateralAmount",
          "type": "uint256"
        },
        {
          "internalType": "uint256",
          "name": "sizeDelta",
          "type": "uint256"
        },
        {
          "internalType": "uint64",
          "name": "submissionBlock",
          "type": "uint64"
        },
        {
          "internalType": "uint64",
          "name": "submissionTimestamp",
          "type": "uint64"
        },
        {
          "internalType": "uint64",
          "name": "executionFee",
          "type": "uint64"
        },
        {
          "internalType": "uint64",
          "name": "minExecutionFee",
          "type": "uint64"
        },
        {
          "internalType": "address",
          "name": "account",
          "type": "address"
        },
        {
          "internalType": "address",
          "name": "collateralToken",
          "type": "address"
        },
        {
          "internalType": "enum OrderType",
          "name": "orderType",
          "type": "uint8"
        },
        {
          "internalType": "bool",
          "name": "isLong",
          "type": "bool"
        },
        {
          "internalType": "bool",
          "name": "open",
          "type": "bool"
        },
        {
          "components": [
            {
              "internalType": "uint96",
              "name": "triggerPrice",
              "type": "uint96"
            },
            {
              "internalType": "uint96",
              "name": "tpPrice",
              "type": "uint96"
            },
            {
              "internalType": "uint96",
              "name": "slPrice",
              "type": "uint96"
            },
            {
              "internalType": "uint256",
              "name": "tpDelta",
              "type": "uint256"
            },
            {
              "internalType": "uint256",
              "name": "slDelta",
              "type": "uint256"
            }
          ],
          "internalType": "struct OrderExtra",
          "name": "extra",
          "type": "tuple"
        }
      ],
      "stateMutability": "view",
      "type": "function"
    },
    {
      "inputs": [
        {
          "internalType": "enum OrderType",
          "name": "orderType",
          "type": "uint8"
        },
        {
          "internalType": "bool",
          "name": "isLong",
          "type": "bool"
        },
        {
          "internalType": "bytes32",
          "name": "marketId",
          "type": "bytes32"
        },
        {
          "internalType": "address",
          "name": "collateralToken",
          "type": "address"
        },
        {
          "internalType": "uint256",
          "name": "collateralAmount",
          "type": "uint256"
        },
        {
          "internalType": "uint256",
          "name": "sizeDelta",
          "type": "uint256"
        },
        {
          "internalType": "bytes32",
          "name": "",
          "type": "bytes32"
        },
        {
          "components": [
            {
              "internalType": "uint96",
              "name": "triggerPrice",
              "type": "uint96"
            },
            {
              "internalType": "uint96",
              "name": "tpPrice",
              "type": "uint96"
            },
            {
              "internalType": "uint96",
              "name": "slPrice",
              "type": "uint96"
            },
            {
              "internalType": "uint256",
              "name": "tpDelta",
              "type": "uint256"
            },
            {
              "internalType": "uint256",
              "name": "slDelta",
              "type": "uint256"
            }
          ],
          "internalType": "struct OrderExtra",
          "name": "extra",
          "type": "tuple"
        }
      ],
      "name": "placeOrder",
      "outputs": [],
      "stateMutability": "payable",
      "type": "function"
    },
    {
      "inputs": [
        {
          "internalType": "contract IFeeManager",
          "name": "_feeManager",
          "type": "address"
        }
      ],
      "name": "setFeeManager",
      "outputs": [],
      "stateMutability": "nonpayable",
      "type": "function"
    },
    {
      "inputs": [],
      "name": "weth",
      "outputs": [
        {
          "internalType": "contract IWETH",
          "name": "",
          "type": "address"
        }
      ],
      "stateMutability": "view",
      "type": "function"
    }
  ],
  "bytecode": {
    "object": "0x608060405260016005553480156200001657600080fd5b5060405162003fcb38038062003fcb8339810160408190526200003991620000b8565b6001600081905560048054336001600160a01b031991821617909155815481166001600160a01b0395861617909155600380549091169290931691909117909155600680546001600160401b0319166001600160401b0390921691909117905562000117565b6001600160a01b0381168114620000b557600080fd5b50565b600080600060608486031215620000ce57600080fd5b8351620000db816200009f565b6020850151909350620000ee816200009f565b60408501519092506001600160401b03811681146200010c57600080fd5b809150509250925092565b613ea480620001276000396000f3fe6080604052600436106100dd5760003560e01c80637e498c811161007f578063bd90171d11610059578063bd90171d1461033b578063c9d4623f1461034e578063d09ef2411461036e578063d0fb02031461039b57600080fd5b80637e498c81146101f257806391de3b7c14610212578063a85c38ef1461022557600080fd5b8063472d35b9116100bb578063472d35b914610163578063514fcac7146101855780635662ecc7146101a557806363ae2103146101ba57600080fd5b806312d43a51146100e25780632a58b3301461011f5780633fc8cef314610143575b600080fd5b3480156100ee57600080fd5b50600454610102906001600160a01b031681565b6040516001600160a01b0390911681526020015b60405180910390f35b34801561012b57600080fd5b5061013560055481565b604051908152602001610116565b34801561014f57600080fd5b50600354610102906001600160a01b031681565b34801561016f57600080fd5b5061018361017e36600461377a565b6103bb565b005b34801561019157600080fd5b506101836101a0366004613797565b610430565b3480156101b157600080fd5b50610135610762565b3480156101c657600080fd5b506006546101da906001600160401b031681565b6040516001600160401b039091168152602001610116565b3480156101fe57600080fd5b5061018361020d3660046137b0565b610778565b610183610220366004613815565b610b17565b34801561023157600080fd5b50610322610240366004613797565b600760208181526000928352604092839020805460018201546002830154600384015460048501546005860154895160a081018b5260068801546001600160601b038082168352600160601b90910481169982019990995298870154909716988801989098526008850154606088015260099094015460808701529195909491936001600160401b0380851694600160401b8104821694600160801b8204831694600160c01b909204909216926001600160a01b03918216929181169160ff600160a01b8304811692600160a81b8104821692600160b01b909104909116908d565b6040516101169d9c9b9a9998979695949392919061390c565b6101836103493660046139a1565b610bca565b34801561035a57600080fd5b50600154610102906001600160a01b031681565b34801561037a57600080fd5b5061038e610389366004613797565b610c1c565b6040516101169190613a0d565b3480156103a757600080fd5b50600254610102906001600160a01b031681565b6004546001600160a01b0316331461040e5760405162461bcd60e51b815260206004820152601160248201527022bc31b430b733b29d1037b7363ca3b7bb60791b60448201526064015b60405180910390fd5b600280546001600160a01b0319166001600160a01b0392909216919091179055565b610438610e01565b600060076000838152602001908152602001600020600201541160405180604001604052806018815260200177115e18da185b99d94e93dc99195c881b9bdd08199bdd5b9960421b815250906104a15760405162461bcd60e51b81526004016104059190613b37565b50600081815260076020908152604091829020600401548251808401909352601883527f45786368616e67653a4e6f74206f72646572206f776e65720000000000000000918301919091526001600160a01b031633146105145760405162461bcd60e51b81526004016104059190613b37565b50600081815260076020908152604080832081516101a081018352815481526001820154938101939093526002810154918301919091526003808201546001600160401b038082166060860152600160401b820481166080860152600160801b8204811660a0860152600160c01b9091041660c084015260048201546001600160a01b0390811660e08501526005830154908116610100850152610120840191600160a01b90910460ff16908111156105cf576105cf613895565b60038111156105e0576105e0613895565b8152600582015460ff600160a81b820481161515602080850191909152600160b01b909204161515604080840191909152805160a08101825260068501546001600160601b038082168352600160601b909104811693820193909352600785015490921690820152600883015460608281019190915260099093015460808201529101526101008101516101608201519192509015610694576020820151610694906001600160a01b038316903390610e5a565b6106ab338360a001516001600160401b0316610eb8565b60008381526007602081905260408083208381556001810184905560028101849055600381018490556004810180546001600160a01b03191690556005810180546001600160b81b03191690556006810180546001600160c01b031916905591820180546001600160601b031916905560088201839055600990910182905551849133917fdd003742fb214507783ce004fe55f5ac14f89c6de4a7cd7487e47eb091c622659190a3505061075f6001600055565b50565b600060016005546107739190613b80565b905090565b610780610e01565b600082815260076020908152604080832081516101a081018352815481526001820154938101939093526002810154918301919091526003808201546001600160401b038082166060860152600160401b820481166080860152600160801b8204811660a0860152600160c01b9091041660c084015260048201546001600160a01b0390811660e08501526005830154908116610100850152610120840191600160a01b90910460ff169081111561083a5761083a613895565b600381111561084b5761084b613895565b8152600582015460ff600160a81b820481161515602080850191909152600160b01b909204161515604080840191909152805160a08101825260068501546001600160601b038082168352600160601b909104811682850152600786015416818301526008850154606082810191909152600990950154608082015293909201929092528281015181518083019092526018825277115e18da185b99d94e93dc99195c881b9bdd08199bdd5b9960421b928201929092529192506109225760405162461bcd60e51b81526004016104059190613b37565b5060015481516040516346056fb160e11b815260009283926001600160a01b0390911691638c0adf629161095c9160040190815260200190565b6040805180830381865afa158015610978573d6000803e3d6000fd5b505050506040513d601f19601f8201168201806040525081019061099c9190613b93565b6001548551604051635af2983160e11b81526004810191909152929450909250600091610a2691859185916001600160a01b03169063b5e5306290602401602060405180830381865afa1580156109f7573d6000803e3d6000fd5b505050506040513d601f19601f82011682018060405250810190610a1b9190613bc6565b876101400151610f81565b905060018461012001516003811115610a4157610a41613895565b03610a7357610a6e84610160015185610140015183876101800151600001516001600160601b03166110f6565b610afa565b60028461012001516003811115610a8c57610a8c613895565b03610ab957610a6e84610160015185610140015183876101800151600001516001600160601b031661111d565b60038461012001516003811115610ad257610ad2613895565b03610afa57610afa846101400151828661018001516020015187610180015160400151611139565b610b0586868361129e565b50505050610b136001600055565b5050565b610b1f610e01565b6003886003811115610b3357610b33613895565b03610b775760405162461bcd60e51b815260206004820152601460248201527354502f534c20666f7220636c6f7365206f6e6c7960601b6044820152606401610405565b6000886003811115610b8b57610b8b613895565b03610ba557610ba087878787876000876118c8565b610bb6565b610bb6888888888888600088611cde565b610bc06001600055565b5050505050505050565b610bd2610e01565b6000866003811115610be657610be6613895565b03610bfc57610bf7858585856121f0565b610c0a565b610c0a8686868686866122ac565b610c146001600055565b505050505050565b604080516101a081018252600080825260208083018290528284018290526060808401839052608080850184905260a080860185905260c0860185905260e0860185905261010086018590526101208601859052610140860185905261016086018590528651908101875284815292830184905294820183905281018290529283015261018081019190915260008281526007602090815260409182902082516101a081018452815481526001820154928101929092526002810154928201929092526003808301546001600160401b038082166060850152600160401b820481166080850152600160801b8204811660a0850152600160c01b9091041660c083015260048301546001600160a01b0390811660e08401526005840154908116610100840152919291610120840191600160a01b90910460ff1690811115610d6657610d66613895565b6003811115610d7757610d77613895565b8152600582015460ff600160a81b820481161515602080850191909152600160b01b909204161515604080840191909152805160a08101825260068501546001600160601b038082168352600160601b9091048116938201939093526007850154909216908201526008830154606082810191909152600990930154608082015291015292915050565b600260005403610e535760405162461bcd60e51b815260206004820152601f60248201527f5265656e7472616e637947756172643a207265656e7472616e742063616c6c006044820152606401610405565b6002600055565b610e6382612645565b5080600003610e7157505050565b73eeeeeeeeeeeeeeeeeeeeeeeeeeeeeeeeeeeeeeee6001600160a01b03841603610ea457610e9f8282610eb8565b505050565b610e9f6001600160a01b0384168383612666565b604080516000808252602082019092526001600160a01b038416908390604051610ee29190613be3565b60006040518083038185875af1925050503d8060008114610f1f576040519150601f19603f3d011682016040523d82523d6000602084013e610f24565b606091505b5050905080610e9f5760405162461bcd60e51b815260206004820152602360248201527f5472616e7366657248656c7065723a204554485f5452414e534645525f46414960448201526213115160ea1b6064820152608401610405565b60008080866002811115610f9757610f97613895565b03611015576040516303b6b4bb60e51b81526001600160a01b03858116600483015284151560248301528616906376d6976090604401602060405180830381865afa158015610fea573d6000803e3d6000fd5b505050506040513d601f19601f8201168201806040525081019061100e9190613bff565b905061109b565b600186600281111561102957611029613895565b0361109b576040516341976e0960e01b81526001600160a01b0385811660048301528616906341976e0990602401602060405180830381865afa158015611074573d6000803e3d6000fd5b505050506040513d601f19601f820116820180604052508101906110989190613bff565b90505b600081116110eb5760405162461bcd60e51b815260206004820152601c60248201527f54726164696e67456e67696e653a3a494e56414c49445f5052494345000000006044820152606401610405565b90505b949350505050565b831561110c576111078383836126c9565b611117565b611117838383612755565b50505050565b831561112e57611107838383612755565b6111178383836126c9565b6000826001600160601b0316118061115a57506000816001600160601b0316115b61119c5760405162461bcd60e51b8152602060048201526013602482015272496e76616c69642074702f736c20707269636560681b6044820152606401610405565b8315611220576000826001600160601b03161180156111c45750816001600160601b03168310155b806111d85750806001600160601b03168311155b6040518060400160405280601f8152602001600080516020613e4f8339815191528152509061121a5760405162461bcd60e51b81526004016104059190613b37565b50611117565b816001600160601b03168311158061125557506000816001600160601b03161180156112555750806001600160601b03168310155b6040518060400160405280601f8152602001600080516020613e4f833981519152815250906112975760405162461bcd60e51b81526004016104059190613b37565b5050505050565b600083815260076020908152604080832081516101a081018352815481526001820154938101939093526002810154918301919091526003808201546001600160401b038082166060860152600160401b820481166080860152600160801b8204811660a0860152600160c01b9091041660c084015260048201546001600160a01b0390811660e08501526005830154908116610100850152610120840191600160a01b90910460ff169081111561135857611358613895565b600381111561136957611369613895565b8152600582015460ff600160a81b820481161515602080850191909152600160b01b909204161515604080840191909152805160a08101825260068501546001600160601b038082168352600160601b90910481169382019390935260078501549092169082015260088301546060828101919091526009909301546080820152910152610160810151909150156117115760015481516101008301516101608401516040808601519051634846a33160e01b815260048101949094526001600160a01b039283166024850152901515604484015260648301526000928392839290911690634846a33190608401606060405180830381865afa158015611474573d6000803e3d6000fd5b505050506040513d601f19601f820116820180604052508101906114989190613c18565b60025461010088015193965091945092506114c0916001600160a01b03908116911683610e5a565b6114ea838286602001516114d49190613b80565b6101008701516001600160a01b03169190610e5a565b60025484516101008601516040516367efefe560e01b815260048101929092526001600160a01b03908116602483015260448201849052909116906367efefe590606401600060405180830381600087803b15801561154857600080fd5b505af115801561155c573d6000803e3d6000fd5b50506001546040805160e0808201835289518252898301516020808401919091528284018990528a015160608301528901516001600160a01b0390811660808301526101008a0151811660a08301526101408a0151151560c083015291516302dbbefb60e01b81529190921693506302dbbefb92506115de9190600401613c4f565b600060405180830381600087803b1580156115f857600080fd5b505af115801561160c573d6000803e3d6000fd5b505050506000846101800151602001516001600160601b0316118061164357506000846101800151604001516001600160601b0316115b1561165157611651846127e1565b60008781526007602081905260408083208381556001810184905560028101849055600381018490556004810180546001600160a01b03191690556005810180546001600160b81b03191690556006810180546001600160c01b031916905591820180546001600160601b031916905560088201839055600990910182905560e0860151905133928a926001600160a01b0316917f9eac68a9deefde81f6465fe1b48c652f3d2556b0a49788531e1fab58340595f49190a45050506118b1565b6000816101800151602001516001600160601b0316118061174457506000816101800151604001516001600160601b0316115b1561175957611754818386612b9f565b6118b1565b6001546040805160a0810182528351815260e08401516001600160a01b039081166020830152610100850151811682840152848301516060830152610140850151151560808301529151633f7b158f60e01b81529190921691633f7b158f916117c59190600401613cad565b600060405180830381600087803b1580156117df57600080fd5b505af11580156117f3573d6000803e3d6000fd5b50505060008581526007602081905260408083208381556001810184905560028101849055600381018490556004810180546001600160a01b03191690556005810180546001600160b81b03191690556006810180546001600160c01b031916905591820180546001600160601b031916905560088201839055600990910182905560e0840151905133935087926001600160a01b03909216917f9eac68a9deefde81f6465fe1b48c652f3d2556b0a49788531e1fab58340595f491a45b611117838260c001516001600160401b0316610eb8565b60006118d48686613189565b9050848110156118f75760405163fbd85bc360e01b815260040160405180910390fd5b600073eeeeeeeeeeeeeeeeeeeeeeeeeeeeeeeeeeeeeeed196001600160a01b0388160161192f576119288634613b80565b9050611932565b50345b61193b83613324565b8110156040518060400160405280601a81526020017f45786368616e67653a4c6f7720657865637574696f6e20666565000000000000815250906119925760405162461bcd60e51b81526004016104059190613b37565b5060018054604051634846a33160e01b8152600481018b90526001600160a01b038a8116602483015260448201939093526064810188905260009283928392911690634846a33190608401606060405180830381865afa1580156119fa573d6000803e3d6000fd5b505050506040513d601f19601f82011682018060405250810190611a1e9190613c18565b925092509250848110611a735760405162461bcd60e51b815260206004820152601960248201527f496e76616c696420636f6c6c61746572616c20616d6f756e74000000000000006044820152606401610405565b600254611a8d906001600160a01b038c8116911683610e5a565b611aac83611a9b8388613b80565b6001600160a01b038d169190610e5a565b6002546040516367efefe560e01b8152600481018d90526001600160a01b038c8116602483015260448201849052909116906367efefe590606401600060405180830381600087803b158015611b0157600080fd5b505af1158015611b15573d6000803e3d6000fd5b50505050600160009054906101000a90046001600160a01b03166001600160a01b03166302dbbefb6040518060e001604052808e81526020018b81526020018581526020018c8152602001336001600160a01b031681526020018d6001600160a01b031681526020018f15158152506040518263ffffffff1660e01b8152600401611ba09190613c4f565b600060405180830381600087803b158015611bba57600080fd5b505af1158015611bce573d6000803e3d6000fd5b50506040513392507fe4add60290dafa1050e19c9c1b9b057cce0a15367cab616fb5842822752a285d9150600090a26000611c0f6040880160208901613d0c565b6001600160601b03161180611c3c57506000611c316060880160408901613d0c565b6001600160601b0316115b15611cd057604080516101a0810182528c8152602081018790529081018990526000606082018190526080820181905260a082018190526006546001600160401b031660c08301523360e08301526001600160a01b038c166101008301526101208201528c15156101408201526001610160820152611cd0906101808101611cc9368a90038a018a613d27565b90526127e1565b505050505050505050505050565b60008311611d1d5760405162461bcd60e51b815260206004820152600c60248201526b045786368616e67653a533e360a41b6044820152606401610405565b6001546040516349e4283560e01b8152600481018890526001600160a01b03878116602483015260448201869052909116906349e428359060640160006040518083038186803b158015611d7057600080fd5b505afa158015611d84573d6000803e3d6000fd5b50505050600073eeeeeeeeeeeeeeeeeeeeeeeeeeeeeeeeeeeeeeee6001600160a01b0316866001600160a01b031603611dc857611dc18534613b80565b9050611dcb565b50345b6000611dda6020840184613d0c565b6001600160601b031611611e305760405162461bcd60e51b815260206004820152601e60248201527f45786368616e67653a496e76616c6964207472696767657220707269636500006044820152606401610405565b611e3982613324565b8110156040518060400160405280601a81526020017f45786368616e67653a4c6f7720657865637574696f6e2066656500000000000081525090611e905760405162461bcd60e51b81526004016104059190613b37565b5084611e9c8787613189565b1015611ef65760405162461bcd60e51b815260206004820152602360248201527f45786368616e67653a20696e76616c696420636f6c6c61746572616c20616d6f6044820152621d5b9d60ea1b6064820152608401610405565b604080516101a081018252888152602081018790529081018590526001600160401b03438116606083015242811660808301526006541660a0820181905260c08201523360e082015260009061010081016001600160a01b03891673eeeeeeeeeeeeeeeeeeeeeeeeeeeeeeeeeeeeeeee14611f715788611f7e565b6003546001600160a01b03165b6001600160a01b031681526020018b6003811115611f9e57611f9e613895565b81528a1515602082015260016040820152606001611fc136869003860186613d27565b90526005805460008181526007602090815260409182902085518155908501516001820155908401516002820155606084015160038083018054608088015160a089015160c08a01516001600160401b03908116600160c01b026001600160c01b03928216600160801b02929092166001600160801b03938216600160401b026001600160801b031990951691909716179290921716939093179290921790915560e08501516004830180546001600160a01b039283166001600160a01b03199182161790915561010087015195840180549690921690861681178255610120870151969750939587959394909391926001600160a81b03199092161790600160a01b9084908111156120d6576120d6613895565b0217905550610140820151600580830180546101608601511515600160b01b0260ff60b01b19941515600160a81b029490941661ffff60a81b19909116179290921790915561018090920151805160068301805460208401516001600160601b03908116600160601b026001600160c01b0319909216938116939093171790556040820151600784018054919092166001600160601b031991909116179055606081015160088301556080015160099091015580546001919060009061219d908490613db7565b9091555050610120820151339060038111156121bb576121bb613895565b8a600080516020613e2f833981519152846040516121db91815260200190565b60405180910390a45050505050505050505050565b6040805160a0810182528481523360208201526001600160a01b03848116828401526060820184905286151560808301526001549251633f7b158f60e01b815291921690633f7b158f90612248908490600401613cad565b600060405180830381600087803b15801561226257600080fd5b505af1158015612276573d6000803e3d6000fd5b50506040513392507f1472aaf00b07c33854a68940abf70116755b2876b63b5452f18318e0a84044159150600090a25050505050565b60038660038111156122c0576122c0613895565b1461232a5760006122d46020830183613d0c565b6001600160601b03161161232a5760405162461bcd60e51b815260206004820152601e60248201527f45786368616e67653a496e76616c6964207472696767657220707269636500006044820152606401610405565b3461233482613324565b8110156123835760405162461bcd60e51b815260206004820152601a60248201527f45786368616e67653a206c6f7720657865637574696f6e4665650000000000006044820152606401610405565b604080516101a0810182528681526000602082018190529181018590526001600160401b03438116606083015242811660808301526006541660a0820181905260c08201523360e08201526001600160a01b03861661010082015261012081018960038111156123f5576123f5613895565b815288151560208201526000604082015260600161241836869003860186613d27565b90526005805460008181526007602090815260409182902085518155908501516001820155908401516002820155606084015160038083018054608088015160a089015160c08a01516001600160401b03908116600160c01b026001600160c01b03928216600160801b02929092166001600160801b03938216600160401b026001600160801b031990951691909716179290921716939093179290921790915560e08501516004830180546001600160a01b039283166001600160a01b03199182161790915561010087015195840180549690921690861681178255610120870151969750939587959394909391926001600160a81b03199092161790600160a01b90849081111561252d5761252d613895565b0217905550610140820151600580830180546101608601511515600160b01b0260ff60b01b19941515600160a81b029490941661ffff60a81b19909116179290921790915561018090920151805160068301805460208401516001600160601b03908116600160601b026001600160c01b0319909216938116939093171790556040820151600784018054919092166001600160601b03199190911617905560608101516008830155608001516009909101558054600191906000906125f4908490613db7565b90915550506101208201513390600381111561261257612612613895565b88600080516020613e2f8339815191528460405161263291815260200190565b60405180910390a4505050505050505050565b60008161265e5760405163d92e233d60e01b8152600481fd5b506001919050565b6040516001600160a01b038316602482015260448101829052610e9f90849063a9059cbb60e01b906064015b60408051601f198184030181529190526020810180516001600160e01b03166001600160e01b0319909316929092179091526133d5565b82156127125760408051808201909152601f8152600080516020613e4f8339815191526020820152818311156111175760405162461bcd60e51b81526004016104059190613b37565b60408051808201909152601f8152600080516020613e4f8339815191526020820152818310156111175760405162461bcd60e51b81526004016104059190613b37565b821561279e5760408051808201909152601f8152600080516020613e4f8339815191526020820152818310156111175760405162461bcd60e51b81526004016104059190613b37565b60408051808201909152601f8152600080516020613e4f8339815191526020820152818311156111175760405162461bcd60e51b81526004016104059190613b37565b61280381610140015182610180015160200151836101800151604001516134aa565b600554610180820151602001516000906001600160601b03161561283a57600654612837906001600160401b031682613dca565b90505b610180830151604001516001600160601b03161561286b57600654612868906001600160401b031682613dca565b90505b604080516101a0810182528451815260006020820181905285830151928201929092526001600160401b034381166060830152428116608083015283811660a08301526006541660c08201523360e0820152610100808601516001600160a01b031690820152610120810160038152602001856101400151151581526020016000151581526020016040518060a0016040528060006001600160601b03168152602001876101800151602001516001600160601b03168152602001876101800151604001516001600160601b0316815260200160008861018001516060015111612959578760400151612964565b876101800151606001515b81526020016000886101800151608001511161298457876040015161298f565b876101800151608001515b9052905260008481526007602090815260409182902083518155908301516001820155908201516002820155606082015160038083018054608086015160a087015160c08801516001600160401b03908116600160c01b026001600160c01b03928216600160801b02929092166001600160801b03938216600160401b026001600160801b031990951691909716179290921716939093179290921790915560e08301516004830180546001600160a01b039283166001600160a01b03199182161790915561010085015160058501805491909316918116821783556101208601519596508695936001600160a81b031990911690911790600160a01b908490811115612a9e57612a9e613895565b02179055506101408201516005820180546101608501511515600160b01b0260ff60b01b19931515600160a81b029390931661ffff60a81b199091161791909117905561018090910151805160068301805460208401516001600160601b03908116600160601b026001600160c01b0319909216938116939093171790556040820151600784018054919092166001600160601b0319919091161790556060810151600883015560800151600990910155612b5a836001613db7565b60055561012081015133906003811115612b7657612b76613895565b8251604051868152600080516020613e2f8339815191529060200160405180910390a450505050565b600080612bbb85610140015185876101800151602001516135ad565b90506000612bd886610140015186886101800151604001516135de565b90508115612bed578561018001516060015192505b8015612c00578561018001516080015192505b6001546040805160a0810182528851815260e08901516001600160a01b0390811660208301526101008a0151811682840152606082018790526101408a0151151560808301529151633f7b158f60e01b81529190921691633f7b158f91612c6a9190600401613cad565b600060405180830381600087803b158015612c8457600080fd5b505af1158015612c98573d6000803e3d6000fd5b50505060e087015160405133925086916001600160a01b0316907f9eac68a9deefde81f6465fe1b48c652f3d2556b0a49788531e1fab58340595f490600090a48560c001518660a001818151612cee9190613df1565b6001600160401b0316905250855160e0870151610100880151610140890151604080516020808201969096526001600160a01b039485168183015293909216606084015215156080808401919091528151808403909101815260a090920190528051910120600090600154604051633c4958bd60e21b8152600481018390529192506000916001600160a01b039091169063f12562f490602401602060405180830381865afa158015612da5573d6000803e3d6000fd5b505050506040513d601f19601f82011682018060405250810190612dc99190613bff565b90508015801590612dec57506000886101800151602001516001600160601b0316115b8015612e0a57506000886101800151604001516001600160601b0316115b156130d8578315612e31576101808801805160006020909101819052905160600152612e49565b61018088018051600060409091018190529051608001525b60006005549050886007600083815260200190815260200160002060008201518160000155602082015181600101556040820151816002015560608201518160030160006101000a8154816001600160401b0302191690836001600160401b0316021790555060808201518160030160086101000a8154816001600160401b0302191690836001600160401b0316021790555060a08201518160030160106101000a8154816001600160401b0302191690836001600160401b0316021790555060c08201518160030160186101000a8154816001600160401b0302191690836001600160401b0316021790555060e08201518160040160006101000a8154816001600160a01b0302191690836001600160a01b031602179055506101008201518160050160006101000a8154816001600160a01b0302191690836001600160a01b031602179055506101208201518160050160146101000a81548160ff02191690836003811115612fbc57612fbc613895565b0217905550610140820151600580830180546101608601511515600160b01b0260ff60b01b19941515600160a81b029490941661ffff60a81b19909116179290921790915561018090920151805160068301805460208401516001600160601b03908116600160601b026001600160c01b0319909216938116939093171790556040820151600784018054919092166001600160601b0319919091161790556060810151600883015560800151600990910155805460019190600090613083908490613db7565b925050819055508860e001516001600160a01b031689610120015160038111156130af576130af613895565b8a51604051848152600080516020613e2f8339815191529060200160405180910390a450610bc0565b60a08801516001600160401b031615613106576131068860e001518960a001516001600160401b0316610eb8565b5050506000928352505060076020819052604082208281556001810183905560028101839055600381018390556004810180546001600160a01b03191690556005810180546001600160b81b03191690556006810180546001600160c01b031916905590810180546001600160601b031916905560088101829055600901555050565b600073eeeeeeeeeeeeeeeeeeeeeeeeeeeeeeeeeeeeeeed196001600160a01b0384160161322157600360009054906101000a90046001600160a01b03166001600160a01b031663d0e30db0836040518263ffffffff1660e01b81526004016000604051808303818588803b15801561320057600080fd5b505af1158015613214573d6000803e3d6000fd5b505050505081905061331e565b6040516370a0823160e01b815230600482015283906000906001600160a01b038316906370a0823190602401602060405180830381865afa15801561326a573d6000803e3d6000fd5b505050506040513d601f19601f8201168201806040525081019061328e9190613bff565b90506132a56001600160a01b03831633308761360a565b6040516370a0823160e01b815230600482015281906001600160a01b038416906370a0823190602401602060405180830381865afa1580156132eb573d6000803e3d6000fd5b505050506040513d601f19601f8201168201806040525081019061330f9190613bff565b6133199190613b80565b925050505b92915050565b6000806133346020840184613d0c565b6001600160601b0316111561335c57600654613359906001600160401b031682613db7565b90505b600061336e6040840160208501613d0c565b6001600160601b0316111561339657600654613393906001600160401b031682613db7565b90505b60006133a86060840160408501613d0c565b6001600160601b031611156133d0576006546133cd906001600160401b031682613db7565b90505b919050565b600061342a826040518060400160405280602081526020017f5361666545524332303a206c6f772d6c6576656c2063616c6c206661696c6564815250856001600160a01b03166136429092919063ffffffff16565b905080516000148061344b57508080602001905181019061344b9190613e11565b610e9f5760405162461bcd60e51b815260206004820152602a60248201527f5361666545524332303a204552433230206f7065726174696f6e20646964206e6044820152691bdd081cdd58d8d9595960b21b6064820152608401610405565b6000826001600160601b03161180156134cc57506000816001600160601b0316115b6134d557505050565b821561354457806001600160601b0316826001600160601b0316116040518060400160405280601c81526020017f45786368616e67653a496e76616c69642054502f534c20707269636500000000815250906111175760405162461bcd60e51b81526004016104059190613b37565b806001600160601b0316826001600160601b0316106040518060400160405280601c81526020017f45786368616e67653a496e76616c69642054502f534c20707269636500000000815250906111175760405162461bcd60e51b81526004016104059190613b37565b600083156135c857506001600160601b0381168210156135d7565b506001600160601b0381168211155b9392505050565b600083156135f957506001600160601b0381168211156135d7565b506001600160601b03161115919050565b6040516001600160a01b03808516602483015283166044820152606481018290526111179085906323b872dd60e01b90608401612692565b60606110ee848460008585600080866001600160a01b031685876040516136699190613be3565b60006040518083038185875af1925050503d80600081146136a6576040519150601f19603f3d011682016040523d82523d6000602084013e6136ab565b606091505b50915091506136bc878383876136c7565b979650505050505050565b6060831561373657825160000361372f576001600160a01b0385163b61372f5760405162461bcd60e51b815260206004820152601d60248201527f416464726573733a2063616c6c20746f206e6f6e2d636f6e74726163740000006044820152606401610405565b50816110ee565b6110ee838381511561374b5781518083602001fd5b8060405162461bcd60e51b81526004016104059190613b37565b6001600160a01b038116811461075f57600080fd5b60006020828403121561378c57600080fd5b81356135d781613765565b6000602082840312156137a957600080fd5b5035919050565b600080604083850312156137c357600080fd5b8235915060208301356137d581613765565b809150509250929050565b8035600481106133d057600080fd5b801515811461075f57600080fd5b600060a0828403121561380f57600080fd5b50919050565b600080600080600080600080610180898b03121561383257600080fd5b61383b896137e0565b9750602089013561384b816137ef565b965060408901359550606089013561386281613765565b94506080890135935060a0890135925060c089013591506138868a60e08b016137fd565b90509295985092959890939650565b634e487b7160e01b600052602160045260246000fd5b600481106138c957634e487b7160e01b600052602160045260246000fd5b9052565b6001600160601b038082511683528060208301511660208401528060408301511660408401525060608101516060830152608081015160808301525050565b8d8152602081018d9052604081018c90526001600160401b038b811660608301528a8116608083015289811660a0830152881660c08201526001600160a01b0387811660e08301528616610100820152610220810161396f6101208301876138ab565b84151561014083015283151561016083015261398f6101808301846138cd565b9e9d5050505050505050505050505050565b60008060008060008061014087890312156139bb57600080fd5b6139c4876137e0565b955060208701356139d4816137ef565b94506040870135935060608701356139eb81613765565b925060808701359150613a018860a089016137fd565b90509295509295509295565b6000610220820190508251825260208301516020830152604083015160408301526060830151613a4860608401826001600160401b03169052565b506080830151613a6360808401826001600160401b03169052565b5060a0830151613a7e60a08401826001600160401b03169052565b5060c0830151613a9960c08401826001600160401b03169052565b5060e0830151613ab460e08401826001600160a01b03169052565b50610100838101516001600160a01b03169083015261012080840151613adc828501826138ab565b5050610140838101511515908301526101608084015115159083015261018080840151613b0b828501826138cd565b505092915050565b60005b83811015613b2e578181015183820152602001613b16565b50506000910152565b6020815260008251806020840152613b56816040850160208701613b13565b601f01601f19169190910160400192915050565b634e487b7160e01b600052601160045260246000fd5b8181038181111561331e5761331e613b6a565b60008060408385031215613ba657600080fd5b825160038110613bb557600080fd5b60208401519092506137d581613765565b600060208284031215613bd857600080fd5b81516135d781613765565b60008251613bf5818460208701613b13565b9190910192915050565b600060208284031215613c1157600080fd5b5051919050565b600080600060608486031215613c2d57600080fd5b8351613c3881613765565b602085015160409095015190969495509392505050565b600060e08201905082518252602083015160208301526040830151604083015260608301516060830152608083015160018060a01b0380821660808501528060a08601511660a0850152505060c0830151151560c083015292915050565b815181526020808301516001600160a01b0390811691830191909152604080840151909116908201526060808301519082015260809182015115159181019190915260a00190565b80356001600160601b03811681146133d057600080fd5b600060208284031215613d1e57600080fd5b6135d782613cf5565b600060a08284031215613d3957600080fd5b60405160a081018181106001600160401b0382111715613d6957634e487b7160e01b600052604160045260246000fd5b604052613d7583613cf5565b8152613d8360208401613cf5565b6020820152613d9460408401613cf5565b604082015260608301356060820152608083013560808201528091505092915050565b8082018082111561331e5761331e613b6a565b6001600160401b03818116838216019080821115613dea57613dea613b6a565b5092915050565b6001600160401b03828116828216039080821115613dea57613dea613b6a565b600060208284031215613e2357600080fd5b81516135d7816137ef56fe5611d1353af231c416040635fafb9109fef5b0c89441274df7c19bf78ae13b3945786368616e67653a54726967676572207072696365206e6f74207061737300a264697066735822122067a9bc1a972b14e945ffef52aac99cf100e20c577d4e25adea85651c2a24f2e164736f6c63430008140033",
    "linkReferences": {}
  },
  "methodIdentifiers": {
    "cancelOrder(uint256)": "514fcac7",
    "closeOrder(uint8,bool,bytes32,address,uint256,(uint96,uint96,uint96,uint256,uint256))": "bd90171d",
    "engine()": "c9d4623f",
    "executeOrder(uint256,address)": "7e498c81",
    "feeManager()": "d0fb0203",
    "getOrder(uint256)": "d09ef241",
    "gov()": "12d43a51",
    "lastOrderId()": "5662ecc7",
    "minExecutionFee()": "63ae2103",
    "nextOrderId()": "2a58b330",
    "orders(uint256)": "a85c38ef",
    "placeOrder(uint8,bool,bytes32,address,uint256,uint256,bytes32,(uint96,uint96,uint96,uint256,uint256))": "91de3b7c",
    "setFeeManager(address)": "472d35b9",
    "weth()": "3fc8cef3"
  },
  "id": 10
}