{
  "abi": [
    {
      "inputs": [],
      "stateMutability": "nonpayable",
      "type": "constructor"
    },
    {
      "inputs": [],
      "name": "FUNDING_RATE_PRECISION",
      "outputs": [
        {
          "internalType": "uint256",
          "name": "",
          "type": "uint256"
        }
      ],
      "stateMutability": "view",
      "type": "function"
    },
    {
      "inputs": [],
      "name": "MAX_FUNDING_RATE",
      "outputs": [
        {
          "internalType": "uint256",
          "name": "",
          "type": "uint256"
        }
      ],
      "stateMutability": "view",
      "type": "function"
    },
    {
      "inputs": [],
      "name": "MIN_FUNDING_RATE",
      "outputs": [
        {
          "internalType": "uint256",
          "name": "",
          "type": "uint256"
        }
      ],
      "stateMutability": "view",
      "type": "function"
    },
    {
      "inputs": [],
      "name": "SKEW_SCALE",
      "outputs": [
        {
          "internalType": "uint256",
          "name": "",
          "type": "uint256"
        }
      ],
      "stateMutability": "view",
      "type": "function"
    },
    {
      "inputs": [],
      "name": "getFundingMode",
      "outputs": [
        {
          "internalType": "enum FundingMode",
          "name": "mode",
          "type": "uint8"
        }
      ],
      "stateMutability": "pure",
      "type": "function"
    },
    {
      "inputs": [],
      "name": "getFundingRatePrecision",
      "outputs": [
        {
          "internalType": "uint256",
          "name": "",
          "type": "uint256"
        }
      ],
      "stateMutability": "pure",
      "type": "function"
    },
    {
      "inputs": [
        {
          "components": [
            {
              "internalType": "uint256",
              "name": "timestamp",
              "type": "uint256"
            },
            {
              "internalType": "uint256",
              "name": "longOpenInterest",
              "type": "uint256"
            },
            {
              "internalType": "uint256",
              "name": "shortOpenInterest",
              "type": "uint256"
            },
            {
              "internalType": "int256",
              "name": "fundingRate",
              "type": "int256"
            }
          ],
          "internalType": "struct PrevFundingState",
          "name": "prevState",
          "type": "tuple"
        },
        {
          "internalType": "uint256",
          "name": "longOpenInterest",
          "type": "uint256"
        },
        {
          "internalType": "uint256",
          "name": "shortOpenInterest",
          "type": "uint256"
        }
      ],
      "name": "getNextFundingRate",
      "outputs": [
        {
          "internalType": "int256",
          "name": "",
          "type": "int256"
        }
      ],
      "stateMutability": "view",
      "type": "function"
    },
    {
      "inputs": [],
      "name": "maxFundingRate",
      "outputs": [
        {
          "internalType": "uint256",
          "name": "",
          "type": "uint256"
        }
      ],
      "stateMutability": "view",
      "type": "function"
    },
    {
      "inputs": [],
      "name": "minFundingRate",
      "outputs": [
        {
          "internalType": "uint256",
          "name": "",
          "type": "uint256"
        }
      ],
      "stateMutability": "view",
      "type": "function"
    },
    {
      "inputs": [],
      "name": "minSkew",
      "outputs": [
        {
          "internalType": "uint256",
          "name": "",
          "type": "uint256"
        }
      ],
      "stateMutability": "view",
      "type": "function"
    },
    {
      "inputs": [],
      "name": "owner",
      "outputs": [
        {
          "internalType": "address",
          "name": "",
          "type": "address"
        }
      ],
      "stateMutability": "view",
      "type": "function"
    },
    {
      "inputs": [
        {
          "internalType": "uint256",
          "name": "min",
          "type": "uint256"
        },
        {
          "internalType": "uint256",
          "name": "max",
          "type": "uint256"
        }
      ],
      "name": "setMinMaxFundingRate",
      "outputs": [],
      "stateMutability": "nonpayable",
      "type": "function"
    }
  ],
  "bytecode": {
    "object": "0x60806040526103e8600055614e206001556101f460025534801561002257600080fd5b50600380546001600160a01b0319163317905561085b806100446000396000f3fe608060405234801561001057600080fd5b50600436106100b45760003560e01c8063b0c7f1be11610071578063b0c7f1be14610128578063cb0d671914610131578063db16e98914610144578063eff616bd1461014d578063f40f2a7914610156578063f5a701ff1461015f57600080fd5b8063128927b1146100b95780636be6026b146100ce5780636d9cad11146100eb57806386718440146100f45780638da5cb5b146100fd578063af837d6d146100f4575b600080fd5b6100cc6100c7366004610665565b61016e565b005b6100d86298968081565b6040519081526020015b60405180910390f35b629896806100d8565b6100d86103e881565b600354610110906001600160a01b031681565b6040516001600160a01b0390911681526020016100e2565b6100d860005481565b6100d861013f366004610687565b6102cc565b6100d860015481565b6100d860025481565b6100d8614e2081565b60006040516100e29190610717565b6003546001600160a01b031633146101cd5760405162461bcd60e51b815260206004820152601c60248201527f46756e64696e67526174654d6f64656c3a204f6e6c79206f776e65720000000060448201526064015b60405180910390fd5b8082111561021d5760405162461bcd60e51b815260206004820152601b60248201527f46756e64696e67526174654d6f64656c3a206d696e203e206d6178000000000060448201526064016101c4565b6103e882101561026f5760405162461bcd60e51b815260206004820152601860248201527f496e76616c6964206d696e2066756e64696e672072617465000000000000000060448201526064016101c4565b614e208111156102c15760405162461bcd60e51b815260206004820152601860248201527f496e76616c6964206d61782066756e64696e672072617465000000000000000060448201526064016101c4565b600091909155600155565b6000806102e185602001518660400151610495565b91505061030e6040518060400160405280600881526020016770726576536b657760c01b8152508261051b565b61034260405180604001604052806012815260200171131bdb99c81bdc195b881a5b9d195c995cdd60721b8152508561051b565b6103776040518060400160405280601381526020017214da1bdc9d081bdc195b881a5b9d195c995cdd606a1b8152508461051b565b6000806103848686610495565b915091506103b2604051806040016040528060088152602001674e657720736b657760c01b8152508261051b565b600254811080156103c65750606087015115155b156103da578660600151935050505061048e565b60006103eb620186a06103e8610755565b6103f86298968084610755565b610402919061076c565b9050600061041589606001518989610564565b15801561042157508483115b1561044557816104348a60600151610593565b61043e919061078e565b9050610448565b50805b610457816000546001546105b3565b9050831561047457610468816105da565b9550505050505061048e565b61047d816105da565b610486906107a1565b955050505050505b9392505050565b6000808315806104a3575082155b156104b45750600190506000610514565b828411156104ea57600183620186a06104cd82886107bd565b6104d79190610755565b6104e1919061076c565b91509150610514565b600084620186a06104fb82876107bd565b6105059190610755565b61050f919061076c565b915091505b9250929050565b61056082826040516024016105319291906107d0565b60408051601f198184030181529190526020810180516001600160e01b03166309710a9d60e41b179052610644565b5050565b600080841215610577575080821161048e565b6000841315610589575081811161048e565b5060009392505050565b6000808212156105ab576105a6826107a1565b6105ad565b815b92915050565b6000828410156105c457508161048e565b818411156105d357508061048e565b508261048e565b60006001600160ff1b038211156105ab5760405162461bcd60e51b815260206004820152602860248201527f53616665436173743a2076616c756520646f65736e27742066697420696e2061604482015267371034b73a191a9b60c11b60648201526084016101c4565b80516a636f6e736f6c652e6c6f67602083016000808483855afa5050505050565b6000806040838503121561067857600080fd5b50508035926020909101359150565b600080600083850360c081121561069d57600080fd5b60808112156106ab57600080fd5b506040516080810181811067ffffffffffffffff821117156106dd57634e487b7160e01b600052604160045260246000fd5b60409081528535825260208087013590830152858101359082015260608086013590820152956080850135955060a0909401359392505050565b602081016002831061073957634e487b7160e01b600052602160045260246000fd5b91905290565b634e487b7160e01b600052601160045260246000fd5b80820281158282048414176105ad576105ad61073f565b60008261078957634e487b7160e01b600052601260045260246000fd5b500490565b808201808211156105ad576105ad61073f565b6000600160ff1b82016107b6576107b661073f565b5060000390565b818103818111156105ad576105ad61073f565b604081526000835180604084015260005b818110156107fe57602081870181015160608684010152016107e1565b506000606082850101526060601f19601f830116840101915050826020830152939250505056fea2646970667358221220cba0c9a543d72a1e6cec4e33c40deb54e23f30696f5f25a28817c34899c3bf9864736f6c63430008120033",
    "linkReferences": {}
  },
  "methodIdentifiers": {
    "FUNDING_RATE_PRECISION()": "6be6026b",
    "MAX_FUNDING_RATE()": "f40f2a79",
    "MIN_FUNDING_RATE()": "af837d6d",
    "SKEW_SCALE()": "86718440",
    "getFundingMode()": "f5a701ff",
    "getFundingRatePrecision()": "6d9cad11",
    "getNextFundingRate((uint256,uint256,uint256,int256),uint256,uint256)": "cb0d6719",
    "maxFundingRate()": "db16e989",
    "minFundingRate()": "b0c7f1be",
    "minSkew()": "eff616bd",
    "owner()": "8da5cb5b",
    "setMinMaxFundingRate(uint256,uint256)": "128927b1"
  },
  "id": 14
}