{
  "abi": [
    {
      "inputs": [],
      "stateMutability": "nonpayable",
      "type": "constructor"
    },
    {
      "inputs": [],
      "name": "InsufficientCollateral",
      "type": "error"
    },
    {
      "inputs": [],
      "name": "InvalidCollateralAmount",
      "type": "error"
    },
    {
      "inputs": [],
      "name": "InvalidPositionSize",
      "type": "error"
    },
    {
      "inputs": [],
      "name": "PositionNotExist",
      "type": "error"
    },
    {
      "anonymous": false,
      "inputs": [
        {
          "indexed": true,
          "internalType": "enum MarketType",
          "name": "marketType",
          "type": "uint8"
        },
        {
          "indexed": true,
          "internalType": "bytes32",
          "name": "marketId",
          "type": "bytes32"
        },
        {
          "indexed": true,
          "internalType": "address",
          "name": "owner",
          "type": "address"
        },
        {
          "indexed": false,
          "internalType": "address",
          "name": "indexToken",
          "type": "address"
        },
        {
          "indexed": false,
          "internalType": "address",
          "name": "quoteToken",
          "type": "address"
        },
        {
          "indexed": false,
          "internalType": "bytes32",
          "name": "name",
          "type": "bytes32"
        },
        {
          "indexed": false,
          "internalType": "bool",
          "name": "isGoverned",
          "type": "bool"
        },
        {
          "indexed": false,
          "internalType": "uint8",
          "name": "category",
          "type": "uint8"
        },
        {
          "indexed": false,
          "internalType": "uint8",
          "name": "maxLeverage",
          "type": "uint8"
        }
      ],
      "name": "MarketCreated",
      "type": "event"
    },
    {
      "anonymous": false,
      "inputs": [
        {
          "indexed": true,
          "internalType": "bytes32",
          "name": "marketId",
          "type": "bytes32"
        },
        {
          "indexed": true,
          "internalType": "address",
          "name": "account",
          "type": "address"
        },
        {
          "indexed": false,
          "internalType": "bytes32",
          "name": "key",
          "type": "bytes32"
        },
        {
          "indexed": false,
          "internalType": "uint256",
          "name": "amount",
          "type": "uint256"
        }
      ],
      "name": "ClaimedFundingPayout",
      "type": "event"
    },
    {
      "anonymous": false,
      "inputs": [
        {
          "indexed": false,
          "internalType": "bytes32",
          "name": "key",
          "type": "bytes32"
        },
        {
          "indexed": false,
          "internalType": "uint256",
          "name": "size",
          "type": "uint256"
        },
        {
          "indexed": false,
          "internalType": "uint256",
          "name": "collateralValue",
          "type": "uint256"
        },
        {
          "indexed": false,
          "internalType": "uint256",
          "name": "exitFundingIndex",
          "type": "uint256"
        },
        {
          "indexed": false,
          "internalType": "uint256",
          "name": "exitPayoutIndex",
          "type": "uint256"
        }
      ],
      "name": "ClosePosition",
      "type": "event"
    },
    {
      "anonymous": false,
      "inputs": [
        {
          "indexed": true,
          "internalType": "bytes32",
          "name": "marketId",
          "type": "bytes32"
        },
        {
          "indexed": true,
          "internalType": "address",
          "name": "account",
          "type": "address"
        },
        {
          "indexed": false,
          "internalType": "bytes32",
          "name": "key",
          "type": "bytes32"
        },
        {
          "components": [
            {
              "internalType": "bytes32",
              "name": "marketId",
              "type": "bytes32"
            },
            {
              "internalType": "address",
              "name": "account",
              "type": "address"
            },
            {
              "internalType": "address",
              "name": "collateralToken",
              "type": "address"
            },
            {
              "internalType": "uint256",
              "name": "sizeDelta",
              "type": "uint256"
            },
            {
              "internalType": "bool",
              "name": "isLong",
              "type": "bool"
            }
          ],
          "indexed": false,
          "internalType": "struct DecreasePositionParams",
          "name": "params",
          "type": "tuple"
        },
        {
          "components": [
            {
              "internalType": "int256",
              "name": "realizedPnl",
              "type": "int256"
            },
            {
              "internalType": "uint256",
              "name": "reserveDelta",
              "type": "uint256"
            },
            {
              "internalType": "uint256",
              "name": "payoutValue",
              "type": "uint256"
            },
            {
              "internalType": "uint256",
              "name": "collateralReduced",
              "type": "uint256"
            },
            {
              "internalType": "uint256",
              "name": "collateralAmountReduced",
              "type": "uint256"
            },
            {
              "internalType": "uint256",
              "name": "totalFee",
              "type": "uint256"
            },
            {
              "internalType": "uint256",
              "name": "fundingPayout",
              "type": "uint256"
            },
            {
              "internalType": "uint256",
              "name": "fundingDebt",
              "type": "uint256"
            },
            {
              "internalType": "uint256",
              "name": "executedPrice",
              "type": "uint256"
            }
          ],
          "indexed": false,
          "internalType": "struct DecreasePositionResult",
          "name": "result",
          "type": "tuple"
        }
      ],
      "name": "DecreasePosition",
      "type": "event"
    },
    {
      "anonymous": false,
      "inputs": [
        {
          "indexed": true,
          "internalType": "address",
          "name": "exchange",
          "type": "address"
        }
      ],
      "name": "ExchangeSet",
      "type": "event"
    },
    {
      "anonymous": false,
      "inputs": [
        {
          "indexed": true,
          "internalType": "bytes32",
          "name": "marketId",
          "type": "bytes32"
        },
        {
          "indexed": true,
          "internalType": "bytes32",
          "name": "key",
          "type": "bytes32"
        },
        {
          "indexed": false,
          "internalType": "uint256",
          "name": "fee",
          "type": "uint256"
        },
        {
          "indexed": false,
          "internalType": "uint256",
          "name": "fundingDebt",
          "type": "uint256"
        },
        {
          "indexed": false,
          "internalType": "uint256",
          "name": "fundingPayout",
          "type": "uint256"
        }
      ],
      "name": "FeeAndFundings",
      "type": "event"
    },
    {
      "anonymous": false,
      "inputs": [
        {
          "indexed": true,
          "internalType": "bytes32",
          "name": "marketId",
          "type": "bytes32"
        },
        {
          "indexed": true,
          "internalType": "address",
          "name": "account",
          "type": "address"
        },
        {
          "indexed": false,
          "internalType": "uint256",
          "name": "value",
          "type": "uint256"
        }
      ],
      "name": "FundingDebtPaid",
      "type": "event"
    },
    {
      "anonymous": false,
      "inputs": [
        {
          "indexed": true,
          "internalType": "bytes32",
          "name": "marketId",
          "type": "bytes32"
        },
        {
          "indexed": true,
          "internalType": "address",
          "name": "account",
          "type": "address"
        },
        {
          "indexed": false,
          "internalType": "uint256",
          "name": "value",
          "type": "uint256"
        }
      ],
      "name": "FundingPayout",
      "type": "event"
    },
    {
      "anonymous": false,
      "inputs": [
        {
          "indexed": true,
          "internalType": "bytes32",
          "name": "marketId",
          "type": "bytes32"
        },
        {
          "indexed": true,
          "internalType": "address",
          "name": "account",
          "type": "address"
        },
        {
          "indexed": false,
          "internalType": "bytes32",
          "name": "key",
          "type": "bytes32"
        },
        {
          "indexed": false,
          "internalType": "uint256",
          "name": "initialCollateralValue",
          "type": "uint256"
        },
        {
          "indexed": false,
          "internalType": "uint256",
          "name": "feeUsd",
          "type": "uint256"
        },
        {
          "components": [
            {
              "internalType": "bytes32",
              "name": "marketId",
              "type": "bytes32"
            },
            {
              "internalType": "uint256",
              "name": "sizeDelta",
              "type": "uint256"
            },
            {
              "internalType": "uint256",
              "name": "openFee",
              "type": "uint256"
            },
            {
              "internalType": "uint256",
              "name": "initialCollateralAmount",
              "type": "uint256"
            },
            {
              "internalType": "address",
              "name": "account",
              "type": "address"
            },
            {
              "internalType": "address",
              "name": "collateralToken",
              "type": "address"
            },
            {
              "internalType": "bool",
              "name": "isLong",
              "type": "bool"
            }
          ],
          "indexed": false,
          "internalType": "struct IncreasePositionParams",
          "name": "params",
          "type": "tuple"
        },
        {
          "components": [
            {
              "internalType": "uint256",
              "name": "fundingPayout",
              "type": "uint256"
            },
            {
              "internalType": "uint256",
              "name": "fundingDebt",
              "type": "uint256"
            },
            {
              "internalType": "uint256",
              "name": "executedPrice",
              "type": "uint256"
            }
          ],
          "indexed": false,
          "internalType": "struct IncreasePositionResult",
          "name": "result",
          "type": "tuple"
        }
      ],
      "name": "IncreasePosition",
      "type": "event"
    },
    {
      "anonymous": false,
      "inputs": [
        {
          "indexed": false,
          "internalType": "bytes32",
          "name": "key",
          "type": "bytes32"
        },
        {
          "indexed": false,
          "internalType": "address",
          "name": "account",
          "type": "address"
        },
        {
          "indexed": false,
          "internalType": "uint256",
          "name": "indexPrice",
          "type": "uint256"
        }
      ],
      "name": "LiquidatePosition",
      "type": "event"
    },
    {
      "anonymous": false,
      "inputs": [
        {
          "indexed": true,
          "internalType": "bytes32",
          "name": "marketId",
          "type": "bytes32"
        },
        {
          "indexed": false,
          "internalType": "bool",
          "name": "isListed",
          "type": "bool"
        }
      ],
      "name": "SetMarketListed",
      "type": "event"
    },
    {
      "anonymous": false,
      "inputs": [
        {
          "indexed": true,
          "internalType": "bytes32",
          "name": "marketId",
          "type": "bytes32"
        },
        {
          "indexed": false,
          "internalType": "address",
          "name": "priceFeed",
          "type": "address"
        },
        {
          "indexed": false,
          "internalType": "enum PriceFeedType",
          "name": "priceFeedType",
          "type": "uint8"
        }
      ],
      "name": "SetPriceFeed",
      "type": "event"
    },
    {
      "anonymous": false,
      "inputs": [
        {
          "indexed": true,
          "internalType": "bytes32",
          "name": "marketId",
          "type": "bytes32"
        },
        {
          "indexed": true,
          "internalType": "address",
          "name": "account",
          "type": "address"
        },
        {
          "indexed": false,
          "internalType": "bytes32",
          "name": "key",
          "type": "bytes32"
        },
        {
          "indexed": false,
          "internalType": "bool",
          "name": "increase",
          "type": "bool"
        },
        {
          "indexed": false,
          "internalType": "uint256",
          "name": "amount",
          "type": "uint256"
        }
      ],
      "name": "UpdateCollateral",
      "type": "event"
    },
    {
      "anonymous": false,
      "inputs": [
        {
          "indexed": true,
          "internalType": "bytes32",
          "name": "marketId",
          "type": "bytes32"
        },
        {
          "indexed": false,
          "internalType": "uint256",
          "name": "longFunding",
          "type": "uint256"
        },
        {
          "indexed": false,
          "internalType": "uint256",
          "name": "shortFunding",
          "type": "uint256"
        },
        {
          "indexed": false,
          "internalType": "uint256",
          "name": "longPayout",
          "type": "uint256"
        },
        {
          "indexed": false,
          "internalType": "uint256",
          "name": "shortPayout",
          "type": "uint256"
        },
        {
          "indexed": false,
          "internalType": "uint256",
          "name": "nInterval",
          "type": "uint256"
        }
      ],
      "name": "UpdateIndex",
      "type": "event"
    },
    {
      "anonymous": false,
      "inputs": [
        {
          "indexed": true,
          "internalType": "bytes32",
          "name": "marketId",
          "type": "bytes32"
        },
        {
          "indexed": true,
          "internalType": "address",
          "name": "account",
          "type": "address"
        },
        {
          "indexed": false,
          "internalType": "bytes32",
          "name": "key",
          "type": "bytes32"
        },
        {
          "indexed": false,
          "internalType": "address",
          "name": "collateralToken",
          "type": "address"
        },
        {
          "indexed": false,
          "internalType": "uint256",
          "name": "size",
          "type": "uint256"
        },
        {
          "indexed": false,
          "internalType": "uint256",
          "name": "collateralValue",
          "type": "uint256"
        },
        {
          "indexed": false,
          "internalType": "uint256",
          "name": "entryPrice",
          "type": "uint256"
        },
        {
          "indexed": false,
          "internalType": "uint256",
          "name": "entryFundingIndex",
          "type": "uint256"
        },
        {
          "indexed": false,
          "internalType": "uint256",
          "name": "entryPayoutIndex",
          "type": "uint256"
        }
      ],
      "name": "UpdatePosition",
      "type": "event"
    },
    {
      "anonymous": false,
      "inputs": [
        {
          "indexed": false,
          "internalType": "bytes32",
          "name": "marketId",
          "type": "bytes32"
        },
        {
          "indexed": false,
          "internalType": "address",
          "name": "vault",
          "type": "address"
        },
        {
          "indexed": false,
          "internalType": "uint256",
          "name": "collateralAmount",
          "type": "uint256"
        },
        {
          "indexed": false,
          "internalType": "uint256",
          "name": "reserveDelta",
          "type": "uint256"
        }
      ],
      "name": "VaultUpdated",
      "type": "event"
    },
    {
      "inputs": [],
      "name": "DEFAULT_FUNDING_INTERVAL",
      "outputs": [
        {
          "internalType": "uint256",
          "name": "",
          "type": "uint256"
        }
      ],
      "stateMutability": "view",
      "type": "function"
    },
    {
      "inputs": [
        {
          "components": [
            {
              "internalType": "address",
              "name": "owner",
              "type": "address"
            },
            {
              "internalType": "address",
              "name": "indexToken",
              "type": "address"
            },
            {
              "internalType": "address",
              "name": "vault",
              "type": "address"
            },
            {
              "internalType": "address",
              "name": "quoteToken",
              "type": "address"
            },
            {
              "internalType": "address",
              "name": "quoteVault",
              "type": "address"
            },
            {
              "internalType": "address",
              "name": "priceFeed",
              "type": "address"
            },
            {
              "internalType": "contract IFundingRateModel",
              "name": "fundingRateModel",
              "type": "address"
            }
          ],
          "internalType": "struct MarketAddresses",
          "name": "addresses",
          "type": "tuple"
        },
        {
          "components": [
            {
              "internalType": "bytes32",
              "name": "name",
              "type": "bytes32"
            },
            {
              "internalType": "uint8[2]",
              "name": "feeDistributionWeights",
              "type": "uint8[2]"
            },
            {
              "internalType": "uint8[2]",
              "name": "maxLongShortSkew",
              "type": "uint8[2]"
            },
            {
              "internalType": "uint16",
              "name": "maintenanceMarginBps",
              "type": "uint16"
            },
            {
              "internalType": "uint16",
              "name": "liquidationFee",
              "type": "uint16"
            },
            {
              "internalType": "uint16",
              "name": "maxPostionSizeOverVault",
              "type": "uint16"
            },
            {
              "internalType": "uint16",
              "name": "openFee",
              "type": "uint16"
            },
            {
              "internalType": "uint16",
              "name": "closeFee",
              "type": "uint16"
            },
            {
              "internalType": "uint32",
              "name": "fundingInterval",
              "type": "uint32"
            },
            {
              "internalType": "uint8",
              "name": "maxLeverage",
              "type": "uint8"
            },
            {
              "internalType": "uint8",
              "name": "maxExposureMultiplier",
              "type": "uint8"
            },
            {
              "internalType": "uint8",
              "name": "category",
              "type": "uint8"
            },
            {
              "internalType": "enum MarketType",
              "name": "marketType",
              "type": "uint8"
            },
            {
              "internalType": "enum PriceFeedType",
              "name": "priceFeedType",
              "type": "uint8"
            },
            {
              "internalType": "bool",
              "name": "isGoverned",
              "type": "bool"
            }
          ],
          "internalType": "struct MarketParams",
          "name": "params",
          "type": "tuple"
        }
      ],
      "name": "addMarket",
      "outputs": [
        {
          "internalType": "bytes32",
          "name": "",
          "type": "bytes32"
        }
      ],
      "stateMutability": "nonpayable",
      "type": "function"
    },
    {
      "inputs": [
        {
          "internalType": "address",
          "name": "stablecoin",
          "type": "address"
        },
        {
          "internalType": "enum PriceFeedType",
          "name": "feedType",
          "type": "uint8"
        },
        {
          "internalType": "address",
          "name": "priceFeed",
          "type": "address"
        }
      ],
      "name": "addStableCoinPriceFeed",
      "outputs": [],
      "stateMutability": "nonpayable",
      "type": "function"
    },
    {
      "inputs": [
        {
          "internalType": "bytes32",
          "name": "marketId",
          "type": "bytes32"
        },
        {
          "internalType": "address",
          "name": "collateralToken",
          "type": "address"
        },
        {
          "internalType": "bool",
          "name": "isLong",
          "type": "bool"
        }
      ],
      "name": "claimFundingPayout",
      "outputs": [],
      "stateMutability": "nonpayable",
      "type": "function"
    },
    {
      "inputs": [
        {
          "components": [
            {
              "internalType": "bytes32",
              "name": "marketId",
              "type": "bytes32"
            },
            {
              "internalType": "address",
              "name": "account",
              "type": "address"
            },
            {
              "internalType": "address",
              "name": "collateralToken",
              "type": "address"
            },
            {
              "internalType": "uint256",
              "name": "sizeDelta",
              "type": "uint256"
            },
            {
              "internalType": "bool",
              "name": "isLong",
              "type": "bool"
            }
          ],
          "internalType": "struct DecreasePositionParams",
          "name": "params",
          "type": "tuple"
        }
      ],
      "name": "decreasePosition",
      "outputs": [],
      "stateMutability": "nonpayable",
      "type": "function"
    },
    {
      "inputs": [],
      "name": "exchange",
      "outputs": [
        {
          "internalType": "address",
          "name": "",
          "type": "address"
        }
      ],
      "stateMutability": "view",
      "type": "function"
    },
    {
      "inputs": [
        {
          "internalType": "bytes32",
          "name": "",
          "type": "bytes32"
        },
        {
          "internalType": "uint256",
          "name": "",
          "type": "uint256"
        }
      ],
      "name": "extraCollaterals",
      "outputs": [
        {
          "internalType": "address",
          "name": "",
          "type": "address"
        }
      ],
      "stateMutability": "view",
      "type": "function"
    },
    {
      "inputs": [
        {
          "internalType": "bytes32",
          "name": "marketId",
          "type": "bytes32"
        }
      ],
      "name": "getFundingInterval",
      "outputs": [
        {
          "internalType": "uint256",
          "name": "",
          "type": "uint256"
        }
      ],
      "stateMutability": "view",
      "type": "function"
    },
    {
      "inputs": [
        {
          "internalType": "bytes32",
          "name": "marketKey",
          "type": "bytes32"
        }
      ],
      "name": "getIndex",
      "outputs": [
        {
          "components": [
            {
              "internalType": "uint256",
              "name": "longPayout",
              "type": "uint256"
            },
            {
              "internalType": "uint256",
              "name": "shortPayout",
              "type": "uint256"
            },
            {
              "internalType": "uint256",
              "name": "longFunding",
              "type": "uint256"
            },
            {
              "internalType": "uint256",
              "name": "shortFunding",
              "type": "uint256"
            }
          ],
          "internalType": "struct Index",
          "name": "",
          "type": "tuple"
        }
      ],
      "stateMutability": "view",
      "type": "function"
    },
    {
      "inputs": [
        {
          "internalType": "bytes32",
          "name": "marketId",
          "type": "bytes32"
        }
      ],
      "name": "getIndexToken",
      "outputs": [
        {
          "internalType": "address",
          "name": "",
          "type": "address"
        }
      ],
      "stateMutability": "view",
      "type": "function"
    },
    {
      "inputs": [
        {
          "internalType": "bytes32",
          "name": "key",
          "type": "bytes32"
        }
      ],
      "name": "getPosition",
      "outputs": [
        {
          "components": [
            {
              "internalType": "bool",
              "name": "isLong",
              "type": "bool"
            },
            {
              "internalType": "uint256",
              "name": "size",
              "type": "uint256"
            },
            {
              "internalType": "uint256",
              "name": "collateralValue",
              "type": "uint256"
            },
            {
              "internalType": "uint256",
              "name": "collateralAmount",
              "type": "uint256"
            },
            {
              "internalType": "uint256",
              "name": "entryPrice",
              "type": "uint256"
            },
            {
              "internalType": "uint256",
              "name": "entryFundingIndex",
              "type": "uint256"
            },
            {
              "internalType": "uint256",
              "name": "entryPayoutIndex",
              "type": "uint256"
            },
            {
              "internalType": "uint256",
              "name": "reserveAmount",
              "type": "uint256"
            }
          ],
          "internalType": "struct Position",
          "name": "",
          "type": "tuple"
        }
      ],
      "stateMutability": "view",
      "type": "function"
    },
    {
      "inputs": [
        {
          "internalType": "bytes32",
          "name": "key",
          "type": "bytes32"
        }
      ],
      "name": "getPositionSize",
      "outputs": [
        {
          "internalType": "uint256",
          "name": "",
          "type": "uint256"
        }
      ],
      "stateMutability": "view",
      "type": "function"
    },
    {
      "inputs": [
        {
          "internalType": "bytes32",
          "name": "marketId",
          "type": "bytes32"
        }
      ],
      "name": "getPriceFeed",
      "outputs": [
        {
          "internalType": "enum PriceFeedType",
          "name": "feedType",
          "type": "uint8"
        },
        {
          "internalType": "address",
          "name": "priceFeed",
          "type": "address"
        }
      ],
      "stateMutability": "view",
      "type": "function"
    },
    {
      "inputs": [
        {
          "internalType": "bytes32",
          "name": "marketId",
          "type": "bytes32"
        },
        {
          "internalType": "address",
          "name": "collateralToken",
          "type": "address"
        }
      ],
      "name": "getVault",
      "outputs": [
        {
          "internalType": "address",
          "name": "",
          "type": "address"
        }
      ],
      "stateMutability": "view",
      "type": "function"
    },
    {
      "inputs": [
        {
          "internalType": "bytes32",
          "name": "marketId",
          "type": "bytes32"
        },
        {
          "internalType": "address",
          "name": "collateralToken",
          "type": "address"
        },
        {
          "internalType": "bool",
          "name": "open",
          "type": "bool"
        },
        {
          "internalType": "uint256",
          "name": "sizeDelta",
          "type": "uint256"
        }
      ],
      "name": "getVaultAndPositionFee",
      "outputs": [
        {
          "internalType": "address",
          "name": "",
          "type": "address"
        },
        {
          "internalType": "uint256",
          "name": "",
          "type": "uint256"
        },
        {
          "internalType": "uint256",
          "name": "",
          "type": "uint256"
        }
      ],
      "stateMutability": "view",
      "type": "function"
    },
    {
      "inputs": [],
      "name": "gov",
      "outputs": [
        {
          "internalType": "address",
          "name": "",
          "type": "address"
        }
      ],
      "stateMutability": "view",
      "type": "function"
    },
    {
      "inputs": [
        {
          "components": [
            {
              "internalType": "bytes32",
              "name": "marketId",
              "type": "bytes32"
            },
            {
              "internalType": "uint256",
              "name": "sizeDelta",
              "type": "uint256"
            },
            {
              "internalType": "uint256",
              "name": "openFee",
              "type": "uint256"
            },
            {
              "internalType": "uint256",
              "name": "initialCollateralAmount",
              "type": "uint256"
            },
            {
              "internalType": "address",
              "name": "account",
              "type": "address"
            },
            {
              "internalType": "address",
              "name": "collateralToken",
              "type": "address"
            },
            {
              "internalType": "bool",
              "name": "isLong",
              "type": "bool"
            }
          ],
          "internalType": "struct IncreasePositionParams",
          "name": "params",
          "type": "tuple"
        }
      ],
      "name": "increasePosition",
      "outputs": [],
      "stateMutability": "nonpayable",
      "type": "function"
    },
    {
      "inputs": [
        {
          "internalType": "bytes32",
          "name": "",
          "type": "bytes32"
        }
      ],
      "name": "isListed",
      "outputs": [
        {
          "internalType": "bool",
          "name": "",
          "type": "bool"
        }
      ],
      "stateMutability": "view",
      "type": "function"
    },
    {
      "inputs": [
        {
          "components": [
            {
              "internalType": "bytes32",
              "name": "marketId",
              "type": "bytes32"
            },
            {
              "internalType": "address",
              "name": "account",
              "type": "address"
            },
            {
              "internalType": "address",
              "name": "collateralToken",
              "type": "address"
            },
            {
              "internalType": "bool",
              "name": "isLong",
              "type": "bool"
            },
            {
              "internalType": "address",
              "name": "feeTo",
              "type": "address"
            }
          ],
          "internalType": "struct LiquidatePositionParams",
          "name": "params",
          "type": "tuple"
        }
      ],
      "name": "liquidatePosition",
      "outputs": [],
      "stateMutability": "nonpayable",
      "type": "function"
    },
    {
      "inputs": [
        {
          "internalType": "bytes32",
          "name": "",
          "type": "bytes32"
        }
      ],
      "name": "marketAddresses",
      "outputs": [
        {
          "internalType": "address",
          "name": "owner",
          "type": "address"
        },
        {
          "internalType": "address",
          "name": "indexToken",
          "type": "address"
        },
        {
          "internalType": "address",
          "name": "vault",
          "type": "address"
        },
        {
          "internalType": "address",
          "name": "quoteToken",
          "type": "address"
        },
        {
          "internalType": "address",
          "name": "quoteVault",
          "type": "address"
        },
        {
          "internalType": "address",
          "name": "priceFeed",
          "type": "address"
        },
        {
          "internalType": "contract IFundingRateModel",
          "name": "fundingRateModel",
          "type": "address"
        }
      ],
      "stateMutability": "view",
      "type": "function"
    },
    {
      "inputs": [
        {
          "internalType": "bytes32",
          "name": "",
          "type": "bytes32"
        }
      ],
      "name": "marketParams",
      "outputs": [
        {
          "internalType": "bytes32",
          "name": "name",
          "type": "bytes32"
        },
        {
          "internalType": "uint16",
          "name": "maintenanceMarginBps",
          "type": "uint16"
        },
        {
          "internalType": "uint16",
          "name": "liquidationFee",
          "type": "uint16"
        },
        {
          "internalType": "uint16",
          "name": "maxPostionSizeOverVault",
          "type": "uint16"
        },
        {
          "internalType": "uint16",
          "name": "openFee",
          "type": "uint16"
        },
        {
          "internalType": "uint16",
          "name": "closeFee",
          "type": "uint16"
        },
        {
          "internalType": "uint32",
          "name": "fundingInterval",
          "type": "uint32"
        },
        {
          "internalType": "uint8",
          "name": "maxLeverage",
          "type": "uint8"
        },
        {
          "internalType": "uint8",
          "name": "maxExposureMultiplier",
          "type": "uint8"
        },
        {
          "internalType": "uint8",
          "name": "category",
          "type": "uint8"
        },
        {
          "internalType": "enum MarketType",
          "name": "marketType",
          "type": "uint8"
        },
        {
          "internalType": "enum PriceFeedType",
          "name": "priceFeedType",
          "type": "uint8"
        },
        {
          "internalType": "bool",
          "name": "isGoverned",
          "type": "bool"
        }
      ],
      "stateMutability": "view",
      "type": "function"
    },
    {
      "inputs": [
        {
          "internalType": "bytes32",
          "name": "",
          "type": "bytes32"
        }
      ],
      "name": "prevFundingStates",
      "outputs": [
        {
          "internalType": "uint256",
          "name": "timestamp",
          "type": "uint256"
        },
        {
          "internalType": "uint256",
          "name": "longOpenInterest",
          "type": "uint256"
        },
        {
          "internalType": "uint256",
          "name": "shortOpenInterest",
          "type": "uint256"
        },
        {
          "internalType": "int256",
          "name": "fundingRate",
          "type": "int256"
        }
      ],
      "stateMutability": "view",
      "type": "function"
    },
    {
      "inputs": [
        {
          "internalType": "address",
          "name": "_exchange",
          "type": "address"
        }
      ],
      "name": "setExchange",
      "outputs": [],
      "stateMutability": "nonpayable",
      "type": "function"
    },
    {
      "inputs": [
        {
          "internalType": "bytes32",
          "name": "marketId",
          "type": "bytes32"
        },
        {
          "internalType": "bool",
          "name": "flag",
          "type": "bool"
        }
      ],
      "name": "setMarketListed",
      "outputs": [],
      "stateMutability": "nonpayable",
      "type": "function"
    },
    {
      "inputs": [
        {
          "internalType": "bytes32",
          "name": "marketId",
          "type": "bytes32"
        },
        {
          "internalType": "enum PriceFeedType",
          "name": "feedType",
          "type": "uint8"
        },
        {
          "internalType": "address",
          "name": "priceFeed",
          "type": "address"
        }
      ],
      "name": "setPriceFeed",
      "outputs": [],
      "stateMutability": "nonpayable",
      "type": "function"
    },
    {
      "inputs": [
        {
          "internalType": "address",
          "name": "account",
          "type": "address"
        },
        {
          "internalType": "bytes32",
          "name": "marketId",
          "type": "bytes32"
        },
        {
          "internalType": "address",
          "name": "collateralToken",
          "type": "address"
        },
        {
          "internalType": "bool",
          "name": "isLong",
          "type": "bool"
        },
        {
          "internalType": "bool",
          "name": "increase",
          "type": "bool"
        },
        {
          "internalType": "uint256",
          "name": "amount",
          "type": "uint256"
        }
      ],
      "name": "updateCollateral",
      "outputs": [],
      "stateMutability": "nonpayable",
      "type": "function"
    },
    {
      "inputs": [
        {
          "internalType": "address",
          "name": "vault",
          "type": "address"
        },
        {
          "internalType": "uint256",
          "name": "delta",
          "type": "uint256"
        },
        {
          "internalType": "bool",
          "name": "isIncrease",
          "type": "bool"
        }
      ],
      "name": "updateVaultBalance",
      "outputs": [],
      "stateMutability": "nonpayable",
      "type": "function"
    },
    {
      "inputs": [
        {
          "internalType": "bytes32",
          "name": "marketId",
          "type": "bytes32"
        },
        {
          "internalType": "address",
          "name": "collateralToken",
          "type": "address"
        },
        {
          "internalType": "uint256",
          "name": "size",
          "type": "uint256"
        }
      ],
      "name": "validatePositionSize",
      "outputs": [],
      "stateMutability": "view",
      "type": "function"
    }
  ],
  "bytecode": {
    "object": "0x608060405234801561001057600080fd5b506001604055601280546001600160a01b03191633179055615e1380620000386000396000f3fe608060405234801561001057600080fd5b50600436106101c45760003560e01c80637fd065f9116100f9578063acda757c11610097578063b5e5306211610071578063b5e5306214610644578063d2f7265a14610671578063ecefbdc614610684578063f12562f4146106b757600080fd5b8063acda757c14610572578063ada37fe814610585578063b4936fbc1461063157600080fd5b80638c0adf62116100d35780638c0adf62146104cf5780638f30c5cc14610518578063a2c22d2d1461052f578063aa7566de1461054257600080fd5b80637fd065f9146103be5780638527831b146104765780638ab061b7146104bc57600080fd5b80632279ffae1161016657806349e428351161014057806349e428351461032e5780634f7086851461034157806358260ae01461035457806367b1f5df146103ab57600080fd5b80632279ffae146102d05780633f7b158f146102e35780634846a331146102f657600080fd5b80630ea31260116101a25780630ea312601461022157806312d43a51146102345780631928b3cb146102475780631e66cef5146102bd57600080fd5b806302dbbefb146101c95780630889b238146101de578063092a4689146101f1575b600080fd5b6101dc6101d7366004614f5e565b6106da565b005b6101dc6101ec366004614fac565b61096b565b6102046101ff366004614fee565b610a2c565b6040516001600160a01b0390911681526020015b60405180910390f35b6101dc61022f366004615030565b610a41565b601254610204906001600160a01b031681565b61025a61025536600461504c565b610ed6565b60405161021891906000610100820190508251151582526020830151602083015260408301516040830152606083015160608301526080830151608083015260a083015160a083015260c083015160c083015260e083015160e083015292915050565b6101dc6102cb366004615073565b610f93565b6102046102de3660046150aa565b6110ad565b6101dc6102f1366004615030565b6110e5565b6103096103043660046150cc565b61167c565b604080516001600160a01b039094168452602084019290925290820152606001610218565b6101dc61033c366004615114565b6116b6565b6101dc61034f36600461514c565b6117b3565b61038b61036236600461504c565b600360208190526000918252604090912080546001820154600283015492909301549092919084565b604080519485526020850193909352918301526060820152608001610218565b6101dc6103b936600461517c565b61183c565b61045d6103cc36600461504c565b6000602081905290815260409020805460039091015461ffff808216916201000081048216916401000000008204811691600160301b8104821691600160401b8204169063ffffffff600160501b8204169060ff600160701b8204811691600160781b8104821691600160801b8204811691600160881b8104821691600160901b8204811691600160981b9004168d565b6040516102189d9c9b9a999897969594939291906151da565b61048961048436600461504c565b6118b0565b60405161021891908151815260208083015190820152604080830151908201526060918201519181019190915260800190565b6101dc6104ca36600461526c565b611920565b61050a6104dd36600461504c565b6000908152600b60209081526040808320546001600160a01b0316808452600c9092529091205460ff1691565b6040516102189291906152a3565b61052161708081565b604051908152602001610218565b61052161053d3660046152c8565b611e44565b61052161055036600461504c565b600090815260208190526040902060030154600160501b900463ffffffff1690565b6101dc61058036600461530a565b611eae565b6105e861059336600461504c565b600160208190526000918252604090912080549181015460028201546003830154600484015460058501546006909501546001600160a01b039687169694851695938516949283169391831692918216911687565b604080516001600160a01b039889168152968816602088015294871694860194909452918516606085015284166080840152831660a083015290911660c082015260e001610218565b6101dc61063f36600461532f565b611f2f565b61020461065236600461504c565b600090815260016020819052604090912001546001600160a01b031690565b601154610204906001600160a01b031681565b6106a761069236600461504c565b60046020526000908152604090205460ff1681565b6040519015158152602001610218565b6105216106c536600461504c565b6000908152600a602052604090206001015490565b6011546001600160a01b0316331461070d5760405162461bcd60e51b81526004016107049061539f565b60405180910390fd5b8035600090815260046020908152604091829020548251808401909352601483527315114e93585c9ad95d081b9bdd081b1a5cdd195960621b9183019190915260ff1661076d5760405162461bcd60e51b815260040161070491906153c9565b50600061077a823561259d565b905060006107b8833561079360a086016080870161517c565b6107a360c0870160a0880161517c565b6107b360e0880160c08901615417565b6128e0565b6000818152600a602052604081209192506107e385356107de60c0880160a0890161517c565b612935565b9050600061081a86356107fc60c0890160a08a0161517c565b6001600160a01b038516600090815260066020526040902054612b18565b905061083c86358261083260e08a0160c08b01615417565b8960200135612b4e565b600061084a85878986612cce565b60018581015460028701548a3560009081526020819052604090206003015493945061087f93600160701b900460ff16612fe1565b61089487600001356001866001015485613071565b6020818101518251604080518b820135815293840192909252828201525186918935917fc0b155ca0c9d38455de1afd89b90c0bff5af4b4675e8381867d36a670dccca2e9181900360600190a36108f160a088016080890161517c565b6001600160a01b031687357f67f1a5b210a2813e5b73203faaec1e17d8ef7b54cf0d3be59e31d4c3d3ab5a5a8761092e60c08c0160a08d0161517c565b886001015489600201548a600401548b600501548c6006015460405161095a9796959493929190615434565b60405180910390a350505050505050565b6012546001600160a01b031633146109955760405162461bcd60e51b81526004016107049061546d565b6000838152600b6020908152604080832080546001600160a01b0319166001600160a01b0386169081179091558352600c9091529020805483919060ff191660018360028111156109e8576109e8615199565b0217905550827f8e6850b5f501e8f813c1263d3756921287aef4ea24104c4869236217bb69494d8284604051610a1f929190615492565b60405180910390a2505050565b6000610a388383612935565b90505b92915050565b610a49613120565b8035600090815260046020908152604091829020548251808401909352601483527315114e93585c9ad95d081b9bdd081b1a5cdd195960621b9183019190915260ff16610aa95760405162461bcd60e51b815260040161070491906153c9565b506000610ab6823561259d565b90506000610aef8335610acf604086016020870161517c565b610adf606087016040880161517c565b6107b36080880160608901615417565b6000818152600a602052604081206001810154929350919003610b2557604051630a0fcbff60e31b815260040160405180910390fd5b60006040518060a0016040528086600001358152602001866020016020810190610b4f919061517c565b6001600160a01b03168152602001610b6d606088016040890161517c565b6001600160a01b0316815260018401546020820152835460ff161515604091820152909150600090610bac908735906107de9060608a01908a0161517c565b90506000610bbe858785856001613179565b87356000908152600b60209081526040808320546001928390529083209091015487549394509192610c00926001600160a01b0392831692169060ff16613549565b60e083015190915015610c6957610c1d6040890160208a0161517c565b6001600160a01b031688600001357f214b1e54e250e926f8307170b1340dbc63780b0dca413c622c796c9ef7d45ec88460e00151604051610c6091815260200190565b60405180910390a35b60c082015115610ccf57610c836040890160208a0161517c565b6001600160a01b031688600001357f34b03810d23d54d212256a92dfbd9d4df2836bee21bb387fb2d9607083bcee978460c00151604051610cc691815260200190565b60405180910390a35b6000610cf08935610ce660608c0160408d0161517c565b85606001516136d6565b915060009050610d248a35610d0b60608d0160408e0161517c565b8660e001518760a00151610d1f91906154ce565b613716565b90506000818560800151610d3891906154e1565b90506001600160a01b0386166353a51545600183610d5687876154e1565b6040516001600160e01b031960e086901b168152921515600484015260248301919091526044820152606401600060405180830381600087803b158015610d9c57600080fd5b505af1158015610db0573d6000803e3d6000fd5b505050505050610dd3848a6080016020810190610dcd919061517c565b83613740565b7f115ecacc9c8186779eaa47aef3c27bd2faf8865ff3ac7bf6df8bfbb061cd0f3587610e0560408c0160208d0161517c565b604080519283526001600160a01b039091166020830152810184905260600160405180910390a160a083015160e084015160c0850151604080519384526020840192909252828201525188918b35917fc0b155ca0c9d38455de1afd89b90c0bff5af4b4675e8381867d36a670dccca2e9181900360600190a350505060009384525050600a6020525060408120805460ff191681556001810182905560028101829055600381018290556004810182905560058101829055600681018290556007015550610ed36001604055565b50565b610f20604051806101000160405280600015158152602001600081526020016000815260200160008152602001600081526020016000815260200160008152602001600081525090565b506000908152600a6020908152604091829020825161010081018452815460ff16151581526001820154928101929092526002810154928201929092526003820154606082015260048201546080820152600582015460a0820152600682015460c082015260079091015460e082015290565b60408051808201909152600c81526b15539055551213d49256915160a21b6020820152336001600160a01b03851614610fdf5760405162461bcd60e51b815260040161070491906153c9565b506001600160a01b038316600090815260076020908152604091829020548251808401909352600c83526b15539055551213d49256915160a21b9183019190915260ff166110405760405162461bcd60e51b815260040161070491906153c9565b50801561107a576001600160a01b0383166000908152600660205260408120805484929061106f9084906154ce565b909155506110a89050565b6001600160a01b038316600090815260066020526040812080548492906110a29084906154e1565b90915550505b505050565b600260205281600052604060002081815481106110c957600080fd5b6000918252602090912001546001600160a01b03169150829050565b6011546001600160a01b0316331461110f5760405162461bcd60e51b81526004016107049061539f565b8035600090815260046020908152604091829020548251808401909352601483527315114e93585c9ad95d081b9bdd081b1a5cdd195960621b9183019190915260ff1661116f5760405162461bcd60e51b815260040161070491906153c9565b50600061117c823561259d565b905060006111b58335611195604086016020870161517c565b6111a5606087016040880161517c565b6107b360a0880160808901615417565b6000818152600a602052604080822060018101549394509260608701803590911492916111eb918835916107de91908a0161517c565b905060008360010154116040518060400160405280601681526020017554453a506f736974696f6e206e6f742065786973747360501b815250906112425760405162461bcd60e51b815260040161070491906153c9565b5060006112618587611259368b90038b018b61550a565b856000613179565b9050826112d35760018401546002850154883560009081526020819052604081206003015461129c93919290600160701b900460ff16612fe1565b6001840154600285015488356000908152602081905260409020600301546112d392919061ffff80821691620100009004166137ad565b60006112f488356112ea60608b0160408c0161517c565b8460400151613716565b90506000611321893561130d60608c0160408d0161517c565b8560e001518660a00151610d1f91906154ce565b6040840151909150156113fc576003860154600061133f84846154ce565b905081811160008161135257600061135c565b61135c84846154e1565b905060008261136b578361136d565b845b6040516353a5154560e01b81528415600482015260248101849052604481018890529091506001600160a01b038a16906353a5154590606401600060405180830381600087803b1580156113c057600080fd5b505af11580156113d4573d6000803e3d6000fd5b50505050808b60030160008282546113ec91906154e1565b9091555061149695505050505050565b600061140c84608001518361381f565b6040516353a5154560e01b81526001600482015260248101829052604481018490529091506001600160a01b038616906353a5154590606401600060405180830381600087803b15801561145f57600080fd5b505af1158015611473573d6000803e3d6000fd5b50505050836080015187600301600082825461148f91906154e1565b9091555050505b506114ab83610dcd60408b0160208c0161517c565b60a082015160e083015160c0840151604080519384526020840192909252828201525187918a35917fc0b155ca0c9d38455de1afd89b90c0bff5af4b4675e8381867d36a670dccca2e9181900360600190a384600101546000036115f057600185015460028601547f8df7e6e669647ed33ddb00611cb7247ed0f87674bb8707ac6d248388ddf7e85d91889161154760a08d0160808e01615417565b611555578a6060015161155b565b8a604001515b61156b60a08e0160808f01615417565b611579578b6020015161157c565b8b515b604080519586526020860194909452928401919091526060830152608082015260a00160405180910390a16000868152600a60205260408120805460ff1916815560018101829055600281018290556003810182905560048101829055600581018290556006810182905560070155611672565b6116006040890160208a0161517c565b6001600160a01b031688357f67f1a5b210a2813e5b73203faaec1e17d8ef7b54cf0d3be59e31d4c3d3ab5a5a8861163d60608d0160408e0161517c565b89600101548a600201548b600401548c600501548d600601546040516116699796959493929190615434565b60405180910390a35b5050505050505050565b60008060008061168d888787613839565b90506116998888612935565b816116a58a8a85613716565b935093509350509450945094915050565b600083815260046020908152604091829020548251808401909352601483527315114e93585c9ad95d081b9bdd081b1a5cdd195960621b9183019190915260ff166117145760405162461bcd60e51b815260040161070491906153c9565b5060006117218484612935565b90506000611730858585613716565b6001600160a01b038316600090815260066020526040902080546001909101549192509061175f9083906154ce565b11156040518060400160405280601381526020017254453a457863656564206c697175696469747960681b815250906117ab5760405162461bcd60e51b815260040161070491906153c9565b505050505050565b6012546001600160a01b031633146117dd5760405162461bcd60e51b81526004016107049061546d565b6001600160a01b03838116600090815260106020908152604080832080546001600160a01b0319169486169485179055928252600c905220805483919060ff1916600183600281111561183257611832615199565b0217905550505050565b6012546001600160a01b031633146118665760405162461bcd60e51b81526004016107049061546d565b601180546001600160a01b0319166001600160a01b0383169081179091556040517f1b3baff3cd6acb01bcbb187b5b9cb66fabc651693fc14e518c71feeddf4f864b90600090a250565b6118db6040518060800160405280600081526020016000815260200160008152602001600081525090565b50600090815260056020908152604091829020825160808101845281548152600182015492810192909252600281015492820192909252600390910154606082015290565b611928613120565b60006119348484612935565b90506000611944853386866128e0565b905060006119518661259d565b6000838152600a60205260408120600181015492935091900361198757604051630a0fcbff60e31b815260040160405180910390fd5b60008781526020818152604080832081516101e08101835281548152825180840193849052909391929184019160018401906002908288855b825461010083900a900460ff168152602060019283018181049485019490930390920291018084116119c057505050928452505060408051808201918290526020909301929150600284810191826000855b825461010083900a900460ff16815260206001928301818104948501949093039092029101808411611a125790505050509183525050600382015461ffff808216602084015262010000820481166040840152640100000000820481166060840152600160301b820481166080840152600160401b82041660a083015263ffffffff600160501b82041660c083015260ff600160701b8204811660e0840152600160781b82048116610100840152600160801b8204811661012084015261014090920191600160881b909104166002811115611af057611af0615199565b6002811115611b0157611b01615199565b81526020016003820160129054906101000a900460ff166002811115611b2957611b29615199565b6002811115611b3a57611b3a615199565b815260039190910154600160981b900460ff16151560209182015260008a8152600882526040808220548151636d9cad1160e01b8152915194955091936001600160a01b0390921692636d9cad11926004808401938290030181865afa158015611ba8573d6000803e3d6000fd5b505050506040513d601f19601f82011682018060405250810190611bcc9190615590565b6006840154600585015460018601548654939450600093611bf69389939092909160ff1687613893565b509050611c1660018560010154866002015486610120015160ff16612fe1565b60008a8152600b6020908152604080832054600192839052908320909101548654611c52926001600160a01b0390811692169060ff1615613549565b90506000611c7a866002015487600101548760e0015161ffff16886080015161ffff166139d1565b6040805161010081018252885460ff161515815260018901546020820152600289015491810191909152600388015460608083019190915260048901546080830152600589015460a0830152600689015460c0830152600789015460e0830152870151919250611cf49189908590859061ffff1689613a11565b15611d1257604051633a23d82560e01b815260040160405180910390fd5b5088611d22578560200151611d25565b85515b60068601556000611d378c8c85613716565b600387015490915081811015611dce576000611d5382846154e1565b600060038a018190556040516353a5154560e01b8152600481018290526024810183905260448101919091529091506001600160a01b038c16906353a5154590606401600060405180830381600087803b158015611db057600080fd5b505af1158015611dc4573d6000803e3d6000fd5b5050505050611de8565b81876003016000828254611de291906154e1565b90915550505b611df38a3384613740565b604080518a81526020810184905233918f917f2a0094a76708843eb9817db36aa3f17b406a7d40ee8bf64049824d58a8b70ed4910160405180910390a3505050505050505050506110a86001604055565b6000611e5861022083016102008401615417565b15611ea4576012546001600160a01b03163314611ea45760405162461bcd60e51b815260206004820152600a6024820152692a229d37b7363ca3b7bb60b11b6044820152606401610704565b610a388383613aff565b6012546001600160a01b03163314611ed85760405162461bcd60e51b81526004016107049061546d565b600082815260046020908152604091829020805460ff1916841515908117909155915191825283917fb87c4351edb618bb127b9be643b5b10d652a57f058533fbc3bff6facf08b0f18910160405180910390a25050565b6011546001600160a01b03163314611f595760405162461bcd60e51b81526004016107049061539f565b6000611f658686612935565b60008781526020818152604080832081516101e081018352815481528251808401938490529596509394909284019160018401906002908288855b825461010083900a900460ff16815260206001928301818104948501949093039092029101808411611fa057505050928452505060408051808201918290526020909301929150600284810191826000855b825461010083900a900460ff16815260206001928301818104948501949093039092029101808411611ff25790505050509183525050600382015461ffff808216602084015262010000820481166040840152640100000000820481166060840152600160301b820481166080840152600160401b82041660a083015263ffffffff600160501b82041660c083015260ff600160701b8204811660e0840152600160781b82048116610100840152600160801b8204811661012084015261014090920191600160881b9091041660028111156120d0576120d0615199565b60028111156120e1576120e1615199565b81526020016003820160129054906101000a900460ff16600281111561210957612109615199565b600281111561211a5761211a615199565b815260039190910154600160981b900460ff161515602090910152905083156121d05760006121ab836001600160a01b03166385d966026040518163ffffffff1660e01b81526004016020604051808303816000875af1158015612182573d6000803e3d6000fd5b505050506040513d601f19601f820116820180604052508101906121a69190615590565b613f34565b9050838110156121ce5760405163fbd85bc360e01b815260040160405180910390fd5b505b60006121db8861259d565b905060006121eb89898888613f7f565b905060006121fb8a8c8b8b6128e0565b6000818152600a60205260408120600181015492935091900361223157604051630a0fcbff60e31b815260040160405180910390fd5b8715612271578281600201600082825461224b91906154ce565b925050819055508681600301600082825461226691906154ce565b909155506123979050565b82816002015410156040518060400160405280601a81526020017f54453a496e76616c696420636f6c6c61746572616c44656c7461000000000000815250906122cd5760405162461bcd60e51b815260040161070491906153c9565b50828160020160008282546122e291906154e1565b909155505060038101548781101561237b576000612300828a6154e1565b6000600385018190556040516353a5154560e01b8152600481018290526024810183905260448101919091529091506001600160a01b038916906353a5154590606401600060405180830381600087803b15801561235d57600080fd5b505af1158015612371573d6000803e3d6000fd5b5050505050612395565b8782600301600082825461238f91906154e1565b90915550505b505b6123b460018260010154836002015488610120015160ff16612fe1565b60008b8152600b60209081526040808320546001928390529083209091015483546123f0926001600160a01b0390811692169060ff1615613549565b60008d8152600860209081526040808320548151636d9cad1160e01b8152915194955092936001600160a01b0390931692636d9cad11926004808401939192918290030181865afa158015612449573d6000803e3d6000fd5b505050506040513d601f19601f8201168201806040525081019061246d9190615590565b90506000612495846002015485600101548a60e0015161ffff168b6080015161ffff166139d1565b6040805161010081018252865460ff161515815260018701546020820152600287015491810191909152600386015460608083019190915260048701546080830152600587015460a0830152600687015460c0830152600787015460e08301528a015191925061250f9189908690859061ffff1687613a11565b1561252d57604051633a23d82560e01b815260040160405180910390fd5b5050508761254057612540868d89613740565b6040805183815289151560208201529081018890526001600160a01b038d16908c907fd6c7122652426fa6fb8aacc6e37c149d14c8a0acc4c5bcb465ecc6260d762bee9060600160405180910390a3505050505050505050505050565b6125c86040518060800160405280600081526020016000815260200160008152602001600081525090565b6000828152600360208181526040808420815160808082018452825482526001808401548387015260028085015484870152938701546060808501919091528a895260058752858920865193840187528054845280830154848901528086015484880152880154908301528988526009865284882093840154939096015460088652848820855180870190965280546001600160a01b0316865290960154948401949094528051909593949193919291429190036126ad57602082015161268f81836155bf565b61269991906155d3565b6000898152600360205260409020556128d4565b60208201518651600091906126c290846154e1565b6126cc91906155bf565b9050806000036126e3575093979650505050505050565b82516040805163cb0d671960e01b81528951600482015260208a01516024820152908901516044820152606089015160648201526084810187905260a481018690526000916001600160a01b03169063cb0d67199060c401602060405180830381865afa158015612758573d6000803e3d6000fd5b505050506040513d601f19601f8201168201806040525081019061277c9190615590565b9050600084600001516001600160a01b031663f5a701ff6040518163ffffffff1660e01b8152600401602060405180830381865afa1580156127c2573d6000803e3d6000fd5b505050506040513d601f19601f820116820180604052508101906127e691906155ea565b9050600183111561281e5761281e8b896128038c60600151613fc5565b60208d015160408e015161281860018a6154e1565b87613fe1565b6128368b8961282c85613fc5565b8a8a600187613fe1565b60608901829052602085015161284c90846155d3565b89518a9061285b9083906154ce565b905250505050602080870194855260408088019485526000998a5260058252808a208751815587830151600180830191909155888301516002808401919091556060808b01516003948501559483905292909b208951815596519a87019a909a5593519385019390935550509092015191909301555090565b50929695505050505050565b60408051602081018690526001600160a01b03808616928201929092529083166060820152811515608082015260009060a0015b6040516020818303038152906040528051906020012090505b949350505050565b6000828152600160208181526040808420815160e08101835281546001600160a01b039081168252948201548516818501526002820154851681840152600380830154861660608301526004830154861660808301526005830154861660a083015260069092015490941660c08501528685529184905283200154600160881b900460ff16828160028111156129cd576129cd615199565b03612a965781602001516001600160a01b0316846001600160a01b03161480612a0b575081606001516001600160a01b0316846001600160a01b0316145b6040518060400160405280601b81526020017f54453a496e76616c696420636f6c6c61746572616c20746f6b656e000000000081525090612a5f5760405162461bcd60e51b815260040161070491906153c9565b5081602001516001600160a01b0316846001600160a01b031614612a87578160800151612a8d565b81604001515b92505050610a3b565b81606001516001600160a01b0316846001600160a01b0316146040518060400160405280601b81526020017f54453a496e76616c696420636f6c6c61746572616c20746f6b656e000000000081525090612b035760405162461bcd60e51b815260040161070491906153c9565b5050608001519050610a3b565b505092915050565b600080612b25848661407b565b90506000612b3582866001613549565b9050612b428582866140dc565b925050505b9392505050565b8115612c0f576000848152602081905260408120600281015460039091015460649160ff90811691612b89918891600160781b9004166155d3565b612b9391906155d3565b612b9d91906155bf565b6000868152600960205260409020600201549091508190612bbf9084906154ce565b11156040518060400160405280601081526020016f54453a457863656564206d6178204f4960801b81525090612c085760405162461bcd60e51b815260040161070491906153c9565b5050612cc8565b60008481526020819052604081206002810154600390910154606491610100900460ff90811691612c49918891600160781b9004166155d3565b612c5391906155d3565b612c5d91906155bf565b6000868152600960205260409020600301549091508190612c7f9084906154ce565b11156040518060400160405280601081526020016f54453a457863656564206d6178204f4960801b815250906117ab5760405162461bcd60e51b815260040161070491906153c9565b50505050565b612cf260405180606001604052806000815260200160008152602001600081525090565b6000612d28612d11612d0a60c0870160a0880161517c565b863561407b565b612d2160c0870160a0880161517c565b6000613549565b9050600080612d47612d4060c0880160a0890161517c565b86856140ff565b90925090506000612d6c612d6160c0890160a08a0161517c565b858960200135614163565b6040805160e080820183528a356000908152600b60209081528482205460019182905294822001549495509391928392612dc4926001600160a01b039283169290911690612dbf908e0160c08f01615417565b613549565b815260208a810135818301526040808301889052606083018790528b35600090815260088352819020548151636d9cad1160e01b815291516080909401936001600160a01b0390911692636d9cad1192600480820193918290030181865afa158015612e34573d6000803e3d6000fd5b505050506040513d601f19601f82011682018060405250810190612e589190615590565b815260208101849052604001612e7460e08b0160c08c01615417565b1515905260008b8152600a60205260409020909150612e9490828b614195565b6001600160a01b038816600090815260066020526040812060010180549298508492909190612ec49084906154ce565b90915550612efb90508460208a0135612ee360e08c0160c08d01615417565b8b356000908152600960205260409020929190614310565b60408051893581526001600160a01b0389166020820152908101849052606081018390527f8038ea1c3fdc88603e9b28128d8fa354638c6846714b6dd28c32a89aeed7d2b49060800160405180910390a150612f5f905060a087016080880161517c565b6001600160a01b031686357fc08dc218345ed0fbd335a5defb619d2258d44c68e64f81e2f80fb537b8a75e6e8a612faa612f9f60c08c0160a08d0161517c565b888c606001356140dc565b612fbb8b35600160208e0135613839565b8b8a604051612fce95949392919061560b565b60405180910390a3505050949350505050565b838015612fec575082155b1561300a57604051631ee7bc0160e21b815260040160405180910390fd5b61301481836155d3565b831115612cc85760405162461bcd60e51b815260206004820152602560248201527f5269736b4d616e6167656d656e743a206d6178206c6576657261676520657863604482015264195959195960da1b6064820152608401610704565b82801561307c575081155b1561309a57604051631ee7bc0160e21b815260040160405180910390fd5b600084815260208190526040902060030154612710906130c7908390640100000000900461ffff166155d3565b6130d191906155bf565b821115612cc85760405162461bcd60e51b815260206004820152601b60248201527f56616c696461746f723a3a73697a652065786365656473206d617800000000006044820152606401610704565b6002604054036131725760405162461bcd60e51b815260206004820152601f60248201527f5265656e7472616e637947756172643a207265656e7472616e742063616c6c006044820152606401610704565b6002604055565b613181614efa565b83516000908152600b6020908152604080832054898452600a8352818420885185526001938490529184209092015481546001600160a01b039384169492936131d192869291169060ff16613549565b60028301546060890151895160009081526020819052604081206003015493945092613238929190600160401b900461ffff168961321057600061322f565b8b5160009081526020819052604090206003015462010000900461ffff165b61ffff166139d1565b88516000908152600860209081526040808320548151636d9cad1160e01b8152915194955092936001600160a01b0390931692636d9cad11926004808401939192918290030181865afa158015613293573d6000803e3d6000fd5b505050506040513d601f19601f820116820180604052508101906132b79190615590565b905086151560010361339e576040805161010081018252855460ff16151581526001860154602080830191909152600287015482840152600380880154606084015260048801546080840152600588015460a0840152600688015460c0840152600788015460e08401528c516000908152918290529290209091015461334891908c908690869061ffff1686613a11565b6040518060400160405280601c81526020017f54453a506f736974696f6e206e6f74206c6971756964617461626c65000000008152509061339c5760405162461bcd60e51b815260040161070491906153c9565b505b604080516080810182526060808c01518252602082018690529181018490529081018290526133ce85828d614391565b96508660200151600660008b6001600160a01b03166001600160a01b03168152602001908152602001600020600101600082825461340c91906154e1565b9091555050606080880151908b015186548c51600090815260096020526040902061343d939092909160ff1661464b565b89602001516001600160a01b03168a600001517fa2e3cd9c7dc9e8ac3598417df07b79b4457abe6c9c785e12a0e14353af7dbe888e8d8b6040516135329392919060006101e08201905084825283516020830152602084015160018060a01b0380821660408501528060408701511660608501525050606084015160808301526080840151151560a0830152825160c0830152602083015160e0830152604083015161010081818501526060850151610120850152608085015161014085015260a085015161016085015260c085015161018085015260e08501516101a0850152808501516101c08501525050949350505050565b60405180910390a350505050505095945050505050565b6001600160a01b0383166000908152600c602052604081205460ff16818082600281111561357957613579615199565b036135f7576040516303b6b4bb60e51b81526001600160a01b03868116600483015285151560248301528716906376d6976090604401602060405180830381865afa1580156135cc573d6000803e3d6000fd5b505050506040513d601f19601f820116820180604052508101906135f09190615590565b905061367d565b600182600281111561360b5761360b615199565b0361367d576040516341976e0960e01b81526001600160a01b0386811660048301528716906341976e0990602401602060405180830381865afa158015613656573d6000803e3d6000fd5b505050506040513d601f19601f8201168201806040525081019061367a9190615590565b90505b600081116136cd5760405162461bcd60e51b815260206004820152601c60248201527f54726164696e67456e67696e653a3a494e56414c49445f5052494345000000006044820152606401610704565b95945050505050565b600083815260208190526040812060030154819062010000900461ffff166136fe84826146c4565b925061370b868685613716565b915050935093915050565b600080613723848661407b565b9050600061373382866000613549565b9050612b42858286614163565b80156110a857604051635f4af00d60e11b8152600481018290526001600160a01b03838116602483015284169063be95e01a90604401600060405180830381600087803b15801561379057600080fd5b505af11580156137a4573d6000803e3d6000fd5b50505050505050565b60006137b984836146c4565b905060006127106137ca85886155d3565b6137d491906155bf565b905060006137e1836146d4565b6137ea876146d4565b6137f491906156b5565b90506137ff826146d4565b8112156137a457604051633a23d82560e01b815260040160405180910390fd5b600081831161382f576000610a38565b610a3882846154e1565b6000808361386357600085815260208190526040902060030154600160401b900461ffff16613881565b600085815260208190526040902060030154600160301b900461ffff165b61ffff1690506000612b4284836146c4565b6000806000846138a75788602001516138aa565b88515b90506000856138bd5789606001516138c3565b89604001515b9050818911156139285760405162461bcd60e51b815260206004820152602a60248201527f46756e64696e674d616e616765723a20696e76616c696420656e7472792070616044820152690f2deeae840d2dcc8caf60b31b6064820152608401610704565b8088111561398c5760405162461bcd60e51b815260206004820152602b60248201527f46756e64696e674d616e616765723a20696e76616c696420656e74727920667560448201526a0dcc8d2dcce40d2dcc8caf60ab1b6064820152608401610704565b60006139988a846154e1565b90506139a581898861473e565b945060006139b38a846154e1565b90506139c0818a8961473e565b945050505050965096945050505050565b6000806139de85856146c4565b905060008084116139f05760006139fa565b6139fa87856146c4565b9050613a0682826154ce565b979650505050505050565b60008660200151600003613a2757506000613af5565b600080613a48888a60c001518b60a001518c602001518d6000015189613893565b915091506000613a668a600001518b602001518c608001518b614828565b90506000613a73886146d4565b613a7c846146d4565b613a85866146d4565b613a8f91906156b5565b613a9991906156b5565b90506000612710888d60200151613ab091906155d3565b613aba91906155bf565b905060008284613acd8f604001516146d4565b613ad791906156dc565b613ae191906156dc565b9050613aec826146d4565b13955050505050505b9695505050505050565b600080613b1060006001868661488e565b60008181526004602052604090819020805460ff19166001179055805180820190915290915080613b4760e0870160c0880161517c565b6001600160a01b03168152602001613b676101608601610140870161570e565b63ffffffff1690526000828152600860209081526040808320845181546001600160a01b0319166001600160a01b03909116178155939091015160019093019290925590613bbb906060870190870161517c565b6001600160a01b0316141560076000613bda606088016040890161517c565b6001600160a01b0316815260208101919091526040016000908120805460ff191692151592909217909155613c1560a086016080870161517c565b6001600160a01b0316141560076000613c3460a088016080890161517c565b6001600160a01b031681526020810191909152604001600020805460ff1916911515919091179055613c6c60c0850160a0860161517c565b6000828152600b6020526040902080546001600160a01b0319166001600160a01b0392909216919091179055613caa61020084016101e0850161572b565b600c6000613cbe60c0880160a0890161517c565b6001600160a01b031681526020810191909152604001600020805460ff19166001836002811115613cf157613cf1615199565b02179055506000613d0a6101e085016101c0860161572b565b6002811115613d1b57613d1b615199565b148015613d565750600e6000613d37604087016020880161517c565b6001600160a01b0316815260208101919091526040016000205460ff16155b15613e12576000613d6d604086016020870161517c565b6001600160a01b031663313ce5676040518163ffffffff1660e01b8152600401602060405180830381865afa158015613daa573d6000803e3d6000fd5b505050506040513d601f19601f82011682018060405250810190613dce9190615757565b905080600e6000613de56040890160208a0161517c565b6001600160a01b031681526020810191909152604001600020805460ff191660ff92909216919091179055505b6000613e266101e085016101c0860161572b565b6002811115613e3757613e37615199565b148015613e725750600e6000613e53608087016060880161517c565b6001600160a01b0316815260208101919091526040016000205460ff16155b15610a38576000613e89608086016060870161517c565b6001600160a01b031663313ce5676040518163ffffffff1660e01b8152600401602060405180830381865afa158015613ec6573d6000803e3d6000fd5b505050506040513d601f19601f82011682018060405250810190613eea9190615757565b905080600e6000613f016080890160608a0161517c565b6001600160a01b031681526020810191909152604001600020805460ff191660ff92909216919091179055509392505050565b6000808211604051806040016040528060088152602001670c08185b5bdd5b9d60c21b81525090613f785760405162461bcd60e51b815260040161070491906153c9565b5090919050565b60008083613fa157613f9c613f94868861407b565b866001613549565b613fb6565b613fb6613fae868861407b565b866000613549565b90506000613a068683866140dc565b600080821215613fdd57613fd882615774565b610a3b565b5090565b841561400657613ff185836155d3565b8660400181815161400291906154ce565b9052505b614014868686868686614b5f565b60408681015160608089015189516020808c0151865195865290850192909252838501529082015260808101849052905188917f3669d261af67498c8e1e3716ecdb7cbd885c8ee96919ea5cacf83bbc4dc45ebb919081900360a00190a250505050505050565b6001600160a01b0382811660009081526010602052604081205490918291166140bb576000838152600b60205260409020546001600160a01b031661292d565b5050506001600160a01b039081166000908152601060205260409020541690565b6000806136cd846140ec87614bcb565b6140f790600a615874565b85919061473e565b6000806000614147856001600160a01b03166385d966026040518163ffffffff1660e01b81526004016020604051808303816000875af1158015612182573d6000803e3d6000fd5b905060006141568786846140dc565b9791965090945050505050565b6001600160a01b0383166000908152600e602052604081205460ff166136cd61418d82600a615874565b84908661473e565b6141b960405180606001604052806000815260200160008152602001600081525090565b600184015460008190036141d357835160048601556141f6565b6141f08186600401548660c0015187600001518860200151614c86565b60048601555b6006850154600586015486546080870151600093849361421d938993889160ff1690613893565b91509150600061424b8388604001518a6002015461423b91906154ce565b61424591906154ce565b8361381f565b9050808860020181905550866020015188600101600082825461426e91906154ce565b909155505060c087015161428657856060015161428c565b85604001515b600589015560c08701516142a45785602001516142a7565b85515b600689015560c0870151885460ff191690151517885560a08701516007890180546000906142d69084906154ce565b909155505060608701516003890180546000906142f49084906154ce565b9091555050509083526020830152509151604083015250919050565b8015614335578184600201600082825461432a91906154ce565b9091555061434f9050565b8184600301600082825461434991906154ce565b90915550505b8284600101600082825461436391906154ce565b90915550614373905083836154e1565b84600001600082825461438691906154ce565b909155505050505050565b614399614efa565b8251600185015410156144045760405162461bcd60e51b815260206004820152602d60248201527f506f736974696f6e3a64656372656173653a20696e73756666696369656e742060448201526c706f736974696f6e2073697a6560981b6064820152608401610704565b600184015484546004860154602086015160009261442a9260ff90911691859190614828565b905061443986600101546146d4565b8551614444906146d4565b61444e9083615883565b61445891906158b3565b8352600686015460058701548754606088015161448093889390929091879160ff1690613893565b60e085015260c08401528451600090831461449c5760006144a2565b86600201545b905060008188600201546144b691906154e1565b905060006144c788604001516146d4565b6144d48760e001516146d4565b6144e18860c001516146d4565b6144ea866146d4565b89516144f691906156dc565b61450091906156dc565b61450a91906156b5565b61451491906156b5565b90506000811215614534576145318261452c83613fc5565b61381f565b91505b6001890154885160078b015461454a91906155d3565b61455491906155bf565b60208701526000811361456857600061456a565b805b6040870152600289015461457f9083906154e1565b60608701819052604089015160a08801526020890151610100880152895460ff1690156145cf57896002015487606001518b600301546145bf91906155d3565b6145c991906155bf565b60808801525b806145de5787606001516145e4565b87604001515b60058b0155806145f85787602001516145fb565b87515b60068b0155885160018b0180546000906146169084906154e1565b909155505060028a01839055602087015160078b015461463691906154e1565b8a600701819055505050505050509392505050565b8015614670578184600201600082825461466591906154e1565b9091555061468a9050565b8184600301600082825461468491906154e1565b90915550505b8284600101600082825461469e91906154e1565b9091555050835482906146b29085906154ce565b6146bc91906154e1565b909355505050565b6000610a388383620f424061473e565b60006001600160ff1b03821115613fdd5760405162461bcd60e51b815260206004820152602860248201527f53616665436173743a2076616c756520646f65736e27742066697420696e2061604482015267371034b73a191a9b60c11b6064820152608401610704565b60008080600019858709858702925082811083820303915050806000036147785783828161476e5761476e6155a9565b0492505050612b47565b8084116147bf5760405162461bcd60e51b81526020600482015260156024820152744d6174683a206d756c446976206f766572666c6f7760581b6044820152606401610704565b60008486880960026001871981018816978890046003810283188082028403028082028403028082028403028082028403028082028403029081029092039091026000889003889004909101858311909403939093029303949094049190911702949350505050565b60008360000361483a5750600061292d565b841561486b57600061484c84846156b5565b9050836148598683615883565b61486391906158b3565b91505061292d565b600061487783856156b5565b9050836148848683615883565b613af591906158b3565b6000808052602084905260408120546001600160a01b0316156148f35760405162461bcd60e51b815260206004820152601c60248201527f4d61726b65744d616e616765723a206d61726b657420657869737473000000006044820152606401610704565b61491c614905368590038501856158e1565b6149176101e085016101c0860161572b565b614ce5565b600061492e6080840160608501615999565b60ff16118061494f5750600061494a60a0840160808501615999565b60ff16115b156149de5761496460a0830160808401615999565b6149746080840160608501615999565b61497e91906159b6565b60ff166064146149de5760405162461bcd60e51b815260206004820152602560248201527f4d61726b65744d616e616765723a696e76616c6964206c6f6e672f73686f727460448201526420736b657760d81b6064820152608401610704565b614a256149f36101e084016101c0850161572b565b614a00602086018661517c565b614a10604087016020880161517c565b614a20608088016060890161517c565b614ee1565b60008181526020879052604090209091508290614a428282615aac565b505060008181526020859052604090208390614a5e8282615cec565b50614a6e9050602084018461517c565b6001600160a01b031681614a8a6101e085016101c0860161572b565b6002811115614a9b57614a9b615199565b7fe5f04d51f59636bb2fc0b095fb0bb594333fee72d7cd6b31eb2e6cd2de0f3271614acc604088016020890161517c565b614adc6080890160608a0161517c565b8735614af06102208a016102008b01615417565b614b026101c08b016101a08c01615999565b614b146101808c016101608d01615999565b604080516001600160a01b039788168152969095166020870152938501929092521515606084015260ff90811660808401521660a082015260c00160405180910390a4949350505050565b6001816001811115614b7357614b73615199565b146117ab57600085118015614b885750600083115b15614bc6578284614b9987856155d3565b614ba391906155d3565b614bad91906155bf565b86602001818151614bbe91906154ce565b9052506117ab565b6117ab565b6001600160a01b0381166000908152600e602052604081205460ff168015614bf35792915050565b6000836001600160a01b031663313ce5676040518163ffffffff1660e01b8152600401602060405180830381865afa158015614c33573d6000803e3d6000fd5b505050506040513d601f19601f82011682018060405250810190614c579190615757565b6001600160a01b03949094166000908152600e60205260409020805460ff191660ff8616179055509192915050565b600081600003614c975750836136cd565b6000614ca585888887614828565b90506000614cb384896154ce565b90506000614cc183836156dc565b905080614cce83886155d3565b614cd891906155bf565b9998505050505050505050565b6000816002811115614cf957614cf9615199565b03614d475760408083015181518083019092526006825265183c30b2323960d11b60208301526001600160a01b0316614d455760405162461bcd60e51b815260040161070491906153c9565b505b6002816002811115614d5b57614d5b615199565b14614dba5760006001600160a01b031682602001516001600160a01b0316141560405180604001604052806006815260200165183c30b2323960d11b81525090614db85760405162461bcd60e51b815260040161070491906153c9565b505b6060820151604080518082019091526006815265183c30b2323960d11b6020820152906001600160a01b0316614e035760405162461bcd60e51b815260040161070491906153c9565b506080820151604080518082019091526006815265183c30b2323960d11b6020820152906001600160a01b0316614e4d5760405162461bcd60e51b815260040161070491906153c9565b5060a0820151604080518082019091526006815265183c30b2323960d11b6020820152906001600160a01b0316614e975760405162461bcd60e51b815260040161070491906153c9565b5060c0820151604080518082019091526006815265183c30b2323960d11b6020820152906001600160a01b03166110a85760405162461bcd60e51b815260040161070491906153c9565b6000848484846040516020016129149493929190615da9565b6040518061012001604052806000815260200160008152602001600081526020016000815260200160008152602001600081526020016000815260200160008152602001600081525090565b600060e08284031215614f5857600080fd5b50919050565b600060e08284031215614f7057600080fd5b610a388383614f46565b60038110610ed357600080fd5b6001600160a01b0381168114610ed357600080fd5b8035614fa781614f87565b919050565b600080600060608486031215614fc157600080fd5b833592506020840135614fd381614f7a565b91506040840135614fe381614f87565b809150509250925092565b6000806040838503121561500157600080fd5b82359150602083013561501381614f87565b809150509250929050565b600060a08284031215614f5857600080fd5b600060a0828403121561504257600080fd5b610a38838361501e565b60006020828403121561505e57600080fd5b5035919050565b8015158114610ed357600080fd5b60008060006060848603121561508857600080fd5b833561509381614f87565b9250602084013591506040840135614fe381615065565b600080604083850312156150bd57600080fd5b50508035926020909101359150565b600080600080608085870312156150e257600080fd5b8435935060208501356150f481614f87565b9250604085013561510481615065565b9396929550929360600135925050565b60008060006060848603121561512957600080fd5b83359250602084013561513b81614f87565b929592945050506040919091013590565b60008060006060848603121561516157600080fd5b833561516c81614f87565b92506020840135614fd381614f7a565b60006020828403121561518e57600080fd5b8135610a3881614f87565b634e487b7160e01b600052602160045260246000fd5b60038110610ed357634e487b7160e01b600052602160045260246000fd5b6151d6816151af565b9052565b8d815261ffff8d811660208301528c811660408301528b811660608301528a81166080830152891660a082015263ffffffff881660c082015260ff871660e08201526101a0810160ff871661010083015260ff86166101208301526152436101408301866151cd565b6152516101608301856151cd565b8215156101808301529e9d5050505050505050505050505050565b60008060006060848603121561528157600080fd5b83359250602084013561529381614f87565b91506040840135614fe381615065565b604081016152b0846151af565b9281526001600160a01b039190911660209091015290565b6000808284036103008112156152dd57600080fd5b6152e78585614f46565b925061022060df19820112156152fc57600080fd5b5060e0830190509250929050565b6000806040838503121561531d57600080fd5b82359150602083013561501381615065565b60008060008060008060c0878903121561534857600080fd5b863561535381614f87565b955060208701359450604087013561536a81614f87565b9350606087013561537a81615065565b9250608087013561538a81615065565b8092505060a087013590509295509295509295565b60208082526010908201526f54453a206f6e6c7965786368616e676560801b604082015260600190565b600060208083528351808285015260005b818110156153f6578581018301518582016040015282016153da565b506000604082860101526040601f19601f8301168501019250505092915050565b60006020828403121561542957600080fd5b8135610a3881615065565b9687526001600160a01b0395909516602087015260408601939093526060850191909152608084015260a083015260c082015260e00190565b6020808252600b908201526a2a229d1037b7363cb3b7bb60a91b604082015260600190565b6001600160a01b0383168152604081016154ab836151af565b8260208301529392505050565b634e487b7160e01b600052601160045260246000fd5b80820180821115610a3b57610a3b6154b8565b81810381811115610a3b57610a3b6154b8565b634e487b7160e01b600052604160045260246000fd5b600060a0828403121561551c57600080fd5b60405160a0810181811067ffffffffffffffff8211171561553f5761553f6154f4565b60405282358152602083013561555481614f87565b6020820152604083013561556781614f87565b604082015260608381013590820152608083013561558481615065565b60808201529392505050565b6000602082840312156155a257600080fd5b5051919050565b634e487b7160e01b600052601260045260246000fd5b6000826155ce576155ce6155a9565b500490565b8082028115828204841417610a3b57610a3b6154b8565b6000602082840312156155fc57600080fd5b815160028110610a3857600080fd5b60006101a0820190508682528560208301528460408301528335606083015260208401356080830152604084013560a0830152606084013560c0830152608084013561565681614f87565b6001600160a01b0390811660e084015260a08501359061567582614f87565b1661010083015260c084013561568a81615065565b1515610120830152825161014083015260208301516101608301526040830151610180830152613af5565b81810360008312801583831316838312821617156156d5576156d56154b8565b5092915050565b8082018281126000831280158216821582161715612b1057612b106154b8565b63ffffffff81168114610ed357600080fd5b60006020828403121561572057600080fd5b8135610a38816156fc565b60006020828403121561573d57600080fd5b8135610a3881614f7a565b60ff81168114610ed357600080fd5b60006020828403121561576957600080fd5b8151610a3881615748565b6000600160ff1b8201615789576157896154b8565b5060000390565b600181815b808511156157cb5781600019048211156157b1576157b16154b8565b808516156157be57918102915b93841c9390800290615795565b509250929050565b6000826157e257506001610a3b565b816157ef57506000610a3b565b8160018114615805576002811461580f5761582b565b6001915050610a3b565b60ff841115615820576158206154b8565b50506001821b610a3b565b5060208310610133831016604e8410600b841016171561584e575081810a610a3b565b6158588383615790565b806000190482111561586c5761586c6154b8565b029392505050565b6000610a3860ff8416836157d3565b80820260008212600160ff1b8414161561589f5761589f6154b8565b8181058314821517610a3b57610a3b6154b8565b6000826158c2576158c26155a9565b600160ff1b8214600019841416156158dc576158dc6154b8565b500590565b600060e082840312156158f357600080fd5b60405160e0810181811067ffffffffffffffff82111715615916576159166154f4565b604052823561592481614f87565b8152602083013561593481614f87565b6020820152604083013561594781614f87565b6040820152606083013561595a81614f87565b606082015261596b60808401614f9c565b608082015261597c60a08401614f9c565b60a082015261598d60c08401614f9c565b60c08201529392505050565b6000602082840312156159ab57600080fd5b8135610a3881615748565b60ff8181168382160190811115610a3b57610a3b6154b8565b60008135610a3b81615748565b816000805b6002811015615a1d5782356159f581615748565b8160031b60ff808316821b81831b1986161794505050506020830192506001810190506159e1565b509091555050565b6000813561ffff81168114610a3b57600080fd5b60008135610a3b816156fc565b60008135610a3b81614f7a565b615a5c826151af565b805460ff60881b191660889290921b60ff60881b16919091179055565b615a82826151af565b805460ff60901b191660909290921b60ff60901b16919091179055565b60008135610a3b81615065565b81358155615ac060208301600183016159dc565b615ad060608301600283016159dc565b60038101615af6615ae360a08501615a25565b825461ffff191661ffff91909116178255565b615b1f615b0560c08501615a25565b825463ffff0000191660109190911b63ffff000016178255565b615b4c615b2e60e08501615a25565b825465ffff00000000191660209190911b65ffff0000000016178255565b615b7e615b5c6101008501615a25565b825467ffff000000000000191660309190911b67ffff00000000000016178255565b615bb4615b8e6101208501615a25565b825469ffff0000000000000000191660409190911b69ffff000000000000000016178255565b615be8615bc46101408501615a39565b82805463ffffffff60501b191660509290921b63ffffffff60501b16919091179055565b615c16615bf861016085016159cf565b82805460ff60701b191660709290921b60ff60701b16919091179055565b615c44615c2661018085016159cf565b82805460ff60781b191660789290921b60ff60781b16919091179055565b615c72615c546101a085016159cf565b82805460ff60801b191660809290921b60ff60801b16919091179055565b615c88615c826101c08501615a46565b82615a53565b615c9e615c986101e08501615a46565b82615a79565b6110a8615cae6102008501615a9f565b82805460ff60981b191691151560981b60ff60981b16919091179055565b80546001600160a01b0319166001600160a01b0392909216919091179055565b8135615cf781614f87565b615d018183615ccc565b506020820135615d1081614f87565b615d1d8160018401615ccc565b506040820135615d2c81614f87565b615d398160028401615ccc565b506060820135615d4881614f87565b615d558160038401615ccc565b506080820135615d6481614f87565b615d718160048401615ccc565b5060a0820135615d8081614f87565b615d8d8160058401615ccc565b5060c0820135615d9c81614f87565b6110a88160068401615ccc565b60808101615db6866151af565b9481526001600160a01b03938416602082015291831660408301529091166060909101529056fea2646970667358221220fec14b568d42d9bc16168588adcd9b4e96aa8d3499cab815f623769c3d13382d64736f6c63430008120033",
    "linkReferences": {}
  },
  "methodIdentifiers": {
    "DEFAULT_FUNDING_INTERVAL()": "8f30c5cc",
    "addMarket((address,address,address,address,address,address,address),(bytes32,uint8[2],uint8[2],uint16,uint16,uint16,uint16,uint16,uint32,uint8,uint8,uint8,uint8,uint8,bool))": "a2c22d2d",
    "addStableCoinPriceFeed(address,uint8,address)": "4f708685",
    "claimFundingPayout(bytes32,address,bool)": "8ab061b7",
    "decreasePosition((bytes32,address,address,uint256,bool))": "3f7b158f",
    "exchange()": "d2f7265a",
    "extraCollaterals(bytes32,uint256)": "2279ffae",
    "getFundingInterval(bytes32)": "aa7566de",
    "getIndex(bytes32)": "8527831b",
    "getIndexToken(bytes32)": "b5e53062",
    "getPosition(bytes32)": "1928b3cb",
    "getPositionSize(bytes32)": "f12562f4",
    "getPriceFeed(bytes32)": "8c0adf62",
    "getVault(bytes32,address)": "092a4689",
    "getVaultAndPositionFee(bytes32,address,bool,uint256)": "4846a331",
    "gov()": "12d43a51",
    "increasePosition((bytes32,uint256,uint256,uint256,address,address,bool))": "02dbbefb",
    "isListed(bytes32)": "ecefbdc6",
    "liquidatePosition((bytes32,address,address,bool,address))": "0ea31260",
    "marketAddresses(bytes32)": "ada37fe8",
    "marketParams(bytes32)": "7fd065f9",
    "prevFundingStates(bytes32)": "58260ae0",
    "setExchange(address)": "67b1f5df",
    "setMarketListed(bytes32,bool)": "acda757c",
    "setPriceFeed(bytes32,uint8,address)": "0889b238",
    "updateCollateral(address,bytes32,address,bool,bool,uint256)": "b4936fbc",
    "updateVaultBalance(address,uint256,bool)": "1e66cef5",
    "validatePositionSize(bytes32,address,uint256)": "49e42835"
  },
  "id": 8
}