{
  "abi": [
    {
      "inputs": [],
      "stateMutability": "nonpayable",
      "type": "constructor"
    },
    {
      "inputs": [],
      "name": "InsufficientCollateral",
      "type": "error"
    },
    {
      "inputs": [],
      "name": "InvalidPositionSize",
      "type": "error"
    },
    {
      "inputs": [],
      "name": "PositionNotExist",
      "type": "error"
    },
    {
      "anonymous": false,
      "inputs": [
        {
          "indexed": false,
          "internalType": "bytes32",
          "name": "key",
          "type": "bytes32"
        },
        {
          "indexed": false,
          "internalType": "uint256",
          "name": "size",
          "type": "uint256"
        },
        {
          "indexed": false,
          "internalType": "uint256",
          "name": "collateralValue",
          "type": "uint256"
        },
        {
          "indexed": false,
          "internalType": "uint256",
          "name": "exitFundingIndex",
          "type": "uint256"
        },
        {
          "indexed": false,
          "internalType": "uint256",
          "name": "exitPayoutIndex",
          "type": "uint256"
        }
      ],
      "name": "ClosePosition",
      "type": "event"
    },
    {
      "anonymous": false,
      "inputs": [
        {
          "indexed": false,
          "internalType": "bytes32",
          "name": "key",
          "type": "bytes32"
        },
        {
          "indexed": false,
          "internalType": "uint256",
          "name": "size",
          "type": "uint256"
        },
        {
          "indexed": false,
          "internalType": "uint256",
          "name": "sizeDelta",
          "type": "uint256"
        },
        {
          "indexed": false,
          "internalType": "uint256",
          "name": "collateralReduced",
          "type": "uint256"
        },
        {
          "indexed": false,
          "internalType": "uint256",
          "name": "fee",
          "type": "uint256"
        },
        {
          "indexed": false,
          "internalType": "uint256",
          "name": "reserveDelta",
          "type": "uint256"
        }
      ],
      "name": "DecreasePosition",
      "type": "event"
    },
    {
      "anonymous": false,
      "inputs": [
        {
          "indexed": true,
          "internalType": "address",
          "name": "exchange",
          "type": "address"
        }
      ],
      "name": "ExchangeSet",
      "type": "event"
    },
    {
      "anonymous": false,
      "inputs": [
        {
          "indexed": true,
          "internalType": "bytes32",
          "name": "marketId",
          "type": "bytes32"
        },
        {
          "indexed": false,
          "internalType": "uint256",
          "name": "value",
          "type": "uint256"
        }
      ],
      "name": "FeeUsdCollected",
      "type": "event"
    },
    {
      "anonymous": false,
      "inputs": [
        {
          "indexed": true,
          "internalType": "bytes32",
          "name": "marketId",
          "type": "bytes32"
        },
        {
          "indexed": true,
          "internalType": "address",
          "name": "account",
          "type": "address"
        },
        {
          "indexed": false,
          "internalType": "uint256",
          "name": "value",
          "type": "uint256"
        }
      ],
      "name": "FundingDebtPaid",
      "type": "event"
    },
    {
      "anonymous": false,
      "inputs": [
        {
          "indexed": true,
          "internalType": "bytes32",
          "name": "marketId",
          "type": "bytes32"
        },
        {
          "indexed": true,
          "internalType": "address",
          "name": "account",
          "type": "address"
        },
        {
          "indexed": false,
          "internalType": "uint256",
          "name": "value",
          "type": "uint256"
        }
      ],
      "name": "FundingPayout",
      "type": "event"
    },
    {
      "anonymous": false,
      "inputs": [
        {
          "indexed": true,
          "internalType": "bytes32",
          "name": "marketId",
          "type": "bytes32"
        },
        {
          "indexed": false,
          "internalType": "bytes32",
          "name": "key",
          "type": "bytes32"
        },
        {
          "indexed": false,
          "internalType": "uint256",
          "name": "sizeDelta",
          "type": "uint256"
        },
        {
          "indexed": false,
          "internalType": "uint256",
          "name": "initialCollateralAmount",
          "type": "uint256"
        },
        {
          "indexed": false,
          "internalType": "uint256",
          "name": "initialCollateralValue",
          "type": "uint256"
        },
        {
          "indexed": false,
          "internalType": "uint256",
          "name": "fee",
          "type": "uint256"
        }
      ],
      "name": "IncreasePosition",
      "type": "event"
    },
    {
      "anonymous": false,
      "inputs": [
        {
          "indexed": false,
          "internalType": "bytes32",
          "name": "key",
          "type": "bytes32"
        },
        {
          "indexed": false,
          "internalType": "address",
          "name": "account",
          "type": "address"
        },
        {
          "indexed": false,
          "internalType": "uint256",
          "name": "indexPrice",
          "type": "uint256"
        }
      ],
      "name": "LiquidatePosition",
      "type": "event"
    },
    {
      "anonymous": false,
      "inputs": [
        {
          "indexed": true,
          "internalType": "enum MarketType",
          "name": "marketType",
          "type": "uint8"
        },
        {
          "indexed": true,
          "internalType": "bytes32",
          "name": "marketId",
          "type": "bytes32"
        },
        {
          "indexed": true,
          "internalType": "address",
          "name": "owner",
          "type": "address"
        },
        {
          "indexed": false,
          "internalType": "address",
          "name": "indexToken",
          "type": "address"
        },
        {
          "indexed": false,
          "internalType": "address",
          "name": "quoteToken",
          "type": "address"
        },
        {
          "indexed": false,
          "internalType": "bytes32",
          "name": "name",
          "type": "bytes32"
        },
        {
          "indexed": false,
          "internalType": "bool",
          "name": "isGoverned",
          "type": "bool"
        },
        {
          "indexed": false,
          "internalType": "uint8",
          "name": "category",
          "type": "uint8"
        },
        {
          "indexed": false,
          "internalType": "uint8",
          "name": "maxLeverage",
          "type": "uint8"
        }
      ],
      "name": "MarketCreated",
      "type": "event"
    },
    {
      "anonymous": false,
      "inputs": [
        {
          "indexed": true,
          "internalType": "bytes32",
          "name": "marketId",
          "type": "bytes32"
        },
        {
          "indexed": false,
          "internalType": "bool",
          "name": "isListed",
          "type": "bool"
        }
      ],
      "name": "MarketListed",
      "type": "event"
    },
    {
      "anonymous": false,
      "inputs": [
        {
          "indexed": true,
          "internalType": "bytes32",
          "name": "marketId",
          "type": "bytes32"
        },
        {
          "indexed": false,
          "internalType": "uint256",
          "name": "longFunding",
          "type": "uint256"
        },
        {
          "indexed": false,
          "internalType": "uint256",
          "name": "shortFunding",
          "type": "uint256"
        },
        {
          "indexed": false,
          "internalType": "uint256",
          "name": "longPayout",
          "type": "uint256"
        },
        {
          "indexed": false,
          "internalType": "uint256",
          "name": "shortPayout",
          "type": "uint256"
        }
      ],
      "name": "UpdateIndex",
      "type": "event"
    },
    {
      "anonymous": false,
      "inputs": [
        {
          "indexed": true,
          "internalType": "bytes32",
          "name": "marketId",
          "type": "bytes32"
        },
        {
          "indexed": true,
          "internalType": "address",
          "name": "account",
          "type": "address"
        },
        {
          "indexed": false,
          "internalType": "bytes32",
          "name": "key",
          "type": "bytes32"
        },
        {
          "indexed": false,
          "internalType": "address",
          "name": "collateralToken",
          "type": "address"
        },
        {
          "indexed": false,
          "internalType": "uint256",
          "name": "size",
          "type": "uint256"
        },
        {
          "indexed": false,
          "internalType": "uint256",
          "name": "collateralValue",
          "type": "uint256"
        },
        {
          "indexed": false,
          "internalType": "uint256",
          "name": "entryPrice",
          "type": "uint256"
        },
        {
          "indexed": false,
          "internalType": "uint256",
          "name": "entryFundingIndex",
          "type": "uint256"
        },
        {
          "indexed": false,
          "internalType": "uint256",
          "name": "entryPayoutIndex",
          "type": "uint256"
        }
      ],
      "name": "UpdatePosition",
      "type": "event"
    },
    {
      "inputs": [],
      "name": "DEFAULT_FUNDING_INTERVAL",
      "outputs": [
        {
          "internalType": "uint256",
          "name": "",
          "type": "uint256"
        }
      ],
      "stateMutability": "view",
      "type": "function"
    },
    {
      "inputs": [
        {
          "components": [
            {
              "internalType": "address",
              "name": "owner",
              "type": "address"
            },
            {
              "internalType": "address",
              "name": "indexToken",
              "type": "address"
            },
            {
              "internalType": "address",
              "name": "vault",
              "type": "address"
            },
            {
              "internalType": "address",
              "name": "quoteToken",
              "type": "address"
            },
            {
              "internalType": "address",
              "name": "quoteVault",
              "type": "address"
            },
            {
              "internalType": "address",
              "name": "priceFeed",
              "type": "address"
            },
            {
              "internalType": "contract IFundingRateModel",
              "name": "fundingRateModel",
              "type": "address"
            }
          ],
          "internalType": "struct MarketAddresses",
          "name": "addresses",
          "type": "tuple"
        },
        {
          "components": [
            {
              "internalType": "bytes32",
              "name": "name",
              "type": "bytes32"
            },
            {
              "internalType": "uint8[2]",
              "name": "feeDistributionWeights",
              "type": "uint8[2]"
            },
            {
              "internalType": "uint8[2]",
              "name": "maxLongShortSkew",
              "type": "uint8[2]"
            },
            {
              "internalType": "uint16",
              "name": "maintenanceMarginBps",
              "type": "uint16"
            },
            {
              "internalType": "uint16",
              "name": "liquidationFee",
              "type": "uint16"
            },
            {
              "internalType": "uint16",
              "name": "maxPostionSizeOverVault",
              "type": "uint16"
            },
            {
              "internalType": "uint16",
              "name": "openFee",
              "type": "uint16"
            },
            {
              "internalType": "uint16",
              "name": "closeFee",
              "type": "uint16"
            },
            {
              "internalType": "uint32",
              "name": "fundingInterval",
              "type": "uint32"
            },
            {
              "internalType": "uint8",
              "name": "maxLeverage",
              "type": "uint8"
            },
            {
              "internalType": "uint8",
              "name": "maxExposureMultiplier",
              "type": "uint8"
            },
            {
              "internalType": "uint8",
              "name": "category",
              "type": "uint8"
            },
            {
              "internalType": "enum MarketType",
              "name": "marketType",
              "type": "uint8"
            },
            {
              "internalType": "enum PriceFeedType",
              "name": "priceFeedType",
              "type": "uint8"
            },
            {
              "internalType": "bool",
              "name": "isGoverned",
              "type": "bool"
            }
          ],
          "internalType": "struct MarketParams",
          "name": "params",
          "type": "tuple"
        }
      ],
      "name": "addGovernedMarket",
      "outputs": [
        {
          "internalType": "bytes32",
          "name": "",
          "type": "bytes32"
        }
      ],
      "stateMutability": "nonpayable",
      "type": "function"
    },
    {
      "inputs": [
        {
          "components": [
            {
              "internalType": "address",
              "name": "owner",
              "type": "address"
            },
            {
              "internalType": "address",
              "name": "indexToken",
              "type": "address"
            },
            {
              "internalType": "address",
              "name": "vault",
              "type": "address"
            },
            {
              "internalType": "address",
              "name": "quoteToken",
              "type": "address"
            },
            {
              "internalType": "address",
              "name": "quoteVault",
              "type": "address"
            },
            {
              "internalType": "address",
              "name": "priceFeed",
              "type": "address"
            },
            {
              "internalType": "contract IFundingRateModel",
              "name": "fundingRateModel",
              "type": "address"
            }
          ],
          "internalType": "struct MarketAddresses",
          "name": "addresses",
          "type": "tuple"
        },
        {
          "components": [
            {
              "internalType": "bytes32",
              "name": "name",
              "type": "bytes32"
            },
            {
              "internalType": "uint8[2]",
              "name": "feeDistributionWeights",
              "type": "uint8[2]"
            },
            {
              "internalType": "uint8[2]",
              "name": "maxLongShortSkew",
              "type": "uint8[2]"
            },
            {
              "internalType": "uint16",
              "name": "maintenanceMarginBps",
              "type": "uint16"
            },
            {
              "internalType": "uint16",
              "name": "liquidationFee",
              "type": "uint16"
            },
            {
              "internalType": "uint16",
              "name": "maxPostionSizeOverVault",
              "type": "uint16"
            },
            {
              "internalType": "uint16",
              "name": "openFee",
              "type": "uint16"
            },
            {
              "internalType": "uint16",
              "name": "closeFee",
              "type": "uint16"
            },
            {
              "internalType": "uint32",
              "name": "fundingInterval",
              "type": "uint32"
            },
            {
              "internalType": "uint8",
              "name": "maxLeverage",
              "type": "uint8"
            },
            {
              "internalType": "uint8",
              "name": "maxExposureMultiplier",
              "type": "uint8"
            },
            {
              "internalType": "uint8",
              "name": "category",
              "type": "uint8"
            },
            {
              "internalType": "enum MarketType",
              "name": "marketType",
              "type": "uint8"
            },
            {
              "internalType": "enum PriceFeedType",
              "name": "priceFeedType",
              "type": "uint8"
            },
            {
              "internalType": "bool",
              "name": "isGoverned",
              "type": "bool"
            }
          ],
          "internalType": "struct MarketParams",
          "name": "params",
          "type": "tuple"
        }
      ],
      "name": "addMarket",
      "outputs": [
        {
          "internalType": "bytes32",
          "name": "",
          "type": "bytes32"
        }
      ],
      "stateMutability": "nonpayable",
      "type": "function"
    },
    {
      "inputs": [
        {
          "components": [
            {
              "internalType": "bytes32",
              "name": "marketId",
              "type": "bytes32"
            },
            {
              "internalType": "address",
              "name": "account",
              "type": "address"
            },
            {
              "internalType": "address",
              "name": "collateralToken",
              "type": "address"
            },
            {
              "internalType": "uint256",
              "name": "sizeDelta",
              "type": "uint256"
            },
            {
              "internalType": "bool",
              "name": "isLong",
              "type": "bool"
            }
          ],
          "internalType": "struct DecreasePositionParams",
          "name": "params",
          "type": "tuple"
        }
      ],
      "name": "decreasePosition",
      "outputs": [],
      "stateMutability": "nonpayable",
      "type": "function"
    },
    {
      "inputs": [],
      "name": "exchange",
      "outputs": [
        {
          "internalType": "address",
          "name": "",
          "type": "address"
        }
      ],
      "stateMutability": "view",
      "type": "function"
    },
    {
      "inputs": [
        {
          "internalType": "bytes32",
          "name": "",
          "type": "bytes32"
        },
        {
          "internalType": "uint256",
          "name": "",
          "type": "uint256"
        }
      ],
      "name": "extraCollaterals",
      "outputs": [
        {
          "internalType": "address",
          "name": "",
          "type": "address"
        }
      ],
      "stateMutability": "view",
      "type": "function"
    },
    {
      "inputs": [
        {
          "internalType": "bytes32",
          "name": "marketId",
          "type": "bytes32"
        },
        {
          "internalType": "bytes32",
          "name": "key",
          "type": "bytes32"
        }
      ],
      "name": "getFundingInfo",
      "outputs": [
        {
          "internalType": "uint256",
          "name": "fundingPayout",
          "type": "uint256"
        },
        {
          "internalType": "uint256",
          "name": "fundingDebt",
          "type": "uint256"
        }
      ],
      "stateMutability": "view",
      "type": "function"
    },
    {
      "inputs": [
        {
          "internalType": "bytes32",
          "name": "marketKey",
          "type": "bytes32"
        }
      ],
      "name": "getIndex",
      "outputs": [
        {
          "components": [
            {
              "internalType": "uint256",
              "name": "longPayout",
              "type": "uint256"
            },
            {
              "internalType": "uint256",
              "name": "shortPayout",
              "type": "uint256"
            },
            {
              "internalType": "uint256",
              "name": "longFunding",
              "type": "uint256"
            },
            {
              "internalType": "uint256",
              "name": "shortFunding",
              "type": "uint256"
            }
          ],
          "internalType": "struct Index",
          "name": "",
          "type": "tuple"
        }
      ],
      "stateMutability": "view",
      "type": "function"
    },
    {
      "inputs": [
        {
          "internalType": "bytes32",
          "name": "marketId",
          "type": "bytes32"
        }
      ],
      "name": "getIndexToken",
      "outputs": [
        {
          "internalType": "address",
          "name": "",
          "type": "address"
        }
      ],
      "stateMutability": "view",
      "type": "function"
    },
    {
      "inputs": [
        {
          "internalType": "bytes32",
          "name": "key",
          "type": "bytes32"
        }
      ],
      "name": "getPosition",
      "outputs": [
        {
          "components": [
            {
              "internalType": "bool",
              "name": "isLong",
              "type": "bool"
            },
            {
              "internalType": "uint256",
              "name": "size",
              "type": "uint256"
            },
            {
              "internalType": "uint256",
              "name": "collateralValue",
              "type": "uint256"
            },
            {
              "internalType": "uint256",
              "name": "collateralAmount",
              "type": "uint256"
            },
            {
              "internalType": "uint256",
              "name": "entryPrice",
              "type": "uint256"
            },
            {
              "internalType": "uint256",
              "name": "entryFundingIndex",
              "type": "uint256"
            },
            {
              "internalType": "uint256",
              "name": "entryPayoutIndex",
              "type": "uint256"
            },
            {
              "internalType": "uint256",
              "name": "reserveAmount",
              "type": "uint256"
            }
          ],
          "internalType": "struct Position",
          "name": "",
          "type": "tuple"
        }
      ],
      "stateMutability": "view",
      "type": "function"
    },
    {
      "inputs": [
        {
          "internalType": "bytes32",
          "name": "marketId",
          "type": "bytes32"
        },
        {
          "internalType": "address",
          "name": "account",
          "type": "address"
        },
        {
          "internalType": "address",
          "name": "collateralToken",
          "type": "address"
        },
        {
          "internalType": "bool",
          "name": "isLong",
          "type": "bool"
        }
      ],
      "name": "getPositionKey",
      "outputs": [
        {
          "internalType": "bytes32",
          "name": "",
          "type": "bytes32"
        }
      ],
      "stateMutability": "pure",
      "type": "function"
    },
    {
      "inputs": [
        {
          "internalType": "bytes32",
          "name": "key",
          "type": "bytes32"
        }
      ],
      "name": "getPositionSize",
      "outputs": [
        {
          "internalType": "uint256",
          "name": "",
          "type": "uint256"
        }
      ],
      "stateMutability": "view",
      "type": "function"
    },
    {
      "inputs": [
        {
          "internalType": "bytes32",
          "name": "marketKey",
          "type": "bytes32"
        }
      ],
      "name": "getPrevFundingState",
      "outputs": [
        {
          "internalType": "uint256",
          "name": "timestamp",
          "type": "uint256"
        },
        {
          "internalType": "uint256",
          "name": "longOpenInterest",
          "type": "uint256"
        },
        {
          "internalType": "uint256",
          "name": "shortOpenInterest",
          "type": "uint256"
        },
        {
          "internalType": "int256",
          "name": "fundingRate",
          "type": "int256"
        }
      ],
      "stateMutability": "view",
      "type": "function"
    },
    {
      "inputs": [
        {
          "internalType": "bytes32",
          "name": "marketId",
          "type": "bytes32"
        }
      ],
      "name": "getPriceFeed",
      "outputs": [
        {
          "internalType": "enum PriceFeedType",
          "name": "feedType",
          "type": "uint8"
        },
        {
          "internalType": "address",
          "name": "priceFeed",
          "type": "address"
        }
      ],
      "stateMutability": "view",
      "type": "function"
    },
    {
      "inputs": [
        {
          "internalType": "bytes32",
          "name": "marketId",
          "type": "bytes32"
        },
        {
          "internalType": "address",
          "name": "collateralToken",
          "type": "address"
        }
      ],
      "name": "getVault",
      "outputs": [
        {
          "internalType": "address",
          "name": "",
          "type": "address"
        }
      ],
      "stateMutability": "view",
      "type": "function"
    },
    {
      "inputs": [
        {
          "internalType": "bytes32",
          "name": "marketId",
          "type": "bytes32"
        },
        {
          "internalType": "address",
          "name": "collateralToken",
          "type": "address"
        },
        {
          "internalType": "bool",
          "name": "open",
          "type": "bool"
        },
        {
          "internalType": "uint256",
          "name": "sizeDelta",
          "type": "uint256"
        }
      ],
      "name": "getVaultAndPositionFee",
      "outputs": [
        {
          "internalType": "address",
          "name": "",
          "type": "address"
        },
        {
          "internalType": "uint256",
          "name": "",
          "type": "uint256"
        },
        {
          "internalType": "uint256",
          "name": "",
          "type": "uint256"
        }
      ],
      "stateMutability": "view",
      "type": "function"
    },
    {
      "inputs": [],
      "name": "gov",
      "outputs": [
        {
          "internalType": "address",
          "name": "",
          "type": "address"
        }
      ],
      "stateMutability": "view",
      "type": "function"
    },
    {
      "inputs": [
        {
          "components": [
            {
              "internalType": "bytes32",
              "name": "marketId",
              "type": "bytes32"
            },
            {
              "internalType": "uint256",
              "name": "sizeDelta",
              "type": "uint256"
            },
            {
              "internalType": "uint256",
              "name": "openFee",
              "type": "uint256"
            },
            {
              "internalType": "uint256",
              "name": "initialCollateralAmount",
              "type": "uint256"
            },
            {
              "internalType": "address",
              "name": "account",
              "type": "address"
            },
            {
              "internalType": "address",
              "name": "collateralToken",
              "type": "address"
            },
            {
              "internalType": "bool",
              "name": "isLong",
              "type": "bool"
            }
          ],
          "internalType": "struct IncreasePositionParams",
          "name": "params",
          "type": "tuple"
        }
      ],
      "name": "increasePosition",
      "outputs": [],
      "stateMutability": "nonpayable",
      "type": "function"
    },
    {
      "inputs": [
        {
          "internalType": "bytes32",
          "name": "",
          "type": "bytes32"
        }
      ],
      "name": "isListed",
      "outputs": [
        {
          "internalType": "bool",
          "name": "",
          "type": "bool"
        }
      ],
      "stateMutability": "view",
      "type": "function"
    },
    {
      "inputs": [
        {
          "components": [
            {
              "internalType": "bytes32",
              "name": "marketId",
              "type": "bytes32"
            },
            {
              "internalType": "address",
              "name": "account",
              "type": "address"
            },
            {
              "internalType": "address",
              "name": "collateralToken",
              "type": "address"
            },
            {
              "internalType": "bool",
              "name": "isLong",
              "type": "bool"
            },
            {
              "internalType": "address",
              "name": "feeTo",
              "type": "address"
            }
          ],
          "internalType": "struct LiquidatePositionParams",
          "name": "params",
          "type": "tuple"
        }
      ],
      "name": "liquidatePosition",
      "outputs": [],
      "stateMutability": "nonpayable",
      "type": "function"
    },
    {
      "inputs": [
        {
          "internalType": "bytes32",
          "name": "",
          "type": "bytes32"
        }
      ],
      "name": "marketAddresses",
      "outputs": [
        {
          "internalType": "address",
          "name": "owner",
          "type": "address"
        },
        {
          "internalType": "address",
          "name": "indexToken",
          "type": "address"
        },
        {
          "internalType": "address",
          "name": "vault",
          "type": "address"
        },
        {
          "internalType": "address",
          "name": "quoteToken",
          "type": "address"
        },
        {
          "internalType": "address",
          "name": "quoteVault",
          "type": "address"
        },
        {
          "internalType": "address",
          "name": "priceFeed",
          "type": "address"
        },
        {
          "internalType": "contract IFundingRateModel",
          "name": "fundingRateModel",
          "type": "address"
        }
      ],
      "stateMutability": "view",
      "type": "function"
    },
    {
      "inputs": [
        {
          "internalType": "bytes32",
          "name": "",
          "type": "bytes32"
        }
      ],
      "name": "marketParams",
      "outputs": [
        {
          "internalType": "bytes32",
          "name": "name",
          "type": "bytes32"
        },
        {
          "internalType": "uint16",
          "name": "maintenanceMarginBps",
          "type": "uint16"
        },
        {
          "internalType": "uint16",
          "name": "liquidationFee",
          "type": "uint16"
        },
        {
          "internalType": "uint16",
          "name": "maxPostionSizeOverVault",
          "type": "uint16"
        },
        {
          "internalType": "uint16",
          "name": "openFee",
          "type": "uint16"
        },
        {
          "internalType": "uint16",
          "name": "closeFee",
          "type": "uint16"
        },
        {
          "internalType": "uint32",
          "name": "fundingInterval",
          "type": "uint32"
        },
        {
          "internalType": "uint8",
          "name": "maxLeverage",
          "type": "uint8"
        },
        {
          "internalType": "uint8",
          "name": "maxExposureMultiplier",
          "type": "uint8"
        },
        {
          "internalType": "uint8",
          "name": "category",
          "type": "uint8"
        },
        {
          "internalType": "enum MarketType",
          "name": "marketType",
          "type": "uint8"
        },
        {
          "internalType": "enum PriceFeedType",
          "name": "priceFeedType",
          "type": "uint8"
        },
        {
          "internalType": "bool",
          "name": "isGoverned",
          "type": "bool"
        }
      ],
      "stateMutability": "view",
      "type": "function"
    },
    {
      "inputs": [
        {
          "internalType": "address",
          "name": "_exchange",
          "type": "address"
        }
      ],
      "name": "setExchange",
      "outputs": [],
      "stateMutability": "nonpayable",
      "type": "function"
    },
    {
      "inputs": [],
      "name": "updateCollateral",
      "outputs": [],
      "stateMutability": "nonpayable",
      "type": "function"
    },
    {
      "inputs": [
        {
          "internalType": "address",
          "name": "vault",
          "type": "address"
        },
        {
          "internalType": "uint256",
          "name": "delta",
          "type": "uint256"
        },
        {
          "internalType": "bool",
          "name": "isIncrease",
          "type": "bool"
        }
      ],
      "name": "updateVaultBalance",
      "outputs": [],
      "stateMutability": "nonpayable",
      "type": "function"
    },
    {
      "inputs": [
        {
          "internalType": "bytes32",
          "name": "marketId",
          "type": "bytes32"
        },
        {
          "internalType": "address",
          "name": "collateralToken",
          "type": "address"
        },
        {
          "internalType": "uint256",
          "name": "size",
          "type": "uint256"
        }
      ],
      "name": "validatePositionSize",
      "outputs": [],
      "stateMutability": "view",
      "type": "function"
    }
  ],
  "bytecode": {
    "object": "0x608060405234801561001057600080fd5b506001601155601280546001600160a01b03191633179055615d2780620000386000396000f3fe608060405234801561001057600080fd5b506004361061018e5760003560e01c80638c0adf62116100de578063d2f7265a11610097578063ecefbdc611610071578063ecefbdc614610599578063f12562f4146105cc578063f761da00146105ef578063fb156e9d1461064557600080fd5b8063d2f7265a14610560578063d73b023314610573578063e58ac6c91461058657600080fd5b80638c0adf621461040c5780638f30c5cc14610455578063a2c22d2d1461046c578063ada37fe81461047f578063b5e530621461052b578063c91e9bc81461055857600080fd5b80632279ffae1161014b57806349e428351161012557806349e42835146102e557806367b1f5df146102f85780637fd065f91461030b5780638527831b146103c657600080fd5b80632279ffae146102875780633f7b158f1461029a5780634846a331146102ad57600080fd5b806302dbbefb14610193578063092a4689146101a85780630ea31260146101d857806312d43a51146101eb5780631928b3cb146101fe5780631e66cef514610274575b600080fd5b6101a66101a1366004614f54565b61066d565b005b6101bb6101b6366004614f95565b610a09565b6040516001600160a01b0390911681526020015b60405180910390f35b6101a66101e6366004614fd7565b610a1e565b6012546101bb906001600160a01b031681565b61021161020c366004614ff3565b610ed3565b6040516101cf91906000610100820190508251151582526020830151602083015260408301516040830152606083015160608301526080830151608083015260a083015160a083015260c083015160c083015260e083015160e083015292915050565b6101a661028236600461501a565b610f90565b6101bb61029536600461505c565b6110aa565b6101a66102a8366004614fd7565b6110e2565b6102c06102bb36600461507e565b611a01565b604080516001600160a01b0390941684526020840192909252908201526060016101cf565b6101a66102f33660046150c6565b611a8b565b6101a66103063660046150fe565b611b89565b6103ad610319366004614ff3565b6000602081905290815260409020805460039091015461ffff80821691620100008104821691640100000000820481169166010000000000008104821691600160401b8204169063ffffffff600160501b8204169060ff600160701b8204811691600160781b8104821691600160801b8204811691600160881b8104821691600160901b8204811691600160981b9004168d565b6040516101cf9d9c9b9a9998979695949392919061515c565b6103d96103d4366004614ff3565b611c26565b6040516101cf91908151815260208083015190820152604080830151908201526060918201519181019190915260800190565b61044761041a366004614ff3565b6000908152600b60209081526040808320546001600160a01b0316808452600c9092529091205460ff1691565b6040516101cf9291906151ee565b61045e61708081565b6040519081526020016101cf565b61045e61047a366004615213565b611c96565b6104e261048d366004614ff3565b600160208190526000918252604090912080549181015460028201546003830154600484015460058501546006909501546001600160a01b039687169694851695938516949283169391831692918216911687565b604080516001600160a01b039889168152968816602088015294871694860194909452918516606085015284166080840152831660a083015290911660c082015260e0016101cf565b6101bb610539366004614ff3565b600090815260016020819052604090912001546001600160a01b031690565b6101a6611d0b565b6010546101bb906001600160a01b031681565b61045e610581366004615255565b611d1f565b61045e610594366004615213565b611d38565b6105bc6105a7366004614ff3565b60036020526000908152604090205460ff1681565b60405190151581526020016101cf565b61045e6105da366004614ff3565b6000908152600a602052604090206001015490565b6106256105fd366004614ff3565b6000908152600760205260409020805460018201546002830154600390930154919390929190565b6040805194855260208501939093529183015260608201526080016101cf565b61065861065336600461505c565b611dff565b604080519283526020830191909152016101cf565b61069a6040518060400160405280600c81526020016b6f6e6c7945786368616e676560a01b815250611f3d565b6010546001600160a01b031633146106f95760405162461bcd60e51b815260206004820152601b60248201527f54726164696e67456e67696e653a206f6e6c7965786368616e6765000000000060448201526064015b60405180910390fd5b8035600090815260036020908152604091829020548251808401909352601f8352600080516020615ca28339815191529183019190915260ff166107505760405162461bcd60e51b81526004016106f091906152ee565b50600061075d8235611f80565b9050600061079b833561077660a08601608087016150fe565b61078660c0870160a088016150fe565b61079660e0880160c08901615301565b612323565b6000818152600a602052604081209192506107c685356107c160c0880160a089016150fe565b612377565b905060006107fd86356107df60c0890160a08a016150fe565b6001600160a01b038516600090815260056020526040902054612566565b905061081f86358261081560e08a0160c08b01615301565b89602001356125a4565b600061082d858789866127a6565b60018581015460028701548a3560009081526020819052604090206003015493945061086293600160701b900460ff16612a88565b61087c876000013560018660010154876002015486612b72565b6020810151156108e25761089660a08801608089016150fe565b6001600160a01b031687600001357f214b1e54e250e926f8307170b1340dbc63780b0dca413c622c796c9ef7d45ec883602001516040516108d991815260200190565b60405180910390a35b805115610945576108f960a08801608089016150fe565b6001600160a01b031687600001357f34b03810d23d54d212256a92dfbd9d4df2836bee21bb387fb2d9607083bcee97836000015160405161093c91815260200190565b60405180910390a35b604080519088013581528735907f56ff8ace10256ef5dca05c62ab5bf6f3ddade503ac80c1633de7130941ce03829060200160405180910390a261098f60a08801608089016150fe565b6001600160a01b031687357f67f1a5b210a2813e5b73203faaec1e17d8ef7b54cf0d3be59e31d4c3d3ab5a5a876109cc60c08c0160a08d016150fe565b886001015489600201548a600401548b600501548c600601546040516109f8979695949392919061531e565b60405180910390a350505050505050565b6000610a158383612377565b90505b92915050565b610a26612d70565b8035600090815260036020908152604091829020548251808401909352601f8352600080516020615ca28339815191529183019190915260ff16610a7d5760405162461bcd60e51b81526004016106f091906152ee565b506000610a8a8235611f80565b90506000610ac38335610aa360408601602087016150fe565b610ab360608701604088016150fe565b6107966080880160608901615301565b6000818152600a602052604081206001810154929350919003610af957604051630a0fcbff60e31b815260040160405180910390fd5b60006040518060a0016040528086600001358152602001866020016020810190610b2391906150fe565b6001600160a01b03168152602001610b4160608801604089016150fe565b6001600160a01b031681526001840154602080830191909152845460ff1615156040928301528151808301909252601982527f696e697469616c436f6c6c61746572616c416d6f756e742c2000000000000000908201526003840154919250610ba991612dc9565b6000610bc086356107c16060890160408a016150fe565b90506000610bd2858785856001612e12565b87356000908152600b60209081526040808320546001928390529083209091015487549394509192610c14926001600160a01b0392831692169060ff16613165565b60e083015190915015610c7d57610c316040890160208a016150fe565b6001600160a01b031688600001357f214b1e54e250e926f8307170b1340dbc63780b0dca413c622c796c9ef7d45ec88460e00151604051610c7491815260200190565b60405180910390a35b60c082015115610ce357610c976040890160208a016150fe565b6001600160a01b031688600001357f34b03810d23d54d212256a92dfbd9d4df2836bee21bb387fb2d9607083bcee978460c00151604051610cda91815260200190565b60405180910390a35b6000610d048935610cfa60608c0160408d016150fe565b85606001516132f2565b915060009050610d388a35610d1f60608d0160408e016150fe565b8660e001518760a00151610d33919061536d565b613332565b90506000818560800151610d4c9190615380565b90506001600160a01b0386166353a51545600183610d6a8787615380565b6040516001600160e01b031960e086901b168152921515600484015260248301919091526044820152606401600060405180830381600087803b158015610db057600080fd5b505af1158015610dc4573d6000803e3d6000fd5b505050505050610de7848a6080016020810190610de191906150fe565b83613363565b7f115ecacc9c8186779eaa47aef3c27bd2faf8865ff3ac7bf6df8bfbb061cd0f3587610e1960408c0160208d016150fe565b604080519283526001600160a01b039091166020830152810184905260600160405180910390a160a08301516040519081528935907f56ff8ace10256ef5dca05c62ab5bf6f3ddade503ac80c1633de7130941ce03829060200160405180910390a250505060009384525050600a6020525060408120805460ff191681556001810182905560028101829055600381018290556004810182905560058101829055600681018290556007015550610ed06001601155565b50565b610f1d604051806101000160405280600015158152602001600081526020016000815260200160008152602001600081526020016000815260200160008152602001600081525090565b506000908152600a6020908152604091829020825161010081018452815460ff16151581526001820154928101929092526002810154928201929092526003820154606082015260048201546080820152600582015460a0820152600682015460c082015260079091015460e082015290565b60408051808201909152600c81526b15539055551213d49256915160a21b6020820152336001600160a01b03851614610fdc5760405162461bcd60e51b81526004016106f091906152ee565b506001600160a01b038316600090815260066020908152604091829020548251808401909352600c83526b15539055551213d49256915160a21b9183019190915260ff1661103d5760405162461bcd60e51b81526004016106f091906152ee565b508015611077576001600160a01b0383166000908152600560205260408120805484929061106c90849061536d565b909155506110a59050565b6001600160a01b0383166000908152600560205260408120805484929061109f908490615380565b90915550505b505050565b600260205281600052604060002081815481106110c657600080fd5b6000918252602090912001546001600160a01b03169150829050565b61110f6040518060400160405280600c81526020016b6f6e6c7945786368616e676560a01b815250611f3d565b6010546001600160a01b031633146111695760405162461bcd60e51b815260206004820152601b60248201527f54726164696e67456e67696e653a206f6e6c7965786368616e6765000000000060448201526064016106f0565b8035600090815260036020908152604091829020548251808401909352601f8352600080516020615ca28339815191529183019190915260ff166111c05760405162461bcd60e51b81526004016106f091906152ee565b5060006111cd8235611f80565b9050600061120683356111e660408601602087016150fe565b6111f660608701604088016150fe565b61079660a0880160808901615301565b6000818152600a6020526040808220600181015493945092606087018035909114929161123c918835916107c191908a016150fe565b90506000836001015411604051806060016040528060218152602001615c5b602191399061127d5760405162461bcd60e51b81526004016106f091906152ee565b50600061129c8587611294368b90038b018b6153a9565b856000612e12565b90508261130e576001840154600285015488356000908152602081905260408120600301546112d793919290600160701b900460ff16612a88565b60018401546002850154883560009081526020819052604090206003015461130e92919061ffff80821691620100009004166133d0565b600061132f883561132560608b0160408c016150fe565b8460400151613332565b9050600061135c893561134860608c0160408d016150fe565b8560e001518660a00151610d33919061536d565b905060008360e001518460a00151611374919061536d565b828560e00151611384919061542f565b61138e919061545c565b90506113bb60405180604001604052806009815260200168199959505b5bdd5b9d60ba1b81525083612dc9565b6113f3604051806040016040528060128152602001711c995cdd5b1d0b999d5b991a5b99d119589d60721b8152508560e00151612dc9565b61142660405180604001604052806011815260200170199d5b991a5b99d119589d105b5bdd5b9d607a1b81525082612dc9565b61146160405180604001604052806015815260200174726573756c74207061796f7574203d3d3d3d3d3d3d60581b8152508560400151612dc9565b6040840151156116705761149c6040518060400160405280600b81526020016a7061796f757456616c756560a81b8152508560400151612dc9565b6114ca6040518060400160405280600c81526020016b1c185e5bdd5d105b5bdd5b9d60a21b81525084612dc9565b600387015460006114db858561536d565b9050600082821190506115176040518060400160405280601181526020017018dbdb1b185d195c985b08185b5bdd5b9d607a1b81525084612dc9565b60008161152557600061152f565b61152f8484615380565b905060008261153e5783611540565b845b90506115696040518060400160405280600581526020016464656c746160d81b81525083612dc9565b6115a060405180604001604052806015815260200174636f6c6c61746572616c416d6f756e7444656c746160581b81525082612dc9565b6040516353a5154560e01b81528315600482015260248101839052604481018890526001600160a01b038b16906353a5154590606401600060405180830381600087803b1580156115f057600080fd5b505af1158015611604573d6000803e3d6000fd5b50505050808c600301600082825461161c9190615380565b925050819055506116666040518060400160405280601c81526020017f6e65772070736f74696f6e20636f6c6c61746572616c416d6f756e74000000008152508d60030154612dc9565b505050505061173e565b6116a26040518060400160405280600c81526020016b022a622a9a2a2a9a2a9a2a2960a51b8152508560800151612dc9565b60008285608001516116b49190615380565b6040516353a5154560e01b81526001600482015260248101829052604481018590529091506001600160a01b038716906353a5154590606401600060405180830381600087803b15801561170757600080fd5b505af115801561171b573d6000803e3d6000fd5b5050505084608001518860030160008282546117379190615380565b9091555050505b50611755905083610de160408b0160208c016150fe565b60e0820151156117bb5761176f6040890160208a016150fe565b6001600160a01b031688600001357f214b1e54e250e926f8307170b1340dbc63780b0dca413c622c796c9ef7d45ec88460e001516040516117b291815260200190565b60405180910390a35b60c082015115611821576117d56040890160208a016150fe565b6001600160a01b031688600001357f34b03810d23d54d212256a92dfbd9d4df2836bee21bb387fb2d9607083bcee978460c0015160405161181891815260200190565b60405180910390a35b611847604051806060016040528060328152602001615c02603291398660030154612dc9565b60a08201516040519081528835907f56ff8ace10256ef5dca05c62ab5bf6f3ddade503ac80c1633de7130941ce03829060200160405180910390a2846001015460000361197557600185015460028601547f8df7e6e669647ed33ddb00611cb7247ed0f87674bb8707ac6d248388ddf7e85d9188916118cc60a08d0160808e01615301565b6118da578a606001516118e0565b8a604001515b6118f060a08e0160808f01615301565b6118fe578b60200151611901565b8b515b604080519586526020860194909452928401919091526060830152608082015260a00160405180910390a16000868152600a60205260408120805460ff19168155600181018290556002810182905560038101829055600481018290556005810182905560068101829055600701556119f7565b6119856040890160208a016150fe565b6001600160a01b031688357f67f1a5b210a2813e5b73203faaec1e17d8ef7b54cf0d3be59e31d4c3d3ab5a5a886119c260608d0160408e016150fe565b89600101548a600201548b600401548c600501548d600601546040516119ee979695949392919061531e565b60405180910390a35b5050505050505050565b60008060008085611a2e57600088815260208190526040902060030154600160401b900461ffff16611a4f565b6000888152602081905260409020600301546601000000000000900461ffff165b61ffff1690506000611a6186836134a5565b9050611a6d8989612377565b81611a798b8b85613332565b94509450945050509450945094915050565b600083815260036020908152604091829020548251808401909352601f8352600080516020615ca28339815191529183019190915260ff16611ae05760405162461bcd60e51b81526004016106f091906152ee565b506000611aed8484612377565b90506000611afc858585613332565b6001600160a01b0383166000908152600560205260409020805460019091015491925090611b2b90839061536d565b11156040518060400160405280601e81526020017f54726164696e67456e67696e653a457863656564206c6971756964697479000081525090611b815760405162461bcd60e51b81526004016106f091906152ee565b505050505050565b6012546001600160a01b03163314611bdc5760405162461bcd60e51b81526020600482015260166024820152752a3930b234b733a2b733b4b7329d1037b7363cb3b7bb60511b60448201526064016106f0565b601080546001600160a01b0319166001600160a01b0383169081179091556040517f1b3baff3cd6acb01bcbb187b5b9cb66fabc651693fc14e518c71feeddf4f864b90600090a250565b611c516040518060800160405280600081526020016000815260200160008152602001600081525090565b50600090815260046020908152604091829020825160808101845281548152600182015492810192909252600281015492820192909252600390910154606082015290565b6000611caa61022083016102008401615301565b15611d015760405162461bcd60e51b815260206004820152602160248201527f54726164696e67456e67696e653a204d61726b657420697320676f7665726e656044820152601960fa1b60648201526084016106f0565b610a1583836134b5565b611d13612d70565b611d1d6001601155565b565b6000611d2d85858585612323565b90505b949350505050565b6012546000906001600160a01b03163314611d8e5760405162461bcd60e51b81526020600482015260166024820152752a3930b234b733a2b733b4b7329d1037b7363cb3b7bb60511b60448201526064016106f0565b611da061022083016102008401615301565b1515600114611d015760405162461bcd60e51b815260206004820152602560248201527f54726164696e67456e67696e653a204d61726b6574206973206e6f7420676f76604482015264195c9b995960da1b60648201526084016106f0565b6000818152600a60209081526040808320815161010081018352815460ff161515815260018083015482860190815260028085015484870152600380860154606080870191909152600480880154608080890191909152600589015460a0890190815260068a015460c08a019081526007909a015460e08a01528e8d52828c528a8d208b519283018c528054835297880154828d015294870154818b015295909201549085015294519051915184518b8a5260088952878a20548851636d9cad1160e01b815298518b9a97999698611f30988a989697966001600160a01b0390941693636d9cad11938184019390918290030181865afa158015611f07573d6000803e3d6000fd5b505050506040513d601f19601f82011682018060405250810190611f2b9190615470565b613885565b9097909650945050505050565b610ed081604051602401611f5191906152ee565b60408051601f198184030181529190526020810180516001600160e01b031663104c13eb60e21b1790526139c3565b611fab6040518060800160405280600081526020016000815260200160008152602001600081525090565b60008281526007602090815260408083208151608080820184528254825260018084015483870152600280850154848701526003948501546060808601919091528a895260048852868920875194850188528054855280840154858a0152808301548589015286015490840152898852600987528588209081015494015460088752858820865180880190975280546001600160a01b03168752909101549585019590955281519195909492939142910361208d57602082015161206f818361545c565b612079919061542f565b600089815260076020526040902055612317565b60208201518651600091906120a29084615380565b6120ac919061545c565b9050806000036120c3575093979650505050505050565b82516040805163cb0d671960e01b81528951600482015260208a01516024820152908901516044820152606089015160648201526084810187905260a481018690526000916001600160a01b03169063cb0d67199060c401602060405180830381865afa158015612138573d6000803e3d6000fd5b505050506040513d601f19601f8201168201806040525081019061215c9190615470565b9050600084600001516001600160a01b031663f5a701ff6040518163ffffffff1660e01b8152600401602060405180830381865afa1580156121a2573d6000803e3d6000fd5b505050506040513d601f19601f820116820180604052508101906121c69190615489565b905060018311156121fd576121fd886121e28b606001516139e4565b60208c015160408d01516121f7600189615380565b86613a00565b6122148861220a846139e4565b8989600186613a00565b8a7f238ed171a19bc80c7cd43809a2aeda26ef56e40c03ee8fb8037b1bfe6f5c779a89604001518a606001518b600001518c60200151604051612270949392919093845260208401929092526040830152606082015260800190565b60405180910390a260608901829052602085015161228e908461542f565b89518a9061229d90839061536d565b905250505050602080870194855260408088019485526000998a5260048252808a208751815587830151600180830191909155888301516002808401919091556060808b0151600394850155600790955292909b208951815596519a87019a909a5593519385019390935550509092015191909301555090565b50929695505050505050565b60408051602081018690526001600160a01b03808616928201929092529083166060820152811515608082015260009060a0015b604051602081830303815290604052805190602001209050949350505050565b6000828152600160208181526040808420815160e08101835281546001600160a01b039081168252948201548516818501526002820154851681840152600380830154861660608301526004830154861660808301526005830154861660a0830152600690920154851660c0820152878652858452828620909101548251808401909352600a8352693078206164647265737360b01b9383019390935292600160881b90920460ff169185166124405760405162461bcd60e51b81526004016106f091906152ee565b5060008160028111156124555761245561511b565b036125015781602001516001600160a01b0316846001600160a01b03161480612493575081606001516001600160a01b0316846001600160a01b0316145b604051806060016040528060268152602001615c7c60269139906124ca5760405162461bcd60e51b81526004016106f091906152ee565b5081602001516001600160a01b0316846001600160a01b0316146124f25781608001516124f8565b81604001515b92505050610a18565b81606001516001600160a01b0316846001600160a01b031614604051806060016040528060268152602001615c7c60269139906125515760405162461bcd60e51b81526004016106f091906152ee565b5050608001519050610a18565b505092915050565b6000838152600b60205260408120546001600160a01b03168161258b82866001613165565b9050612598858286613a33565b925050505b9392505050565b81156126da576000848152602081905260408120600281015460039091015460649160ff908116916125df918891600160781b90041661542f565b6125e9919061542f565b6125f3919061545c565b9050612633604051806060016040528060308152602001615cc26030913960008781526009602052604090206002015461262e90859061536d565b612dc9565b61265e604051806040016040528060098152602001686d61784c6f6e674f4960b81b81525082612dc9565b600085815260096020526040902060020154819061267d90849061536d565b11156040518060400160405280601b81526020017f54726164696e67456e67696e653a457863656564206d6178204f490000000000815250906126d35760405162461bcd60e51b81526004016106f091906152ee565b50506127a0565b60008481526020819052604081206002810154600390910154606491610100900460ff90811691612714918891600160781b90041661542f565b61271e919061542f565b612728919061545c565b600086815260096020526040902060030154909150819061274a90849061536d565b11156040518060400160405280601b81526020017f54726164696e67456e67696e653a457863656564206d6178204f49000000000081525090611b815760405162461bcd60e51b81526004016106f091906152ee565b50505050565b6127ca60405180606001604052806000815260200160008152602001600081525090565b82356000908152600b602052604081205481906127ff906001600160a01b03166127fa60c0880160a089016150fe565b613a56565b909250905060008061282161281a60c0890160a08a016150fe565b8785613a7c565b9092509050600061284661283b60c08a0160a08b016150fe565b868a60200135613b3f565b905060006040518060e001604052806128c9600b60008d60000135815260200190815260200160002060009054906101000a90046001600160a01b0316600160008e60000135815260200190815260200160002060010160009054906101000a90046001600160a01b03168d60c00160208101906128c49190615301565b613165565b815260208b810135818301526040808301889052606083018790528c35600090815260088352819020548151636d9cad1160e01b815291516080909401936001600160a01b0390911692636d9cad1192600480820193918290030181865afa158015612939573d6000803e3d6000fd5b505050506040513d601f19601f8201168201806040525081019061295d9190615470565b81526020810184905260400161297960e08c0160c08d01615301565b1515905260008c8152600a6020526040902090915061299990828c613b71565b6001600160a01b0389166000908152600560205260408120600101805492995084929091906129c990849061536d565b90915550612a0090508460208b01356129e860e08d0160c08e01615301565b8c356000908152600960205260409020929190613d46565b505086357fb530e7a93eadbc61c4e799cf6bfb27a53fc2c5d801e700bc71c4f08abc67ee328a60208a013560608b0135612a4e612a4360c08e0160a08f016150fe565b898e60600135613a33565b6040805194855260208501939093528383019190915260608301528a0135608082015260a00160405180910390a250505050949350505050565b838015612a93575082155b15612ab157604051631ee7bc0160e21b815260040160405180910390fd5b81831015612b0b5760405162461bcd60e51b815260206004820152602160248201527f5269736b4d616e6167656d656e743a3a20696e76616c6964206c6576657261676044820152606560f81b60648201526084016106f0565b612b15818361542f565b8311156127a05760405162461bcd60e51b815260206004820152602560248201527f5269736b4d616e6167656d656e743a206d6178206c6576657261676520657863604482015264195959195960da1b60648201526084016106f0565b838015612b7d575082155b15612b9b57604051631ee7bc0160e21b815260040160405180910390fd5b81831015612beb5760405162461bcd60e51b815260206004820152601c60248201527f56616c696461746f723a3a20696e76616c6964206c657665726167650000000060448201526064016106f0565b612c116040518060400160405280600481526020016373697a6560e01b81525084612dc9565b60408051808201825260088152676d61782073697a6560c01b6020808301919091526000888152908190529190912060030154612c6e919061271090612c64908590640100000000900461ffff1661542f565b61262e919061545c565b60008581526020819052604090206003015461271090612c9b908390640100000000900461ffff1661542f565b612ca5919061545c565b831115612cf45760405162461bcd60e51b815260206004820152601c60248201527f56616c696461746f723a3a2073697a652065786365656473206d61780000000060448201526064016106f0565b600085815260208190526040902060030154612d1a90600160701b900460ff168361542f565b831115612d695760405162461bcd60e51b815260206004820152601c60248201527f56616c696461746f723a3a20696e76616c6964206c657665726167650000000060448201526064016106f0565b5050505050565b600260115403612dc25760405162461bcd60e51b815260206004820152601f60248201527f5265656e7472616e637947756172643a207265656e7472616e742063616c6c0060448201526064016106f0565b6002601155565b612e0e8282604051602401612ddf9291906154aa565b60408051601f198184030181529190526020810180516001600160e01b03166309710a9d60e41b1790526139c3565b5050565b612e1a614ef7565b83516000908152600b6020908152604080832054898452600a8352818420885185526001938490529184209092015481546001600160a01b03938416949293612e6a92869291169060ff16613165565b60028301546060890151895160009081526020819052604081206003015493945092612ed1929190600160401b900461ffff1689612ea9576000612ec8565b8b5160009081526020819052604090206003015462010000900461ffff165b61ffff16613dc7565b9050612efd60405180604001604052806008815260200167746f74616c46656560c01b81525082612dc9565b87516000908152600860209081526040808320548151636d9cad1160e01b815291516001600160a01b0390911692636d9cad1192600480820193918290030181865afa158015612f51573d6000803e3d6000fd5b505050506040513d601f19601f82011682018060405250810190612f759190615470565b905086151560010361303f576040805161010081018252855460ff16151581526001860154602080830191909152600287015482840152600380880154606084015260048801546080840152600588015460a0840152600688015460c0840152600788015460e08401528c516000908152918290529290209091015461300691908c908690869061ffff1686613e07565b604051806060016040528060278152602001615c34602791399061303d5760405162461bcd60e51b81526004016106f091906152ee565b505b604080516080810182526060808c015182526020820186905291810184905290810182905261306f85828d613fcd565b96508660200151600560008b6001600160a01b03166001600160a01b0316815260200190815260200160002060010160008282546130ad9190615380565b9091555050606080880151908b015186548c5160009081526009602052604090206130de939092909160ff166143ed565b7feb52a03851aa4bb33f84a0a4a8aa925c0f5e2ddc115e560820328c653e553fdd8c86600101548c606001518a606001518b60a001518c6020015160405161314e96959493929190958652602086019490945260408501929092526060840152608083015260a082015260c00190565b60405180910390a150505050505095945050505050565b6001600160a01b0383166000908152600c602052604081205460ff1681808260028111156131955761319561511b565b03613213576040516303b6b4bb60e51b81526001600160a01b03868116600483015285151560248301528716906376d6976090604401602060405180830381865afa1580156131e8573d6000803e3d6000fd5b505050506040513d601f19601f8201168201806040525081019061320c9190615470565b9050613299565b60018260028111156132275761322761511b565b03613299576040516341976e0960e01b81526001600160a01b0386811660048301528716906341976e0990602401602060405180830381865afa158015613272573d6000803e3d6000fd5b505050506040513d601f19601f820116820180604052508101906132969190615470565b90505b600081116132e95760405162461bcd60e51b815260206004820152601c60248201527f54726164696e67456e67696e653a3a494e56414c49445f50524943450000000060448201526064016106f0565b95945050505050565b600083815260208190526040812060030154819062010000900461ffff1661331a84826134a5565b9250613327868685613332565b915050935093915050565b6000838152600b60205260408120546001600160a01b031681613356828683613165565b9050612598858286613b3f565b80156110a557604051635f4af00d60e11b8152600481018290526001600160a01b03838116602483015284169063be95e01a90604401600060405180830381600087803b1580156133b357600080fd5b505af11580156133c7573d6000803e3d6000fd5b50505050505050565b60006133dc84836134a5565b905060006127106133ed858861542f565b6133f7919061545c565b905061342c6040518060400160405280601181526020017036b0b4b73a32b730b731b2a6b0b933b4b760791b81525082612dc9565b600061343783614466565b61344087614466565b61344a91906154cc565b9050613473604051806040016040528060068152602001653932b6b0b4b760d11b815250611f3d565b61347c816144d0565b61348582614466565b8112156133c757604051633a23d82560e01b815260040160405180910390fd5b6000610a158383620f4240614515565b6000806134c66000600186866145ff565b90506134d56003826001614c37565b60408051808201909152806134f060e0870160c088016150fe565b6001600160a01b0316815260200161351061016086016101408701615505565b63ffffffff1690526000828152600860209081526040808320845181546001600160a01b0319166001600160a01b0390911617815593909101516001909301929092559061356490606087019087016150fe565b6001600160a01b031614156006600061358360608801604089016150fe565b6001600160a01b0316815260208101919091526040016000908120805460ff1916921515929092179091556135be60a08601608087016150fe565b6001600160a01b03161415600660006135dd60a08801608089016150fe565b6001600160a01b031681526020810191909152604001600020805460ff191691151591909117905561361560c0850160a086016150fe565b6000828152600b6020526040902080546001600160a01b0319166001600160a01b039290921691909117905561365361020084016101e0850161552f565b600c600061366760c0880160a089016150fe565b6001600160a01b031681526020810191909152604001600020805460ff1916600183600281111561369a5761369a61511b565b0217905550600e60006136b360408701602088016150fe565b6001600160a01b03168152602081019190915260400160009081205460ff16900361378f5760006136ea60408601602087016150fe565b6001600160a01b031663313ce5676040518163ffffffff1660e01b8152600401602060405180830381865afa158015613727573d6000803e3d6000fd5b505050506040513d601f19601f8201168201806040525081019061374b919061555b565b905080600e60006137626040890160208a016150fe565b6001600160a01b031681526020810191909152604001600020805460ff191660ff92909216919091179055505b600e60006137a360808701606088016150fe565b6001600160a01b03168152602081019190915260400160009081205460ff169003610a155760006137da60808601606087016150fe565b6001600160a01b031663313ce5676040518163ffffffff1660e01b8152600401602060405180830381865afa158015613817573d6000803e3d6000fd5b505050506040513d601f19601f8201168201806040525081019061383b919061555b565b905080600e60006138526080890160608a016150fe565b6001600160a01b031681526020810191909152604001600020805460ff191660ff92909216919091179055509392505050565b60008060008461389957886020015161389c565b88515b90506000856138af5789606001516138b5565b89604001515b90508189111561391a5760405162461bcd60e51b815260206004820152602a60248201527f46756e64696e674d616e616765723a20696e76616c696420656e7472792070616044820152690f2deeae840d2dcc8caf60b31b60648201526084016106f0565b8088111561397e5760405162461bcd60e51b815260206004820152602b60248201527f46756e64696e674d616e616765723a20696e76616c696420656e74727920667560448201526a0dcc8d2dcce40d2dcc8caf60ab1b60648201526084016106f0565b600061398a8a84615380565b9050613997818988614515565b945060006139a58a84615380565b90506139b2818a89614515565b945050505050965096945050505050565b80516a636f6e736f6c652e6c6f67602083016000808483855afa5050505050565b6000808212156139fc576139f782615578565b610a18565b5090565b8415613a2557613a10858361542f565b86604001818151613a21919061536d565b9052505b611b81868686868686614c8d565b6000806132e984613a4387614cf9565b613a4e90600a615678565b859190614515565b600080613a6584846001613165565b9150613a7384846000613165565b90509250929050565b6000806000613aed856001600160a01b03166385d966026040518163ffffffff1660e01b81526004016020604051808303816000875af1158015613ac4573d6000803e3d6000fd5b505050506040513d601f19601f82011682018060405250810190613ae89190615470565b614db4565b9050613b256040518060400160405280601481526020017311d95d0818dbdb1b185d195c985b105b5bdd5b9d60621b81525082612dc9565b6000613b32878684613a33565b9791965090945050505050565b6001600160a01b0383166000908152600e602052604081205460ff166132e9613b6982600a615678565b849086614515565b613b9560405180606001604052806000815260200160008152602001600081525090565b60018401546000819003613baf5783516004860155613bd2565b613bcc8186600401548660c0015187600001518860200151614dff565b60048601555b60068501546005860154865460808701516000938493613bf9938993889160ff1690613885565b9150915060008760020154905060008284896040015184613c1a919061536d565b613c24919061536d565b613c2e9190615380565b90506000613c3c8383615380565b9050818a6002018190555088602001518a6001016000828254613c5f919061536d565b909155505060c0890151613c77578760600151613c7d565b87604001515b60058b015560c0890151613c95578760200151613c98565b87515b60068b015560c08901518a5460ff1916901515178a5560a089015160078b018054600090613cc790849061536d565b9091555050606089015160038b018054600090613ce590849061536d565b92505081905550613d2f6040518060400160405280602081526020017f494e63726561736520706172616d7320636f6c6c61746572616c416d6f756e748152508a60600151612dc9565b938652505060208401526040830152509392505050565b8015613d6b5781846002016000828254613d60919061536d565b90915550613d859050565b81846003016000828254613d7f919061536d565b90915550505b82846001016000828254613d99919061536d565b90915550613da990508383615380565b846000016000828254613dbc919061536d565b909155505050505050565b600080613dd485856134a5565b90506000808411613de6576000613df0565b613df087856134a5565b9050613dfc828261536d565b979650505050505050565b60008660200151600003613e1d57506000613fc3565b613e5b6040518060400160405280601981526020017f636865636b69696e67206973206c6971756964617461626c6500000000000000815250611f3d565b600080613e7c888a60c001518b60a001518c602001518d6000015189613885565b915091506000613e9a8a600001518b602001518c608001518b614e5e565b90506000613ea788614466565b613eb084614466565b613eb986614466565b613ec391906154cc565b613ecd91906154cc565b90506000612710888d60200151613ee4919061542f565b613eee919061545c565b9050613f236040518060400160405280601181526020017036b0b4b73a32b730b731b2a6b0b933b4b760791b81525082612dc9565b613f476040518060400160405280600381526020016266656560e81b815250611f3d565b613f50826144d0565b60008284613f618f60400151614466565b613f6b9190615687565b613f759190615687565b9050613fa86040518060400160405280601081526020016f3d3d3d3d3d72656d61696e203d3d3d3d60801b815250611f3d565b613fb1816144d0565b613fba82614466565b13955050505050505b9695505050505050565b613fd5614ef7565b8251600185015410156140405760405162461bcd60e51b815260206004820152602d60248201527f506f736974696f6e3a64656372656173653a20696e73756666696369656e742060448201526c706f736974696f6e2073697a6560981b60648201526084016106f0565b60018401548454600486015460208601516000926140669260ff90911691859190614e5e565b90506140758660010154614466565b855161408090614466565b61408a90836156a7565b61409491906156d7565b835260068601546005870154875460608801516140bc93889390929091879160ff1690613885565b60e085015260c0840152845160009083146140d85760006140de565b86600201545b905060008188600201546140f29190615380565b90506141276040518060400160405280600d81526020016c706f7369746f696e2073697a6560981b8152508960010154612dc9565b6141576040518060400160405280600a815260200169656e747279507269636560b01b8152508960040154612dc9565b61419a6040518060400160405280601781526020017f696e697469616c20636f6c6c61746572616c56616c75650000000000000000008152508960020154612dc9565b6141ce6040518060400160405280600e81526020016d199d5b991a5b99c81c185e5bdd5d60921b8152508660c00151612dc9565b6142006040518060400160405280600c81526020016b199d5b991a5b99c81119589d60a21b8152508660e00151612dc9565b6142246040518060400160405280600381526020016214139360ea1b815250611f3d565b845161422f906144d0565b600061423e8860400151614466565b61424b8760e00151614466565b6142588860c00151614466565b61426186614466565b895161426d9190615687565b6142779190615687565b61428191906154cc565b61428b91906154cc565b90506142ba6040518060400160405280600c81526020016b7061796f75742076616c756560a01b815250611f3d565b6142c3816144d0565b60008112156142e1576142de826142d9836139e4565b614ec4565b91505b6001890154885160078b01546142f7919061542f565b614301919061545c565b602087015260008113614315576000614317565b805b6040870152600289015461432c908390615380565b60608701819052604089015160a0880152895460ff16901561437157896002015487606001518b60030154614361919061542f565b61436b919061545c565b60808801525b80614380578760600151614386565b87604001515b60058b01558061439a57876020015161439d565b87515b60068b0155885160018b0180546000906143b8908490615380565b909155505060028a01839055602087015160078b01546143d89190615380565b8a600701819055505050505050509392505050565b801561441257818460020160008282546144079190615380565b9091555061442c9050565b818460030160008282546144269190615380565b90915550505b828460010160008282546144409190615380565b90915550508354829061445490859061536d565b61445e9190615380565b909355505050565b60006001600160ff1b038211156139fc5760405162461bcd60e51b815260206004820152602860248201527f53616665436173743a2076616c756520646f65736e27742066697420696e2061604482015267371034b73a191a9b60c11b60648201526084016106f0565b610ed0816040516024016144e691815260200190565b60408051601f198184030181529190526020810180516001600160e01b0316634e0c1d1d60e01b1790526139c3565b600080806000198587098587029250828110838203039150508060000361454f5783828161454557614545615446565b049250505061259d565b8084116145965760405162461bcd60e51b81526020600482015260156024820152744d6174683a206d756c446976206f766572666c6f7760581b60448201526064016106f0565b60008486880960026001871981018816978890046003810283188082028403028082028403028082028403028082028403028082028403029081029092039091026000889003889004909101858311909403939093029303949094049190911702949350505050565b600061461036849003840184615705565b6146226101e084016101c0850161552f565b60018160028111156146365761463661511b565b146146955760408201516001600160a01b03166146955760405162461bcd60e51b815260206004820152601f60248201527f4d61726b65744d616e616765723a5661756c742069732072657175697265640060448201526064016106f0565b60028160028111156146a9576146a961511b565b146147165760208201516001600160a01b03166147165760405162461bcd60e51b815260206004820152602560248201527f4d61726b65744d616e616765723a496e64657820746f6b656e206973207265716044820152641d5a5c995960da1b60648201526084016106f0565b60608201516001600160a01b031661477c5760405162461bcd60e51b8152602060048201526024808201527f4d61726b65744d616e616765723a537461626c65636f696e20697320726571756044820152631a5c995960e21b60648201526084016106f0565b60808201516001600160a01b03166147e85760405162461bcd60e51b815260206004820152602960248201527f4d61726b65744d616e616765723a537461626c65636f696e5661756c74206973604482015268081c995c5d5a5c995960ba1b60648201526084016106f0565b60a08201516001600160a01b031661484e5760405162461bcd60e51b815260206004820152602360248201527f4d61726b65744d616e616765723a7072696365466565642069732072657175696044820152621c995960ea1b60648201526084016106f0565b60c08201516001600160a01b03166148bc5760405162461bcd60e51b815260206004820152602b60248201527f4d61726b65744d616e616765723a2066756e64696e67526174654d6f64656c2060448201526a1a5cc81c995c5d5a5c995960aa1b60648201526084016106f0565b60026148d06101e086016101c0870161552f565b60028111156148e1576148e161511b565b1461494e5760006148f860408701602088016150fe565b6001600160a01b03160361494e5760405162461bcd60e51b815260206004820152601f60248201527f4d61726b65744d616e616765723a41737365742069732072657175697265640060448201526064016106f0565b61495e60808501606086016157bd565b60ff1615158061497f575061497960a08501608086016157bd565b60ff1615155b15614a195761499460a08501608086016157bd565b6149a460808601606087016157bd565b6149ae91906157da565b60ff16606414614a195760405162461bcd60e51b815260206004820152603060248201527f4d61726b65744d616e616765723a206d61784c6f6e6753686f7274536b65772060448201526f073686f756c6420657175616c203130360841b60648201526084016106f0565b614a60614a2e6101e086016101c0870161552f565b614a3b60208801886150fe565b614a4b6040890160208a016150fe565b614a5b60808a0160608b016150fe565b614ede565b6000818152602088905260409020549093506001600160a01b031615614ac85760405162461bcd60e51b815260206004820152601c60248201527f4d61726b65744d616e616765723a206d61726b6574206578697374730000000060448201526064016106f0565b60008381526020889052604090208490614ae282826158d0565b505060008381526020879052604090208590614afe8282615b10565b50614b0e905060208601866150fe565b6001600160a01b031683614b2a6101e087016101c0880161552f565b6002811115614b3b57614b3b61511b565b7fe5f04d51f59636bb2fc0b095fb0bb594333fee72d7cd6b31eb2e6cd2de0f3271614b6c60408a0160208b016150fe565b614b7c60808b0160608c016150fe565b8935614b906102208c016102008d01615301565b614ba26101c08d016101a08e016157bd565b614bb46101808e016101608f016157bd565b604080516001600160a01b039788168152969095166020870152938501929092521515606084015260ff90811660808401521660a082015260c00160405180910390a46040516001815283907fcd753f54a5c633241a18de31a107568ea34f82f74c207ae19f257fd19f7c76c69060200160405180910390a25050949350505050565b60008281526020848152604091829020805460ff1916841515908117909155915191825283917fcd753f54a5c633241a18de31a107568ea34f82f74c207ae19f257fd19f7c76c6910160405180910390a2505050565b6001816001811115614ca157614ca161511b565b14611b8157600085118015614cb65750600083115b15614cf4578284614cc7878561542f565b614cd1919061542f565b614cdb919061545c565b86602001818151614cec919061536d565b905250611b81565b611b81565b6001600160a01b0381166000908152600e602052604081205460ff168015614d215792915050565b6000836001600160a01b031663313ce5676040518163ffffffff1660e01b8152600401602060405180830381865afa158015614d61573d6000803e3d6000fd5b505050506040513d601f19601f82011682018060405250810190614d85919061555b565b6001600160a01b03949094166000908152600e60205260409020805460ff191660ff8616179055509192915050565b6000808211604051806040016040528060088152602001670c08185b5bdd5b9d60c21b81525090614df85760405162461bcd60e51b81526004016106f091906152ee565b5090919050565b600081600003614e105750836132e9565b6000614e1e85888887614e5e565b90506000614e2c848961536d565b90506000614e3a8383615687565b905080614e47838861542f565b614e51919061545c565b9998505050505050505050565b600083600003614e7057506000611d30565b8415614ea1576000614e8284846154cc565b905083614e8f86836156a7565b614e9991906156d7565b915050611d30565b6000614ead83856154cc565b905083614eba86836156a7565b613fc391906156d7565b6000818311614ed4576000610a15565b610a158284615380565b6000848484846040516020016123579493929190615bcd565b60405180610100016040528060008152602001600081526020016000815260200160008152602001600081526020016000815260200160008152602001600081525090565b600060e08284031215614f4e57600080fd5b50919050565b600060e08284031215614f6657600080fd5b610a158383614f3c565b6001600160a01b0381168114610ed057600080fd5b8035614f9081614f70565b919050565b60008060408385031215614fa857600080fd5b823591506020830135614fba81614f70565b809150509250929050565b600060a08284031215614f4e57600080fd5b600060a08284031215614fe957600080fd5b610a158383614fc5565b60006020828403121561500557600080fd5b5035919050565b8015158114610ed057600080fd5b60008060006060848603121561502f57600080fd5b833561503a81614f70565b92506020840135915060408401356150518161500c565b809150509250925092565b6000806040838503121561506f57600080fd5b50508035926020909101359150565b6000806000806080858703121561509457600080fd5b8435935060208501356150a681614f70565b925060408501356150b68161500c565b9396929550929360600135925050565b6000806000606084860312156150db57600080fd5b8335925060208401356150ed81614f70565b929592945050506040919091013590565b60006020828403121561511057600080fd5b8135610a1581614f70565b634e487b7160e01b600052602160045260246000fd5b60038110610ed057634e487b7160e01b600052602160045260246000fd5b61515881615131565b9052565b8d815261ffff8d811660208301528c811660408301528b811660608301528a81166080830152891660a082015263ffffffff881660c082015260ff871660e08201526101a0810160ff871661010083015260ff86166101208301526151c561014083018661514f565b6151d361016083018561514f565b8215156101808301529e9d5050505050505050505050505050565b604081016151fb84615131565b9281526001600160a01b039190911660209091015290565b60008082840361030081121561522857600080fd5b6152328585614f3c565b925061022060df198201121561524757600080fd5b5060e0830190509250929050565b6000806000806080858703121561526b57600080fd5b84359350602085013561527d81614f70565b9250604085013561528d81614f70565b9150606085013561529d8161500c565b939692955090935050565b6000815180845260005b818110156152ce576020818501810151868301820152016152b2565b506000602082860101526020601f19601f83011685010191505092915050565b602081526000610a1560208301846152a8565b60006020828403121561531357600080fd5b8135610a158161500c565b9687526001600160a01b0395909516602087015260408601939093526060850191909152608084015260a083015260c082015260e00190565b634e487b7160e01b600052601160045260246000fd5b80820180821115610a1857610a18615357565b81810381811115610a1857610a18615357565b634e487b7160e01b600052604160045260246000fd5b600060a082840312156153bb57600080fd5b60405160a0810181811067ffffffffffffffff821117156153de576153de615393565b6040528235815260208301356153f381614f70565b6020820152604083013561540681614f70565b60408201526060838101359082015260808301356154238161500c565b60808201529392505050565b8082028115828204841417610a1857610a18615357565b634e487b7160e01b600052601260045260246000fd5b60008261546b5761546b615446565b500490565b60006020828403121561548257600080fd5b5051919050565b60006020828403121561549b57600080fd5b815160028110610a1557600080fd5b6040815260006154bd60408301856152a8565b90508260208301529392505050565b81810360008312801583831316838312821617156154ec576154ec615357565b5092915050565b63ffffffff81168114610ed057600080fd5b60006020828403121561551757600080fd5b8135610a15816154f3565b60038110610ed057600080fd5b60006020828403121561554157600080fd5b8135610a1581615522565b60ff81168114610ed057600080fd5b60006020828403121561556d57600080fd5b8151610a158161554c565b6000600160ff1b820161558d5761558d615357565b5060000390565b600181815b808511156155cf5781600019048211156155b5576155b5615357565b808516156155c257918102915b93841c9390800290615599565b509250929050565b6000826155e657506001610a18565b816155f357506000610a18565b816001811461560957600281146156135761562f565b6001915050610a18565b60ff84111561562457615624615357565b50506001821b610a18565b5060208310610133831016604e8410600b8410161715615652575081810a610a18565b61565c8383615594565b806000190482111561567057615670615357565b029392505050565b6000610a1560ff8416836155d7565b808201828112600083128015821682158216171561255e5761255e615357565b80820260008212600160ff1b841416156156c3576156c3615357565b8181058314821517610a1857610a18615357565b6000826156e6576156e6615446565b600160ff1b82146000198414161561570057615700615357565b500590565b600060e0828403121561571757600080fd5b60405160e0810181811067ffffffffffffffff8211171561573a5761573a615393565b604052823561574881614f70565b8152602083013561575881614f70565b6020820152604083013561576b81614f70565b6040820152606083013561577e81614f70565b606082015261578f60808401614f85565b60808201526157a060a08401614f85565b60a08201526157b160c08401614f85565b60c08201529392505050565b6000602082840312156157cf57600080fd5b8135610a158161554c565b60ff8181168382160190811115610a1857610a18615357565b60008135610a188161554c565b816000805b60028110156158415782356158198161554c565b8160031b60ff808316821b81831b198616179450505050602083019250600181019050615805565b509091555050565b6000813561ffff81168114610a1857600080fd5b60008135610a18816154f3565b60008135610a1881615522565b61588082615131565b805460ff60881b191660889290921b60ff60881b16919091179055565b6158a682615131565b805460ff60901b191660909290921b60ff60901b16919091179055565b60008135610a188161500c565b813581556158e46020830160018301615800565b6158f46060830160028301615800565b6003810161591a61590760a08501615849565b825461ffff191661ffff91909116178255565b61594361592960c08501615849565b825463ffff0000191660109190911b63ffff000016178255565b61597061595260e08501615849565b825465ffff00000000191660209190911b65ffff0000000016178255565b6159a26159806101008501615849565b825467ffff000000000000191660309190911b67ffff00000000000016178255565b6159d86159b26101208501615849565b825469ffff0000000000000000191660409190911b69ffff000000000000000016178255565b615a0c6159e8610140850161585d565b82805463ffffffff60501b191660509290921b63ffffffff60501b16919091179055565b615a3a615a1c61016085016157f3565b82805460ff60701b191660709290921b60ff60701b16919091179055565b615a68615a4a61018085016157f3565b82805460ff60781b191660789290921b60ff60781b16919091179055565b615a96615a786101a085016157f3565b82805460ff60801b191660809290921b60ff60801b16919091179055565b615aac615aa66101c0850161586a565b82615877565b615ac2615abc6101e0850161586a565b8261589d565b6110a5615ad261020085016158c3565b82805460ff60981b191691151560981b60ff60981b16919091179055565b80546001600160a01b0319166001600160a01b0392909216919091179055565b8135615b1b81614f70565b615b258183615af0565b506020820135615b3481614f70565b615b418160018401615af0565b506040820135615b5081614f70565b615b5d8160028401615af0565b506060820135615b6c81614f70565b615b798160038401615af0565b506080820135615b8881614f70565b615b958160048401615af0565b5060a0820135615ba481614f70565b615bb18160058401615af0565b5060c0820135615bc081614f70565b6110a58160068401615af0565b60808101615bda86615131565b9481526001600160a01b03938416602082015291831660408301529091166060909101529056fe444563726561736520504f534954494f4e203d3d3d3d3d3d3d3d3d20636f6c6c61746572616c20616d6f756e74206c65667454726164696e67456e67696e653a506f736974696f6e206e6f74206c6971756964617461626c6554726164696e67456e67696e653a506f736974696f6e206e6f742065786973747354726164696e67456e67696e653a496e76616c696420636f6c6c61746572616c20746f6b656e54726164696e67456e67696e653a4d61726b6574206e6f74206c6973746564005f6d61726b6574735b6d61726b657449645d2e6c6f6e674f70656e496e746572657374202b2073697a6544656c746120a264697066735822122071973a82b03ccc2506cf282e26634318ca5fc38eb87476e010dc75a18755b99b64736f6c63430008140033",
    "linkReferences": {}
  },
  "methodIdentifiers": {
    "DEFAULT_FUNDING_INTERVAL()": "8f30c5cc",
    "addGovernedMarket((address,address,address,address,address,address,address),(bytes32,uint8[2],uint8[2],uint16,uint16,uint16,uint16,uint16,uint32,uint8,uint8,uint8,uint8,uint8,bool))": "e58ac6c9",
    "addMarket((address,address,address,address,address,address,address),(bytes32,uint8[2],uint8[2],uint16,uint16,uint16,uint16,uint16,uint32,uint8,uint8,uint8,uint8,uint8,bool))": "a2c22d2d",
    "decreasePosition((bytes32,address,address,uint256,bool))": "3f7b158f",
    "exchange()": "d2f7265a",
    "extraCollaterals(bytes32,uint256)": "2279ffae",
    "getFundingInfo(bytes32,bytes32)": "fb156e9d",
    "getIndex(bytes32)": "8527831b",
    "getIndexToken(bytes32)": "b5e53062",
    "getPosition(bytes32)": "1928b3cb",
    "getPositionKey(bytes32,address,address,bool)": "d73b0233",
    "getPositionSize(bytes32)": "f12562f4",
    "getPrevFundingState(bytes32)": "f761da00",
    "getPriceFeed(bytes32)": "8c0adf62",
    "getVault(bytes32,address)": "092a4689",
    "getVaultAndPositionFee(bytes32,address,bool,uint256)": "4846a331",
    "gov()": "12d43a51",
    "increasePosition((bytes32,uint256,uint256,uint256,address,address,bool))": "02dbbefb",
    "isListed(bytes32)": "ecefbdc6",
    "liquidatePosition((bytes32,address,address,bool,address))": "0ea31260",
    "marketAddresses(bytes32)": "ada37fe8",
    "marketParams(bytes32)": "7fd065f9",
    "setExchange(address)": "67b1f5df",
    "updateCollateral()": "c91e9bc8",
    "updateVaultBalance(address,uint256,bool)": "1e66cef5",
    "validatePositionSize(bytes32,address,uint256)": "49e42835"
  },
  "id": 8
}