{
  "abi": [
    {
      "inputs": [],
      "stateMutability": "nonpayable",
      "type": "constructor"
    },
    {
      "inputs": [],
      "name": "InsufficientCollateral",
      "type": "error"
    },
    {
      "inputs": [],
      "name": "InvalidPositionSize",
      "type": "error"
    },
    {
      "inputs": [],
      "name": "PositionNotExist",
      "type": "error"
    },
    {
      "anonymous": false,
      "inputs": [
        {
          "indexed": false,
          "internalType": "bytes32",
          "name": "key",
          "type": "bytes32"
        },
        {
          "indexed": false,
          "internalType": "uint256",
          "name": "size",
          "type": "uint256"
        },
        {
          "indexed": false,
          "internalType": "uint256",
          "name": "collateralValue",
          "type": "uint256"
        },
        {
          "indexed": false,
          "internalType": "uint256",
          "name": "exitFundingIndex",
          "type": "uint256"
        },
        {
          "indexed": false,
          "internalType": "uint256",
          "name": "exitPayoutIndex",
          "type": "uint256"
        }
      ],
      "name": "ClosePosition",
      "type": "event"
    },
    {
      "anonymous": false,
      "inputs": [
        {
          "indexed": true,
          "internalType": "bytes32",
          "name": "marketId",
          "type": "bytes32"
        },
        {
          "indexed": true,
          "internalType": "address",
          "name": "account",
          "type": "address"
        },
        {
          "indexed": false,
          "internalType": "bytes32",
          "name": "key",
          "type": "bytes32"
        },
        {
          "components": [
            {
              "internalType": "bytes32",
              "name": "marketId",
              "type": "bytes32"
            },
            {
              "internalType": "address",
              "name": "account",
              "type": "address"
            },
            {
              "internalType": "address",
              "name": "collateralToken",
              "type": "address"
            },
            {
              "internalType": "uint256",
              "name": "sizeDelta",
              "type": "uint256"
            },
            {
              "internalType": "bool",
              "name": "isLong",
              "type": "bool"
            }
          ],
          "indexed": false,
          "internalType": "struct DecreasePositionParams",
          "name": "params",
          "type": "tuple"
        },
        {
          "components": [
            {
              "internalType": "int256",
              "name": "realizedPnl",
              "type": "int256"
            },
            {
              "internalType": "uint256",
              "name": "reserveDelta",
              "type": "uint256"
            },
            {
              "internalType": "uint256",
              "name": "payoutValue",
              "type": "uint256"
            },
            {
              "internalType": "uint256",
              "name": "collateralReduced",
              "type": "uint256"
            },
            {
              "internalType": "uint256",
              "name": "collateralAmountReduced",
              "type": "uint256"
            },
            {
              "internalType": "uint256",
              "name": "totalFee",
              "type": "uint256"
            },
            {
              "internalType": "uint256",
              "name": "fundingPayout",
              "type": "uint256"
            },
            {
              "internalType": "uint256",
              "name": "fundingDebt",
              "type": "uint256"
            },
            {
              "internalType": "uint256",
              "name": "executedPrice",
              "type": "uint256"
            }
          ],
          "indexed": false,
          "internalType": "struct DecreasePositionResult",
          "name": "result",
          "type": "tuple"
        }
      ],
      "name": "DecreasePosition",
      "type": "event"
    },
    {
      "anonymous": false,
      "inputs": [
        {
          "indexed": true,
          "internalType": "address",
          "name": "exchange",
          "type": "address"
        }
      ],
      "name": "ExchangeSet",
      "type": "event"
    },
    {
      "anonymous": false,
      "inputs": [
        {
          "indexed": true,
          "internalType": "bytes32",
          "name": "marketId",
          "type": "bytes32"
        },
        {
          "indexed": true,
          "internalType": "bytes32",
          "name": "key",
          "type": "bytes32"
        },
        {
          "indexed": false,
          "internalType": "uint256",
          "name": "fee",
          "type": "uint256"
        },
        {
          "indexed": false,
          "internalType": "uint256",
          "name": "fundingDebt",
          "type": "uint256"
        },
        {
          "indexed": false,
          "internalType": "uint256",
          "name": "fundingPayout",
          "type": "uint256"
        }
      ],
      "name": "FeeAndFundings",
      "type": "event"
    },
    {
      "anonymous": false,
      "inputs": [
        {
          "indexed": true,
          "internalType": "bytes32",
          "name": "marketId",
          "type": "bytes32"
        },
        {
          "indexed": true,
          "internalType": "address",
          "name": "account",
          "type": "address"
        },
        {
          "indexed": false,
          "internalType": "uint256",
          "name": "value",
          "type": "uint256"
        }
      ],
      "name": "FundingDebtPaid",
      "type": "event"
    },
    {
      "anonymous": false,
      "inputs": [
        {
          "indexed": true,
          "internalType": "bytes32",
          "name": "marketId",
          "type": "bytes32"
        },
        {
          "indexed": true,
          "internalType": "address",
          "name": "account",
          "type": "address"
        },
        {
          "indexed": false,
          "internalType": "uint256",
          "name": "value",
          "type": "uint256"
        }
      ],
      "name": "FundingPayout",
      "type": "event"
    },
    {
      "anonymous": false,
      "inputs": [
        {
          "indexed": true,
          "internalType": "bytes32",
          "name": "marketId",
          "type": "bytes32"
        },
        {
          "indexed": true,
          "internalType": "address",
          "name": "account",
          "type": "address"
        },
        {
          "indexed": false,
          "internalType": "bytes32",
          "name": "key",
          "type": "bytes32"
        },
        {
          "indexed": false,
          "internalType": "uint256",
          "name": "initialCollateralValue",
          "type": "uint256"
        },
        {
          "indexed": false,
          "internalType": "uint256",
          "name": "feeUsd",
          "type": "uint256"
        },
        {
          "components": [
            {
              "internalType": "bytes32",
              "name": "marketId",
              "type": "bytes32"
            },
            {
              "internalType": "uint256",
              "name": "sizeDelta",
              "type": "uint256"
            },
            {
              "internalType": "uint256",
              "name": "openFee",
              "type": "uint256"
            },
            {
              "internalType": "uint256",
              "name": "initialCollateralAmount",
              "type": "uint256"
            },
            {
              "internalType": "address",
              "name": "account",
              "type": "address"
            },
            {
              "internalType": "address",
              "name": "collateralToken",
              "type": "address"
            },
            {
              "internalType": "bool",
              "name": "isLong",
              "type": "bool"
            }
          ],
          "indexed": false,
          "internalType": "struct IncreasePositionParams",
          "name": "params",
          "type": "tuple"
        },
        {
          "components": [
            {
              "internalType": "uint256",
              "name": "fundingPayout",
              "type": "uint256"
            },
            {
              "internalType": "uint256",
              "name": "fundingDebt",
              "type": "uint256"
            },
            {
              "internalType": "uint256",
              "name": "collateralValueDelta",
              "type": "uint256"
            },
            {
              "internalType": "uint256",
              "name": "executedPrice",
              "type": "uint256"
            }
          ],
          "indexed": false,
          "internalType": "struct IncreasePositionResult",
          "name": "result",
          "type": "tuple"
        }
      ],
      "name": "IncreasePosition",
      "type": "event"
    },
    {
      "anonymous": false,
      "inputs": [
        {
          "indexed": false,
          "internalType": "bytes32",
          "name": "key",
          "type": "bytes32"
        },
        {
          "indexed": false,
          "internalType": "address",
          "name": "account",
          "type": "address"
        },
        {
          "indexed": false,
          "internalType": "uint256",
          "name": "indexPrice",
          "type": "uint256"
        }
      ],
      "name": "LiquidatePosition",
      "type": "event"
    },
    {
      "anonymous": false,
      "inputs": [
        {
          "indexed": true,
          "internalType": "bytes32",
          "name": "marketId",
          "type": "bytes32"
        },
        {
          "indexed": false,
          "internalType": "uint256",
          "name": "longFunding",
          "type": "uint256"
        },
        {
          "indexed": false,
          "internalType": "uint256",
          "name": "shortFunding",
          "type": "uint256"
        },
        {
          "indexed": false,
          "internalType": "uint256",
          "name": "longPayout",
          "type": "uint256"
        },
        {
          "indexed": false,
          "internalType": "uint256",
          "name": "shortPayout",
          "type": "uint256"
        },
        {
          "indexed": false,
          "internalType": "uint256",
          "name": "nInterval",
          "type": "uint256"
        }
      ],
      "name": "UpdateIndex",
      "type": "event"
    },
    {
      "anonymous": false,
      "inputs": [
        {
          "indexed": true,
          "internalType": "bytes32",
          "name": "marketId",
          "type": "bytes32"
        },
        {
          "indexed": true,
          "internalType": "address",
          "name": "account",
          "type": "address"
        },
        {
          "indexed": false,
          "internalType": "bytes32",
          "name": "key",
          "type": "bytes32"
        },
        {
          "indexed": false,
          "internalType": "address",
          "name": "collateralToken",
          "type": "address"
        },
        {
          "indexed": false,
          "internalType": "uint256",
          "name": "size",
          "type": "uint256"
        },
        {
          "indexed": false,
          "internalType": "uint256",
          "name": "collateralValue",
          "type": "uint256"
        },
        {
          "indexed": false,
          "internalType": "uint256",
          "name": "entryPrice",
          "type": "uint256"
        },
        {
          "indexed": false,
          "internalType": "uint256",
          "name": "entryFundingIndex",
          "type": "uint256"
        },
        {
          "indexed": false,
          "internalType": "uint256",
          "name": "entryPayoutIndex",
          "type": "uint256"
        }
      ],
      "name": "UpdatePosition",
      "type": "event"
    },
    {
      "anonymous": false,
      "inputs": [
        {
          "indexed": false,
          "internalType": "bytes32",
          "name": "marketId",
          "type": "bytes32"
        },
        {
          "indexed": false,
          "internalType": "address",
          "name": "vault",
          "type": "address"
        },
        {
          "indexed": false,
          "internalType": "uint256",
          "name": "collateralAmount",
          "type": "uint256"
        },
        {
          "indexed": false,
          "internalType": "uint256",
          "name": "reserveDelta",
          "type": "uint256"
        }
      ],
      "name": "VaultUpdated",
      "type": "event"
    },
    {
      "inputs": [
        {
          "internalType": "enum MarketType",
          "name": "marketType",
          "type": "uint8",
          "indexed": true
        },
        {
          "internalType": "bytes32",
          "name": "marketId",
          "type": "bytes32",
          "indexed": true
        },
        {
          "internalType": "address",
          "name": "owner",
          "type": "address",
          "indexed": true
        },
        {
          "internalType": "address",
          "name": "indexToken",
          "type": "address",
          "indexed": false
        },
        {
          "internalType": "address",
          "name": "quoteToken",
          "type": "address",
          "indexed": false
        },
        {
          "internalType": "bytes32",
          "name": "name",
          "type": "bytes32",
          "indexed": false
        },
        {
          "internalType": "bool",
          "name": "isGoverned",
          "type": "bool",
          "indexed": false
        },
        {
          "internalType": "uint8",
          "name": "category",
          "type": "uint8",
          "indexed": false
        },
        {
          "internalType": "uint8",
          "name": "maxLeverage",
          "type": "uint8",
          "indexed": false
        }
      ],
      "type": "event",
      "name": "MarketCreated",
      "anonymous": false
    },
    {
      "inputs": [],
      "name": "DEFAULT_FUNDING_INTERVAL",
      "outputs": [
        {
          "internalType": "uint256",
          "name": "",
          "type": "uint256"
        }
      ],
      "stateMutability": "view",
      "type": "function"
    },
    {
      "inputs": [
        {
          "components": [
            {
              "internalType": "address",
              "name": "owner",
              "type": "address"
            },
            {
              "internalType": "address",
              "name": "indexToken",
              "type": "address"
            },
            {
              "internalType": "address",
              "name": "vault",
              "type": "address"
            },
            {
              "internalType": "address",
              "name": "quoteToken",
              "type": "address"
            },
            {
              "internalType": "address",
              "name": "quoteVault",
              "type": "address"
            },
            {
              "internalType": "address",
              "name": "priceFeed",
              "type": "address"
            },
            {
              "internalType": "contract IFundingRateModel",
              "name": "fundingRateModel",
              "type": "address"
            }
          ],
          "internalType": "struct MarketAddresses",
          "name": "addresses",
          "type": "tuple"
        },
        {
          "components": [
            {
              "internalType": "bytes32",
              "name": "name",
              "type": "bytes32"
            },
            {
              "internalType": "uint8[2]",
              "name": "feeDistributionWeights",
              "type": "uint8[2]"
            },
            {
              "internalType": "uint8[2]",
              "name": "maxLongShortSkew",
              "type": "uint8[2]"
            },
            {
              "internalType": "uint16",
              "name": "maintenanceMarginBps",
              "type": "uint16"
            },
            {
              "internalType": "uint16",
              "name": "liquidationFee",
              "type": "uint16"
            },
            {
              "internalType": "uint16",
              "name": "maxPostionSizeOverVault",
              "type": "uint16"
            },
            {
              "internalType": "uint16",
              "name": "openFee",
              "type": "uint16"
            },
            {
              "internalType": "uint16",
              "name": "closeFee",
              "type": "uint16"
            },
            {
              "internalType": "uint32",
              "name": "fundingInterval",
              "type": "uint32"
            },
            {
              "internalType": "uint8",
              "name": "maxLeverage",
              "type": "uint8"
            },
            {
              "internalType": "uint8",
              "name": "maxExposureMultiplier",
              "type": "uint8"
            },
            {
              "internalType": "uint8",
              "name": "category",
              "type": "uint8"
            },
            {
              "internalType": "enum MarketType",
              "name": "marketType",
              "type": "uint8"
            },
            {
              "internalType": "enum PriceFeedType",
              "name": "priceFeedType",
              "type": "uint8"
            },
            {
              "internalType": "bool",
              "name": "isGoverned",
              "type": "bool"
            }
          ],
          "internalType": "struct MarketParams",
          "name": "params",
          "type": "tuple"
        }
      ],
      "name": "addGovernedMarket",
      "outputs": [
        {
          "internalType": "bytes32",
          "name": "",
          "type": "bytes32"
        }
      ],
      "stateMutability": "nonpayable",
      "type": "function"
    },
    {
      "inputs": [
        {
          "components": [
            {
              "internalType": "address",
              "name": "owner",
              "type": "address"
            },
            {
              "internalType": "address",
              "name": "indexToken",
              "type": "address"
            },
            {
              "internalType": "address",
              "name": "vault",
              "type": "address"
            },
            {
              "internalType": "address",
              "name": "quoteToken",
              "type": "address"
            },
            {
              "internalType": "address",
              "name": "quoteVault",
              "type": "address"
            },
            {
              "internalType": "address",
              "name": "priceFeed",
              "type": "address"
            },
            {
              "internalType": "contract IFundingRateModel",
              "name": "fundingRateModel",
              "type": "address"
            }
          ],
          "internalType": "struct MarketAddresses",
          "name": "addresses",
          "type": "tuple"
        },
        {
          "components": [
            {
              "internalType": "bytes32",
              "name": "name",
              "type": "bytes32"
            },
            {
              "internalType": "uint8[2]",
              "name": "feeDistributionWeights",
              "type": "uint8[2]"
            },
            {
              "internalType": "uint8[2]",
              "name": "maxLongShortSkew",
              "type": "uint8[2]"
            },
            {
              "internalType": "uint16",
              "name": "maintenanceMarginBps",
              "type": "uint16"
            },
            {
              "internalType": "uint16",
              "name": "liquidationFee",
              "type": "uint16"
            },
            {
              "internalType": "uint16",
              "name": "maxPostionSizeOverVault",
              "type": "uint16"
            },
            {
              "internalType": "uint16",
              "name": "openFee",
              "type": "uint16"
            },
            {
              "internalType": "uint16",
              "name": "closeFee",
              "type": "uint16"
            },
            {
              "internalType": "uint32",
              "name": "fundingInterval",
              "type": "uint32"
            },
            {
              "internalType": "uint8",
              "name": "maxLeverage",
              "type": "uint8"
            },
            {
              "internalType": "uint8",
              "name": "maxExposureMultiplier",
              "type": "uint8"
            },
            {
              "internalType": "uint8",
              "name": "category",
              "type": "uint8"
            },
            {
              "internalType": "enum MarketType",
              "name": "marketType",
              "type": "uint8"
            },
            {
              "internalType": "enum PriceFeedType",
              "name": "priceFeedType",
              "type": "uint8"
            },
            {
              "internalType": "bool",
              "name": "isGoverned",
              "type": "bool"
            }
          ],
          "internalType": "struct MarketParams",
          "name": "params",
          "type": "tuple"
        }
      ],
      "name": "addMarket",
      "outputs": [
        {
          "internalType": "bytes32",
          "name": "",
          "type": "bytes32"
        }
      ],
      "stateMutability": "nonpayable",
      "type": "function"
    },
    {
      "inputs": [
        {
          "components": [
            {
              "internalType": "bytes32",
              "name": "marketId",
              "type": "bytes32"
            },
            {
              "internalType": "address",
              "name": "account",
              "type": "address"
            },
            {
              "internalType": "address",
              "name": "collateralToken",
              "type": "address"
            },
            {
              "internalType": "uint256",
              "name": "sizeDelta",
              "type": "uint256"
            },
            {
              "internalType": "bool",
              "name": "isLong",
              "type": "bool"
            }
          ],
          "internalType": "struct DecreasePositionParams",
          "name": "params",
          "type": "tuple"
        }
      ],
      "name": "decreasePosition",
      "outputs": [],
      "stateMutability": "nonpayable",
      "type": "function"
    },
    {
      "inputs": [],
      "name": "exchange",
      "outputs": [
        {
          "internalType": "address",
          "name": "",
          "type": "address"
        }
      ],
      "stateMutability": "view",
      "type": "function"
    },
    {
      "inputs": [
        {
          "internalType": "bytes32",
          "name": "",
          "type": "bytes32"
        },
        {
          "internalType": "uint256",
          "name": "",
          "type": "uint256"
        }
      ],
      "name": "extraCollaterals",
      "outputs": [
        {
          "internalType": "address",
          "name": "",
          "type": "address"
        }
      ],
      "stateMutability": "view",
      "type": "function"
    },
    {
      "inputs": [
        {
          "internalType": "bytes32",
          "name": "marketId",
          "type": "bytes32"
        },
        {
          "internalType": "bytes32",
          "name": "key",
          "type": "bytes32"
        }
      ],
      "name": "getFundingInfo",
      "outputs": [
        {
          "internalType": "uint256",
          "name": "fundingPayout",
          "type": "uint256"
        },
        {
          "internalType": "uint256",
          "name": "fundingDebt",
          "type": "uint256"
        }
      ],
      "stateMutability": "view",
      "type": "function"
    },
    {
      "inputs": [
        {
          "internalType": "bytes32",
          "name": "marketId",
          "type": "bytes32"
        }
      ],
      "name": "getFundingInterval",
      "outputs": [
        {
          "internalType": "uint256",
          "name": "",
          "type": "uint256"
        }
      ],
      "stateMutability": "view",
      "type": "function"
    },
    {
      "inputs": [
        {
          "internalType": "bytes32",
          "name": "marketKey",
          "type": "bytes32"
        }
      ],
      "name": "getIndex",
      "outputs": [
        {
          "components": [
            {
              "internalType": "uint256",
              "name": "longPayout",
              "type": "uint256"
            },
            {
              "internalType": "uint256",
              "name": "shortPayout",
              "type": "uint256"
            },
            {
              "internalType": "uint256",
              "name": "longFunding",
              "type": "uint256"
            },
            {
              "internalType": "uint256",
              "name": "shortFunding",
              "type": "uint256"
            }
          ],
          "internalType": "struct Index",
          "name": "",
          "type": "tuple"
        }
      ],
      "stateMutability": "view",
      "type": "function"
    },
    {
      "inputs": [
        {
          "internalType": "bytes32",
          "name": "marketId",
          "type": "bytes32"
        }
      ],
      "name": "getIndexToken",
      "outputs": [
        {
          "internalType": "address",
          "name": "",
          "type": "address"
        }
      ],
      "stateMutability": "view",
      "type": "function"
    },
    {
      "inputs": [
        {
          "internalType": "bytes32",
          "name": "key",
          "type": "bytes32"
        }
      ],
      "name": "getPosition",
      "outputs": [
        {
          "components": [
            {
              "internalType": "bool",
              "name": "isLong",
              "type": "bool"
            },
            {
              "internalType": "uint256",
              "name": "size",
              "type": "uint256"
            },
            {
              "internalType": "uint256",
              "name": "collateralValue",
              "type": "uint256"
            },
            {
              "internalType": "uint256",
              "name": "collateralAmount",
              "type": "uint256"
            },
            {
              "internalType": "uint256",
              "name": "entryPrice",
              "type": "uint256"
            },
            {
              "internalType": "uint256",
              "name": "entryFundingIndex",
              "type": "uint256"
            },
            {
              "internalType": "uint256",
              "name": "entryPayoutIndex",
              "type": "uint256"
            },
            {
              "internalType": "uint256",
              "name": "reserveAmount",
              "type": "uint256"
            }
          ],
          "internalType": "struct Position",
          "name": "",
          "type": "tuple"
        }
      ],
      "stateMutability": "view",
      "type": "function"
    },
    {
      "inputs": [
        {
          "internalType": "bytes32",
          "name": "marketId",
          "type": "bytes32"
        },
        {
          "internalType": "address",
          "name": "account",
          "type": "address"
        },
        {
          "internalType": "address",
          "name": "collateralToken",
          "type": "address"
        },
        {
          "internalType": "bool",
          "name": "isLong",
          "type": "bool"
        }
      ],
      "name": "getPositionKey",
      "outputs": [
        {
          "internalType": "bytes32",
          "name": "",
          "type": "bytes32"
        }
      ],
      "stateMutability": "pure",
      "type": "function"
    },
    {
      "inputs": [
        {
          "internalType": "bytes32",
          "name": "key",
          "type": "bytes32"
        }
      ],
      "name": "getPositionSize",
      "outputs": [
        {
          "internalType": "uint256",
          "name": "",
          "type": "uint256"
        }
      ],
      "stateMutability": "view",
      "type": "function"
    },
    {
      "inputs": [
        {
          "internalType": "bytes32",
          "name": "marketKey",
          "type": "bytes32"
        }
      ],
      "name": "getPrevFundingState",
      "outputs": [
        {
          "internalType": "uint256",
          "name": "timestamp",
          "type": "uint256"
        },
        {
          "internalType": "uint256",
          "name": "longOpenInterest",
          "type": "uint256"
        },
        {
          "internalType": "uint256",
          "name": "shortOpenInterest",
          "type": "uint256"
        },
        {
          "internalType": "int256",
          "name": "fundingRate",
          "type": "int256"
        }
      ],
      "stateMutability": "view",
      "type": "function"
    },
    {
      "inputs": [
        {
          "internalType": "bytes32",
          "name": "marketId",
          "type": "bytes32"
        }
      ],
      "name": "getPriceFeed",
      "outputs": [
        {
          "internalType": "enum PriceFeedType",
          "name": "feedType",
          "type": "uint8"
        },
        {
          "internalType": "address",
          "name": "priceFeed",
          "type": "address"
        }
      ],
      "stateMutability": "view",
      "type": "function"
    },
    {
      "inputs": [
        {
          "internalType": "bytes32",
          "name": "marketId",
          "type": "bytes32"
        },
        {
          "internalType": "address",
          "name": "collateralToken",
          "type": "address"
        }
      ],
      "name": "getVault",
      "outputs": [
        {
          "internalType": "address",
          "name": "",
          "type": "address"
        }
      ],
      "stateMutability": "view",
      "type": "function"
    },
    {
      "inputs": [
        {
          "internalType": "bytes32",
          "name": "marketId",
          "type": "bytes32"
        },
        {
          "internalType": "address",
          "name": "collateralToken",
          "type": "address"
        },
        {
          "internalType": "bool",
          "name": "open",
          "type": "bool"
        },
        {
          "internalType": "uint256",
          "name": "sizeDelta",
          "type": "uint256"
        }
      ],
      "name": "getVaultAndPositionFee",
      "outputs": [
        {
          "internalType": "address",
          "name": "",
          "type": "address"
        },
        {
          "internalType": "uint256",
          "name": "",
          "type": "uint256"
        },
        {
          "internalType": "uint256",
          "name": "",
          "type": "uint256"
        }
      ],
      "stateMutability": "view",
      "type": "function"
    },
    {
      "inputs": [],
      "name": "gov",
      "outputs": [
        {
          "internalType": "address",
          "name": "",
          "type": "address"
        }
      ],
      "stateMutability": "view",
      "type": "function"
    },
    {
      "inputs": [
        {
          "components": [
            {
              "internalType": "bytes32",
              "name": "marketId",
              "type": "bytes32"
            },
            {
              "internalType": "uint256",
              "name": "sizeDelta",
              "type": "uint256"
            },
            {
              "internalType": "uint256",
              "name": "openFee",
              "type": "uint256"
            },
            {
              "internalType": "uint256",
              "name": "initialCollateralAmount",
              "type": "uint256"
            },
            {
              "internalType": "address",
              "name": "account",
              "type": "address"
            },
            {
              "internalType": "address",
              "name": "collateralToken",
              "type": "address"
            },
            {
              "internalType": "bool",
              "name": "isLong",
              "type": "bool"
            }
          ],
          "internalType": "struct IncreasePositionParams",
          "name": "params",
          "type": "tuple"
        }
      ],
      "name": "increasePosition",
      "outputs": [],
      "stateMutability": "nonpayable",
      "type": "function"
    },
    {
      "inputs": [
        {
          "internalType": "bytes32",
          "name": "",
          "type": "bytes32"
        }
      ],
      "name": "isListed",
      "outputs": [
        {
          "internalType": "bool",
          "name": "",
          "type": "bool"
        }
      ],
      "stateMutability": "view",
      "type": "function"
    },
    {
      "inputs": [
        {
          "components": [
            {
              "internalType": "bytes32",
              "name": "marketId",
              "type": "bytes32"
            },
            {
              "internalType": "address",
              "name": "account",
              "type": "address"
            },
            {
              "internalType": "address",
              "name": "collateralToken",
              "type": "address"
            },
            {
              "internalType": "bool",
              "name": "isLong",
              "type": "bool"
            },
            {
              "internalType": "address",
              "name": "feeTo",
              "type": "address"
            }
          ],
          "internalType": "struct LiquidatePositionParams",
          "name": "params",
          "type": "tuple"
        }
      ],
      "name": "liquidatePosition",
      "outputs": [],
      "stateMutability": "nonpayable",
      "type": "function"
    },
    {
      "inputs": [
        {
          "internalType": "bytes32",
          "name": "",
          "type": "bytes32"
        }
      ],
      "name": "marketAddresses",
      "outputs": [
        {
          "internalType": "address",
          "name": "owner",
          "type": "address"
        },
        {
          "internalType": "address",
          "name": "indexToken",
          "type": "address"
        },
        {
          "internalType": "address",
          "name": "vault",
          "type": "address"
        },
        {
          "internalType": "address",
          "name": "quoteToken",
          "type": "address"
        },
        {
          "internalType": "address",
          "name": "quoteVault",
          "type": "address"
        },
        {
          "internalType": "address",
          "name": "priceFeed",
          "type": "address"
        },
        {
          "internalType": "contract IFundingRateModel",
          "name": "fundingRateModel",
          "type": "address"
        }
      ],
      "stateMutability": "view",
      "type": "function"
    },
    {
      "inputs": [
        {
          "internalType": "bytes32",
          "name": "",
          "type": "bytes32"
        }
      ],
      "name": "marketParams",
      "outputs": [
        {
          "internalType": "bytes32",
          "name": "name",
          "type": "bytes32"
        },
        {
          "internalType": "uint16",
          "name": "maintenanceMarginBps",
          "type": "uint16"
        },
        {
          "internalType": "uint16",
          "name": "liquidationFee",
          "type": "uint16"
        },
        {
          "internalType": "uint16",
          "name": "maxPostionSizeOverVault",
          "type": "uint16"
        },
        {
          "internalType": "uint16",
          "name": "openFee",
          "type": "uint16"
        },
        {
          "internalType": "uint16",
          "name": "closeFee",
          "type": "uint16"
        },
        {
          "internalType": "uint32",
          "name": "fundingInterval",
          "type": "uint32"
        },
        {
          "internalType": "uint8",
          "name": "maxLeverage",
          "type": "uint8"
        },
        {
          "internalType": "uint8",
          "name": "maxExposureMultiplier",
          "type": "uint8"
        },
        {
          "internalType": "uint8",
          "name": "category",
          "type": "uint8"
        },
        {
          "internalType": "enum MarketType",
          "name": "marketType",
          "type": "uint8"
        },
        {
          "internalType": "enum PriceFeedType",
          "name": "priceFeedType",
          "type": "uint8"
        },
        {
          "internalType": "bool",
          "name": "isGoverned",
          "type": "bool"
        }
      ],
      "stateMutability": "view",
      "type": "function"
    },
    {
      "inputs": [
        {
          "internalType": "address",
          "name": "_exchange",
          "type": "address"
        }
      ],
      "name": "setExchange",
      "outputs": [],
      "stateMutability": "nonpayable",
      "type": "function"
    },
    {
      "inputs": [],
      "name": "updateCollateral",
      "outputs": [],
      "stateMutability": "nonpayable",
      "type": "function"
    },
    {
      "inputs": [
        {
          "internalType": "address",
          "name": "vault",
          "type": "address"
        },
        {
          "internalType": "uint256",
          "name": "delta",
          "type": "uint256"
        },
        {
          "internalType": "bool",
          "name": "isIncrease",
          "type": "bool"
        }
      ],
      "name": "updateVaultBalance",
      "outputs": [],
      "stateMutability": "nonpayable",
      "type": "function"
    },
    {
      "inputs": [
        {
          "internalType": "bytes32",
          "name": "marketId",
          "type": "bytes32"
        },
        {
          "internalType": "address",
          "name": "collateralToken",
          "type": "address"
        },
        {
          "internalType": "uint256",
          "name": "size",
          "type": "uint256"
        }
      ],
      "name": "validatePositionSize",
      "outputs": [],
      "stateMutability": "view",
      "type": "function"
    }
  ],
  "bytecode": {
    "object": "0x608060405234801561001057600080fd5b506001601155601280546001600160a01b03191633179055615fa180620000386000396000f3fe608060405234801561001057600080fd5b50600436106101a95760003560e01c80638c0adf62116100f9578063d2f7265a11610097578063ecefbdc611610071578063ecefbdc6146105be578063f12562f4146105f1578063f761da0014610614578063fb156e9d1461066a57600080fd5b8063d2f7265a14610585578063d73b023314610598578063e58ac6c9146105ab57600080fd5b8063aa7566de116100d3578063aa7566de14610474578063ada37fe8146104a4578063b5e5306214610550578063c91e9bc81461057d57600080fd5b80638c0adf62146104015780638f30c5cc1461044a578063a2c22d2d1461046157600080fd5b80632279ffae1161016657806349e428351161014057806349e428351461030057806367b1f5df146103135780637fd065f9146103265780638527831b146103e157600080fd5b80632279ffae146102a25780633f7b158f146102b55780634846a331146102c857600080fd5b806302dbbefb146101ae578063092a4689146101c35780630ea31260146101f357806312d43a51146102065780631928b3cb146102195780631e66cef51461028f575b600080fd5b6101c16101bc3660046150fb565b610692565b005b6101d66101d136600461513c565b610973565b6040516001600160a01b0390911681526020015b60405180910390f35b6101c161020136600461517e565b610988565b6012546101d6906001600160a01b031681565b61022c61022736600461519a565b610e54565b6040516101ea91906000610100820190508251151582526020830151602083015260408301516040830152606083015160608301526080830151608083015260a083015160a083015260c083015160c083015260e083015160e083015292915050565b6101c161029d3660046151c1565b610f11565b6101d66102b0366004615203565b61102b565b6101c16102c336600461517e565b611063565b6102db6102d6366004615225565b611968565b604080516001600160a01b0390941684526020840192909252908201526060016101ea565b6101c161030e36600461526d565b6119e2565b6101c16103213660046152a5565b611ae0565b6103c861033436600461519a565b6000602081905290815260409020805460039091015461ffff80821691620100008104821691640100000000820481169166010000000000008104821691600160401b8204169063ffffffff600160501b8204169060ff600160701b8204811691600160781b8104821691600160801b8204811691600160881b8104821691600160901b8204811691600160981b9004168d565b6040516101ea9d9c9b9a99989796959493929190615303565b6103f46103ef36600461519a565b611b7d565b6040516101ea9190615395565b61043c61040f36600461519a565b6000908152600b60209081526040808320546001600160a01b0316808452600c9092529091205460ff1691565b6040516101ea9291906153c0565b61045361708081565b6040519081526020016101ea565b61045361046f3660046153e5565b611bed565b61045361048236600461519a565b600090815260208190526040902060030154600160501b900463ffffffff1690565b6105076104b236600461519a565b600160208190526000918252604090912080549181015460028201546003830154600484015460058501546006909501546001600160a01b039687169694851695938516949283169391831692918216911687565b604080516001600160a01b039889168152968816602088015294871694860194909452918516606085015284166080840152831660a083015290911660c082015260e0016101ea565b6101d661055e36600461519a565b600090815260016020819052604090912001546001600160a01b031690565b6101c1611c62565b6010546101d6906001600160a01b031681565b6104536105a6366004615427565b611c76565b6104536105b93660046153e5565b611c8f565b6105e16105cc36600461519a565b60036020526000908152604090205460ff1681565b60405190151581526020016101ea565b6104536105ff36600461519a565b6000908152600a602052604090206001015490565b61064a61062236600461519a565b6000908152600760205260409020805460018201546002830154600390930154919390929190565b6040805194855260208501939093529183015260608201526080016101ea565b61067d610678366004615203565b611d56565b604080519283526020830191909152016101ea565b6106bf6040518060400160405280600c81526020016b6f6e6c7945786368616e676560a01b815250611e94565b6010546001600160a01b0316331461071e5760405162461bcd60e51b815260206004820152601b60248201527f54726164696e67456e67696e653a206f6e6c7965786368616e6765000000000060448201526064015b60405180910390fd5b8035600090815260036020908152604091829020548251808401909352601f8352600080516020615f1c8339815191529183019190915260ff166107755760405162461bcd60e51b815260040161071591906154c0565b5060006107828235611ed7565b905060006107c0833561079b60a08601608087016152a5565b6107ab60c0870160a088016152a5565b6107bb60e0880160c089016154d3565b612218565b6000818152600a602052604081209192506107eb85356107e660c0880160a089016152a5565b61226c565b90506000610822863561080460c0890160a08a016152a5565b6001600160a01b03851660009081526005602052604090205461245b565b905061084486358261083a60e08a0160c08b016154d3565b8960200135612499565b600061085285878986612696565b60018581015460028701548a3560009081526020819052604090206003015493945061088793600160701b900460ff166129de565b61089c87600001356001866001015485612b45565b6020818101518251604080518b820135815293840192909252828201525186918935917fc0b155ca0c9d38455de1afd89b90c0bff5af4b4675e8381867d36a670dccca2e9181900360600190a36108f960a08801608089016152a5565b6001600160a01b031687357f67f1a5b210a2813e5b73203faaec1e17d8ef7b54cf0d3be59e31d4c3d3ab5a5a8761093660c08c0160a08d016152a5565b886001015489600201548a600401548b600501548c6006015460405161096297969594939291906154f0565b60405180910390a350505050505050565b600061097f838361226c565b90505b92915050565b610990612c77565b8035600090815260036020908152604091829020548251808401909352601f8352600080516020615f1c8339815191529183019190915260ff166109e75760405162461bcd60e51b815260040161071591906154c0565b5060006109f48235611ed7565b90506000610a2d8335610a0d60408601602087016152a5565b610a1d60608701604088016152a5565b6107bb60808801606089016154d3565b6000818152600a602052604081206001810154929350919003610a6357604051630a0fcbff60e31b815260040160405180910390fd5b60006040518060a0016040528086600001358152602001866020016020810190610a8d91906152a5565b6001600160a01b03168152602001610aab60608801604089016152a5565b6001600160a01b031681526001840154602080830191909152845460ff1615156040928301528151808301909252601982527f696e697469616c436f6c6c61746572616c416d6f756e742c2000000000000000908201526003840154919250610b1391612cd0565b6000610b2a86356107e66060890160408a016152a5565b90506000610b3c858785856001612d19565b87356000908152600b60209081526040808320546001928390529083209091015487549394509192610b7e926001600160a01b0392831692169060ff166130f1565b60e083015190915015610be757610b9b6040890160208a016152a5565b6001600160a01b031688600001357f214b1e54e250e926f8307170b1340dbc63780b0dca413c622c796c9ef7d45ec88460e00151604051610bde91815260200190565b60405180910390a35b60c082015115610c4d57610c016040890160208a016152a5565b6001600160a01b031688600001357f34b03810d23d54d212256a92dfbd9d4df2836bee21bb387fb2d9607083bcee978460c00151604051610c4491815260200190565b60405180910390a35b6000610c6e8935610c6460608c0160408d016152a5565b856060015161327e565b915060009050610ca28a35610c8960608d0160408e016152a5565b8660e001518760a00151610c9d919061553f565b6132be565b90506000818560800151610cb69190615552565b90506001600160a01b0386166353a51545600183610cd48787615552565b6040516001600160e01b031960e086901b168152921515600484015260248301919091526044820152606401600060405180830381600087803b158015610d1a57600080fd5b505af1158015610d2e573d6000803e3d6000fd5b505050505050610d51848a6080016020810190610d4b91906152a5565b836132ef565b7f115ecacc9c8186779eaa47aef3c27bd2faf8865ff3ac7bf6df8bfbb061cd0f3587610d8360408c0160208d016152a5565b604080519283526001600160a01b039091166020830152810184905260600160405180910390a160a083015160e084015160c0850151604080519384526020840192909252828201525188918b35917fc0b155ca0c9d38455de1afd89b90c0bff5af4b4675e8381867d36a670dccca2e9181900360600190a350505060009384525050600a6020525060408120805460ff191681556001810182905560028101829055600381018290556004810182905560058101829055600681018290556007015550610e516001601155565b50565b610e9e604051806101000160405280600015158152602001600081526020016000815260200160008152602001600081526020016000815260200160008152602001600081525090565b506000908152600a6020908152604091829020825161010081018452815460ff16151581526001820154928101929092526002810154928201929092526003820154606082015260048201546080820152600582015460a0820152600682015460c082015260079091015460e082015290565b60408051808201909152600c81526b15539055551213d49256915160a21b6020820152336001600160a01b03851614610f5d5760405162461bcd60e51b815260040161071591906154c0565b506001600160a01b038316600090815260066020908152604091829020548251808401909352600c83526b15539055551213d49256915160a21b9183019190915260ff16610fbe5760405162461bcd60e51b815260040161071591906154c0565b508015610ff8576001600160a01b03831660009081526005602052604081208054849290610fed90849061553f565b909155506110269050565b6001600160a01b03831660009081526005602052604081208054849290611020908490615552565b90915550505b505050565b6002602052816000526040600020818154811061104757600080fd5b6000918252602090912001546001600160a01b03169150829050565b6110906040518060400160405280600c81526020016b6f6e6c7945786368616e676560a01b815250611e94565b6010546001600160a01b031633146110ea5760405162461bcd60e51b815260206004820152601b60248201527f54726164696e67456e67696e653a206f6e6c7965786368616e676500000000006044820152606401610715565b8035600090815260036020908152604091829020548251808401909352601f8352600080516020615f1c8339815191529183019190915260ff166111415760405162461bcd60e51b815260040161071591906154c0565b50600061114e8235611ed7565b90506000611187833561116760408601602087016152a5565b61117760608701604088016152a5565b6107bb60a08801608089016154d3565b6000818152600a602052604080822060018101549394509260608701803590911492916111bd918835916107e691908a016152a5565b90506000836001015411604051806060016040528060218152602001615ed560219139906111fe5760405162461bcd60e51b815260040161071591906154c0565b50600061121d8587611215368b90038b018b61557b565b856000612d19565b90508261128f5760018401546002850154883560009081526020819052604081206003015461125893919290600160701b900460ff166129de565b60018401546002850154883560009081526020819052604090206003015461128f92919061ffff808216916201000090041661335c565b60006112b088356112a660608b0160408c016152a5565b84604001516132be565b905060006112dd89356112c960608c0160408d016152a5565b8560e001518660a00151610c9d919061553f565b905060008360e001518460a001516112f5919061553f565b828560e001516113059190615601565b61130f919061562e565b905061133c60405180604001604052806009815260200168199959505b5bdd5b9d60ba1b81525083612cd0565b611374604051806040016040528060128152602001711c995cdd5b1d0b999d5b991a5b99d119589d60721b8152508560e00151612cd0565b6113a760405180604001604052806011815260200170199d5b991a5b99d119589d105b5bdd5b9d607a1b81525082612cd0565b6113e260405180604001604052806015815260200174726573756c74207061796f7574203d3d3d3d3d3d3d60581b8152508560400151612cd0565b6040840151156115f15761141d6040518060400160405280600b81526020016a7061796f757456616c756560a81b8152508560400151612cd0565b61144b6040518060400160405280600c81526020016b1c185e5bdd5d105b5bdd5b9d60a21b81525084612cd0565b6003870154600061145c858561553f565b9050600082821190506114986040518060400160405280601181526020017018dbdb1b185d195c985b08185b5bdd5b9d607a1b81525084612cd0565b6000816114a65760006114b0565b6114b08484615552565b90506000826114bf57836114c1565b845b90506114ea6040518060400160405280600581526020016464656c746160d81b81525083612cd0565b61152160405180604001604052806015815260200174636f6c6c61746572616c416d6f756e7444656c746160581b81525082612cd0565b6040516353a5154560e01b81528315600482015260248101839052604481018890526001600160a01b038b16906353a5154590606401600060405180830381600087803b15801561157157600080fd5b505af1158015611585573d6000803e3d6000fd5b50505050808c600301600082825461159d9190615552565b925050819055506115e76040518060400160405280601c81526020017f6e65772070736f74696f6e20636f6c6c61746572616c416d6f756e74000000008152508d60030154612cd0565b50505050506116b4565b6000611601856080015184613431565b6040516353a5154560e01b81526001600482015260248101829052604481018590529091506001600160a01b038716906353a5154590606401600060405180830381600087803b15801561165457600080fd5b505af1158015611668573d6000803e3d6000fd5b5050505084608001518860030160008282546116849190615552565b9091555050604080518082019091526009815268646f6e65203d3d3d3d60b81b60208201526116b290611e94565b505b506116cb905083610d4b60408b0160208c016152a5565b60e082015115611731576116e56040890160208a016152a5565b6001600160a01b031688600001357f214b1e54e250e926f8307170b1340dbc63780b0dca413c622c796c9ef7d45ec88460e0015160405161172891815260200190565b60405180910390a35b60c0820151156117975761174b6040890160208a016152a5565b6001600160a01b031688600001357f34b03810d23d54d212256a92dfbd9d4df2836bee21bb387fb2d9607083bcee978460c0015160405161178e91815260200190565b60405180910390a35b60a082015160e083015160c0840151604080519384526020840192909252828201525187918a35917fc0b155ca0c9d38455de1afd89b90c0bff5af4b4675e8381867d36a670dccca2e9181900360600190a384600101546000036118dc57600185015460028601547f8df7e6e669647ed33ddb00611cb7247ed0f87674bb8707ac6d248388ddf7e85d91889161183360a08d0160808e016154d3565b611841578a60600151611847565b8a604001515b61185760a08e0160808f016154d3565b611865578b60200151611868565b8b515b604080519586526020860194909452928401919091526060830152608082015260a00160405180910390a16000868152600a60205260408120805460ff191681556001810182905560028101829055600381018290556004810182905560058101829055600681018290556007015561195e565b6118ec6040890160208a016152a5565b6001600160a01b031688357f67f1a5b210a2813e5b73203faaec1e17d8ef7b54cf0d3be59e31d4c3d3ab5a5a8861192960608d0160408e016152a5565b89600101548a600201548b600401548c600501548d6006015460405161195597969594939291906154f0565b60405180910390a35b5050505050505050565b60008060008061197988878761344b565b90506119bb604051806040016040528060148152602001730beeae6c8a8dea8ded6cadc82dadeeadce89ac2f60631b8152506119b68a8a856132be565b612cd0565b6119c5888861226c565b816119d18a8a856132be565b935093509350509450945094915050565b600083815260036020908152604091829020548251808401909352601f8352600080516020615f1c8339815191529183019190915260ff16611a375760405162461bcd60e51b815260040161071591906154c0565b506000611a44848461226c565b90506000611a538585856132be565b6001600160a01b0383166000908152600560205260409020805460019091015491925090611a8290839061553f565b11156040518060400160405280601e81526020017f54726164696e67456e67696e653a457863656564206c6971756964697479000081525090611ad85760405162461bcd60e51b815260040161071591906154c0565b505050505050565b6012546001600160a01b03163314611b335760405162461bcd60e51b81526020600482015260166024820152752a3930b234b733a2b733b4b7329d1037b7363cb3b7bb60511b6044820152606401610715565b601080546001600160a01b0319166001600160a01b0383169081179091556040517f1b3baff3cd6acb01bcbb187b5b9cb66fabc651693fc14e518c71feeddf4f864b90600090a250565b611ba86040518060800160405280600081526020016000815260200160008152602001600081525090565b50600090815260046020908152604091829020825160808101845281548152600182015492810192909252600281015492820192909252600390910154606082015290565b6000611c01610220830161020084016154d3565b15611c585760405162461bcd60e51b815260206004820152602160248201527f54726164696e67456e67696e653a204d61726b657420697320676f7665726e656044820152601960fa1b6064820152608401610715565b61097f83836134a8565b611c6a612c77565b611c746001601155565b565b6000611c8485858585612218565b90505b949350505050565b6012546000906001600160a01b03163314611ce55760405162461bcd60e51b81526020600482015260166024820152752a3930b234b733a2b733b4b7329d1037b7363cb3b7bb60511b6044820152606401610715565b611cf7610220830161020084016154d3565b1515600114611c585760405162461bcd60e51b815260206004820152602560248201527f54726164696e67456e67696e653a204d61726b6574206973206e6f7420676f76604482015264195c9b995960da1b6064820152608401610715565b6000818152600a60209081526040808320815161010081018352815460ff161515815260018083015482860190815260028085015484870152600380860154606080870191909152600480880154608080890191909152600589015460a0890190815260068a015460c08a019081526007909a015460e08a01528e8d52828c528a8d208b519283018c528054835297880154828d015294870154818b015295909201549085015294519051915184518b8a5260088952878a20548851636d9cad1160e01b815298518b9a97999698611e87988a989697966001600160a01b0390941693636d9cad11938184019390918290030181865afa158015611e5e573d6000803e3d6000fd5b505050506040513d601f19601f82011682018060405250810190611e829190615642565b613878565b9097909650945050505050565b610e5181604051602401611ea891906154c0565b60408051601f198184030181529190526020810180516001600160e01b031663104c13eb60e21b1790526139b6565b611f026040518060800160405280600081526020016000815260200160008152602001600081525090565b60008281526007602090815260408083208151608080820184528254825260018084015483870152600280850154848701526003948501546060808601919091528a895260048852868920875194850188528054855280840154858a0152808301548589015286015490840152898852600987528588209081015494015460088752858820865180880190975280546001600160a01b031687529091015495850195909552815191959094929391429103611fe4576020820151611fc6818361562e565b611fd09190615601565b60008981526007602052604090205561220c565b6020820151865160009190611ff99084615552565b612003919061562e565b90508060000361201a575093979650505050505050565b82516040805163cb0d671960e01b81528951600482015260208a01516024820152908901516044820152606089015160648201526084810187905260a481018690526000916001600160a01b03169063cb0d67199060c401602060405180830381865afa15801561208f573d6000803e3d6000fd5b505050506040513d601f19601f820116820180604052508101906120b39190615642565b9050600084600001516001600160a01b031663f5a701ff6040518163ffffffff1660e01b8152600401602060405180830381865afa1580156120f9573d6000803e3d6000fd5b505050506040513d601f19601f8201168201806040525081019061211d919061565b565b90506001831115612155576121558b8961213a8c606001516139d7565b60208d015160408e015161214f60018a615552565b876139f3565b61216d8b89612163856139d7565b8a8a6001876139f3565b6060890182905260208501516121839084615601565b89518a9061219290839061553f565b905250505050602080870194855260408088019485526000998a5260048252808a208751815587830151600180830191909155888301516002808401919091556060808b0151600394850155600790955292909b208951815596519a87019a909a5593519385019390935550509092015191909301555090565b50929695505050505050565b60408051602081018690526001600160a01b03808616928201929092529083166060820152811515608082015260009060a0015b604051602081830303815290604052805190602001209050949350505050565b6000828152600160208181526040808420815160e08101835281546001600160a01b039081168252948201548516818501526002820154851681840152600380830154861660608301526004830154861660808301526005830154861660a0830152600690920154851660c0820152878652858452828620909101548251808401909352600a8352693078206164647265737360b01b9383019390935292600160881b90920460ff169185166123355760405162461bcd60e51b815260040161071591906154c0565b50600081600281111561234a5761234a6152c2565b036123f65781602001516001600160a01b0316846001600160a01b03161480612388575081606001516001600160a01b0316846001600160a01b0316145b604051806060016040528060268152602001615ef660269139906123bf5760405162461bcd60e51b815260040161071591906154c0565b5081602001516001600160a01b0316846001600160a01b0316146123e75781608001516123ed565b81604001515b92505050610982565b81606001516001600160a01b0316846001600160a01b031614604051806060016040528060268152602001615ef660269139906124465760405162461bcd60e51b815260040161071591906154c0565b5050608001519050610982565b505092915050565b6000838152600b60205260408120546001600160a01b031681612480828660016130f1565b905061248d858286613a8d565b925050505b9392505050565b81156125ca576000848152602081905260408120600281015460039091015460649160ff908116916124d4918891600160781b900416615601565b6124de9190615601565b6124e8919061562e565b9050612523604051806060016040528060308152602001615f3c603091396000878152600960205260409020600201546119b690859061553f565b61254e604051806040016040528060098152602001686d61784c6f6e674f4960b81b81525082612cd0565b600085815260096020526040902060020154819061256d90849061553f565b11156040518060400160405280601b81526020017f54726164696e67456e67696e653a457863656564206d6178204f490000000000815250906125c35760405162461bcd60e51b815260040161071591906154c0565b5050612690565b60008481526020819052604081206002810154600390910154606491610100900460ff90811691612604918891600160781b900416615601565b61260e9190615601565b612618919061562e565b600086815260096020526040902060030154909150819061263a90849061553f565b11156040518060400160405280601b81526020017f54726164696e67456e67696e653a457863656564206d6178204f49000000000081525090611ad85760405162461bcd60e51b815260040161071591906154c0565b50505050565b6126c16040518060800160405280600081526020016000815260200160008152602001600081525090565b82356000908152600b602052604081205481906126f6906001600160a01b03166126f160c0880160a089016152a5565b613ab0565b909250905060008061271861271160c0890160a08a016152a5565b8785613ad6565b9092509050600061273d61273260c08a0160a08b016152a5565b868a60200135613b99565b905060006040518060e001604052806127c0600b60008d60000135815260200190815260200160002060009054906101000a90046001600160a01b0316600160008e60000135815260200190815260200160002060010160009054906101000a90046001600160a01b03168d60c00160208101906127bb91906154d3565b6130f1565b815260208b810135818301526040808301889052606083018790528c35600090815260088352819020548151636d9cad1160e01b815291516080909401936001600160a01b0390911692636d9cad1192600480820193918290030181865afa158015612830573d6000803e3d6000fd5b505050506040513d601f19601f820116820180604052508101906128549190615642565b81526020810184905260400161287060e08c0160c08d016154d3565b1515905260008c8152600a6020526040902090915061289090828c613bcb565b6001600160a01b0389166000908152600560205260408120600101805492995084929091906128c090849061553f565b909155506128f790508460208b01356128df60e08d0160c08e016154d3565b8c356000908152600960205260409020929190613de2565b604080518a3581526001600160a01b038a166020820152908101849052606081018390527f8038ea1c3fdc88603e9b28128d8fa354638c6846714b6dd28c32a89aeed7d2b49060800160405180910390a15061295b905060a08801608089016152a5565b6001600160a01b031687357f3f845a5a274d0fe326c172f133317004ae9453a17dd47b62d94798bcb4ccb1c28b6129a661299b60c08d0160a08e016152a5565b888d60600135613a8d565b6129b78c35600160208f013561344b565b8c8b6040516129ca95949392919061567c565b60405180910390a350505050949350505050565b612a1c6040518060400160405280601881526020017f2d2d2d2d76616c69646174654c657665726167652d2d2d2d0000000000000000815250611e94565b838015612a27575082155b15612a4557604051631ee7bc0160e21b815260040160405180910390fd5b612a6b6040518060400160405280600481526020016353697a6560e01b81525084612cd0565b612a9c6040518060400160405280600f81526020016e636f6c6c61746572616c56616c756560881b81525083612cd0565b60408051808201909152601d81527f636f6c6c61746572616c56616c7565202a206d61784c657665726167650000006020820152612ade906119b68385615601565b612ae88183615601565b8311156126905760405162461bcd60e51b815260206004820152602560248201527f5269736b4d616e6167656d656e743a206d6178206c6576657261676520657863604482015264195959195960da1b6064820152608401610715565b828015612b50575081155b15612b6e57604051631ee7bc0160e21b815260040160405180910390fd5b612b946040518060400160405280600481526020016373697a6560e01b81525083612cd0565b60408051808201825260088152676d61782073697a6560c01b6020808301919091526000878152908190529190912060030154612bf1919061271090612be7908590640100000000900461ffff16615601565b6119b6919061562e565b60008481526020819052604090206003015461271090612c1e908390640100000000900461ffff16615601565b612c28919061562e565b8211156126905760405162461bcd60e51b815260206004820152601c60248201527f56616c696461746f723a3a2073697a652065786365656473206d6178000000006044820152606401610715565b600260115403612cc95760405162461bcd60e51b815260206004820152601f60248201527f5265656e7472616e637947756172643a207265656e7472616e742063616c6c006044820152606401610715565b6002601155565b612d158282604051602401612ce6929190615731565b60408051601f198184030181529190526020810180516001600160e01b03166309710a9d60e41b1790526139b6565b5050565b612d21615097565b83516000908152600b6020908152604080832054898452600a8352818420885185526001938490529184209092015481546001600160a01b03938416949293612d7192869291169060ff166130f1565b60028301546060890151895160009081526020819052604081206003015493945092612dd8929190600160401b900461ffff1689612db0576000612dcf565b8b5160009081526020819052604090206003015462010000900461ffff165b61ffff16613e63565b9050612e0460405180604001604052806008815260200167746f74616c46656560c01b81525082612cd0565b87516000908152600860209081526040808320548151636d9cad1160e01b815291516001600160a01b0390911692636d9cad1192600480820193918290030181865afa158015612e58573d6000803e3d6000fd5b505050506040513d601f19601f82011682018060405250810190612e7c9190615642565b9050861515600103612f46576040805161010081018252855460ff16151581526001860154602080830191909152600287015482840152600380880154606084015260048801546080840152600588015460a0840152600688015460c0840152600788015460e08401528c5160009081529182905292902090910154612f0d91908c908690869061ffff1686613ea3565b604051806060016040528060278152602001615eae6027913990612f445760405162461bcd60e51b815260040161071591906154c0565b505b604080516080810182526060808c0151825260208201869052918101849052908101829052612f7685828d614069565b96508660200151600560008b6001600160a01b03166001600160a01b031681526020019081526020016000206001016000828254612fb49190615552565b9091555050606080880151908b015186548c516000908152600960205260409020612fe5939092909160ff16614550565b89602001516001600160a01b03168a600001517fa2e3cd9c7dc9e8ac3598417df07b79b4457abe6c9c785e12a0e14353af7dbe888e8d8b6040516130da9392919060006101e08201905084825283516020830152602084015160018060a01b0380821660408501528060408701511660608501525050606084015160808301526080840151151560a0830152825160c0830152602083015160e0830152604083015161010081818501526060850151610120850152608085015161014085015260a085015161016085015260c085015161018085015260e08501516101a0850152808501516101c08501525050949350505050565b60405180910390a350505050505095945050505050565b6001600160a01b0383166000908152600c602052604081205460ff168180826002811115613121576131216152c2565b0361319f576040516303b6b4bb60e51b81526001600160a01b03868116600483015285151560248301528716906376d6976090604401602060405180830381865afa158015613174573d6000803e3d6000fd5b505050506040513d601f19601f820116820180604052508101906131989190615642565b9050613225565b60018260028111156131b3576131b36152c2565b03613225576040516341976e0960e01b81526001600160a01b0386811660048301528716906341976e0990602401602060405180830381865afa1580156131fe573d6000803e3d6000fd5b505050506040513d601f19601f820116820180604052508101906132229190615642565b90505b600081116132755760405162461bcd60e51b815260206004820152601c60248201527f54726164696e67456e67696e653a3a494e56414c49445f5052494345000000006044820152606401610715565b95945050505050565b600083815260208190526040812060030154819062010000900461ffff166132a684826145c9565b92506132b38686856132be565b915050935093915050565b6000838152600b60205260408120546001600160a01b0316816132e28286836130f1565b905061248d858286613b99565b801561102657604051635f4af00d60e11b8152600481018290526001600160a01b03838116602483015284169063be95e01a90604401600060405180830381600087803b15801561333f57600080fd5b505af1158015613353573d6000803e3d6000fd5b50505050505050565b600061336884836145c9565b905060006127106133798588615601565b613383919061562e565b90506133b86040518060400160405280601181526020017036b0b4b73a32b730b731b2a6b0b933b4b760791b81525082612cd0565b60006133c3836145d9565b6133cc876145d9565b6133d69190615753565b90506133ff604051806040016040528060068152602001653932b6b0b4b760d11b815250611e94565b61340881614643565b613411826145d9565b81121561335357604051633a23d82560e01b815260040160405180910390fd5b600081831161344157600061097f565b61097f8284615552565b6000808361347557600085815260208190526040902060030154600160401b900461ffff16613496565b6000858152602081905260409020600301546601000000000000900461ffff165b61ffff169050600061248d84836145c9565b6000806134b9600060018686614688565b90506134c86003826001614cc0565b60408051808201909152806134e360e0870160c088016152a5565b6001600160a01b031681526020016135036101608601610140870161578c565b63ffffffff1690526000828152600860209081526040808320845181546001600160a01b0319166001600160a01b0390911617815593909101516001909301929092559061355790606087019087016152a5565b6001600160a01b031614156006600061357660608801604089016152a5565b6001600160a01b0316815260208101919091526040016000908120805460ff1916921515929092179091556135b160a08601608087016152a5565b6001600160a01b03161415600660006135d060a08801608089016152a5565b6001600160a01b031681526020810191909152604001600020805460ff191691151591909117905561360860c0850160a086016152a5565b6000828152600b6020526040902080546001600160a01b0319166001600160a01b039290921691909117905561364661020084016101e085016157b6565b600c600061365a60c0880160a089016152a5565b6001600160a01b031681526020810191909152604001600020805460ff1916600183600281111561368d5761368d6152c2565b0217905550600e60006136a660408701602088016152a5565b6001600160a01b03168152602081019190915260400160009081205460ff1690036137825760006136dd60408601602087016152a5565b6001600160a01b031663313ce5676040518163ffffffff1660e01b8152600401602060405180830381865afa15801561371a573d6000803e3d6000fd5b505050506040513d601f19601f8201168201806040525081019061373e91906157e2565b905080600e60006137556040890160208a016152a5565b6001600160a01b031681526020810191909152604001600020805460ff191660ff92909216919091179055505b600e600061379660808701606088016152a5565b6001600160a01b03168152602081019190915260400160009081205460ff16900361097f5760006137cd60808601606087016152a5565b6001600160a01b031663313ce5676040518163ffffffff1660e01b8152600401602060405180830381865afa15801561380a573d6000803e3d6000fd5b505050506040513d601f19601f8201168201806040525081019061382e91906157e2565b905080600e60006138456080890160608a016152a5565b6001600160a01b031681526020810191909152604001600020805460ff191660ff92909216919091179055509392505050565b60008060008461388c57886020015161388f565b88515b90506000856138a25789606001516138a8565b89604001515b90508189111561390d5760405162461bcd60e51b815260206004820152602a60248201527f46756e64696e674d616e616765723a20696e76616c696420656e7472792070616044820152690f2deeae840d2dcc8caf60b31b6064820152608401610715565b808811156139715760405162461bcd60e51b815260206004820152602b60248201527f46756e64696e674d616e616765723a20696e76616c696420656e74727920667560448201526a0dcc8d2dcce40d2dcc8caf60ab1b6064820152608401610715565b600061397d8a84615552565b905061398a818988614d16565b945060006139988a84615552565b90506139a5818a89614d16565b945050505050965096945050505050565b80516a636f6e736f6c652e6c6f67602083016000808483855afa5050505050565b6000808212156139ef576139ea826157ff565b610982565b5090565b8415613a1857613a038583615601565b86604001818151613a14919061553f565b9052505b613a26868686868686614e00565b60408681015160608089015189516020808c0151865195865290850192909252838501529082015260808101849052905188917f3669d261af67498c8e1e3716ecdb7cbd885c8ee96919ea5cacf83bbc4dc45ebb919081900360a00190a250505050505050565b60008061327584613a9d87614e6c565b613aa890600a6158ff565b859190614d16565b600080613abf848460016130f1565b9150613acd848460006130f1565b90509250929050565b6000806000613b47856001600160a01b03166385d966026040518163ffffffff1660e01b81526004016020604051808303816000875af1158015613b1e573d6000803e3d6000fd5b505050506040513d601f19601f82011682018060405250810190613b429190615642565b614f27565b9050613b7f6040518060400160405280601481526020017311d95d0818dbdb1b185d195c985b105b5bdd5b9d60621b81525082612cd0565b6000613b8c878684613a8d565b9791965090945050505050565b6001600160a01b0383166000908152600e602052604081205460ff16613275613bc382600a6158ff565b849086614d16565b613bf66040518060800160405280600081526020016000815260200160008152602001600081525090565b60018401546000819003613c105783516004860155613c33565b613c2d8186600401548660c0015187600001518860200151614f72565b60048601555b60068501546005860154865460808701516000938493613c5a938993889160ff1690613878565b91509150613c9560405180604001604052806014815260200173119d5b991a5b99c81c185e5bdd5d0b081919589d60621b8152508383614fd1565b6002870154604087015160009083908590613cb0908561553f565b613cba919061553f565b613cc49190615552565b90506000613cd28383615552565b9050818a6002018190555088602001518a6001016000828254613cf5919061553f565b909155505060c0890151613d0d578760600151613d13565b87604001515b60058b015560c0890151613d2b578760200151613d2e565b87515b60068b015560c08901518a5460ff1916901515178a5560a089015160078b018054600090613d5d90849061553f565b9091555050606089015160038b018054600090613d7b90849061553f565b92505081905550613dc56040518060400160405280602081526020017f494e63726561736520706172616d7320636f6c6c61746572616c416d6f756e748152508a60600151612cd0565b938652505060208401526040830152509151606083015250919050565b8015613e075781846002016000828254613dfc919061553f565b90915550613e219050565b81846003016000828254613e1b919061553f565b90915550505b82846001016000828254613e35919061553f565b90915550613e4590508383615552565b846000016000828254613e58919061553f565b909155505050505050565b600080613e7085856145c9565b90506000808411613e82576000613e8c565b613e8c87856145c9565b9050613e98828261553f565b979650505050505050565b60008660200151600003613eb95750600061405f565b613ef76040518060400160405280601981526020017f636865636b69696e67206973206c6971756964617461626c6500000000000000815250611e94565b600080613f18888a60c001518b60a001518c602001518d6000015189613878565b915091506000613f368a600001518b602001518c608001518b615018565b90506000613f43886145d9565b613f4c846145d9565b613f55866145d9565b613f5f9190615753565b613f699190615753565b90506000612710888d60200151613f809190615601565b613f8a919061562e565b9050613fbf6040518060400160405280601181526020017036b0b4b73a32b730b731b2a6b0b933b4b760791b81525082612cd0565b613fe36040518060400160405280600381526020016266656560e81b815250611e94565b613fec82614643565b60008284613ffd8f604001516145d9565b614007919061590e565b614011919061590e565b90506140446040518060400160405280601081526020016f3d3d3d3d3d72656d61696e203d3d3d3d60801b815250611e94565b61404d81614643565b614056826145d9565b13955050505050505b9695505050505050565b614071615097565b8251600185015410156140dc5760405162461bcd60e51b815260206004820152602d60248201527f506f736974696f6e3a64656372656173653a20696e73756666696369656e742060448201526c706f736974696f6e2073697a6560981b6064820152608401610715565b60018401548454600486015460208601516000926141029260ff90911691859190615018565b905061411186600101546145d9565b855161411c906145d9565b614126908361592e565b614130919061595e565b8352600686015460058701548754606088015161415893889390929091879160ff1690613878565b60e085015260c084015260408051808201909152601281527144656372656173652073697a6544656c746160701b602082015285516141979190612cd0565b6141c66040518060400160405280600d81526020016c44656372656173652073697a6560981b81525083612cd0565b845160009083146141d85760006141de565b86600201545b905060008188600201546141f29190615552565b90506142336040518060400160405280601881526020017f446563726561736520636f6c6c61746572616c44656c7461000000000000000081525083612cd0565b6142666040518060400160405280600d81526020016c706f7369746f696e2073697a6560981b8152508960010154612cd0565b6142966040518060400160405280600a815260200169656e747279507269636560b01b8152508960040154612cd0565b6142d96040518060400160405280601781526020017f696e697469616c20636f6c6c61746572616c56616c75650000000000000000008152508960020154612cd0565b6142fd6040518060400160405280600381526020016214139360ea1b815250611e94565b845161430890614643565b600061431788604001516145d9565b6143248760e001516145d9565b6143318860c001516145d9565b61433a866145d9565b8951614346919061590e565b614350919061590e565b61435a9190615753565b6143649190615753565b90506143936040518060400160405280600c81526020016b7061796f75742076616c756560a01b815250611e94565b61439c81614643565b60008112156143ba576143b7826143b2836139d7565b613431565b91505b6001890154885160078b01546143d09190615601565b6143da919061562e565b6020870152600081136143ee5760006143f0565b805b60408701526002890154614405908390615552565b606087015260408089015160a08801526020808a01516101008901528a548251808401909352601083526f18dbdb1b185d195c985b105b5bdd5b9d60821b9183019190915260038b015460ff9091169161445e91612cd0565b6144a16040518060400160405280601881526020017f706f736974696f6e2e636f6c6c61746572616c56616c756500000000000000008152508b60020154612cd0565b6060870151156144d457896002015487606001518b600301546144c49190615601565b6144ce919061562e565b60808801525b806144e35787606001516144e9565b87604001515b60058b0155806144fd578760200151614500565b87515b60068b0155885160018b01805460009061451b908490615552565b909155505060028a01839055602087015160078b015461453b9190615552565b8a600701819055505050505050509392505050565b8015614575578184600201600082825461456a9190615552565b9091555061458f9050565b818460030160008282546145899190615552565b90915550505b828460010160008282546145a39190615552565b9091555050835482906145b790859061553f565b6145c19190615552565b909355505050565b600061097f8383620f4240614d16565b60006001600160ff1b038211156139ef5760405162461bcd60e51b815260206004820152602860248201527f53616665436173743a2076616c756520646f65736e27742066697420696e2061604482015267371034b73a191a9b60c11b6064820152608401610715565b610e518160405160240161465991815260200190565b60408051601f198184030181529190526020810180516001600160e01b0316634e0c1d1d60e01b1790526139b6565b60006146993684900384018461598c565b6146ab6101e084016101c085016157b6565b60018160028111156146bf576146bf6152c2565b1461471e5760408201516001600160a01b031661471e5760405162461bcd60e51b815260206004820152601f60248201527f4d61726b65744d616e616765723a5661756c74206973207265717569726564006044820152606401610715565b6002816002811115614732576147326152c2565b1461479f5760208201516001600160a01b031661479f5760405162461bcd60e51b815260206004820152602560248201527f4d61726b65744d616e616765723a496e64657820746f6b656e206973207265716044820152641d5a5c995960da1b6064820152608401610715565b60608201516001600160a01b03166148055760405162461bcd60e51b8152602060048201526024808201527f4d61726b65744d616e616765723a537461626c65636f696e20697320726571756044820152631a5c995960e21b6064820152608401610715565b60808201516001600160a01b03166148715760405162461bcd60e51b815260206004820152602960248201527f4d61726b65744d616e616765723a537461626c65636f696e5661756c74206973604482015268081c995c5d5a5c995960ba1b6064820152608401610715565b60a08201516001600160a01b03166148d75760405162461bcd60e51b815260206004820152602360248201527f4d61726b65744d616e616765723a7072696365466565642069732072657175696044820152621c995960ea1b6064820152608401610715565b60c08201516001600160a01b03166149455760405162461bcd60e51b815260206004820152602b60248201527f4d61726b65744d616e616765723a2066756e64696e67526174654d6f64656c2060448201526a1a5cc81c995c5d5a5c995960aa1b6064820152608401610715565b60026149596101e086016101c087016157b6565b600281111561496a5761496a6152c2565b146149d757600061498160408701602088016152a5565b6001600160a01b0316036149d75760405162461bcd60e51b815260206004820152601f60248201527f4d61726b65744d616e616765723a4173736574206973207265717569726564006044820152606401610715565b6149e76080850160608601615a44565b60ff16151580614a085750614a0260a0850160808601615a44565b60ff1615155b15614aa257614a1d60a0850160808601615a44565b614a2d6080860160608701615a44565b614a379190615a61565b60ff16606414614aa25760405162461bcd60e51b815260206004820152603060248201527f4d61726b65744d616e616765723a206d61784c6f6e6753686f7274536b65772060448201526f073686f756c6420657175616c203130360841b6064820152608401610715565b614ae9614ab76101e086016101c087016157b6565b614ac460208801886152a5565b614ad46040890160208a016152a5565b614ae460808a0160608b016152a5565b61507e565b6000818152602088905260409020549093506001600160a01b031615614b515760405162461bcd60e51b815260206004820152601c60248201527f4d61726b65744d616e616765723a206d61726b657420657869737473000000006044820152606401610715565b60008381526020889052604090208490614b6b8282615b57565b505060008381526020879052604090208590614b878282615d97565b50614b97905060208601866152a5565b6001600160a01b031683614bb36101e087016101c088016157b6565b6002811115614bc457614bc46152c2565b7fe5f04d51f59636bb2fc0b095fb0bb594333fee72d7cd6b31eb2e6cd2de0f3271614bf560408a0160208b016152a5565b614c0560808b0160608c016152a5565b8935614c196102208c016102008d016154d3565b614c2b6101c08d016101a08e01615a44565b614c3d6101808e016101608f01615a44565b604080516001600160a01b039788168152969095166020870152938501929092521515606084015260ff90811660808401521660a082015260c00160405180910390a46040516001815283907fcd753f54a5c633241a18de31a107568ea34f82f74c207ae19f257fd19f7c76c69060200160405180910390a25050949350505050565b60008281526020848152604091829020805460ff1916841515908117909155915191825283917fcd753f54a5c633241a18de31a107568ea34f82f74c207ae19f257fd19f7c76c6910160405180910390a2505050565b6000808060001985870985870292508281108382030391505080600003614d5057838281614d4657614d46615618565b0492505050612492565b808411614d975760405162461bcd60e51b81526020600482015260156024820152744d6174683a206d756c446976206f766572666c6f7760581b6044820152606401610715565b60008486880960026001871981018816978890046003810283188082028403028082028403028082028403028082028403028082028403029081029092039091026000889003889004909101858311909403939093029303949094049190911702949350505050565b6001816001811115614e1457614e146152c2565b14611ad857600085118015614e295750600083115b15614e67578284614e3a8785615601565b614e449190615601565b614e4e919061562e565b86602001818151614e5f919061553f565b905250611ad8565b611ad8565b6001600160a01b0381166000908152600e602052604081205460ff168015614e945792915050565b6000836001600160a01b031663313ce5676040518163ffffffff1660e01b8152600401602060405180830381865afa158015614ed4573d6000803e3d6000fd5b505050506040513d601f19601f82011682018060405250810190614ef891906157e2565b6001600160a01b03949094166000908152600e60205260409020805460ff191660ff8616179055509192915050565b6000808211604051806040016040528060088152602001670c08185b5bdd5b9d60c21b81525090614f6b5760405162461bcd60e51b815260040161071591906154c0565b5090919050565b600081600003614f83575083613275565b6000614f9185888887615018565b90506000614f9f848961553f565b90506000614fad838361590e565b905080614fba8388615601565b614fc4919061562e565b9998505050505050505050565b611026838383604051602401614fe993929190615e54565b60408051601f198184030181529190526020810180516001600160e01b031663969cdd0360e01b1790526139b6565b60008360000361502a57506000611c87565b841561505b57600061503c8484615753565b905083615049868361592e565b615053919061595e565b915050611c87565b60006150678385615753565b905083615074868361592e565b61405f919061595e565b60008484848460405160200161224c9493929190615e79565b6040518061012001604052806000815260200160008152602001600081526020016000815260200160008152602001600081526020016000815260200160008152602001600081525090565b600060e082840312156150f557600080fd5b50919050565b600060e0828403121561510d57600080fd5b61097f83836150e3565b6001600160a01b0381168114610e5157600080fd5b803561513781615117565b919050565b6000806040838503121561514f57600080fd5b82359150602083013561516181615117565b809150509250929050565b600060a082840312156150f557600080fd5b600060a0828403121561519057600080fd5b61097f838361516c565b6000602082840312156151ac57600080fd5b5035919050565b8015158114610e5157600080fd5b6000806000606084860312156151d657600080fd5b83356151e181615117565b92506020840135915060408401356151f8816151b3565b809150509250925092565b6000806040838503121561521657600080fd5b50508035926020909101359150565b6000806000806080858703121561523b57600080fd5b84359350602085013561524d81615117565b9250604085013561525d816151b3565b9396929550929360600135925050565b60008060006060848603121561528257600080fd5b83359250602084013561529481615117565b929592945050506040919091013590565b6000602082840312156152b757600080fd5b813561097f81615117565b634e487b7160e01b600052602160045260246000fd5b60038110610e5157634e487b7160e01b600052602160045260246000fd5b6152ff816152d8565b9052565b8d815261ffff8d811660208301528c811660408301528b811660608301528a81166080830152891660a082015263ffffffff881660c082015260ff871660e08201526101a0810160ff871661010083015260ff861661012083015261536c6101408301866152f6565b61537a6101608301856152f6565b8215156101808301529e9d5050505050505050505050505050565b8151815260208083015190820152604080830151908201526060808301519082015260808101610982565b604081016153cd846152d8565b9281526001600160a01b039190911660209091015290565b6000808284036103008112156153fa57600080fd5b61540485856150e3565b925061022060df198201121561541957600080fd5b5060e0830190509250929050565b6000806000806080858703121561543d57600080fd5b84359350602085013561544f81615117565b9250604085013561545f81615117565b9150606085013561546f816151b3565b939692955090935050565b6000815180845260005b818110156154a057602081850181015186830182015201615484565b506000602082860101526020601f19601f83011685010191505092915050565b60208152600061097f602083018461547a565b6000602082840312156154e557600080fd5b813561097f816151b3565b9687526001600160a01b0395909516602087015260408601939093526060850191909152608084015260a083015260c082015260e00190565b634e487b7160e01b600052601160045260246000fd5b8082018082111561098257610982615529565b8181038181111561098257610982615529565b634e487b7160e01b600052604160045260246000fd5b600060a0828403121561558d57600080fd5b60405160a0810181811067ffffffffffffffff821117156155b0576155b0615565565b6040528235815260208301356155c581615117565b602082015260408301356155d881615117565b60408201526060838101359082015260808301356155f5816151b3565b60808201529392505050565b808202811582820484141761098257610982615529565b634e487b7160e01b600052601260045260246000fd5b60008261563d5761563d615618565b500490565b60006020828403121561565457600080fd5b5051919050565b60006020828403121561566d57600080fd5b81516002811061097f57600080fd5b60006101c0820190508682528560208301528460408301528335606083015260208401356080830152604084013560a0830152606084013560c083015260808401356156c781615117565b6001600160a01b0390811660e084015260a0850135906156e682615117565b1661010083015260c08401356156fb816151b3565b151561012083015282516101408301526020830151610160830152604083015161018083015260608301516101a083015261405f565b604081526000615744604083018561547a565b90508260208301529392505050565b818103600083128015838313168383128216171561577357615773615529565b5092915050565b63ffffffff81168114610e5157600080fd5b60006020828403121561579e57600080fd5b813561097f8161577a565b60038110610e5157600080fd5b6000602082840312156157c857600080fd5b813561097f816157a9565b60ff81168114610e5157600080fd5b6000602082840312156157f457600080fd5b815161097f816157d3565b6000600160ff1b820161581457615814615529565b5060000390565b600181815b8085111561585657816000190482111561583c5761583c615529565b8085161561584957918102915b93841c9390800290615820565b509250929050565b60008261586d57506001610982565b8161587a57506000610982565b8160018114615890576002811461589a576158b6565b6001915050610982565b60ff8411156158ab576158ab615529565b50506001821b610982565b5060208310610133831016604e8410600b84101617156158d9575081810a610982565b6158e3838361581b565b80600019048211156158f7576158f7615529565b029392505050565b600061097f60ff84168361585e565b808201828112600083128015821682158216171561245357612453615529565b80820260008212600160ff1b8414161561594a5761594a615529565b818105831482151761098257610982615529565b60008261596d5761596d615618565b600160ff1b82146000198414161561598757615987615529565b500590565b600060e0828403121561599e57600080fd5b60405160e0810181811067ffffffffffffffff821117156159c1576159c1615565565b60405282356159cf81615117565b815260208301356159df81615117565b602082015260408301356159f281615117565b60408201526060830135615a0581615117565b6060820152615a166080840161512c565b6080820152615a2760a0840161512c565b60a0820152615a3860c0840161512c565b60c08201529392505050565b600060208284031215615a5657600080fd5b813561097f816157d3565b60ff818116838216019081111561098257610982615529565b60008135610982816157d3565b816000805b6002811015615ac8578235615aa0816157d3565b8160031b60ff808316821b81831b198616179450505050602083019250600181019050615a8c565b509091555050565b6000813561ffff8116811461098257600080fd5b600081356109828161577a565b60008135610982816157a9565b615b07826152d8565b805460ff60881b191660889290921b60ff60881b16919091179055565b615b2d826152d8565b805460ff60901b191660909290921b60ff60901b16919091179055565b60008135610982816151b3565b81358155615b6b6020830160018301615a87565b615b7b6060830160028301615a87565b60038101615ba1615b8e60a08501615ad0565b825461ffff191661ffff91909116178255565b615bca615bb060c08501615ad0565b825463ffff0000191660109190911b63ffff000016178255565b615bf7615bd960e08501615ad0565b825465ffff00000000191660209190911b65ffff0000000016178255565b615c29615c076101008501615ad0565b825467ffff000000000000191660309190911b67ffff00000000000016178255565b615c5f615c396101208501615ad0565b825469ffff0000000000000000191660409190911b69ffff000000000000000016178255565b615c93615c6f6101408501615ae4565b82805463ffffffff60501b191660509290921b63ffffffff60501b16919091179055565b615cc1615ca36101608501615a7a565b82805460ff60701b191660709290921b60ff60701b16919091179055565b615cef615cd16101808501615a7a565b82805460ff60781b191660789290921b60ff60781b16919091179055565b615d1d615cff6101a08501615a7a565b82805460ff60801b191660809290921b60ff60801b16919091179055565b615d33615d2d6101c08501615af1565b82615afe565b615d49615d436101e08501615af1565b82615b24565b611026615d596102008501615b4a565b82805460ff60981b191691151560981b60ff60981b16919091179055565b80546001600160a01b0319166001600160a01b0392909216919091179055565b8135615da281615117565b615dac8183615d77565b506020820135615dbb81615117565b615dc88160018401615d77565b506040820135615dd781615117565b615de48160028401615d77565b506060820135615df381615117565b615e008160038401615d77565b506080820135615e0f81615117565b615e1c8160048401615d77565b5060a0820135615e2b81615117565b615e388160058401615d77565b5060c0820135615e4781615117565b6110268160068401615d77565b606081526000615e67606083018661547a565b60208301949094525060400152919050565b60808101615e86866152d8565b9481526001600160a01b03938416602082015291831660408301529091166060909101529056fe54726164696e67456e67696e653a506f736974696f6e206e6f74206c6971756964617461626c6554726164696e67456e67696e653a506f736974696f6e206e6f742065786973747354726164696e67456e67696e653a496e76616c696420636f6c6c61746572616c20746f6b656e54726164696e67456e67696e653a4d61726b6574206e6f74206c6973746564005f6d61726b6574735b6d61726b657449645d2e6c6f6e674f70656e496e746572657374202b2073697a6544656c746120a26469706673582212202d937b607aa60b3651ee6b5c9f8e17abfed0dabe142bf3ae6ed2a943a113b5ef64736f6c63430008120033",
    "linkReferences": {}
  },
  "methodIdentifiers": {
    "DEFAULT_FUNDING_INTERVAL()": "8f30c5cc",
    "addGovernedMarket((address,address,address,address,address,address,address),(bytes32,uint8[2],uint8[2],uint16,uint16,uint16,uint16,uint16,uint32,uint8,uint8,uint8,uint8,uint8,bool))": "e58ac6c9",
    "addMarket((address,address,address,address,address,address,address),(bytes32,uint8[2],uint8[2],uint16,uint16,uint16,uint16,uint16,uint32,uint8,uint8,uint8,uint8,uint8,bool))": "a2c22d2d",
    "decreasePosition((bytes32,address,address,uint256,bool))": "3f7b158f",
    "exchange()": "d2f7265a",
    "extraCollaterals(bytes32,uint256)": "2279ffae",
    "getFundingInfo(bytes32,bytes32)": "fb156e9d",
    "getFundingInterval(bytes32)": "aa7566de",
    "getIndex(bytes32)": "8527831b",
    "getIndexToken(bytes32)": "b5e53062",
    "getPosition(bytes32)": "1928b3cb",
    "getPositionKey(bytes32,address,address,bool)": "d73b0233",
    "getPositionSize(bytes32)": "f12562f4",
    "getPrevFundingState(bytes32)": "f761da00",
    "getPriceFeed(bytes32)": "8c0adf62",
    "getVault(bytes32,address)": "092a4689",
    "getVaultAndPositionFee(bytes32,address,bool,uint256)": "4846a331",
    "gov()": "12d43a51",
    "increasePosition((bytes32,uint256,uint256,uint256,address,address,bool))": "02dbbefb",
    "isListed(bytes32)": "ecefbdc6",
    "liquidatePosition((bytes32,address,address,bool,address))": "0ea31260",
    "marketAddresses(bytes32)": "ada37fe8",
    "marketParams(bytes32)": "7fd065f9",
    "setExchange(address)": "67b1f5df",
    "updateCollateral()": "c91e9bc8",
    "updateVaultBalance(address,uint256,bool)": "1e66cef5",
    "validatePositionSize(bytes32,address,uint256)": "49e42835"
  },
  "id": 9
}