{
  "abi": [
    {
      "inputs": [],
      "stateMutability": "nonpayable",
      "type": "constructor"
    },
    {
      "inputs": [],
      "name": "InsufficientCollateral",
      "type": "error"
    },
    {
      "inputs": [],
      "name": "InvalidPositionSize",
      "type": "error"
    },
    {
      "inputs": [],
      "name": "PositionNotExist",
      "type": "error"
    },
    {
      "anonymous": false,
      "inputs": [
        {
          "indexed": false,
          "internalType": "bytes32",
          "name": "key",
          "type": "bytes32"
        },
        {
          "indexed": false,
          "internalType": "uint256",
          "name": "size",
          "type": "uint256"
        },
        {
          "indexed": false,
          "internalType": "uint256",
          "name": "collateralValue",
          "type": "uint256"
        },
        {
          "indexed": false,
          "internalType": "uint256",
          "name": "exitFundingIndex",
          "type": "uint256"
        },
        {
          "indexed": false,
          "internalType": "uint256",
          "name": "exitPayoutIndex",
          "type": "uint256"
        }
      ],
      "name": "ClosePosition",
      "type": "event"
    },
    {
      "anonymous": false,
      "inputs": [
        {
          "indexed": true,
          "internalType": "bytes32",
          "name": "marketId",
          "type": "bytes32"
        },
        {
          "indexed": true,
          "internalType": "address",
          "name": "account",
          "type": "address"
        },
        {
          "indexed": false,
          "internalType": "bytes32",
          "name": "key",
          "type": "bytes32"
        },
        {
          "components": [
            {
              "internalType": "bytes32",
              "name": "marketId",
              "type": "bytes32"
            },
            {
              "internalType": "address",
              "name": "account",
              "type": "address"
            },
            {
              "internalType": "address",
              "name": "collateralToken",
              "type": "address"
            },
            {
              "internalType": "uint256",
              "name": "sizeDelta",
              "type": "uint256"
            },
            {
              "internalType": "bool",
              "name": "isLong",
              "type": "bool"
            }
          ],
          "indexed": false,
          "internalType": "struct DecreasePositionParams",
          "name": "params",
          "type": "tuple"
        },
        {
          "components": [
            {
              "internalType": "int256",
              "name": "realizedPnl",
              "type": "int256"
            },
            {
              "internalType": "uint256",
              "name": "reserveDelta",
              "type": "uint256"
            },
            {
              "internalType": "uint256",
              "name": "payoutValue",
              "type": "uint256"
            },
            {
              "internalType": "uint256",
              "name": "collateralReduced",
              "type": "uint256"
            },
            {
              "internalType": "uint256",
              "name": "collateralAmountReduced",
              "type": "uint256"
            },
            {
              "internalType": "uint256",
              "name": "totalFee",
              "type": "uint256"
            },
            {
              "internalType": "uint256",
              "name": "fundingPayout",
              "type": "uint256"
            },
            {
              "internalType": "uint256",
              "name": "fundingDebt",
              "type": "uint256"
            },
            {
              "internalType": "uint256",
              "name": "executedPrice",
              "type": "uint256"
            }
          ],
          "indexed": false,
          "internalType": "struct DecreasePositionResult",
          "name": "result",
          "type": "tuple"
        }
      ],
      "name": "DecreasePosition",
      "type": "event"
    },
    {
      "anonymous": false,
      "inputs": [
        {
          "indexed": true,
          "internalType": "address",
          "name": "exchange",
          "type": "address"
        }
      ],
      "name": "ExchangeSet",
      "type": "event"
    },
    {
      "anonymous": false,
      "inputs": [
        {
          "indexed": true,
          "internalType": "bytes32",
          "name": "marketId",
          "type": "bytes32"
        },
        {
          "indexed": true,
          "internalType": "bytes32",
          "name": "key",
          "type": "bytes32"
        },
        {
          "indexed": false,
          "internalType": "uint256",
          "name": "fee",
          "type": "uint256"
        },
        {
          "indexed": false,
          "internalType": "uint256",
          "name": "fundingDebt",
          "type": "uint256"
        },
        {
          "indexed": false,
          "internalType": "uint256",
          "name": "fundingPayout",
          "type": "uint256"
        }
      ],
      "name": "FeeAndFundings",
      "type": "event"
    },
    {
      "anonymous": false,
      "inputs": [
        {
          "indexed": true,
          "internalType": "bytes32",
          "name": "marketId",
          "type": "bytes32"
        },
        {
          "indexed": true,
          "internalType": "address",
          "name": "account",
          "type": "address"
        },
        {
          "indexed": false,
          "internalType": "uint256",
          "name": "value",
          "type": "uint256"
        }
      ],
      "name": "FundingDebtPaid",
      "type": "event"
    },
    {
      "anonymous": false,
      "inputs": [
        {
          "indexed": true,
          "internalType": "bytes32",
          "name": "marketId",
          "type": "bytes32"
        },
        {
          "indexed": true,
          "internalType": "address",
          "name": "account",
          "type": "address"
        },
        {
          "indexed": false,
          "internalType": "uint256",
          "name": "value",
          "type": "uint256"
        }
      ],
      "name": "FundingPayout",
      "type": "event"
    },
    {
      "anonymous": false,
      "inputs": [
        {
          "indexed": true,
          "internalType": "bytes32",
          "name": "marketId",
          "type": "bytes32"
        },
        {
          "indexed": true,
          "internalType": "address",
          "name": "account",
          "type": "address"
        },
        {
          "indexed": false,
          "internalType": "bytes32",
          "name": "key",
          "type": "bytes32"
        },
        {
          "indexed": false,
          "internalType": "uint256",
          "name": "initialCollateralValue",
          "type": "uint256"
        },
        {
          "indexed": false,
          "internalType": "uint256",
          "name": "feeUsd",
          "type": "uint256"
        },
        {
          "components": [
            {
              "internalType": "bytes32",
              "name": "marketId",
              "type": "bytes32"
            },
            {
              "internalType": "uint256",
              "name": "sizeDelta",
              "type": "uint256"
            },
            {
              "internalType": "uint256",
              "name": "openFee",
              "type": "uint256"
            },
            {
              "internalType": "uint256",
              "name": "initialCollateralAmount",
              "type": "uint256"
            },
            {
              "internalType": "address",
              "name": "account",
              "type": "address"
            },
            {
              "internalType": "address",
              "name": "collateralToken",
              "type": "address"
            },
            {
              "internalType": "bool",
              "name": "isLong",
              "type": "bool"
            }
          ],
          "indexed": false,
          "internalType": "struct IncreasePositionParams",
          "name": "params",
          "type": "tuple"
        },
        {
          "components": [
            {
              "internalType": "uint256",
              "name": "fundingPayout",
              "type": "uint256"
            },
            {
              "internalType": "uint256",
              "name": "fundingDebt",
              "type": "uint256"
            },
            {
              "internalType": "uint256",
              "name": "collateralValueDelta",
              "type": "uint256"
            },
            {
              "internalType": "uint256",
              "name": "executedPrice",
              "type": "uint256"
            }
          ],
          "indexed": false,
          "internalType": "struct IncreasePositionResult",
          "name": "result",
          "type": "tuple"
        }
      ],
      "name": "IncreasePosition",
      "type": "event"
    },
    {
      "anonymous": false,
      "inputs": [
        {
          "indexed": false,
          "internalType": "bytes32",
          "name": "key",
          "type": "bytes32"
        },
        {
          "indexed": false,
          "internalType": "address",
          "name": "account",
          "type": "address"
        },
        {
          "indexed": false,
          "internalType": "uint256",
          "name": "indexPrice",
          "type": "uint256"
        }
      ],
      "name": "LiquidatePosition",
      "type": "event"
    },
    {
      "anonymous": false,
      "inputs": [
        {
          "indexed": true,
          "internalType": "enum MarketType",
          "name": "marketType",
          "type": "uint8"
        },
        {
          "indexed": true,
          "internalType": "bytes32",
          "name": "marketId",
          "type": "bytes32"
        },
        {
          "indexed": true,
          "internalType": "address",
          "name": "owner",
          "type": "address"
        },
        {
          "indexed": false,
          "internalType": "address",
          "name": "indexToken",
          "type": "address"
        },
        {
          "indexed": false,
          "internalType": "address",
          "name": "quoteToken",
          "type": "address"
        },
        {
          "indexed": false,
          "internalType": "bytes32",
          "name": "name",
          "type": "bytes32"
        },
        {
          "indexed": false,
          "internalType": "bool",
          "name": "isGoverned",
          "type": "bool"
        },
        {
          "indexed": false,
          "internalType": "uint8",
          "name": "category",
          "type": "uint8"
        },
        {
          "indexed": false,
          "internalType": "uint8",
          "name": "maxLeverage",
          "type": "uint8"
        }
      ],
      "name": "MarketCreated",
      "type": "event"
    },
    {
      "anonymous": false,
      "inputs": [
        {
          "indexed": true,
          "internalType": "bytes32",
          "name": "marketId",
          "type": "bytes32"
        },
        {
          "indexed": false,
          "internalType": "bool",
          "name": "isListed",
          "type": "bool"
        }
      ],
      "name": "MarketListed",
      "type": "event"
    },
    {
      "anonymous": false,
      "inputs": [
        {
          "indexed": true,
          "internalType": "bytes32",
          "name": "marketId",
          "type": "bytes32"
        },
        {
          "indexed": false,
          "internalType": "uint256",
          "name": "longFunding",
          "type": "uint256"
        },
        {
          "indexed": false,
          "internalType": "uint256",
          "name": "shortFunding",
          "type": "uint256"
        },
        {
          "indexed": false,
          "internalType": "uint256",
          "name": "longPayout",
          "type": "uint256"
        },
        {
          "indexed": false,
          "internalType": "uint256",
          "name": "shortPayout",
          "type": "uint256"
        }
      ],
      "name": "UpdateIndex",
      "type": "event"
    },
    {
      "anonymous": false,
      "inputs": [
        {
          "indexed": true,
          "internalType": "bytes32",
          "name": "marketId",
          "type": "bytes32"
        },
        {
          "indexed": true,
          "internalType": "address",
          "name": "account",
          "type": "address"
        },
        {
          "indexed": false,
          "internalType": "bytes32",
          "name": "key",
          "type": "bytes32"
        },
        {
          "indexed": false,
          "internalType": "address",
          "name": "collateralToken",
          "type": "address"
        },
        {
          "indexed": false,
          "internalType": "uint256",
          "name": "size",
          "type": "uint256"
        },
        {
          "indexed": false,
          "internalType": "uint256",
          "name": "collateralValue",
          "type": "uint256"
        },
        {
          "indexed": false,
          "internalType": "uint256",
          "name": "entryPrice",
          "type": "uint256"
        },
        {
          "indexed": false,
          "internalType": "uint256",
          "name": "entryFundingIndex",
          "type": "uint256"
        },
        {
          "indexed": false,
          "internalType": "uint256",
          "name": "entryPayoutIndex",
          "type": "uint256"
        }
      ],
      "name": "UpdatePosition",
      "type": "event"
    },
    {
      "inputs": [],
      "name": "DEFAULT_FUNDING_INTERVAL",
      "outputs": [
        {
          "internalType": "uint256",
          "name": "",
          "type": "uint256"
        }
      ],
      "stateMutability": "view",
      "type": "function"
    },
    {
      "inputs": [
        {
          "components": [
            {
              "internalType": "address",
              "name": "owner",
              "type": "address"
            },
            {
              "internalType": "address",
              "name": "indexToken",
              "type": "address"
            },
            {
              "internalType": "address",
              "name": "vault",
              "type": "address"
            },
            {
              "internalType": "address",
              "name": "quoteToken",
              "type": "address"
            },
            {
              "internalType": "address",
              "name": "quoteVault",
              "type": "address"
            },
            {
              "internalType": "address",
              "name": "priceFeed",
              "type": "address"
            },
            {
              "internalType": "contract IFundingRateModel",
              "name": "fundingRateModel",
              "type": "address"
            }
          ],
          "internalType": "struct MarketAddresses",
          "name": "addresses",
          "type": "tuple"
        },
        {
          "components": [
            {
              "internalType": "bytes32",
              "name": "name",
              "type": "bytes32"
            },
            {
              "internalType": "uint8[2]",
              "name": "feeDistributionWeights",
              "type": "uint8[2]"
            },
            {
              "internalType": "uint8[2]",
              "name": "maxLongShortSkew",
              "type": "uint8[2]"
            },
            {
              "internalType": "uint16",
              "name": "maintenanceMarginBps",
              "type": "uint16"
            },
            {
              "internalType": "uint16",
              "name": "liquidationFee",
              "type": "uint16"
            },
            {
              "internalType": "uint16",
              "name": "maxPostionSizeOverVault",
              "type": "uint16"
            },
            {
              "internalType": "uint16",
              "name": "openFee",
              "type": "uint16"
            },
            {
              "internalType": "uint16",
              "name": "closeFee",
              "type": "uint16"
            },
            {
              "internalType": "uint32",
              "name": "fundingInterval",
              "type": "uint32"
            },
            {
              "internalType": "uint8",
              "name": "maxLeverage",
              "type": "uint8"
            },
            {
              "internalType": "uint8",
              "name": "maxExposureMultiplier",
              "type": "uint8"
            },
            {
              "internalType": "uint8",
              "name": "category",
              "type": "uint8"
            },
            {
              "internalType": "enum MarketType",
              "name": "marketType",
              "type": "uint8"
            },
            {
              "internalType": "enum PriceFeedType",
              "name": "priceFeedType",
              "type": "uint8"
            },
            {
              "internalType": "bool",
              "name": "isGoverned",
              "type": "bool"
            }
          ],
          "internalType": "struct MarketParams",
          "name": "params",
          "type": "tuple"
        }
      ],
      "name": "addGovernedMarket",
      "outputs": [
        {
          "internalType": "bytes32",
          "name": "",
          "type": "bytes32"
        }
      ],
      "stateMutability": "nonpayable",
      "type": "function"
    },
    {
      "inputs": [
        {
          "components": [
            {
              "internalType": "address",
              "name": "owner",
              "type": "address"
            },
            {
              "internalType": "address",
              "name": "indexToken",
              "type": "address"
            },
            {
              "internalType": "address",
              "name": "vault",
              "type": "address"
            },
            {
              "internalType": "address",
              "name": "quoteToken",
              "type": "address"
            },
            {
              "internalType": "address",
              "name": "quoteVault",
              "type": "address"
            },
            {
              "internalType": "address",
              "name": "priceFeed",
              "type": "address"
            },
            {
              "internalType": "contract IFundingRateModel",
              "name": "fundingRateModel",
              "type": "address"
            }
          ],
          "internalType": "struct MarketAddresses",
          "name": "addresses",
          "type": "tuple"
        },
        {
          "components": [
            {
              "internalType": "bytes32",
              "name": "name",
              "type": "bytes32"
            },
            {
              "internalType": "uint8[2]",
              "name": "feeDistributionWeights",
              "type": "uint8[2]"
            },
            {
              "internalType": "uint8[2]",
              "name": "maxLongShortSkew",
              "type": "uint8[2]"
            },
            {
              "internalType": "uint16",
              "name": "maintenanceMarginBps",
              "type": "uint16"
            },
            {
              "internalType": "uint16",
              "name": "liquidationFee",
              "type": "uint16"
            },
            {
              "internalType": "uint16",
              "name": "maxPostionSizeOverVault",
              "type": "uint16"
            },
            {
              "internalType": "uint16",
              "name": "openFee",
              "type": "uint16"
            },
            {
              "internalType": "uint16",
              "name": "closeFee",
              "type": "uint16"
            },
            {
              "internalType": "uint32",
              "name": "fundingInterval",
              "type": "uint32"
            },
            {
              "internalType": "uint8",
              "name": "maxLeverage",
              "type": "uint8"
            },
            {
              "internalType": "uint8",
              "name": "maxExposureMultiplier",
              "type": "uint8"
            },
            {
              "internalType": "uint8",
              "name": "category",
              "type": "uint8"
            },
            {
              "internalType": "enum MarketType",
              "name": "marketType",
              "type": "uint8"
            },
            {
              "internalType": "enum PriceFeedType",
              "name": "priceFeedType",
              "type": "uint8"
            },
            {
              "internalType": "bool",
              "name": "isGoverned",
              "type": "bool"
            }
          ],
          "internalType": "struct MarketParams",
          "name": "params",
          "type": "tuple"
        }
      ],
      "name": "addMarket",
      "outputs": [
        {
          "internalType": "bytes32",
          "name": "",
          "type": "bytes32"
        }
      ],
      "stateMutability": "nonpayable",
      "type": "function"
    },
    {
      "inputs": [
        {
          "components": [
            {
              "internalType": "bytes32",
              "name": "marketId",
              "type": "bytes32"
            },
            {
              "internalType": "address",
              "name": "account",
              "type": "address"
            },
            {
              "internalType": "address",
              "name": "collateralToken",
              "type": "address"
            },
            {
              "internalType": "uint256",
              "name": "sizeDelta",
              "type": "uint256"
            },
            {
              "internalType": "bool",
              "name": "isLong",
              "type": "bool"
            }
          ],
          "internalType": "struct DecreasePositionParams",
          "name": "params",
          "type": "tuple"
        }
      ],
      "name": "decreasePosition",
      "outputs": [],
      "stateMutability": "nonpayable",
      "type": "function"
    },
    {
      "inputs": [],
      "name": "exchange",
      "outputs": [
        {
          "internalType": "address",
          "name": "",
          "type": "address"
        }
      ],
      "stateMutability": "view",
      "type": "function"
    },
    {
      "inputs": [
        {
          "internalType": "bytes32",
          "name": "",
          "type": "bytes32"
        },
        {
          "internalType": "uint256",
          "name": "",
          "type": "uint256"
        }
      ],
      "name": "extraCollaterals",
      "outputs": [
        {
          "internalType": "address",
          "name": "",
          "type": "address"
        }
      ],
      "stateMutability": "view",
      "type": "function"
    },
    {
      "inputs": [
        {
          "internalType": "bytes32",
          "name": "marketId",
          "type": "bytes32"
        },
        {
          "internalType": "bytes32",
          "name": "key",
          "type": "bytes32"
        }
      ],
      "name": "getFundingInfo",
      "outputs": [
        {
          "internalType": "uint256",
          "name": "fundingPayout",
          "type": "uint256"
        },
        {
          "internalType": "uint256",
          "name": "fundingDebt",
          "type": "uint256"
        }
      ],
      "stateMutability": "view",
      "type": "function"
    },
    {
      "inputs": [
        {
          "internalType": "bytes32",
          "name": "marketKey",
          "type": "bytes32"
        }
      ],
      "name": "getIndex",
      "outputs": [
        {
          "components": [
            {
              "internalType": "uint256",
              "name": "longPayout",
              "type": "uint256"
            },
            {
              "internalType": "uint256",
              "name": "shortPayout",
              "type": "uint256"
            },
            {
              "internalType": "uint256",
              "name": "longFunding",
              "type": "uint256"
            },
            {
              "internalType": "uint256",
              "name": "shortFunding",
              "type": "uint256"
            }
          ],
          "internalType": "struct Index",
          "name": "",
          "type": "tuple"
        }
      ],
      "stateMutability": "view",
      "type": "function"
    },
    {
      "inputs": [
        {
          "internalType": "bytes32",
          "name": "marketId",
          "type": "bytes32"
        }
      ],
      "name": "getIndexToken",
      "outputs": [
        {
          "internalType": "address",
          "name": "",
          "type": "address"
        }
      ],
      "stateMutability": "view",
      "type": "function"
    },
    {
      "inputs": [
        {
          "internalType": "bytes32",
          "name": "key",
          "type": "bytes32"
        }
      ],
      "name": "getPosition",
      "outputs": [
        {
          "components": [
            {
              "internalType": "bool",
              "name": "isLong",
              "type": "bool"
            },
            {
              "internalType": "uint256",
              "name": "size",
              "type": "uint256"
            },
            {
              "internalType": "uint256",
              "name": "collateralValue",
              "type": "uint256"
            },
            {
              "internalType": "uint256",
              "name": "collateralAmount",
              "type": "uint256"
            },
            {
              "internalType": "uint256",
              "name": "entryPrice",
              "type": "uint256"
            },
            {
              "internalType": "uint256",
              "name": "entryFundingIndex",
              "type": "uint256"
            },
            {
              "internalType": "uint256",
              "name": "entryPayoutIndex",
              "type": "uint256"
            },
            {
              "internalType": "uint256",
              "name": "reserveAmount",
              "type": "uint256"
            }
          ],
          "internalType": "struct Position",
          "name": "",
          "type": "tuple"
        }
      ],
      "stateMutability": "view",
      "type": "function"
    },
    {
      "inputs": [
        {
          "internalType": "bytes32",
          "name": "marketId",
          "type": "bytes32"
        },
        {
          "internalType": "address",
          "name": "account",
          "type": "address"
        },
        {
          "internalType": "address",
          "name": "collateralToken",
          "type": "address"
        },
        {
          "internalType": "bool",
          "name": "isLong",
          "type": "bool"
        }
      ],
      "name": "getPositionKey",
      "outputs": [
        {
          "internalType": "bytes32",
          "name": "",
          "type": "bytes32"
        }
      ],
      "stateMutability": "pure",
      "type": "function"
    },
    {
      "inputs": [
        {
          "internalType": "bytes32",
          "name": "key",
          "type": "bytes32"
        }
      ],
      "name": "getPositionSize",
      "outputs": [
        {
          "internalType": "uint256",
          "name": "",
          "type": "uint256"
        }
      ],
      "stateMutability": "view",
      "type": "function"
    },
    {
      "inputs": [
        {
          "internalType": "bytes32",
          "name": "marketKey",
          "type": "bytes32"
        }
      ],
      "name": "getPrevFundingState",
      "outputs": [
        {
          "internalType": "uint256",
          "name": "timestamp",
          "type": "uint256"
        },
        {
          "internalType": "uint256",
          "name": "longOpenInterest",
          "type": "uint256"
        },
        {
          "internalType": "uint256",
          "name": "shortOpenInterest",
          "type": "uint256"
        },
        {
          "internalType": "int256",
          "name": "fundingRate",
          "type": "int256"
        }
      ],
      "stateMutability": "view",
      "type": "function"
    },
    {
      "inputs": [
        {
          "internalType": "bytes32",
          "name": "marketId",
          "type": "bytes32"
        }
      ],
      "name": "getPriceFeed",
      "outputs": [
        {
          "internalType": "enum PriceFeedType",
          "name": "feedType",
          "type": "uint8"
        },
        {
          "internalType": "address",
          "name": "priceFeed",
          "type": "address"
        }
      ],
      "stateMutability": "view",
      "type": "function"
    },
    {
      "inputs": [
        {
          "internalType": "bytes32",
          "name": "marketId",
          "type": "bytes32"
        },
        {
          "internalType": "address",
          "name": "collateralToken",
          "type": "address"
        }
      ],
      "name": "getVault",
      "outputs": [
        {
          "internalType": "address",
          "name": "",
          "type": "address"
        }
      ],
      "stateMutability": "view",
      "type": "function"
    },
    {
      "inputs": [
        {
          "internalType": "bytes32",
          "name": "marketId",
          "type": "bytes32"
        },
        {
          "internalType": "address",
          "name": "collateralToken",
          "type": "address"
        },
        {
          "internalType": "bool",
          "name": "open",
          "type": "bool"
        },
        {
          "internalType": "uint256",
          "name": "sizeDelta",
          "type": "uint256"
        }
      ],
      "name": "getVaultAndPositionFee",
      "outputs": [
        {
          "internalType": "address",
          "name": "",
          "type": "address"
        },
        {
          "internalType": "uint256",
          "name": "",
          "type": "uint256"
        },
        {
          "internalType": "uint256",
          "name": "",
          "type": "uint256"
        }
      ],
      "stateMutability": "view",
      "type": "function"
    },
    {
      "inputs": [],
      "name": "gov",
      "outputs": [
        {
          "internalType": "address",
          "name": "",
          "type": "address"
        }
      ],
      "stateMutability": "view",
      "type": "function"
    },
    {
      "inputs": [
        {
          "components": [
            {
              "internalType": "bytes32",
              "name": "marketId",
              "type": "bytes32"
            },
            {
              "internalType": "uint256",
              "name": "sizeDelta",
              "type": "uint256"
            },
            {
              "internalType": "uint256",
              "name": "openFee",
              "type": "uint256"
            },
            {
              "internalType": "uint256",
              "name": "initialCollateralAmount",
              "type": "uint256"
            },
            {
              "internalType": "address",
              "name": "account",
              "type": "address"
            },
            {
              "internalType": "address",
              "name": "collateralToken",
              "type": "address"
            },
            {
              "internalType": "bool",
              "name": "isLong",
              "type": "bool"
            }
          ],
          "internalType": "struct IncreasePositionParams",
          "name": "params",
          "type": "tuple"
        }
      ],
      "name": "increasePosition",
      "outputs": [],
      "stateMutability": "nonpayable",
      "type": "function"
    },
    {
      "inputs": [
        {
          "internalType": "bytes32",
          "name": "",
          "type": "bytes32"
        }
      ],
      "name": "isListed",
      "outputs": [
        {
          "internalType": "bool",
          "name": "",
          "type": "bool"
        }
      ],
      "stateMutability": "view",
      "type": "function"
    },
    {
      "inputs": [
        {
          "components": [
            {
              "internalType": "bytes32",
              "name": "marketId",
              "type": "bytes32"
            },
            {
              "internalType": "address",
              "name": "account",
              "type": "address"
            },
            {
              "internalType": "address",
              "name": "collateralToken",
              "type": "address"
            },
            {
              "internalType": "bool",
              "name": "isLong",
              "type": "bool"
            },
            {
              "internalType": "address",
              "name": "feeTo",
              "type": "address"
            }
          ],
          "internalType": "struct LiquidatePositionParams",
          "name": "params",
          "type": "tuple"
        }
      ],
      "name": "liquidatePosition",
      "outputs": [],
      "stateMutability": "nonpayable",
      "type": "function"
    },
    {
      "inputs": [
        {
          "internalType": "bytes32",
          "name": "",
          "type": "bytes32"
        }
      ],
      "name": "marketAddresses",
      "outputs": [
        {
          "internalType": "address",
          "name": "owner",
          "type": "address"
        },
        {
          "internalType": "address",
          "name": "indexToken",
          "type": "address"
        },
        {
          "internalType": "address",
          "name": "vault",
          "type": "address"
        },
        {
          "internalType": "address",
          "name": "quoteToken",
          "type": "address"
        },
        {
          "internalType": "address",
          "name": "quoteVault",
          "type": "address"
        },
        {
          "internalType": "address",
          "name": "priceFeed",
          "type": "address"
        },
        {
          "internalType": "contract IFundingRateModel",
          "name": "fundingRateModel",
          "type": "address"
        }
      ],
      "stateMutability": "view",
      "type": "function"
    },
    {
      "inputs": [
        {
          "internalType": "bytes32",
          "name": "",
          "type": "bytes32"
        }
      ],
      "name": "marketParams",
      "outputs": [
        {
          "internalType": "bytes32",
          "name": "name",
          "type": "bytes32"
        },
        {
          "internalType": "uint16",
          "name": "maintenanceMarginBps",
          "type": "uint16"
        },
        {
          "internalType": "uint16",
          "name": "liquidationFee",
          "type": "uint16"
        },
        {
          "internalType": "uint16",
          "name": "maxPostionSizeOverVault",
          "type": "uint16"
        },
        {
          "internalType": "uint16",
          "name": "openFee",
          "type": "uint16"
        },
        {
          "internalType": "uint16",
          "name": "closeFee",
          "type": "uint16"
        },
        {
          "internalType": "uint32",
          "name": "fundingInterval",
          "type": "uint32"
        },
        {
          "internalType": "uint8",
          "name": "maxLeverage",
          "type": "uint8"
        },
        {
          "internalType": "uint8",
          "name": "maxExposureMultiplier",
          "type": "uint8"
        },
        {
          "internalType": "uint8",
          "name": "category",
          "type": "uint8"
        },
        {
          "internalType": "enum MarketType",
          "name": "marketType",
          "type": "uint8"
        },
        {
          "internalType": "enum PriceFeedType",
          "name": "priceFeedType",
          "type": "uint8"
        },
        {
          "internalType": "bool",
          "name": "isGoverned",
          "type": "bool"
        }
      ],
      "stateMutability": "view",
      "type": "function"
    },
    {
      "inputs": [
        {
          "internalType": "address",
          "name": "_exchange",
          "type": "address"
        }
      ],
      "name": "setExchange",
      "outputs": [],
      "stateMutability": "nonpayable",
      "type": "function"
    },
    {
      "inputs": [],
      "name": "updateCollateral",
      "outputs": [],
      "stateMutability": "nonpayable",
      "type": "function"
    },
    {
      "inputs": [
        {
          "internalType": "address",
          "name": "vault",
          "type": "address"
        },
        {
          "internalType": "uint256",
          "name": "delta",
          "type": "uint256"
        },
        {
          "internalType": "bool",
          "name": "isIncrease",
          "type": "bool"
        }
      ],
      "name": "updateVaultBalance",
      "outputs": [],
      "stateMutability": "nonpayable",
      "type": "function"
    },
    {
      "inputs": [
        {
          "internalType": "bytes32",
          "name": "marketId",
          "type": "bytes32"
        },
        {
          "internalType": "address",
          "name": "collateralToken",
          "type": "address"
        },
        {
          "internalType": "uint256",
          "name": "size",
          "type": "uint256"
        }
      ],
      "name": "validatePositionSize",
      "outputs": [],
      "stateMutability": "view",
      "type": "function"
    }
  ],
  "bytecode": {
    "object": "0x608060405234801561001057600080fd5b506001601155601280546001600160a01b03191633179055615e1f80620000386000396000f3fe608060405234801561001057600080fd5b506004361061018e5760003560e01c80638c0adf62116100de578063d2f7265a11610097578063ecefbdc611610071578063ecefbdc614610573578063f12562f4146105a6578063f761da00146105c9578063fb156e9d1461061f57600080fd5b8063d2f7265a1461053a578063d73b02331461054d578063e58ac6c91461056057600080fd5b80638c0adf62146103e65780638f30c5cc1461042f578063a2c22d2d14610446578063ada37fe814610459578063b5e5306214610505578063c91e9bc81461053257600080fd5b80632279ffae1161014b57806349e428351161012557806349e42835146102e557806367b1f5df146102f85780637fd065f91461030b5780638527831b146103c657600080fd5b80632279ffae146102875780633f7b158f1461029a5780634846a331146102ad57600080fd5b806302dbbefb14610193578063092a4689146101a85780630ea31260146101d857806312d43a51146101eb5780631928b3cb146101fe5780631e66cef514610274575b600080fd5b6101a66101a1366004614f6c565b610647565b005b6101bb6101b6366004614fad565b61092d565b6040516001600160a01b0390911681526020015b60405180910390f35b6101a66101e6366004614fef565b610942565b6012546101bb906001600160a01b031681565b61021161020c36600461500b565b610e0e565b6040516101cf91906000610100820190508251151582526020830151602083015260408301516040830152606083015160608301526080830151608083015260a083015160a083015260c083015160c083015260e083015160e083015292915050565b6101a6610282366004615032565b610ecb565b6101bb610295366004615074565b610fe5565b6101a66102a8366004614fef565b61101d565b6102c06102bb366004615096565b611953565b604080516001600160a01b0390941684526020840192909252908201526060016101cf565b6101a66102f33660046150de565b61198d565b6101a6610306366004615116565b611a8b565b6103ad61031936600461500b565b6000602081905290815260409020805460039091015461ffff80821691620100008104821691640100000000820481169166010000000000008104821691600160401b8204169063ffffffff600160501b8204169060ff600160701b8204811691600160781b8104821691600160801b8204811691600160881b8104821691600160901b8204811691600160981b9004168d565b6040516101cf9d9c9b9a99989796959493929190615174565b6103d96103d436600461500b565b611b28565b6040516101cf9190615206565b6104216103f436600461500b565b6000908152600b60209081526040808320546001600160a01b0316808452600c9092529091205460ff1691565b6040516101cf929190615231565b61043861708081565b6040519081526020016101cf565b610438610454366004615256565b611b98565b6104bc61046736600461500b565b600160208190526000918252604090912080549181015460028201546003830154600484015460058501546006909501546001600160a01b039687169694851695938516949283169391831692918216911687565b604080516001600160a01b039889168152968816602088015294871694860194909452918516606085015284166080840152831660a083015290911660c082015260e0016101cf565b6101bb61051336600461500b565b600090815260016020819052604090912001546001600160a01b031690565b6101a6611c0d565b6010546101bb906001600160a01b031681565b61043861055b366004615298565b611c21565b61043861056e366004615256565b611c3a565b61059661058136600461500b565b60036020526000908152604090205460ff1681565b60405190151581526020016101cf565b6104386105b436600461500b565b6000908152600a602052604090206001015490565b6105ff6105d736600461500b565b6000908152600760205260409020805460018201546002830154600390930154919390929190565b6040805194855260208501939093529183015260608201526080016101cf565b61063261062d366004615074565b611d01565b604080519283526020830191909152016101cf565b6106746040518060400160405280600c81526020016b6f6e6c7945786368616e676560a01b815250611e3f565b6010546001600160a01b031633146106d35760405162461bcd60e51b815260206004820152601b60248201527f54726164696e67456e67696e653a206f6e6c7965786368616e6765000000000060448201526064015b60405180910390fd5b8035600090815260036020908152604091829020548251808401909352601f8352600080516020615d9a8339815191529183019190915260ff1661072a5760405162461bcd60e51b81526004016106ca9190615331565b5060006107378235611e82565b90506000610775833561075060a0860160808701615116565b61076060c0870160a08801615116565b61077060e0880160c08901615344565b612225565b6000818152600a602052604081209192506107a0853561079b60c0880160a08901615116565b612279565b905060006107d786356107b960c0890160a08a01615116565b6001600160a01b038516600090815260056020526040902054612468565b90506107f98635826107ef60e08a0160c08b01615344565b89602001356124a6565b6000610807858789866126a8565b60018581015460028701548a3560009081526020819052604090206003015493945061083c93600160701b900460ff1661299f565b610856876000013560018660010154876002015486612a89565b6020818101518251604080518b820135815293840192909252828201525186918935917fc0b155ca0c9d38455de1afd89b90c0bff5af4b4675e8381867d36a670dccca2e9181900360600190a36108b360a0880160808901615116565b6001600160a01b031687357f67f1a5b210a2813e5b73203faaec1e17d8ef7b54cf0d3be59e31d4c3d3ab5a5a876108f060c08c0160a08d01615116565b886001015489600201548a600401548b600501548c6006015460405161091c9796959493929190615361565b60405180910390a350505050505050565b60006109398383612279565b90505b92915050565b61094a612c87565b8035600090815260036020908152604091829020548251808401909352601f8352600080516020615d9a8339815191529183019190915260ff166109a15760405162461bcd60e51b81526004016106ca9190615331565b5060006109ae8235611e82565b905060006109e783356109c76040860160208701615116565b6109d76060870160408801615116565b6107706080880160608901615344565b6000818152600a602052604081206001810154929350919003610a1d57604051630a0fcbff60e31b815260040160405180910390fd5b60006040518060a0016040528086600001358152602001866020016020810190610a479190615116565b6001600160a01b03168152602001610a656060880160408901615116565b6001600160a01b031681526001840154602080830191909152845460ff1615156040928301528151808301909252601982527f696e697469616c436f6c6c61746572616c416d6f756e742c2000000000000000908201526003840154919250610acd91612ce0565b6000610ae4863561079b6060890160408a01615116565b90506000610af6858785856001612d29565b87356000908152600b60209081526040808320546001928390529083209091015487549394509192610b38926001600160a01b0392831692169060ff16613101565b60e083015190915015610ba157610b556040890160208a01615116565b6001600160a01b031688600001357f214b1e54e250e926f8307170b1340dbc63780b0dca413c622c796c9ef7d45ec88460e00151604051610b9891815260200190565b60405180910390a35b60c082015115610c0757610bbb6040890160208a01615116565b6001600160a01b031688600001357f34b03810d23d54d212256a92dfbd9d4df2836bee21bb387fb2d9607083bcee978460c00151604051610bfe91815260200190565b60405180910390a35b6000610c288935610c1e60608c0160408d01615116565b856060015161328e565b915060009050610c5c8a35610c4360608d0160408e01615116565b8660e001518760a00151610c5791906153b0565b6132ce565b90506000818560800151610c7091906153c3565b90506001600160a01b0386166353a51545600183610c8e87876153c3565b6040516001600160e01b031960e086901b168152921515600484015260248301919091526044820152606401600060405180830381600087803b158015610cd457600080fd5b505af1158015610ce8573d6000803e3d6000fd5b505050505050610d0b848a6080016020810190610d059190615116565b836132ff565b7f115ecacc9c8186779eaa47aef3c27bd2faf8865ff3ac7bf6df8bfbb061cd0f3587610d3d60408c0160208d01615116565b604080519283526001600160a01b039091166020830152810184905260600160405180910390a160a083015160e084015160c0850151604080519384526020840192909252828201525188918b35917fc0b155ca0c9d38455de1afd89b90c0bff5af4b4675e8381867d36a670dccca2e9181900360600190a350505060009384525050600a6020525060408120805460ff191681556001810182905560028101829055600381018290556004810182905560058101829055600681018290556007015550610e0b6001601155565b50565b610e58604051806101000160405280600015158152602001600081526020016000815260200160008152602001600081526020016000815260200160008152602001600081525090565b506000908152600a6020908152604091829020825161010081018452815460ff16151581526001820154928101929092526002810154928201929092526003820154606082015260048201546080820152600582015460a0820152600682015460c082015260079091015460e082015290565b60408051808201909152600c81526b15539055551213d49256915160a21b6020820152336001600160a01b03851614610f175760405162461bcd60e51b81526004016106ca9190615331565b506001600160a01b038316600090815260066020908152604091829020548251808401909352600c83526b15539055551213d49256915160a21b9183019190915260ff16610f785760405162461bcd60e51b81526004016106ca9190615331565b508015610fb2576001600160a01b03831660009081526005602052604081208054849290610fa79084906153b0565b90915550610fe09050565b6001600160a01b03831660009081526005602052604081208054849290610fda9084906153c3565b90915550505b505050565b6002602052816000526040600020818154811061100157600080fd5b6000918252602090912001546001600160a01b03169150829050565b61104a6040518060400160405280600c81526020016b6f6e6c7945786368616e676560a01b815250611e3f565b6010546001600160a01b031633146110a45760405162461bcd60e51b815260206004820152601b60248201527f54726164696e67456e67696e653a206f6e6c7965786368616e6765000000000060448201526064016106ca565b8035600090815260036020908152604091829020548251808401909352601f8352600080516020615d9a8339815191529183019190915260ff166110fb5760405162461bcd60e51b81526004016106ca9190615331565b5060006111088235611e82565b9050600061114183356111216040860160208701615116565b6111316060870160408801615116565b61077060a0880160808901615344565b6000818152600a602052604080822060018101549394509260608701803590911492916111779188359161079b91908a01615116565b90506000836001015411604051806060016040528060218152602001615d5360219139906111b85760405162461bcd60e51b81526004016106ca9190615331565b5060006111d785876111cf368b90038b018b6153ec565b856000612d29565b9050826112495760018401546002850154883560009081526020819052604081206003015461121293919290600160701b900460ff1661299f565b60018401546002850154883560009081526020819052604090206003015461124992919061ffff808216916201000090041661336c565b600061126a883561126060608b0160408c01615116565b84604001516132ce565b90506000611297893561128360608c0160408d01615116565b8560e001518660a00151610c5791906153b0565b905060008360e001518460a001516112af91906153b0565b828560e001516112bf9190615472565b6112c9919061549f565b90506112f660405180604001604052806009815260200168199959505b5bdd5b9d60ba1b81525083612ce0565b61132e604051806040016040528060128152602001711c995cdd5b1d0b999d5b991a5b99d119589d60721b8152508560e00151612ce0565b61136160405180604001604052806011815260200170199d5b991a5b99d119589d105b5bdd5b9d607a1b81525082612ce0565b61139c60405180604001604052806015815260200174726573756c74207061796f7574203d3d3d3d3d3d3d60581b8152508560400151612ce0565b6040840151156115ab576113d76040518060400160405280600b81526020016a7061796f757456616c756560a81b8152508560400151612ce0565b6114056040518060400160405280600c81526020016b1c185e5bdd5d105b5bdd5b9d60a21b81525084612ce0565b6003870154600061141685856153b0565b9050600082821190506114526040518060400160405280601181526020017018dbdb1b185d195c985b08185b5bdd5b9d607a1b81525084612ce0565b60008161146057600061146a565b61146a84846153c3565b9050600082611479578361147b565b845b90506114a46040518060400160405280600581526020016464656c746160d81b81525083612ce0565b6114db60405180604001604052806015815260200174636f6c6c61746572616c416d6f756e7444656c746160581b81525082612ce0565b6040516353a5154560e01b81528315600482015260248101839052604481018890526001600160a01b038b16906353a5154590606401600060405180830381600087803b15801561152b57600080fd5b505af115801561153f573d6000803e3d6000fd5b50505050808c600301600082825461155791906153c3565b925050819055506115a16040518060400160405280601c81526020017f6e65772070736f74696f6e20636f6c6c61746572616c416d6f756e74000000008152508d60030154612ce0565b5050505050611679565b6115dd6040518060400160405280600c81526020016b022a622a9a2a2a9a2a9a2a2960a51b8152508560800151612ce0565b60008285608001516115ef91906153c3565b6040516353a5154560e01b81526001600482015260248101829052604481018590529091506001600160a01b038716906353a5154590606401600060405180830381600087803b15801561164257600080fd5b505af1158015611656573d6000803e3d6000fd5b50505050846080015188600301600082825461167291906153c3565b9091555050505b50611690905083610d0560408b0160208c01615116565b60e0820151156116f6576116aa6040890160208a01615116565b6001600160a01b031688600001357f214b1e54e250e926f8307170b1340dbc63780b0dca413c622c796c9ef7d45ec88460e001516040516116ed91815260200190565b60405180910390a35b60c08201511561175c576117106040890160208a01615116565b6001600160a01b031688600001357f34b03810d23d54d212256a92dfbd9d4df2836bee21bb387fb2d9607083bcee978460c0015160405161175391815260200190565b60405180910390a35b611782604051806060016040528060328152602001615cfa603291398660030154612ce0565b60a082015160e083015160c0840151604080519384526020840192909252828201525187918a35917fc0b155ca0c9d38455de1afd89b90c0bff5af4b4675e8381867d36a670dccca2e9181900360600190a384600101546000036118c757600185015460028601547f8df7e6e669647ed33ddb00611cb7247ed0f87674bb8707ac6d248388ddf7e85d91889161181e60a08d0160808e01615344565b61182c578a60600151611832565b8a604001515b61184260a08e0160808f01615344565b611850578b60200151611853565b8b515b604080519586526020860194909452928401919091526060830152608082015260a00160405180910390a16000868152600a60205260408120805460ff1916815560018101829055600281018290556003810182905560048101829055600581018290556006810182905560070155611949565b6118d76040890160208a01615116565b6001600160a01b031688357f67f1a5b210a2813e5b73203faaec1e17d8ef7b54cf0d3be59e31d4c3d3ab5a5a8861191460608d0160408e01615116565b89600101548a600201548b600401548c600501548d600601546040516119409796959493929190615361565b60405180910390a35b5050505050505050565b600080600080611964888787613441565b90506119708888612279565b8161197c8a8a856132ce565b935093509350509450945094915050565b600083815260036020908152604091829020548251808401909352601f8352600080516020615d9a8339815191529183019190915260ff166119e25760405162461bcd60e51b81526004016106ca9190615331565b5060006119ef8484612279565b905060006119fe8585856132ce565b6001600160a01b0383166000908152600560205260409020805460019091015491925090611a2d9083906153b0565b11156040518060400160405280601e81526020017f54726164696e67456e67696e653a457863656564206c6971756964697479000081525090611a835760405162461bcd60e51b81526004016106ca9190615331565b505050505050565b6012546001600160a01b03163314611ade5760405162461bcd60e51b81526020600482015260166024820152752a3930b234b733a2b733b4b7329d1037b7363cb3b7bb60511b60448201526064016106ca565b601080546001600160a01b0319166001600160a01b0383169081179091556040517f1b3baff3cd6acb01bcbb187b5b9cb66fabc651693fc14e518c71feeddf4f864b90600090a250565b611b536040518060800160405280600081526020016000815260200160008152602001600081525090565b50600090815260046020908152604091829020825160808101845281548152600182015492810192909252600281015492820192909252600390910154606082015290565b6000611bac61022083016102008401615344565b15611c035760405162461bcd60e51b815260206004820152602160248201527f54726164696e67456e67696e653a204d61726b657420697320676f7665726e656044820152601960fa1b60648201526084016106ca565b610939838361349e565b611c15612c87565b611c1f6001601155565b565b6000611c2f85858585612225565b90505b949350505050565b6012546000906001600160a01b03163314611c905760405162461bcd60e51b81526020600482015260166024820152752a3930b234b733a2b733b4b7329d1037b7363cb3b7bb60511b60448201526064016106ca565b611ca261022083016102008401615344565b1515600114611c035760405162461bcd60e51b815260206004820152602560248201527f54726164696e67456e67696e653a204d61726b6574206973206e6f7420676f76604482015264195c9b995960da1b60648201526084016106ca565b6000818152600a60209081526040808320815161010081018352815460ff161515815260018083015482860190815260028085015484870152600380860154606080870191909152600480880154608080890191909152600589015460a0890190815260068a015460c08a019081526007909a015460e08a01528e8d52828c528a8d208b519283018c528054835297880154828d015294870154818b015295909201549085015294519051915184518b8a5260088952878a20548851636d9cad1160e01b815298518b9a97999698611e32988a989697966001600160a01b0390941693636d9cad11938184019390918290030181865afa158015611e09573d6000803e3d6000fd5b505050506040513d601f19601f82011682018060405250810190611e2d91906154b3565b61386e565b9097909650945050505050565b610e0b81604051602401611e539190615331565b60408051601f198184030181529190526020810180516001600160e01b031663104c13eb60e21b1790526139ac565b611ead6040518060800160405280600081526020016000815260200160008152602001600081525090565b60008281526007602090815260408083208151608080820184528254825260018084015483870152600280850154848701526003948501546060808601919091528a895260048852868920875194850188528054855280840154858a0152808301548589015286015490840152898852600987528588209081015494015460088752858820865180880190975280546001600160a01b031687529091015495850195909552815191959094929391429103611f8f576020820151611f71818361549f565b611f7b9190615472565b600089815260076020526040902055612219565b6020820151865160009190611fa490846153c3565b611fae919061549f565b905080600003611fc5575093979650505050505050565b82516040805163cb0d671960e01b81528951600482015260208a01516024820152908901516044820152606089015160648201526084810187905260a481018690526000916001600160a01b03169063cb0d67199060c401602060405180830381865afa15801561203a573d6000803e3d6000fd5b505050506040513d601f19601f8201168201806040525081019061205e91906154b3565b9050600084600001516001600160a01b031663f5a701ff6040518163ffffffff1660e01b8152600401602060405180830381865afa1580156120a4573d6000803e3d6000fd5b505050506040513d601f19601f820116820180604052508101906120c891906154cc565b905060018311156120ff576120ff886120e48b606001516139cd565b60208c015160408d01516120f96001896153c3565b866139e9565b6121168861210c846139cd565b89896001866139e9565b8a7f238ed171a19bc80c7cd43809a2aeda26ef56e40c03ee8fb8037b1bfe6f5c779a89604001518a606001518b600001518c60200151604051612172949392919093845260208401929092526040830152606082015260800190565b60405180910390a26060890182905260208501516121909084615472565b89518a9061219f9083906153b0565b905250505050602080870194855260408088019485526000998a5260048252808a208751815587830151600180830191909155888301516002808401919091556060808b0151600394850155600790955292909b208951815596519a87019a909a5593519385019390935550509092015191909301555090565b50929695505050505050565b60408051602081018690526001600160a01b03808616928201929092529083166060820152811515608082015260009060a0015b604051602081830303815290604052805190602001209050949350505050565b6000828152600160208181526040808420815160e08101835281546001600160a01b039081168252948201548516818501526002820154851681840152600380830154861660608301526004830154861660808301526005830154861660a0830152600690920154851660c0820152878652858452828620909101548251808401909352600a8352693078206164647265737360b01b9383019390935292600160881b90920460ff169185166123425760405162461bcd60e51b81526004016106ca9190615331565b50600081600281111561235757612357615133565b036124035781602001516001600160a01b0316846001600160a01b03161480612395575081606001516001600160a01b0316846001600160a01b0316145b604051806060016040528060268152602001615d7460269139906123cc5760405162461bcd60e51b81526004016106ca9190615331565b5081602001516001600160a01b0316846001600160a01b0316146123f45781608001516123fa565b81604001515b9250505061093c565b81606001516001600160a01b0316846001600160a01b031614604051806060016040528060268152602001615d7460269139906124535760405162461bcd60e51b81526004016106ca9190615331565b505060800151905061093c565b505092915050565b6000838152600b60205260408120546001600160a01b03168161248d82866001613101565b905061249a858286613a1c565b925050505b9392505050565b81156125dc576000848152602081905260408120600281015460039091015460649160ff908116916124e1918891600160781b900416615472565b6124eb9190615472565b6124f5919061549f565b9050612535604051806060016040528060308152602001615dba603091396000878152600960205260409020600201546125309085906153b0565b612ce0565b612560604051806040016040528060098152602001686d61784c6f6e674f4960b81b81525082612ce0565b600085815260096020526040902060020154819061257f9084906153b0565b11156040518060400160405280601b81526020017f54726164696e67456e67696e653a457863656564206d6178204f490000000000815250906125d55760405162461bcd60e51b81526004016106ca9190615331565b50506126a2565b60008481526020819052604081206002810154600390910154606491610100900460ff90811691612616918891600160781b900416615472565b6126209190615472565b61262a919061549f565b600086815260096020526040902060030154909150819061264c9084906153b0565b11156040518060400160405280601b81526020017f54726164696e67456e67696e653a457863656564206d6178204f49000000000081525090611a835760405162461bcd60e51b81526004016106ca9190615331565b50505050565b6126d36040518060800160405280600081526020016000815260200160008152602001600081525090565b82356000908152600b60205260408120548190612708906001600160a01b031661270360c0880160a08901615116565b613a3f565b909250905060008061272a61272360c0890160a08a01615116565b8785613a65565b9092509050600061274f61274460c08a0160a08b01615116565b868a60200135613b28565b905060006040518060e001604052806127d2600b60008d60000135815260200190815260200160002060009054906101000a90046001600160a01b0316600160008e60000135815260200190815260200160002060010160009054906101000a90046001600160a01b03168d60c00160208101906127cd9190615344565b613101565b815260208b810135818301526040808301889052606083018790528c35600090815260088352819020548151636d9cad1160e01b815291516080909401936001600160a01b0390911692636d9cad1192600480820193918290030181865afa158015612842573d6000803e3d6000fd5b505050506040513d601f19601f8201168201806040525081019061286691906154b3565b81526020810184905260400161288260e08c0160c08d01615344565b1515905260008c8152600a602052604090209091506128a290828c613b5a565b6001600160a01b0389166000908152600560205260408120600101805492995084929091906128d29084906153b0565b9091555061290990508460208b01356128f160e08d0160c08e01615344565b8c356000908152600960205260409020929190613d3c565b5061291c905060a0880160808901615116565b6001600160a01b031687357f3f845a5a274d0fe326c172f133317004ae9453a17dd47b62d94798bcb4ccb1c28b61296761295c60c08d0160a08e01615116565b888d60600135613a1c565b6129788c35600160208f0135613441565b8c8b60405161298b9594939291906154ed565b60405180910390a350505050949350505050565b8380156129aa575082155b156129c857604051631ee7bc0160e21b815260040160405180910390fd5b81831015612a225760405162461bcd60e51b815260206004820152602160248201527f5269736b4d616e6167656d656e743a3a20696e76616c6964206c6576657261676044820152606560f81b60648201526084016106ca565b612a2c8183615472565b8311156126a25760405162461bcd60e51b815260206004820152602560248201527f5269736b4d616e6167656d656e743a206d6178206c6576657261676520657863604482015264195959195960da1b60648201526084016106ca565b838015612a94575082155b15612ab257604051631ee7bc0160e21b815260040160405180910390fd5b81831015612b025760405162461bcd60e51b815260206004820152601c60248201527f56616c696461746f723a3a20696e76616c6964206c657665726167650000000060448201526064016106ca565b612b286040518060400160405280600481526020016373697a6560e01b81525084612ce0565b60408051808201825260088152676d61782073697a6560c01b6020808301919091526000888152908190529190912060030154612b85919061271090612b7b908590640100000000900461ffff16615472565b612530919061549f565b60008581526020819052604090206003015461271090612bb2908390640100000000900461ffff16615472565b612bbc919061549f565b831115612c0b5760405162461bcd60e51b815260206004820152601c60248201527f56616c696461746f723a3a2073697a652065786365656473206d61780000000060448201526064016106ca565b600085815260208190526040902060030154612c3190600160701b900460ff1683615472565b831115612c805760405162461bcd60e51b815260206004820152601c60248201527f56616c696461746f723a3a20696e76616c6964206c657665726167650000000060448201526064016106ca565b5050505050565b600260115403612cd95760405162461bcd60e51b815260206004820152601f60248201527f5265656e7472616e637947756172643a207265656e7472616e742063616c6c0060448201526064016106ca565b6002601155565b612d258282604051602401612cf69291906155a2565b60408051601f198184030181529190526020810180516001600160e01b03166309710a9d60e41b1790526139ac565b5050565b612d31614f08565b83516000908152600b6020908152604080832054898452600a8352818420885185526001938490529184209092015481546001600160a01b03938416949293612d8192869291169060ff16613101565b60028301546060890151895160009081526020819052604081206003015493945092612de8929190600160401b900461ffff1689612dc0576000612ddf565b8b5160009081526020819052604090206003015462010000900461ffff165b61ffff16613dbd565b9050612e1460405180604001604052806008815260200167746f74616c46656560c01b81525082612ce0565b87516000908152600860209081526040808320548151636d9cad1160e01b815291516001600160a01b0390911692636d9cad1192600480820193918290030181865afa158015612e68573d6000803e3d6000fd5b505050506040513d601f19601f82011682018060405250810190612e8c91906154b3565b9050861515600103612f56576040805161010081018252855460ff16151581526001860154602080830191909152600287015482840152600380880154606084015260048801546080840152600588015460a0840152600688015460c0840152600788015460e08401528c5160009081529182905292902090910154612f1d91908c908690869061ffff1686613dfd565b604051806060016040528060278152602001615d2c6027913990612f545760405162461bcd60e51b81526004016106ca9190615331565b505b604080516080810182526060808c0151825260208201869052918101849052908101829052612f8685828d613fc3565b96508660200151600560008b6001600160a01b03166001600160a01b031681526020019081526020016000206001016000828254612fc491906153c3565b9091555050606080880151908b015186548c516000908152600960205260409020612ff5939092909160ff166143ee565b89602001516001600160a01b03168a600001517fa2e3cd9c7dc9e8ac3598417df07b79b4457abe6c9c785e12a0e14353af7dbe888e8d8b6040516130ea9392919060006101e08201905084825283516020830152602084015160018060a01b0380821660408501528060408701511660608501525050606084015160808301526080840151151560a0830152825160c0830152602083015160e0830152604083015161010081818501526060850151610120850152608085015161014085015260a085015161016085015260c085015161018085015260e08501516101a0850152808501516101c08501525050949350505050565b60405180910390a350505050505095945050505050565b6001600160a01b0383166000908152600c602052604081205460ff16818082600281111561313157613131615133565b036131af576040516303b6b4bb60e51b81526001600160a01b03868116600483015285151560248301528716906376d6976090604401602060405180830381865afa158015613184573d6000803e3d6000fd5b505050506040513d601f19601f820116820180604052508101906131a891906154b3565b9050613235565b60018260028111156131c3576131c3615133565b03613235576040516341976e0960e01b81526001600160a01b0386811660048301528716906341976e0990602401602060405180830381865afa15801561320e573d6000803e3d6000fd5b505050506040513d601f19601f8201168201806040525081019061323291906154b3565b90505b600081116132855760405162461bcd60e51b815260206004820152601c60248201527f54726164696e67456e67696e653a3a494e56414c49445f50524943450000000060448201526064016106ca565b95945050505050565b600083815260208190526040812060030154819062010000900461ffff166132b68482614467565b92506132c38686856132ce565b915050935093915050565b6000838152600b60205260408120546001600160a01b0316816132f2828683613101565b905061249a858286613b28565b8015610fe057604051635f4af00d60e11b8152600481018290526001600160a01b03838116602483015284169063be95e01a90604401600060405180830381600087803b15801561334f57600080fd5b505af1158015613363573d6000803e3d6000fd5b50505050505050565b60006133788483614467565b905060006127106133898588615472565b613393919061549f565b90506133c86040518060400160405280601181526020017036b0b4b73a32b730b731b2a6b0b933b4b760791b81525082612ce0565b60006133d383614477565b6133dc87614477565b6133e691906155c4565b905061340f604051806040016040528060068152602001653932b6b0b4b760d11b815250611e3f565b613418816144e1565b61342182614477565b81121561336357604051633a23d82560e01b815260040160405180910390fd5b6000808361346b57600085815260208190526040902060030154600160401b900461ffff1661348c565b6000858152602081905260409020600301546601000000000000900461ffff165b61ffff169050600061249a8483614467565b6000806134af600060018686614526565b90506134be6003826001614b5e565b60408051808201909152806134d960e0870160c08801615116565b6001600160a01b031681526020016134f9610160860161014087016155fd565b63ffffffff1690526000828152600860209081526040808320845181546001600160a01b0319166001600160a01b0390911617815593909101516001909301929092559061354d9060608701908701615116565b6001600160a01b031614156006600061356c6060880160408901615116565b6001600160a01b0316815260208101919091526040016000908120805460ff1916921515929092179091556135a760a0860160808701615116565b6001600160a01b03161415600660006135c660a0880160808901615116565b6001600160a01b031681526020810191909152604001600020805460ff19169115159190911790556135fe60c0850160a08601615116565b6000828152600b6020526040902080546001600160a01b0319166001600160a01b039290921691909117905561363c61020084016101e08501615627565b600c600061365060c0880160a08901615116565b6001600160a01b031681526020810191909152604001600020805460ff1916600183600281111561368357613683615133565b0217905550600e600061369c6040870160208801615116565b6001600160a01b03168152602081019190915260400160009081205460ff1690036137785760006136d36040860160208701615116565b6001600160a01b031663313ce5676040518163ffffffff1660e01b8152600401602060405180830381865afa158015613710573d6000803e3d6000fd5b505050506040513d601f19601f820116820180604052508101906137349190615653565b905080600e600061374b6040890160208a01615116565b6001600160a01b031681526020810191909152604001600020805460ff191660ff92909216919091179055505b600e600061378c6080870160608801615116565b6001600160a01b03168152602081019190915260400160009081205460ff1690036109395760006137c36080860160608701615116565b6001600160a01b031663313ce5676040518163ffffffff1660e01b8152600401602060405180830381865afa158015613800573d6000803e3d6000fd5b505050506040513d601f19601f820116820180604052508101906138249190615653565b905080600e600061383b6080890160608a01615116565b6001600160a01b031681526020810191909152604001600020805460ff191660ff92909216919091179055509392505050565b600080600084613882578860200151613885565b88515b905060008561389857896060015161389e565b89604001515b9050818911156139035760405162461bcd60e51b815260206004820152602a60248201527f46756e64696e674d616e616765723a20696e76616c696420656e7472792070616044820152690f2deeae840d2dcc8caf60b31b60648201526084016106ca565b808811156139675760405162461bcd60e51b815260206004820152602b60248201527f46756e64696e674d616e616765723a20696e76616c696420656e74727920667560448201526a0dcc8d2dcce40d2dcc8caf60ab1b60648201526084016106ca565b60006139738a846153c3565b9050613980818988614bb4565b9450600061398e8a846153c3565b905061399b818a89614bb4565b945050505050965096945050505050565b80516a636f6e736f6c652e6c6f67602083016000808483855afa5050505050565b6000808212156139e5576139e082615670565b61093c565b5090565b8415613a0e576139f98583615472565b86604001818151613a0a91906153b0565b9052505b611a83868686868686614c9e565b60008061328584613a2c87614d0a565b613a3790600a615770565b859190614bb4565b600080613a4e84846001613101565b9150613a5c84846000613101565b90509250929050565b6000806000613ad6856001600160a01b03166385d966026040518163ffffffff1660e01b81526004016020604051808303816000875af1158015613aad573d6000803e3d6000fd5b505050506040513d601f19601f82011682018060405250810190613ad191906154b3565b614dc5565b9050613b0e6040518060400160405280601481526020017311d95d0818dbdb1b185d195c985b105b5bdd5b9d60621b81525082612ce0565b6000613b1b878684613a1c565b9791965090945050505050565b6001600160a01b0383166000908152600e602052604081205460ff16613285613b5282600a615770565b849086614bb4565b613b856040518060800160405280600081526020016000815260200160008152602001600081525090565b60018401546000819003613b9f5783516004860155613bc2565b613bbc8186600401548660c0015187600001518860200151614e10565b60048601555b60068501546005860154865460808701516000938493613be9938993889160ff169061386e565b9150915060008760020154905060008284896040015184613c0a91906153b0565b613c1491906153b0565b613c1e91906153c3565b90506000613c2c83836153c3565b9050818a6002018190555088602001518a6001016000828254613c4f91906153b0565b909155505060c0890151613c67578760600151613c6d565b87604001515b60058b015560c0890151613c85578760200151613c88565b87515b60068b015560c08901518a5460ff1916901515178a5560a089015160078b018054600090613cb79084906153b0565b9091555050606089015160038b018054600090613cd59084906153b0565b92505081905550613d1f6040518060400160405280602081526020017f494e63726561736520706172616d7320636f6c6c61746572616c416d6f756e748152508a60600151612ce0565b938652505060208401526040830152509151606083015250919050565b8015613d615781846002016000828254613d5691906153b0565b90915550613d7b9050565b81846003016000828254613d7591906153b0565b90915550505b82846001016000828254613d8f91906153b0565b90915550613d9f905083836153c3565b846000016000828254613db291906153b0565b909155505050505050565b600080613dca8585614467565b90506000808411613ddc576000613de6565b613de68785614467565b9050613df282826153b0565b979650505050505050565b60008660200151600003613e1357506000613fb9565b613e516040518060400160405280601981526020017f636865636b69696e67206973206c6971756964617461626c6500000000000000815250611e3f565b600080613e72888a60c001518b60a001518c602001518d600001518961386e565b915091506000613e908a600001518b602001518c608001518b614e6f565b90506000613e9d88614477565b613ea684614477565b613eaf86614477565b613eb991906155c4565b613ec391906155c4565b90506000612710888d60200151613eda9190615472565b613ee4919061549f565b9050613f196040518060400160405280601181526020017036b0b4b73a32b730b731b2a6b0b933b4b760791b81525082612ce0565b613f3d6040518060400160405280600381526020016266656560e81b815250611e3f565b613f46826144e1565b60008284613f578f60400151614477565b613f61919061577f565b613f6b919061577f565b9050613f9e6040518060400160405280601081526020016f3d3d3d3d3d72656d61696e203d3d3d3d60801b815250611e3f565b613fa7816144e1565b613fb082614477565b13955050505050505b9695505050505050565b613fcb614f08565b8251600185015410156140365760405162461bcd60e51b815260206004820152602d60248201527f506f736974696f6e3a64656372656173653a20696e73756666696369656e742060448201526c706f736974696f6e2073697a6560981b60648201526084016106ca565b600184015484546004860154602086015160009261405c9260ff90911691859190614e6f565b905061406b8660010154614477565b855161407690614477565b614080908361579f565b61408a91906157cf565b835260068601546005870154875460608801516140b293889390929091879160ff169061386e565b60e085015260c0840152845160009083146140ce5760006140d4565b86600201545b905060008188600201546140e891906153c3565b905061411d6040518060400160405280600d81526020016c706f7369746f696e2073697a6560981b8152508960010154612ce0565b61414d6040518060400160405280600a815260200169656e747279507269636560b01b8152508960040154612ce0565b6141906040518060400160405280601781526020017f696e697469616c20636f6c6c61746572616c56616c75650000000000000000008152508960020154612ce0565b6141c46040518060400160405280600e81526020016d199d5b991a5b99c81c185e5bdd5d60921b8152508660c00151612ce0565b6141f66040518060400160405280600c81526020016b199d5b991a5b99c81119589d60a21b8152508660e00151612ce0565b61421a6040518060400160405280600381526020016214139360ea1b815250611e3f565b8451614225906144e1565b60006142348860400151614477565b6142418760e00151614477565b61424e8860c00151614477565b61425786614477565b8951614263919061577f565b61426d919061577f565b61427791906155c4565b61428191906155c4565b90506142b06040518060400160405280600c81526020016b7061796f75742076616c756560a01b815250611e3f565b6142b9816144e1565b60008112156142d7576142d4826142cf836139cd565b614ed5565b91505b6001890154885160078b01546142ed9190615472565b6142f7919061549f565b60208701526000811361430b57600061430d565b805b604087015260028901546143229083906153c3565b60608701819052604089015160a08801526020890151610100880152895460ff16901561437257896002015487606001518b600301546143629190615472565b61436c919061549f565b60808801525b80614381578760600151614387565b87604001515b60058b01558061439b57876020015161439e565b87515b60068b0155885160018b0180546000906143b99084906153c3565b909155505060028a01839055602087015160078b01546143d991906153c3565b8a600701819055505050505050509392505050565b8015614413578184600201600082825461440891906153c3565b9091555061442d9050565b8184600301600082825461442791906153c3565b90915550505b8284600101600082825461444191906153c3565b9091555050835482906144559085906153b0565b61445f91906153c3565b909355505050565b60006109398383620f4240614bb4565b60006001600160ff1b038211156139e55760405162461bcd60e51b815260206004820152602860248201527f53616665436173743a2076616c756520646f65736e27742066697420696e2061604482015267371034b73a191a9b60c11b60648201526084016106ca565b610e0b816040516024016144f791815260200190565b60408051601f198184030181529190526020810180516001600160e01b0316634e0c1d1d60e01b1790526139ac565b6000614537368490038401846157fd565b6145496101e084016101c08501615627565b600181600281111561455d5761455d615133565b146145bc5760408201516001600160a01b03166145bc5760405162461bcd60e51b815260206004820152601f60248201527f4d61726b65744d616e616765723a5661756c742069732072657175697265640060448201526064016106ca565b60028160028111156145d0576145d0615133565b1461463d5760208201516001600160a01b031661463d5760405162461bcd60e51b815260206004820152602560248201527f4d61726b65744d616e616765723a496e64657820746f6b656e206973207265716044820152641d5a5c995960da1b60648201526084016106ca565b60608201516001600160a01b03166146a35760405162461bcd60e51b8152602060048201526024808201527f4d61726b65744d616e616765723a537461626c65636f696e20697320726571756044820152631a5c995960e21b60648201526084016106ca565b60808201516001600160a01b031661470f5760405162461bcd60e51b815260206004820152602960248201527f4d61726b65744d616e616765723a537461626c65636f696e5661756c74206973604482015268081c995c5d5a5c995960ba1b60648201526084016106ca565b60a08201516001600160a01b03166147755760405162461bcd60e51b815260206004820152602360248201527f4d61726b65744d616e616765723a7072696365466565642069732072657175696044820152621c995960ea1b60648201526084016106ca565b60c08201516001600160a01b03166147e35760405162461bcd60e51b815260206004820152602b60248201527f4d61726b65744d616e616765723a2066756e64696e67526174654d6f64656c2060448201526a1a5cc81c995c5d5a5c995960aa1b60648201526084016106ca565b60026147f76101e086016101c08701615627565b600281111561480857614808615133565b1461487557600061481f6040870160208801615116565b6001600160a01b0316036148755760405162461bcd60e51b815260206004820152601f60248201527f4d61726b65744d616e616765723a41737365742069732072657175697265640060448201526064016106ca565b61488560808501606086016158b5565b60ff161515806148a657506148a060a08501608086016158b5565b60ff1615155b15614940576148bb60a08501608086016158b5565b6148cb60808601606087016158b5565b6148d591906158d2565b60ff166064146149405760405162461bcd60e51b815260206004820152603060248201527f4d61726b65744d616e616765723a206d61784c6f6e6753686f7274536b65772060448201526f073686f756c6420657175616c203130360841b60648201526084016106ca565b6149876149556101e086016101c08701615627565b6149626020880188615116565b6149726040890160208a01615116565b61498260808a0160608b01615116565b614eef565b6000818152602088905260409020549093506001600160a01b0316156149ef5760405162461bcd60e51b815260206004820152601c60248201527f4d61726b65744d616e616765723a206d61726b6574206578697374730000000060448201526064016106ca565b60008381526020889052604090208490614a0982826159c8565b505060008381526020879052604090208590614a258282615c08565b50614a3590506020860186615116565b6001600160a01b031683614a516101e087016101c08801615627565b6002811115614a6257614a62615133565b7fe5f04d51f59636bb2fc0b095fb0bb594333fee72d7cd6b31eb2e6cd2de0f3271614a9360408a0160208b01615116565b614aa360808b0160608c01615116565b8935614ab76102208c016102008d01615344565b614ac96101c08d016101a08e016158b5565b614adb6101808e016101608f016158b5565b604080516001600160a01b039788168152969095166020870152938501929092521515606084015260ff90811660808401521660a082015260c00160405180910390a46040516001815283907fcd753f54a5c633241a18de31a107568ea34f82f74c207ae19f257fd19f7c76c69060200160405180910390a25050949350505050565b60008281526020848152604091829020805460ff1916841515908117909155915191825283917fcd753f54a5c633241a18de31a107568ea34f82f74c207ae19f257fd19f7c76c6910160405180910390a2505050565b6000808060001985870985870292508281108382030391505080600003614bee57838281614be457614be4615489565b049250505061249f565b808411614c355760405162461bcd60e51b81526020600482015260156024820152744d6174683a206d756c446976206f766572666c6f7760581b60448201526064016106ca565b60008486880960026001871981018816978890046003810283188082028403028082028403028082028403028082028403028082028403029081029092039091026000889003889004909101858311909403939093029303949094049190911702949350505050565b6001816001811115614cb257614cb2615133565b14611a8357600085118015614cc75750600083115b15614d05578284614cd88785615472565b614ce29190615472565b614cec919061549f565b86602001818151614cfd91906153b0565b905250611a83565b611a83565b6001600160a01b0381166000908152600e602052604081205460ff168015614d325792915050565b6000836001600160a01b031663313ce5676040518163ffffffff1660e01b8152600401602060405180830381865afa158015614d72573d6000803e3d6000fd5b505050506040513d601f19601f82011682018060405250810190614d969190615653565b6001600160a01b03949094166000908152600e60205260409020805460ff191660ff8616179055509192915050565b6000808211604051806040016040528060088152602001670c08185b5bdd5b9d60c21b81525090614e095760405162461bcd60e51b81526004016106ca9190615331565b5090919050565b600081600003614e21575083613285565b6000614e2f85888887614e6f565b90506000614e3d84896153b0565b90506000614e4b838361577f565b905080614e588388615472565b614e62919061549f565b9998505050505050505050565b600083600003614e8157506000611c32565b8415614eb2576000614e9384846155c4565b905083614ea0868361579f565b614eaa91906157cf565b915050611c32565b6000614ebe83856155c4565b905083614ecb868361579f565b613fb991906157cf565b6000818311614ee5576000610939565b61093982846153c3565b6000848484846040516020016122599493929190615cc5565b6040518061012001604052806000815260200160008152602001600081526020016000815260200160008152602001600081526020016000815260200160008152602001600081525090565b600060e08284031215614f6657600080fd5b50919050565b600060e08284031215614f7e57600080fd5b6109398383614f54565b6001600160a01b0381168114610e0b57600080fd5b8035614fa881614f88565b919050565b60008060408385031215614fc057600080fd5b823591506020830135614fd281614f88565b809150509250929050565b600060a08284031215614f6657600080fd5b600060a0828403121561500157600080fd5b6109398383614fdd565b60006020828403121561501d57600080fd5b5035919050565b8015158114610e0b57600080fd5b60008060006060848603121561504757600080fd5b833561505281614f88565b925060208401359150604084013561506981615024565b809150509250925092565b6000806040838503121561508757600080fd5b50508035926020909101359150565b600080600080608085870312156150ac57600080fd5b8435935060208501356150be81614f88565b925060408501356150ce81615024565b9396929550929360600135925050565b6000806000606084860312156150f357600080fd5b83359250602084013561510581614f88565b929592945050506040919091013590565b60006020828403121561512857600080fd5b813561093981614f88565b634e487b7160e01b600052602160045260246000fd5b60038110610e0b57634e487b7160e01b600052602160045260246000fd5b61517081615149565b9052565b8d815261ffff8d811660208301528c811660408301528b811660608301528a81166080830152891660a082015263ffffffff881660c082015260ff871660e08201526101a0810160ff871661010083015260ff86166101208301526151dd610140830186615167565b6151eb610160830185615167565b8215156101808301529e9d5050505050505050505050505050565b815181526020808301519082015260408083015190820152606080830151908201526080810161093c565b6040810161523e84615149565b9281526001600160a01b039190911660209091015290565b60008082840361030081121561526b57600080fd5b6152758585614f54565b925061022060df198201121561528a57600080fd5b5060e0830190509250929050565b600080600080608085870312156152ae57600080fd5b8435935060208501356152c081614f88565b925060408501356152d081614f88565b915060608501356152e081615024565b939692955090935050565b6000815180845260005b81811015615311576020818501810151868301820152016152f5565b506000602082860101526020601f19601f83011685010191505092915050565b60208152600061093960208301846152eb565b60006020828403121561535657600080fd5b813561093981615024565b9687526001600160a01b0395909516602087015260408601939093526060850191909152608084015260a083015260c082015260e00190565b634e487b7160e01b600052601160045260246000fd5b8082018082111561093c5761093c61539a565b8181038181111561093c5761093c61539a565b634e487b7160e01b600052604160045260246000fd5b600060a082840312156153fe57600080fd5b60405160a0810181811067ffffffffffffffff82111715615421576154216153d6565b60405282358152602083013561543681614f88565b6020820152604083013561544981614f88565b604082015260608381013590820152608083013561546681615024565b60808201529392505050565b808202811582820484141761093c5761093c61539a565b634e487b7160e01b600052601260045260246000fd5b6000826154ae576154ae615489565b500490565b6000602082840312156154c557600080fd5b5051919050565b6000602082840312156154de57600080fd5b81516002811061093957600080fd5b60006101c0820190508682528560208301528460408301528335606083015260208401356080830152604084013560a0830152606084013560c0830152608084013561553881614f88565b6001600160a01b0390811660e084015260a08501359061555782614f88565b1661010083015260c084013561556c81615024565b151561012083015282516101408301526020830151610160830152604083015161018083015260608301516101a0830152613fb9565b6040815260006155b560408301856152eb565b90508260208301529392505050565b81810360008312801583831316838312821617156155e4576155e461539a565b5092915050565b63ffffffff81168114610e0b57600080fd5b60006020828403121561560f57600080fd5b8135610939816155eb565b60038110610e0b57600080fd5b60006020828403121561563957600080fd5b81356109398161561a565b60ff81168114610e0b57600080fd5b60006020828403121561566557600080fd5b815161093981615644565b6000600160ff1b82016156855761568561539a565b5060000390565b600181815b808511156156c75781600019048211156156ad576156ad61539a565b808516156156ba57918102915b93841c9390800290615691565b509250929050565b6000826156de5750600161093c565b816156eb5750600061093c565b8160018114615701576002811461570b57615727565b600191505061093c565b60ff84111561571c5761571c61539a565b50506001821b61093c565b5060208310610133831016604e8410600b841016171561574a575081810a61093c565b615754838361568c565b80600019048211156157685761576861539a565b029392505050565b600061093960ff8416836156cf565b80820182811260008312801582168215821617156124605761246061539a565b80820260008212600160ff1b841416156157bb576157bb61539a565b818105831482151761093c5761093c61539a565b6000826157de576157de615489565b600160ff1b8214600019841416156157f8576157f861539a565b500590565b600060e0828403121561580f57600080fd5b60405160e0810181811067ffffffffffffffff82111715615832576158326153d6565b604052823561584081614f88565b8152602083013561585081614f88565b6020820152604083013561586381614f88565b6040820152606083013561587681614f88565b606082015261588760808401614f9d565b608082015261589860a08401614f9d565b60a08201526158a960c08401614f9d565b60c08201529392505050565b6000602082840312156158c757600080fd5b813561093981615644565b60ff818116838216019081111561093c5761093c61539a565b6000813561093c81615644565b816000805b600281101561593957823561591181615644565b8160031b60ff808316821b81831b1986161794505050506020830192506001810190506158fd565b509091555050565b6000813561ffff8116811461093c57600080fd5b6000813561093c816155eb565b6000813561093c8161561a565b61597882615149565b805460ff60881b191660889290921b60ff60881b16919091179055565b61599e82615149565b805460ff60901b191660909290921b60ff60901b16919091179055565b6000813561093c81615024565b813581556159dc60208301600183016158f8565b6159ec60608301600283016158f8565b60038101615a126159ff60a08501615941565b825461ffff191661ffff91909116178255565b615a3b615a2160c08501615941565b825463ffff0000191660109190911b63ffff000016178255565b615a68615a4a60e08501615941565b825465ffff00000000191660209190911b65ffff0000000016178255565b615a9a615a786101008501615941565b825467ffff000000000000191660309190911b67ffff00000000000016178255565b615ad0615aaa6101208501615941565b825469ffff0000000000000000191660409190911b69ffff000000000000000016178255565b615b04615ae06101408501615955565b82805463ffffffff60501b191660509290921b63ffffffff60501b16919091179055565b615b32615b1461016085016158eb565b82805460ff60701b191660709290921b60ff60701b16919091179055565b615b60615b4261018085016158eb565b82805460ff60781b191660789290921b60ff60781b16919091179055565b615b8e615b706101a085016158eb565b82805460ff60801b191660809290921b60ff60801b16919091179055565b615ba4615b9e6101c08501615962565b8261596f565b615bba615bb46101e08501615962565b82615995565b610fe0615bca61020085016159bb565b82805460ff60981b191691151560981b60ff60981b16919091179055565b80546001600160a01b0319166001600160a01b0392909216919091179055565b8135615c1381614f88565b615c1d8183615be8565b506020820135615c2c81614f88565b615c398160018401615be8565b506040820135615c4881614f88565b615c558160028401615be8565b506060820135615c6481614f88565b615c718160038401615be8565b506080820135615c8081614f88565b615c8d8160048401615be8565b5060a0820135615c9c81614f88565b615ca98160058401615be8565b5060c0820135615cb881614f88565b610fe08160068401615be8565b60808101615cd286615149565b9481526001600160a01b03938416602082015291831660408301529091166060909101529056fe444563726561736520504f534954494f4e203d3d3d3d3d3d3d3d3d20636f6c6c61746572616c20616d6f756e74206c65667454726164696e67456e67696e653a506f736974696f6e206e6f74206c6971756964617461626c6554726164696e67456e67696e653a506f736974696f6e206e6f742065786973747354726164696e67456e67696e653a496e76616c696420636f6c6c61746572616c20746f6b656e54726164696e67456e67696e653a4d61726b6574206e6f74206c6973746564005f6d61726b6574735b6d61726b657449645d2e6c6f6e674f70656e496e746572657374202b2073697a6544656c746120a26469706673582212208b9e48477965f4fc403aac0ae0790043ea0b33cd862483c8517a8eaa17337cce64736f6c63430008140033",
    "linkReferences": {}
  },
  "methodIdentifiers": {
    "DEFAULT_FUNDING_INTERVAL()": "8f30c5cc",
    "addGovernedMarket((address,address,address,address,address,address,address),(bytes32,uint8[2],uint8[2],uint16,uint16,uint16,uint16,uint16,uint32,uint8,uint8,uint8,uint8,uint8,bool))": "e58ac6c9",
    "addMarket((address,address,address,address,address,address,address),(bytes32,uint8[2],uint8[2],uint16,uint16,uint16,uint16,uint16,uint32,uint8,uint8,uint8,uint8,uint8,bool))": "a2c22d2d",
    "decreasePosition((bytes32,address,address,uint256,bool))": "3f7b158f",
    "exchange()": "d2f7265a",
    "extraCollaterals(bytes32,uint256)": "2279ffae",
    "getFundingInfo(bytes32,bytes32)": "fb156e9d",
    "getIndex(bytes32)": "8527831b",
    "getIndexToken(bytes32)": "b5e53062",
    "getPosition(bytes32)": "1928b3cb",
    "getPositionKey(bytes32,address,address,bool)": "d73b0233",
    "getPositionSize(bytes32)": "f12562f4",
    "getPrevFundingState(bytes32)": "f761da00",
    "getPriceFeed(bytes32)": "8c0adf62",
    "getVault(bytes32,address)": "092a4689",
    "getVaultAndPositionFee(bytes32,address,bool,uint256)": "4846a331",
    "gov()": "12d43a51",
    "increasePosition((bytes32,uint256,uint256,uint256,address,address,bool))": "02dbbefb",
    "isListed(bytes32)": "ecefbdc6",
    "liquidatePosition((bytes32,address,address,bool,address))": "0ea31260",
    "marketAddresses(bytes32)": "ada37fe8",
    "marketParams(bytes32)": "7fd065f9",
    "setExchange(address)": "67b1f5df",
    "updateCollateral()": "c91e9bc8",
    "updateVaultBalance(address,uint256,bool)": "1e66cef5",
    "validatePositionSize(bytes32,address,uint256)": "49e42835"
  },
  "id": 8
}