{
  "abi": [
    {
      "inputs": [
        {
          "internalType": "address",
          "name": "_asset",
          "type": "address"
        },
        {
          "internalType": "address",
          "name": "_tradingEngine",
          "type": "address"
        },
        {
          "internalType": "bytes32",
          "name": "_marketName",
          "type": "bytes32"
        }
      ],
      "stateMutability": "nonpayable",
      "type": "constructor"
    },
    {
      "anonymous": false,
      "inputs": [
        {
          "indexed": true,
          "internalType": "address",
          "name": "owner",
          "type": "address"
        },
        {
          "indexed": true,
          "internalType": "address",
          "name": "spender",
          "type": "address"
        },
        {
          "indexed": false,
          "internalType": "uint256",
          "name": "value",
          "type": "uint256"
        }
      ],
      "name": "Approval",
      "type": "event"
    },
    {
      "anonymous": false,
      "inputs": [
        {
          "indexed": false,
          "internalType": "uint256",
          "name": "balance",
          "type": "uint256"
        }
      ],
      "name": "BalanceUpdated",
      "type": "event"
    },
    {
      "anonymous": false,
      "inputs": [
        {
          "indexed": true,
          "internalType": "address",
          "name": "account",
          "type": "address"
        },
        {
          "indexed": false,
          "internalType": "uint256",
          "name": "amount",
          "type": "uint256"
        }
      ],
      "name": "Deposit",
      "type": "event"
    },
    {
      "anonymous": false,
      "inputs": [
        {
          "indexed": false,
          "internalType": "uint256",
          "name": "amount",
          "type": "uint256"
        }
      ],
      "name": "FeesCollected",
      "type": "event"
    },
    {
      "anonymous": false,
      "inputs": [
        {
          "indexed": true,
          "internalType": "address",
          "name": "previousOwner",
          "type": "address"
        },
        {
          "indexed": true,
          "internalType": "address",
          "name": "newOwner",
          "type": "address"
        }
      ],
      "name": "OwnershipTransferred",
      "type": "event"
    },
    {
      "anonymous": false,
      "inputs": [
        {
          "indexed": false,
          "internalType": "address",
          "name": "account",
          "type": "address"
        }
      ],
      "name": "Paused",
      "type": "event"
    },
    {
      "anonymous": false,
      "inputs": [
        {
          "indexed": true,
          "internalType": "address",
          "name": "from",
          "type": "address"
        },
        {
          "indexed": true,
          "internalType": "address",
          "name": "to",
          "type": "address"
        },
        {
          "indexed": false,
          "internalType": "uint256",
          "name": "value",
          "type": "uint256"
        }
      ],
      "name": "Transfer",
      "type": "event"
    },
    {
      "anonymous": false,
      "inputs": [
        {
          "indexed": false,
          "internalType": "address",
          "name": "account",
          "type": "address"
        }
      ],
      "name": "Unpaused",
      "type": "event"
    },
    {
      "anonymous": false,
      "inputs": [
        {
          "indexed": false,
          "internalType": "bool",
          "name": "hasProfit",
          "type": "bool"
        },
        {
          "indexed": false,
          "internalType": "uint256",
          "name": "pnl",
          "type": "uint256"
        },
        {
          "indexed": false,
          "internalType": "uint256",
          "name": "fee",
          "type": "uint256"
        }
      ],
      "name": "VaultUpdated",
      "type": "event"
    },
    {
      "anonymous": false,
      "inputs": [
        {
          "indexed": true,
          "internalType": "address",
          "name": "account",
          "type": "address"
        },
        {
          "indexed": false,
          "internalType": "uint256",
          "name": "amount",
          "type": "uint256"
        }
      ],
      "name": "Withdraw",
      "type": "event"
    },
    {
      "inputs": [],
      "name": "MAX_BPS_EXTENDED",
      "outputs": [
        {
          "internalType": "uint256",
          "name": "",
          "type": "uint256"
        }
      ],
      "stateMutability": "view",
      "type": "function"
    },
    {
      "inputs": [
        {
          "internalType": "address",
          "name": "owner",
          "type": "address"
        },
        {
          "internalType": "address",
          "name": "spender",
          "type": "address"
        }
      ],
      "name": "allowance",
      "outputs": [
        {
          "internalType": "uint256",
          "name": "",
          "type": "uint256"
        }
      ],
      "stateMutability": "view",
      "type": "function"
    },
    {
      "inputs": [
        {
          "internalType": "address",
          "name": "spender",
          "type": "address"
        },
        {
          "internalType": "uint256",
          "name": "amount",
          "type": "uint256"
        }
      ],
      "name": "approve",
      "outputs": [
        {
          "internalType": "bool",
          "name": "",
          "type": "bool"
        }
      ],
      "stateMutability": "nonpayable",
      "type": "function"
    },
    {
      "inputs": [],
      "name": "asset",
      "outputs": [
        {
          "internalType": "address",
          "name": "",
          "type": "address"
        }
      ],
      "stateMutability": "view",
      "type": "function"
    },
    {
      "inputs": [
        {
          "internalType": "address",
          "name": "account",
          "type": "address"
        }
      ],
      "name": "balanceOf",
      "outputs": [
        {
          "internalType": "uint256",
          "name": "",
          "type": "uint256"
        }
      ],
      "stateMutability": "view",
      "type": "function"
    },
    {
      "inputs": [],
      "name": "decimals",
      "outputs": [
        {
          "internalType": "uint8",
          "name": "",
          "type": "uint8"
        }
      ],
      "stateMutability": "view",
      "type": "function"
    },
    {
      "inputs": [
        {
          "internalType": "address",
          "name": "spender",
          "type": "address"
        },
        {
          "internalType": "uint256",
          "name": "subtractedValue",
          "type": "uint256"
        }
      ],
      "name": "decreaseAllowance",
      "outputs": [
        {
          "internalType": "bool",
          "name": "",
          "type": "bool"
        }
      ],
      "stateMutability": "nonpayable",
      "type": "function"
    },
    {
      "inputs": [
        {
          "internalType": "uint256",
          "name": "_amount",
          "type": "uint256"
        },
        {
          "internalType": "address",
          "name": "_receiver",
          "type": "address"
        }
      ],
      "name": "deposit",
      "outputs": [
        {
          "internalType": "uint256",
          "name": "",
          "type": "uint256"
        }
      ],
      "stateMutability": "nonpayable",
      "type": "function"
    },
    {
      "inputs": [],
      "name": "distributePnl",
      "outputs": [],
      "stateMutability": "nonpayable",
      "type": "function"
    },
    {
      "inputs": [],
      "name": "fundingFeeReserve",
      "outputs": [
        {
          "internalType": "uint256",
          "name": "",
          "type": "uint256"
        }
      ],
      "stateMutability": "view",
      "type": "function"
    },
    {
      "inputs": [],
      "name": "getAmountInAndUpdateVaultBalance",
      "outputs": [
        {
          "internalType": "uint256",
          "name": "",
          "type": "uint256"
        }
      ],
      "stateMutability": "nonpayable",
      "type": "function"
    },
    {
      "inputs": [],
      "name": "getFullProfitUnlockDate",
      "outputs": [
        {
          "internalType": "uint256",
          "name": "",
          "type": "uint256"
        }
      ],
      "stateMutability": "view",
      "type": "function"
    },
    {
      "inputs": [
        {
          "internalType": "address",
          "name": "spender",
          "type": "address"
        },
        {
          "internalType": "uint256",
          "name": "addedValue",
          "type": "uint256"
        }
      ],
      "name": "increaseAllowance",
      "outputs": [
        {
          "internalType": "bool",
          "name": "",
          "type": "bool"
        }
      ],
      "stateMutability": "nonpayable",
      "type": "function"
    },
    {
      "inputs": [],
      "name": "lastProfitUpdate",
      "outputs": [
        {
          "internalType": "uint256",
          "name": "",
          "type": "uint256"
        }
      ],
      "stateMutability": "view",
      "type": "function"
    },
    {
      "inputs": [],
      "name": "name",
      "outputs": [
        {
          "internalType": "string",
          "name": "",
          "type": "string"
        }
      ],
      "stateMutability": "view",
      "type": "function"
    },
    {
      "inputs": [],
      "name": "owner",
      "outputs": [
        {
          "internalType": "address",
          "name": "",
          "type": "address"
        }
      ],
      "stateMutability": "view",
      "type": "function"
    },
    {
      "inputs": [],
      "name": "paused",
      "outputs": [
        {
          "internalType": "bool",
          "name": "",
          "type": "bool"
        }
      ],
      "stateMutability": "view",
      "type": "function"
    },
    {
      "inputs": [
        {
          "internalType": "uint256",
          "name": "_payoutAmount",
          "type": "uint256"
        },
        {
          "internalType": "address",
          "name": "_receiver",
          "type": "address"
        }
      ],
      "name": "payout",
      "outputs": [],
      "stateMutability": "nonpayable",
      "type": "function"
    },
    {
      "inputs": [],
      "name": "pricePerShare",
      "outputs": [
        {
          "internalType": "uint256",
          "name": "",
          "type": "uint256"
        }
      ],
      "stateMutability": "view",
      "type": "function"
    },
    {
      "inputs": [
        {
          "internalType": "uint256",
          "name": "_delta",
          "type": "uint256"
        }
      ],
      "name": "realizeLoss",
      "outputs": [],
      "stateMutability": "nonpayable",
      "type": "function"
    },
    {
      "inputs": [
        {
          "internalType": "uint256",
          "name": "_delta",
          "type": "uint256"
        }
      ],
      "name": "realizeProfit",
      "outputs": [],
      "stateMutability": "nonpayable",
      "type": "function"
    },
    {
      "inputs": [],
      "name": "realizedLoss",
      "outputs": [
        {
          "internalType": "uint256",
          "name": "",
          "type": "uint256"
        }
      ],
      "stateMutability": "view",
      "type": "function"
    },
    {
      "inputs": [],
      "name": "realizedProfit",
      "outputs": [
        {
          "internalType": "uint256",
          "name": "",
          "type": "uint256"
        }
      ],
      "stateMutability": "view",
      "type": "function"
    },
    {
      "inputs": [
        {
          "internalType": "uint256",
          "name": "_shares",
          "type": "uint256"
        },
        {
          "internalType": "address",
          "name": "_receiver",
          "type": "address"
        }
      ],
      "name": "redeem",
      "outputs": [
        {
          "internalType": "uint256",
          "name": "",
          "type": "uint256"
        }
      ],
      "stateMutability": "nonpayable",
      "type": "function"
    },
    {
      "inputs": [],
      "name": "renounceOwnership",
      "outputs": [],
      "stateMutability": "nonpayable",
      "type": "function"
    },
    {
      "inputs": [
        {
          "internalType": "uint256",
          "name": "_cap",
          "type": "uint256"
        }
      ],
      "name": "setDepositCap",
      "outputs": [],
      "stateMutability": "nonpayable",
      "type": "function"
    },
    {
      "inputs": [],
      "name": "settledLoss",
      "outputs": [
        {
          "internalType": "uint256",
          "name": "",
          "type": "uint256"
        }
      ],
      "stateMutability": "view",
      "type": "function"
    },
    {
      "inputs": [],
      "name": "settledProfit",
      "outputs": [
        {
          "internalType": "uint256",
          "name": "",
          "type": "uint256"
        }
      ],
      "stateMutability": "view",
      "type": "function"
    },
    {
      "inputs": [],
      "name": "stableVault",
      "outputs": [
        {
          "internalType": "address",
          "name": "",
          "type": "address"
        }
      ],
      "stateMutability": "view",
      "type": "function"
    },
    {
      "inputs": [],
      "name": "symbol",
      "outputs": [
        {
          "internalType": "string",
          "name": "",
          "type": "string"
        }
      ],
      "stateMutability": "view",
      "type": "function"
    },
    {
      "inputs": [],
      "name": "totalAssets",
      "outputs": [
        {
          "internalType": "uint256",
          "name": "",
          "type": "uint256"
        }
      ],
      "stateMutability": "view",
      "type": "function"
    },
    {
      "inputs": [],
      "name": "totalManagedAssets",
      "outputs": [
        {
          "internalType": "uint256",
          "name": "",
          "type": "uint256"
        }
      ],
      "stateMutability": "view",
      "type": "function"
    },
    {
      "inputs": [],
      "name": "totalSupply",
      "outputs": [
        {
          "internalType": "uint256",
          "name": "",
          "type": "uint256"
        }
      ],
      "stateMutability": "view",
      "type": "function"
    },
    {
      "inputs": [],
      "name": "tradingEngine",
      "outputs": [
        {
          "internalType": "contract ITradingEngine",
          "name": "",
          "type": "address"
        }
      ],
      "stateMutability": "view",
      "type": "function"
    },
    {
      "inputs": [
        {
          "internalType": "address",
          "name": "to",
          "type": "address"
        },
        {
          "internalType": "uint256",
          "name": "amount",
          "type": "uint256"
        }
      ],
      "name": "transfer",
      "outputs": [
        {
          "internalType": "bool",
          "name": "",
          "type": "bool"
        }
      ],
      "stateMutability": "nonpayable",
      "type": "function"
    },
    {
      "inputs": [
        {
          "internalType": "address",
          "name": "from",
          "type": "address"
        },
        {
          "internalType": "address",
          "name": "to",
          "type": "address"
        },
        {
          "internalType": "uint256",
          "name": "amount",
          "type": "uint256"
        }
      ],
      "name": "transferFrom",
      "outputs": [
        {
          "internalType": "bool",
          "name": "",
          "type": "bool"
        }
      ],
      "stateMutability": "nonpayable",
      "type": "function"
    },
    {
      "inputs": [
        {
          "internalType": "address",
          "name": "newOwner",
          "type": "address"
        }
      ],
      "name": "transferOwnership",
      "outputs": [],
      "stateMutability": "nonpayable",
      "type": "function"
    },
    {
      "inputs": [
        {
          "internalType": "bool",
          "name": "hasProfit",
          "type": "bool"
        },
        {
          "internalType": "uint256",
          "name": "pnl",
          "type": "uint256"
        },
        {
          "internalType": "uint256",
          "name": "fee",
          "type": "uint256"
        }
      ],
      "name": "updateVault",
      "outputs": [],
      "stateMutability": "nonpayable",
      "type": "function"
    },
    {
      "inputs": [
        {
          "internalType": "uint256",
          "name": "_amount",
          "type": "uint256"
        },
        {
          "internalType": "address",
          "name": "_receiver",
          "type": "address"
        }
      ],
      "name": "withdraw",
      "outputs": [
        {
          "internalType": "uint256",
          "name": "",
          "type": "uint256"
        }
      ],
      "stateMutability": "nonpayable",
      "type": "function"
    }
  ],
  "bytecode": {
    "object": "0x60c06040523480156200001157600080fd5b5060405162002912380380620029128339810160408190526200003491620002a2565b826001600160a01b03166306fdde036040518163ffffffff1660e01b8152600401600060405180830381865afa15801562000073573d6000803e3d6000fd5b505050506040513d6000823e601f3d908101601f191682016040526200009d91908101906200031f565b604051602001620000af9190620003d7565b604051602081830303815290604052836001600160a01b03166395d89b416040518163ffffffff1660e01b8152600401600060405180830381865afa158015620000fd573d6000803e3d6000fd5b505050506040513d6000823e601f3d908101601f191682016040526200012791908101906200031f565b826040516020016200013b92919062000403565b60408051601f198184030181529190526003620001598382620004d0565b506004620001688282620004d0565b50506001600555506006805460ff1916905562000185336200022b565b6001600160a01b03831660808190526040805163313ce56760e01b8152905163313ce567916004808201926020929091908290030181865afa158015620001d0573d6000803e3d6000fd5b505050506040513d601f19601f82011682018060405250810190620001f691906200059c565b60ff1660a0525062093a80601255601580546001600160a01b0319166001600160a01b039290921691909117905550620005c8565b600680546001600160a01b03838116610100818102610100600160a81b031985161790945560405193909204169182907f8be0079c531659141344cd1fd0a4f28419497f9722a3daafe3b4186f6b6457e090600090a35050565b80516001600160a01b03811681146200029d57600080fd5b919050565b600080600060608486031215620002b857600080fd5b620002c38462000285565b9250620002d36020850162000285565b9150604084015190509250925092565b634e487b7160e01b600052604160045260246000fd5b60005b8381101562000316578181015183820152602001620002fc565b50506000910152565b6000602082840312156200033257600080fd5b81516001600160401b03808211156200034a57600080fd5b818401915084601f8301126200035f57600080fd5b815181811115620003745762000374620002e3565b604051601f8201601f19908116603f011681019083821181831017156200039f576200039f620002e3565b81604052828152876020848701011115620003b957600080fd5b620003cc836020830160208801620002f9565b979650505050505050565b60008251620003eb818460208701620002f9565b650815985d5b1d60d21b920191825250600601919050565b603b60f91b81526000835162000421816001850160208801620002f9565b602d60f81b60019390910192830152506002810191909152602201919050565b600181811c908216806200045657607f821691505b6020821081036200047757634e487b7160e01b600052602260045260246000fd5b50919050565b601f821115620004cb57600081815260208120601f850160051c81016020861015620004a65750805b601f850160051c820191505b81811015620004c757828155600101620004b2565b5050505b505050565b81516001600160401b03811115620004ec57620004ec620002e3565b6200050481620004fd845462000441565b846200047d565b602080601f8311600181146200053c5760008415620005235750858301515b600019600386901b1c1916600185901b178555620004c7565b600085815260208120601f198616915b828110156200056d578886015182559484019460019091019084016200054c565b50858210156200058c5787850151600019600388901b60f8161c191681555b5050505050600190811b01905550565b600060208284031215620005af57600080fd5b815160ff81168114620005c157600080fd5b9392505050565b60805160a0516122fa62000618600039600081816102db0152610d2201526000818161031601528181610618015281816109d001528181610b8a01528181610ecc015261119501526122fa6000f3fe608060405234801561001057600080fd5b506004361061023c5760003560e01c806370a082311161013b57806395d89b41116100b8578063c27c39081161007c578063c27c3908146104b7578063dd62ed3e146104c0578063e2212a74146104d3578063f2fde38b146104e6578063f8821479146104f957600080fd5b806395d89b411461046e57806399530b0614610476578063a457c2d71461047e578063a9059cbb14610491578063be95e01a146104a457600080fd5b806386651203116100ff57806386651203146104205780638afca8f0146104335780638da5cb5b1461043c57806392f64bd514610452578063959ed32c1461046557600080fd5b806370a08231146103cb578063715018a6146103f4578063738b74f0146103fc5780637bde82f21461040557806385d966021461041857600080fd5b806336fba084116101c95780635c975abb1161018d5780635c975abb1461037e5780635cfb9fa114610389578063629bc21f1461039c5780636e553f65146103a55780636f42f9c7146103b857600080fd5b806336fba0841461030557806338d52e0f14610311578063395093511461035057806350abab791461036357806353a515451461036b57600080fd5b8063095ea7b311610210578063095ea7b31461028c57806318160ddd146102af578063216ea0c1146102b757806323b872dd146102c1578063313ce567146102d457600080fd5b8062f714ce1461024157806301e1d1141461026757806305b2bfb01461026f57806306fdde0314610277575b600080fd5b61025461024f366004611ec3565b610502565b6040519081526020015b60405180910390f35b6102546105f1565b610254610600565b61027f61068b565b60405161025e9190611f13565b61029f61029a366004611f46565b61071d565b604051901515815260200161025e565b600254610254565b6102bf610735565b005b61029f6102cf366004611f70565b610894565b60405160ff7f000000000000000000000000000000000000000000000000000000000000000016815260200161025e565b61025464e8d4a5100081565b6103387f000000000000000000000000000000000000000000000000000000000000000081565b6040516001600160a01b03909116815260200161025e565b61029f61035e366004611f46565b6108ba565b601354610254565b6102bf610379366004611fba565b6108dc565b60065460ff1661029f565b601554610338906001600160a01b031681565b610254600e5481565b6102546103b3366004611ec3565b61095b565b600754610338906001600160a01b031681565b6102546103d9366004611fef565b6001600160a01b031660009081526020819052604090205490565b6102bf610b15565b610254600d5481565b610254610413366004611ec3565b610b29565b610254610b45565b6102bf61042e36600461200a565b610ce2565b61025460145481565b60065461010090046001600160a01b0316610338565b6102bf61046036600461200a565b610cef565b61025460105481565b61027f610d09565b610254610d18565b61029f61048c366004611f46565b610d4f565b61029f61049f366004611f46565b610dd5565b6102bf6104b2366004611ec3565b610de3565b610254600f5481565b6102546104ce366004612023565b610f2a565b6102bf6104e136600461200a565b610f55565b6102bf6104f4366004611fef565b610f67565b610254600c5481565b600061050c610fe0565b610514611039565b600061052184600161107f565b9050600061052f82856110ce565b601554604051631e66cef560e01b815230600482015260248101839052600060448201529192506001600160a01b031690631e66cef590606401600060405180830381600087803b15801561058357600080fd5b505af1158015610597573d6000803e3d6000fd5b50505050836001600160a01b03167f884edad9ce6fa2440d8a54cc123490eb96d2768479d49ff9c7366125a9424364826040516105d691815260200190565b60405180910390a29150506105eb6001600555565b92915050565b60006105fb61125b565b905090565b6040516370a0823160e01b81523060048201526000907f00000000000000000000000000000000000000000000000000000000000000006001600160a01b0316906370a0823190602401602060405180830381865afa158015610667573d6000803e3d6000fd5b505050506040513d601f19601f820116820180604052508101906105fb919061204d565b60606003805461069a90612066565b80601f01602080910402602001604051908101604052809291908181526020018280546106c690612066565b80156107135780601f106106e857610100808354040283529160200191610713565b820191906000526020600020905b8154815290600101906020018083116106f657829003601f168201915b5050505050905090565b60003361072b818585611278565b5060019392505050565b61073d61139c565b6000806107486113cc565b9092509050600080821561077b57831561076d57610766833061144a565b905061077b565b61077883600161107f565b91505b306000908152602081905260408120546107969083906120b6565b905082156107ef576107b1836107ac84846120c9565b611535565b92506107bd833061154b565b60006107c98484611535565b90506107d581846120b6565b92506107e181856120b6565b6107eb90836120b6565b9150505b60006107fb83836120c9565b90508015610886576000426013541115610820574260135461081d91906120b6565b90505b6000826012548661083191906120dc565b61083b84876120dc565b61084591906120c9565b61084f9190612109565b90508061086164e8d4a51000856120dc565b61086b9190612109565b60115561087881426120c9565b60135550504260145561088c565b60006011555b505050505050565b6000336108a2858285611555565b6108ad8585856115cf565b60019150505b9392505050565b60003361072b8185856108cd8383610f2a565b6108d791906120c9565b611278565b6015546001600160a01b0316331461090f5760405162461bcd60e51b81526004016109069061212b565b60405180910390fd5b826109315781600e600082825461092691906120c9565b909155506109499050565b81600d600082825461094391906120c9565b90915550505b8261095657610956610735565b505050565b6000610965610fe0565b61096d611039565b6001600160a01b0382166109c35760405162461bcd60e51b815260206004820152601f60248201527f72656365697665722063616e6e6f74206265207a65726f2061646472657373006044820152606401610906565b6109f86001600160a01b037f000000000000000000000000000000000000000000000000000000000000000016333086611773565b8260096000828254610a0a91906120c9565b9250508190555082600a6000828254610a2391906120c9565b9091555050601554604051631e66cef560e01b815230600482015260248101859052600160448201526001600160a01b0390911690631e66cef590606401600060405180830381600087803b158015610a7b57600080fd5b505af1158015610a8f573d6000803e3d6000fd5b50505050816001600160a01b03167fe1fffcc4923d04b559f4d29a8bfc6cda04eb5b0d3c460751c2402c5c5cc9109c84604051610ace91815260200190565b60405180910390a26000805160206122a5833981519152600a54604051610af791815260200190565b60405180910390a1610b09838361144a565b90506105eb6001600555565b610b1d6117de565b610b27600061183e565b565b6000610b33610fe0565b610b3b611039565b610b0983836110ce565b6015546000906001600160a01b03163314610b725760405162461bcd60e51b81526004016109069061212b565b6040516370a0823160e01b81523060048201526000907f00000000000000000000000000000000000000000000000000000000000000006001600160a01b0316906370a0823190602401602060405180830381865afa158015610bd9573d6000803e3d6000fd5b505050506040513d601f19601f82011682018060405250810190610bfd919061204d565b90506000600a5482610c0f91906120b6565b90508015610cb357601554604051631e66cef560e01b815230600482015260248101839052600160448201526001600160a01b0390911690631e66cef590606401600060405180830381600087803b158015610c6a57600080fd5b505af1158015610c7e573d6000803e3d6000fd5b5050505080600a6000828254610c9491906120c9565b9250508190555080600b6000828254610cad91906120c9565b90915550505b6000805160206122a5833981519152600a54604051610cd491815260200190565b60405180910390a191505090565b610cea6117de565b600855565b80600e6000828254610d0191906120c9565b909155505050565b60606004805461069a90612066565b60006105fb610d487f0000000000000000000000000000000000000000000000000000000000000000600a612246565b6000611898565b60003381610d5d8286610f2a565b905083811015610dbd5760405162461bcd60e51b815260206004820152602560248201527f45524332303a2064656372656173656420616c6c6f77616e63652062656c6f77604482015264207a65726f60d81b6064820152608401610906565b610dca8286868403611278565b506001949350505050565b60003361072b8185856115cf565b610deb610fe0565b6015546001600160a01b03163314610e155760405162461bcd60e51b81526004016109069061212b565b81600003610e655760405162461bcd60e51b815260206004820152601d60248201527f616d6f756e74206d7573742062652067726561746572207468616e20300000006044820152606401610906565b6001600160a01b038116610ea75760405162461bcd60e51b815260206004820152600960248201526806164647265737320360bc1b6044820152606401610906565b81600a6000828254610eb991906120b6565b90915550610ef390506001600160a01b037f00000000000000000000000000000000000000000000000000000000000000001682846118d3565b6000805160206122a5833981519152600a54604051610f1491815260200190565b60405180910390a1610f266001600555565b5050565b6001600160a01b03918216600090815260016020908152604080832093909416825291909152205490565b80600d6000828254610d0191906120c9565b610f6f6117de565b6001600160a01b038116610fd45760405162461bcd60e51b815260206004820152602660248201527f4f776e61626c653a206e6577206f776e657220697320746865207a65726f206160448201526564647265737360d01b6064820152608401610906565b610fdd8161183e565b50565b6002600554036110325760405162461bcd60e51b815260206004820152601f60248201527f5265656e7472616e637947756172643a207265656e7472616e742063616c6c006044820152606401610906565b6002600555565b60065460ff1615610b275760405162461bcd60e51b815260206004820152601060248201526f14185d5cd8589b194e881c185d5cd95960821b6044820152606401610906565b60008061108b60025490565b905060006110976105f1565b9050806000036110b95781156110ae5760006110b0565b845b925050506105eb565b6110c585838387611903565b95945050505050565b336000908152602081905260408120546000841161111f5760405162461bcd60e51b815260206004820152600e60248201526d125b9d985b1a5908185b5bdd5b9d60921b6044820152606401610906565b6000811161116f5760405162461bcd60e51b815260206004820152601d60248201527f696e73756666696369656e742073686172657320746f2072656465656d0000006044820152606401610906565b600061117c856000611898565b9050611188853361154b565b6111bc6001600160a01b037f00000000000000000000000000000000000000000000000000000000000000001685836118d3565b80600960008282546111ce91906120b6565b9250508190555080600a60008282546111e791906120b6565b90915550506040518181526001600160a01b038516907f884edad9ce6fa2440d8a54cc123490eb96d2768479d49ff9c7366125a94243649060200160405180910390a26000805160206122a5833981519152600a5460405161124b91815260200190565b60405180910390a1949350505050565b60006105fb600f5460095461127091906120c9565b60105461195e565b6001600160a01b0383166112da5760405162461bcd60e51b8152602060048201526024808201527f45524332303a20617070726f76652066726f6d20746865207a65726f206164646044820152637265737360e01b6064820152608401610906565b6001600160a01b03821661133b5760405162461bcd60e51b815260206004820152602260248201527f45524332303a20617070726f766520746f20746865207a65726f206164647265604482015261737360f01b6064820152608401610906565b6001600160a01b0383811660008181526001602090815260408083209487168084529482529182902085905590518481527f8c5be1e5ebec7d5bd14f71427d1e84f3dd0314c0f7b2291e5b200ac8c7c3b925910160405180910390a3505050565b60006113a6611978565b9050806000036113b35750565b4260135411156113c257426014555b610fdd30826119d4565b600080600d54600f60008282546113e391906120c9565b9091555050600e54601080546000906113fd9084906120c9565b9091555050600e54600d5411156114295760019150600e54600d5461142291906120b6565b905061143c565b600d54600e5461143991906120b6565b90505b6000600d819055600e559091565b60008061145660025490565b905060006114626105f1565b90506000826000036114755750846114db565b8582111561149a576114938361148b88856120b6565b889190611b06565b90506114db565b8186106114db5760405162461bcd60e51b815260206004820152600f60248201526e0c2dadeeadce840e8dede40d0d2ced608b1b6044820152606401610906565b6000811161152b5760405162461bcd60e51b815260206004820152601d60248201527f736861726573206d7573742062652067726561746572207468616e20300000006044820152606401610906565b6110c58582611bf0565b600081831061154457816108b3565b5090919050565b610f2681836119d4565b60006115618484610f2a565b905060001981146115c957818110156115bc5760405162461bcd60e51b815260206004820152601d60248201527f45524332303a20696e73756666696369656e7420616c6c6f77616e63650000006044820152606401610906565b6115c98484848403611278565b50505050565b6001600160a01b0383166116335760405162461bcd60e51b815260206004820152602560248201527f45524332303a207472616e736665722066726f6d20746865207a65726f206164604482015264647265737360d81b6064820152608401610906565b6001600160a01b0382166116955760405162461bcd60e51b815260206004820152602360248201527f45524332303a207472616e7366657220746f20746865207a65726f206164647260448201526265737360e81b6064820152608401610906565b6001600160a01b0383166000908152602081905260409020548181101561170d5760405162461bcd60e51b815260206004820152602660248201527f45524332303a207472616e7366657220616d6f756e7420657863656564732062604482015265616c616e636560d01b6064820152608401610906565b6001600160a01b03848116600081815260208181526040808320878703905593871680835291849020805487019055925185815290927fddf252ad1be2c89b69c2b068fc378daa952ba7f163c4a11628f55a4df523b3ef910160405180910390a36115c9565b6040516001600160a01b03808516602483015283166044820152606481018290526115c99085906323b872dd60e01b906084015b60408051601f198184030181529190526020810180516001600160e01b03166001600160e01b031990931692909217909152611caf565b6006546001600160a01b03610100909104163314610b275760405162461bcd60e51b815260206004820181905260248201527f4f776e61626c653a2063616c6c6572206973206e6f7420746865206f776e65726044820152606401610906565b600680546001600160a01b03838116610100818102610100600160a81b031985161790945560405193909204169182907f8be0079c531659141344cd1fd0a4f28419497f9722a3daafe3b4186f6b6457e090600090a35050565b6000806118a460025490565b9050806000036118b757839150506105eb565b6118cb6118c26105f1565b85908386611903565b949350505050565b6040516001600160a01b03831660248201526044810182905261095690849063a9059cbb60e01b906064016117a7565b600080611911868686611b06565b9050600183600281111561192757611927612255565b14801561194457506000848061193f5761193f6120f3565b868809115b156110c5576119546001826120c9565b9695505050505050565b600081831161196e5760006108b3565b6108b382846120b6565b60135460009081428211156119b95764e8d4a510006014544261199b91906120b6565b6011546119a891906120dc565b6119b29190612109565b90506105eb565b81156105eb57306000908152602081905260409020546108b3565b6001600160a01b038216611a345760405162461bcd60e51b815260206004820152602160248201527f45524332303a206275726e2066726f6d20746865207a65726f206164647265736044820152607360f81b6064820152608401610906565b6001600160a01b03821660009081526020819052604090205481811015611aa85760405162461bcd60e51b815260206004820152602260248201527f45524332303a206275726e20616d6f756e7420657863656564732062616c616e604482015261636560f01b6064820152608401610906565b6001600160a01b0383166000818152602081815260408083208686039055600280548790039055518581529192917fddf252ad1be2c89b69c2b068fc378daa952ba7f163c4a11628f55a4df523b3ef910160405180910390a3505050565b6000808060001985870985870292508281108382030391505080600003611b4057838281611b3657611b366120f3565b04925050506108b3565b808411611b875760405162461bcd60e51b81526020600482015260156024820152744d6174683a206d756c446976206f766572666c6f7760581b6044820152606401610906565b60008486880960026001871981018816978890046003810283188082028403028082028403028082028403028082028403028082028403029081029092039091026000889003889004909101858311909403939093029303949094049190911702949350505050565b6001600160a01b038216611c465760405162461bcd60e51b815260206004820152601f60248201527f45524332303a206d696e7420746f20746865207a65726f2061646472657373006044820152606401610906565b8060026000828254611c5891906120c9565b90915550506001600160a01b038216600081815260208181526040808320805486019055518481527fddf252ad1be2c89b69c2b068fc378daa952ba7f163c4a11628f55a4df523b3ef910160405180910390a35050565b6000611d04826040518060400160405280602081526020017f5361666545524332303a206c6f772d6c6576656c2063616c6c206661696c6564815250856001600160a01b0316611d849092919063ffffffff16565b9050805160001480611d25575080806020019051810190611d25919061226b565b6109565760405162461bcd60e51b815260206004820152602a60248201527f5361666545524332303a204552433230206f7065726174696f6e20646964206e6044820152691bdd081cdd58d8d9595960b21b6064820152608401610906565b60606118cb848460008585600080866001600160a01b03168587604051611dab9190612288565b60006040518083038185875af1925050503d8060008114611de8576040519150601f19603f3d011682016040523d82523d6000602084013e611ded565b606091505b5091509150611dfe87838387611e09565b979650505050505050565b60608315611e78578251600003611e71576001600160a01b0385163b611e715760405162461bcd60e51b815260206004820152601d60248201527f416464726573733a2063616c6c20746f206e6f6e2d636f6e74726163740000006044820152606401610906565b50816118cb565b6118cb8383815115611e8d5781518083602001fd5b8060405162461bcd60e51b81526004016109069190611f13565b80356001600160a01b0381168114611ebe57600080fd5b919050565b60008060408385031215611ed657600080fd5b82359150611ee660208401611ea7565b90509250929050565b60005b83811015611f0a578181015183820152602001611ef2565b50506000910152565b6020815260008251806020840152611f32816040850160208701611eef565b601f01601f19169190910160400192915050565b60008060408385031215611f5957600080fd5b611f6283611ea7565b946020939093013593505050565b600080600060608486031215611f8557600080fd5b611f8e84611ea7565b9250611f9c60208501611ea7565b9150604084013590509250925092565b8015158114610fdd57600080fd5b600080600060608486031215611fcf57600080fd5b8335611fda81611fac565b95602085013595506040909401359392505050565b60006020828403121561200157600080fd5b6108b382611ea7565b60006020828403121561201c57600080fd5b5035919050565b6000806040838503121561203657600080fd5b61203f83611ea7565b9150611ee660208401611ea7565b60006020828403121561205f57600080fd5b5051919050565b600181811c9082168061207a57607f821691505b60208210810361209a57634e487b7160e01b600052602260045260246000fd5b50919050565b634e487b7160e01b600052601160045260246000fd5b818103818111156105eb576105eb6120a0565b808201808211156105eb576105eb6120a0565b80820281158282048414176105eb576105eb6120a0565b634e487b7160e01b600052601260045260246000fd5b60008261212657634e487b7160e01b600052601260045260246000fd5b500490565b6020808252601a908201527f5661756c743a206f6e6c792074726164696e6720656e67696e65000000000000604082015260600190565b600181815b8085111561219d578160001904821115612183576121836120a0565b8085161561219057918102915b93841c9390800290612167565b509250929050565b6000826121b4575060016105eb565b816121c1575060006105eb565b81600181146121d757600281146121e1576121fd565b60019150506105eb565b60ff8411156121f2576121f26120a0565b50506001821b6105eb565b5060208310610133831016604e8410600b8410161715612220575081810a6105eb565b61222a8383612162565b806000190482111561223e5761223e6120a0565b029392505050565b60006108b360ff8416836121a5565b634e487b7160e01b600052602160045260246000fd5b60006020828403121561227d57600080fd5b81516108b381611fac565b6000825161229a818460208701611eef565b919091019291505056fe04be25a4c0fe4c39136ca055daaac08ac6b3041b2e1f2a1b698bac12f1cbdc4aa2646970667358221220733b713c8d80f177ef35622d6b9af50c449d7385d92a6548f7ed2f0611ebd4d864736f6c63430008140033",
    "linkReferences": {}
  },
  "methodIdentifiers": {
    "MAX_BPS_EXTENDED()": "36fba084",
    "allowance(address,address)": "dd62ed3e",
    "approve(address,uint256)": "095ea7b3",
    "asset()": "38d52e0f",
    "balanceOf(address)": "70a08231",
    "decimals()": "313ce567",
    "decreaseAllowance(address,uint256)": "a457c2d7",
    "deposit(uint256,address)": "6e553f65",
    "distributePnl()": "216ea0c1",
    "fundingFeeReserve()": "f8821479",
    "getAmountInAndUpdateVaultBalance()": "85d96602",
    "getFullProfitUnlockDate()": "50abab79",
    "increaseAllowance(address,uint256)": "39509351",
    "lastProfitUpdate()": "8afca8f0",
    "name()": "06fdde03",
    "owner()": "8da5cb5b",
    "paused()": "5c975abb",
    "payout(uint256,address)": "be95e01a",
    "pricePerShare()": "99530b06",
    "realizeLoss(uint256)": "92f64bd5",
    "realizeProfit(uint256)": "e2212a74",
    "realizedLoss()": "629bc21f",
    "realizedProfit()": "738b74f0",
    "redeem(uint256,address)": "7bde82f2",
    "renounceOwnership()": "715018a6",
    "setDepositCap(uint256)": "86651203",
    "settledLoss()": "959ed32c",
    "settledProfit()": "c27c3908",
    "stableVault()": "6f42f9c7",
    "symbol()": "95d89b41",
    "totalAssets()": "01e1d114",
    "totalManagedAssets()": "05b2bfb0",
    "totalSupply()": "18160ddd",
    "tradingEngine()": "5cfb9fa1",
    "transfer(address,uint256)": "a9059cbb",
    "transferFrom(address,address,uint256)": "23b872dd",
    "transferOwnership(address)": "f2fde38b",
    "updateVault(bool,uint256,uint256)": "53a51545",
    "withdraw(uint256,address)": "00f714ce"
  },
  "id": 19
}